{
	"data": {
		"bytecode": {
			"linkReferences": {},
			"object": "608060405234801561001057600080fd5b5060405161128938038061128983398101604081905261002f916100d4565b60008054336001600160a01b0319918216811790925560018054909116909117905561005a81610060565b50610153565b3360009081526008602052604090205460ff1615156001148061008d57506000546001600160a01b031633145b6100b25760405162461bcd60e51b81526004016100a990610102565b60405180910390fd5b600580546001600160a01b0319166001600160a01b0392909216919091179055565b6000602082840312156100e5578081fd5b81516001600160a01b03811681146100fb578182fd5b9392505050565b60208082526031908201527f4f6e6c7920417574686f72697a656420616e64204f776e65722063616e207065604082015270393337b936903a3434b99030b1ba34b7b760791b606082015260800190565b611127806101626000396000f3fe6080604052600436106101145760003560e01c8063813907ae116100a0578063c604061c11610064578063c604061c146102c9578063e668a1cf146102de578063ec9b9a6f146102fe578063f2fde38b14610311578063f851a4401461033157610114565b8063813907ae1461023f5780638da5cb5b1461025f57806398f6ef1214610274578063ac6b439314610294578063b6e6ee19146102a957610114565b80632c388d5d116100e75780632c388d5d146101b557806334e19907146101d5578063650ad8ce146101f5578063715018a61461020a5780638081cecd1461021f57610114565b806304c967581461011957806310fe9ae8146101445780631bcd250a1461016657806326a4e8d214610193575b600080fd5b34801561012557600080fd5b5061012e610346565b60405161013b9190610fe6565b60405180910390f35b34801561015057600080fd5b5061015961034c565b60405161013b9190610e3d565b34801561017257600080fd5b50610186610181366004610d37565b61035b565b60405161013b9190610e8e565b34801561019f57600080fd5b506101b36101ae366004610d37565b6103f0565b005b3480156101c157600080fd5b506101866101d0366004610d37565b61045b565b3480156101e157600080fd5b506101866101f0366004610db3565b6104d9565b34801561020157600080fd5b50610186610569565b34801561021657600080fd5b506101b361065a565b34801561022b57600080fd5b5061018661023a366004610db3565b6106cc565b34801561024b57600080fd5b506101b361025a366004610d81565b6107b2565b34801561026b57600080fd5b50610159610929565b34801561028057600080fd5b5061018661028f366004610d37565b610938565b3480156102a057600080fd5b5061012e61094d565b3480156102b557600080fd5b5061012e6102c4366004610d37565b610953565b3480156102d557600080fd5b5061012e610965565b3480156102ea57600080fd5b506101866102f9366004610d58565b61096b565b6101b361030c366004610dcb565b61098b565b34801561031d57600080fd5b506101b361032c366004610d37565b610b33565b34801561033d57600080fd5b50610159610bcb565b60025481565b6005546001600160a01b031690565b600080546001600160a01b0316331461038f5760405162461bcd60e51b815260040161038690610f68565b60405180910390fd5b6001600160a01b03821660009081526008602052604090819020805460ff19169055517f9e8ca6ff03906e81e8a6a03d4f96b7edb0b97f0ed9d07ef1b699fff634385496906103df908490610e3d565b60405180910390a15060015b919050565b3360009081526008602052604090205460ff1615156001148061041d57506000546001600160a01b031633145b6104395760405162461bcd60e51b815260040161038690610f95565b600580546001600160a01b0319166001600160a01b0392909216919091179055565b600080546001600160a01b031633146104865760405162461bcd60e51b815260040161038690610f68565b6001600160a01b03821660009081526008602052604090819020805460ff19166001179055517f8afeca650897be3183b7c0d24eba96a1b990f75c4bd74a0cfb2c0a71aec48e61906103df908490610e3d565b3360009081526008602052604081205460ff1615156001148061050657506000546001600160a01b031633145b6105225760405162461bcd60e51b815260040161038690610f95565b600282905560405133907f249cad7392d218891bfa00cd4e48f39b08f37ff89e36a340132fa9415b959e4990610559908590610fe6565b60405180910390a2506001919050565b3360009081526008602052604081205460ff1615156001148061059657506000546001600160a01b031633145b6105b25760405162461bcd60e51b815260040161038690610f95565b60045433906105d35760405162461bcd60e51b815260040161038690610f03565b6004546040516001600160a01b0383169180156108fc02916000818181858888f1935050505015801561060a573d6000803e3d6000fd5b50336001600160a01b03167ffd45f8e49cb2e6d825185846f6b2d24dd23e4d051673ea35211e64252bac95286004546040516106469190610fe6565b60405180910390a250506000600455600190565b6000546001600160a01b031633146106845760405162461bcd60e51b815260040161038690610f68565b600080546040516001600160a01b03909116917ff8df31144d9c2f0f6b59d69b8b98abd5459d07f2742c4df920b25aae33c6482091a2600080546001600160a01b0319169055565b3360009081526008602052604081205460ff161515600114806106f957506000546001600160a01b031633145b6107155760405162461bcd60e51b815260040161038690610f95565b60055460405163a9059cbb60e01b81526001600160a01b039091169063a9059cbb906107479033908690600401610e75565b600060405180830381600087803b15801561076157600080fd5b505af1158015610775573d6000803e3d6000fd5b50505050336001600160a01b03167faaf4edea203de44937046a30f527d68f6dd388bafa36f925c4c23cab18bfc83f836040516105599190610fe6565b3360009081526008602052604090205460ff161515600114806107df57506000546001600160a01b031633145b6107fb5760405162461bcd60e51b815260040161038690610f95565b30600090815260066020908152604080832084845290915290205460ff16156108365760405162461bcd60e51b815260040161038690610f31565b3060008181526006602090815260408083208584528252808320805460ff19166001908117909155938352600790915281208054909190610878908490610ffd565b909155505060055460405163a9059cbb60e01b81526001600160a01b039091169063a9059cbb906108af9086908690600401610e75565b600060405180830381600087803b1580156108c957600080fd5b505af11580156108dd573d6000803e3d6000fd5b50505050336001600160a01b03167f554a422b9761d956d064193f424192874aa95cccdfa968a11eae3f93f83ed3c0838360405161091c929190610fef565b60405180910390a2505050565b6000546001600160a01b031681565b60086020526000908152604090205460ff1681565b60045481565b60076020526000908152604090205481565b60035481565b600660209081526000928352604080842090915290825290205460ff1681565b33600090815260066020908152604080832084845290915290205460ff16156109c65760405162461bcd60e51b815260040161038690610ecc565b3360008181526006602090815260408083208584528252808320805460ff19166001908117909155938352600790915281208054909190610a08908490610ffd565b925050819055506000610a1c600254610bda565b604051602001610a2c9190610dec565b604051602081830303815290604052905060025434148190610a615760405162461bcd60e51b81526004016103869190610e99565b503460036000828254610a749190610ffd565b925050819055503460046000828254610a8d9190610ffd565b90915550506005546040516323b872dd60e01b81526001600160a01b03909116906323b872dd90610ac690339030908890600401610e51565b600060405180830381600087803b158015610ae057600080fd5b505af1158015610af4573d6000803e3d6000fd5b50505050336001600160a01b03167fdad5be61b90ff2eb1a199136ddec958884ff0a55b052908d840c913318c3a0f8848460405161091c929190610fef565b6000546001600160a01b03163314610b5d5760405162461bcd60e51b815260040161038690610f68565b6001600160a01b038116610b7057600080fd5b600080546040516001600160a01b03808516939216917f8be0079c531659141344cd1fd0a4f28419497f9722a3daafe3b4186f6b6457e091a3600080546001600160a01b0319166001600160a01b0392909216919091179055565b6001546001600160a01b031681565b606081610bff57506040805180820190915260018152600360fc1b60208201526103eb565b8160005b8115610c295780610c13816110c0565b9150610c229050600a8361103a565b9150610c03565b60008167ffffffffffffffff811115610c5257634e487b7160e01b600052604160045260246000fd5b6040519080825280601f01601f191660200182016040528015610c7c576020820181803683370190505b509050815b8515610d1757610c92600182611079565b90506000610ca1600a8861103a565b610cac90600a61105a565b610cb69088611079565b610cc1906030611015565b905060008160f81b905080848481518110610cec57634e487b7160e01b600052603260045260246000fd5b60200101906001600160f81b031916908160001a905350610d0e600a8961103a565b97505050610c81565b50949350505050565b80356001600160a01b03811681146103eb57600080fd5b600060208284031215610d48578081fd5b610d5182610d20565b9392505050565b60008060408385031215610d6a578081fd5b610d7383610d20565b946020939093013593505050565b600080600060608486031215610d95578081fd5b610d9e84610d20565b95602085013595506040909401359392505050565b600060208284031215610dc4578081fd5b5035919050565b60008060408385031215610ddd578182fd5b50508035926020909101359150565b60007f496e76616c6964204665652c2045787065637465642066656520696e207765698252620101d160ed1b60208301528251610e30816023850160208701611090565b9190910160230192915050565b6001600160a01b0391909116815260200190565b6001600160a01b039384168152919092166020820152604081019190915260600190565b6001600160a01b03929092168252602082015260400190565b901515815260200190565b6000602082528251806020840152610eb8816040850160208701611090565b601f01601f19169190910160400192915050565b6020808252601a908201527f5472616e7366657220616c72656164792070726f636573736564000000000000604082015260600190565b602080825260149082015273496e73756666696369656e742062616c616e636560601b604082015260600190565b6020808252601a908201527f7472616e7366657220616c72656164792070726f636573736564000000000000604082015260600190565b60208082526013908201527221b0b63632b91034b9902737ba1037bbb732b960691b604082015260600190565b60208082526031908201527f4f6e6c7920417574686f72697a656420616e64204f776e65722063616e207065604082015270393337b936903a3434b99030b1ba34b7b760791b606082015260800190565b90815260200190565b918252602082015260400190565b60008219821115611010576110106110db565b500190565b600060ff821660ff84168060ff03821115611032576110326110db565b019392505050565b60008261105557634e487b7160e01b81526012600452602481fd5b500490565b6000816000190483118215151615611074576110746110db565b500290565b60008282101561108b5761108b6110db565b500390565b60005b838110156110ab578181015183820152602001611093565b838111156110ba576000848401525b50505050565b60006000198214156110d4576110d46110db565b5060010190565b634e487b7160e01b600052601160045260246000fdfea2646970667358221220f7f834afdb3a0e4eeb096040b2835685b00abd76d1d108ab538e5103f919fbcf64736f6c63430008000033",
			"opcodes": "PUSH1 0x80 PUSH1 0x40 MSTORE CALLVALUE DUP1 ISZERO PUSH2 0x10 JUMPI PUSH1 0x0 DUP1 REVERT JUMPDEST POP PUSH1 0x40 MLOAD PUSH2 0x1289 CODESIZE SUB DUP1 PUSH2 0x1289 DUP4 CODECOPY DUP2 ADD PUSH1 0x40 DUP2 SWAP1 MSTORE PUSH2 0x2F SWAP2 PUSH2 0xD4 JUMP JUMPDEST PUSH1 0x0 DUP1 SLOAD CALLER PUSH1 0x1 PUSH1 0x1 PUSH1 0xA0 SHL SUB NOT SWAP2 DUP3 AND DUP2 OR SWAP1 SWAP3 SSTORE PUSH1 0x1 DUP1 SLOAD SWAP1 SWAP2 AND SWAP1 SWAP2 OR SWAP1 SSTORE PUSH2 0x5A DUP2 PUSH2 0x60 JUMP JUMPDEST POP PUSH2 0x153 JUMP JUMPDEST CALLER PUSH1 0x0 SWAP1 DUP2 MSTORE PUSH1 0x8 PUSH1 0x20 MSTORE PUSH1 0x40 SWAP1 KECCAK256 SLOAD PUSH1 0xFF AND ISZERO ISZERO PUSH1 0x1 EQ DUP1 PUSH2 0x8D JUMPI POP PUSH1 0x0 SLOAD PUSH1 0x1 PUSH1 0x1 PUSH1 0xA0 SHL SUB AND CALLER EQ JUMPDEST PUSH2 0xB2 JUMPI PUSH1 0x40 MLOAD PUSH3 0x461BCD PUSH1 0xE5 SHL DUP2 MSTORE PUSH1 0x4 ADD PUSH2 0xA9 SWAP1 PUSH2 0x102 JUMP JUMPDEST PUSH1 0x40 MLOAD DUP1 SWAP2 SUB SWAP1 REVERT JUMPDEST PUSH1 0x5 DUP1 SLOAD PUSH1 0x1 PUSH1 0x1 PUSH1 0xA0 SHL SUB NOT AND PUSH1 0x1 PUSH1 0x1 PUSH1 0xA0 SHL SUB SWAP3 SWAP1 SWAP3 AND SWAP2 SWAP1 SWAP2 OR SWAP1 SSTORE JUMP JUMPDEST PUSH1 0x0 PUSH1 0x20 DUP3 DUP5 SUB SLT ISZERO PUSH2 0xE5 JUMPI DUP1 DUP2 REVERT JUMPDEST DUP2 MLOAD PUSH1 0x1 PUSH1 0x1 PUSH1 0xA0 SHL SUB DUP2 AND DUP2 EQ PUSH2 0xFB JUMPI DUP2 DUP3 REVERT JUMPDEST SWAP4 SWAP3 POP POP POP JUMP JUMPDEST PUSH1 0x20 DUP1 DUP3 MSTORE PUSH1 0x31 SWAP1 DUP3 ADD MSTORE PUSH32 0x4F6E6C7920417574686F72697A656420616E64204F776E65722063616E207065 PUSH1 0x40 DUP3 ADD MSTORE PUSH17 0x393337B936903A3434B99030B1BA34B7B7 PUSH1 0x79 SHL PUSH1 0x60 DUP3 ADD MSTORE PUSH1 0x80 ADD SWAP1 JUMP JUMPDEST PUSH2 0x1127 DUP1 PUSH2 0x162 PUSH1 0x0 CODECOPY PUSH1 0x0 RETURN INVALID PUSH1 0x80 PUSH1 0x40 MSTORE PUSH1 0x4 CALLDATASIZE LT PUSH2 0x114 JUMPI PUSH1 0x0 CALLDATALOAD PUSH1 0xE0 SHR DUP1 PUSH4 0x813907AE GT PUSH2 0xA0 JUMPI DUP1 PUSH4 0xC604061C GT PUSH2 0x64 JUMPI DUP1 PUSH4 0xC604061C EQ PUSH2 0x2C9 JUMPI DUP1 PUSH4 0xE668A1CF EQ PUSH2 0x2DE JUMPI DUP1 PUSH4 0xEC9B9A6F EQ PUSH2 0x2FE JUMPI DUP1 PUSH4 0xF2FDE38B EQ PUSH2 0x311 JUMPI DUP1 PUSH4 0xF851A440 EQ PUSH2 0x331 JUMPI PUSH2 0x114 JUMP JUMPDEST DUP1 PUSH4 0x813907AE EQ PUSH2 0x23F JUMPI DUP1 PUSH4 0x8DA5CB5B EQ PUSH2 0x25F JUMPI DUP1 PUSH4 0x98F6EF12 EQ PUSH2 0x274 JUMPI DUP1 PUSH4 0xAC6B4393 EQ PUSH2 0x294 JUMPI DUP1 PUSH4 0xB6E6EE19 EQ PUSH2 0x2A9 JUMPI PUSH2 0x114 JUMP JUMPDEST DUP1 PUSH4 0x2C388D5D GT PUSH2 0xE7 JUMPI DUP1 PUSH4 0x2C388D5D EQ PUSH2 0x1B5 JUMPI DUP1 PUSH4 0x34E19907 EQ PUSH2 0x1D5 JUMPI DUP1 PUSH4 0x650AD8CE EQ PUSH2 0x1F5 JUMPI DUP1 PUSH4 0x715018A6 EQ PUSH2 0x20A JUMPI DUP1 PUSH4 0x8081CECD EQ PUSH2 0x21F JUMPI PUSH2 0x114 JUMP JUMPDEST DUP1 PUSH4 0x4C96758 EQ PUSH2 0x119 JUMPI DUP1 PUSH4 0x10FE9AE8 EQ PUSH2 0x144 JUMPI DUP1 PUSH4 0x1BCD250A EQ PUSH2 0x166 JUMPI DUP1 PUSH4 0x26A4E8D2 EQ PUSH2 0x193 JUMPI JUMPDEST PUSH1 0x0 DUP1 REVERT JUMPDEST CALLVALUE DUP1 ISZERO PUSH2 0x125 JUMPI PUSH1 0x0 DUP1 REVERT JUMPDEST POP PUSH2 0x12E PUSH2 0x346 JUMP JUMPDEST PUSH1 0x40 MLOAD PUSH2 0x13B SWAP2 SWAP1 PUSH2 0xFE6 JUMP JUMPDEST PUSH1 0x40 MLOAD DUP1 SWAP2 SUB SWAP1 RETURN JUMPDEST CALLVALUE DUP1 ISZERO PUSH2 0x150 JUMPI PUSH1 0x0 DUP1 REVERT JUMPDEST POP PUSH2 0x159 PUSH2 0x34C JUMP JUMPDEST PUSH1 0x40 MLOAD PUSH2 0x13B SWAP2 SWAP1 PUSH2 0xE3D JUMP JUMPDEST CALLVALUE DUP1 ISZERO PUSH2 0x172 JUMPI PUSH1 0x0 DUP1 REVERT JUMPDEST POP PUSH2 0x186 PUSH2 0x181 CALLDATASIZE PUSH1 0x4 PUSH2 0xD37 JUMP JUMPDEST PUSH2 0x35B JUMP JUMPDEST PUSH1 0x40 MLOAD PUSH2 0x13B SWAP2 SWAP1 PUSH2 0xE8E JUMP JUMPDEST CALLVALUE DUP1 ISZERO PUSH2 0x19F JUMPI PUSH1 0x0 DUP1 REVERT JUMPDEST POP PUSH2 0x1B3 PUSH2 0x1AE CALLDATASIZE PUSH1 0x4 PUSH2 0xD37 JUMP JUMPDEST PUSH2 0x3F0 JUMP JUMPDEST STOP JUMPDEST CALLVALUE DUP1 ISZERO PUSH2 0x1C1 JUMPI PUSH1 0x0 DUP1 REVERT JUMPDEST POP PUSH2 0x186 PUSH2 0x1D0 CALLDATASIZE PUSH1 0x4 PUSH2 0xD37 JUMP JUMPDEST PUSH2 0x45B JUMP JUMPDEST CALLVALUE DUP1 ISZERO PUSH2 0x1E1 JUMPI PUSH1 0x0 DUP1 REVERT JUMPDEST POP PUSH2 0x186 PUSH2 0x1F0 CALLDATASIZE PUSH1 0x4 PUSH2 0xDB3 JUMP JUMPDEST PUSH2 0x4D9 JUMP JUMPDEST CALLVALUE DUP1 ISZERO PUSH2 0x201 JUMPI PUSH1 0x0 DUP1 REVERT JUMPDEST POP PUSH2 0x186 PUSH2 0x569 JUMP JUMPDEST CALLVALUE DUP1 ISZERO PUSH2 0x216 JUMPI PUSH1 0x0 DUP1 REVERT JUMPDEST POP PUSH2 0x1B3 PUSH2 0x65A JUMP JUMPDEST CALLVALUE DUP1 ISZERO PUSH2 0x22B JUMPI PUSH1 0x0 DUP1 REVERT JUMPDEST POP PUSH2 0x186 PUSH2 0x23A CALLDATASIZE PUSH1 0x4 PUSH2 0xDB3 JUMP JUMPDEST PUSH2 0x6CC JUMP JUMPDEST CALLVALUE DUP1 ISZERO PUSH2 0x24B JUMPI PUSH1 0x0 DUP1 REVERT JUMPDEST POP PUSH2 0x1B3 PUSH2 0x25A CALLDATASIZE PUSH1 0x4 PUSH2 0xD81 JUMP JUMPDEST PUSH2 0x7B2 JUMP JUMPDEST CALLVALUE DUP1 ISZERO PUSH2 0x26B JUMPI PUSH1 0x0 DUP1 REVERT JUMPDEST POP PUSH2 0x159 PUSH2 0x929 JUMP JUMPDEST CALLVALUE DUP1 ISZERO PUSH2 0x280 JUMPI PUSH1 0x0 DUP1 REVERT JUMPDEST POP PUSH2 0x186 PUSH2 0x28F CALLDATASIZE PUSH1 0x4 PUSH2 0xD37 JUMP JUMPDEST PUSH2 0x938 JUMP JUMPDEST CALLVALUE DUP1 ISZERO PUSH2 0x2A0 JUMPI PUSH1 0x0 DUP1 REVERT JUMPDEST POP PUSH2 0x12E PUSH2 0x94D JUMP JUMPDEST CALLVALUE DUP1 ISZERO PUSH2 0x2B5 JUMPI PUSH1 0x0 DUP1 REVERT JUMPDEST POP PUSH2 0x12E PUSH2 0x2C4 CALLDATASIZE PUSH1 0x4 PUSH2 0xD37 JUMP JUMPDEST PUSH2 0x953 JUMP JUMPDEST CALLVALUE DUP1 ISZERO PUSH2 0x2D5 JUMPI PUSH1 0x0 DUP1 REVERT JUMPDEST POP PUSH2 0x12E PUSH2 0x965 JUMP JUMPDEST CALLVALUE DUP1 ISZERO PUSH2 0x2EA JUMPI PUSH1 0x0 DUP1 REVERT JUMPDEST POP PUSH2 0x186 PUSH2 0x2F9 CALLDATASIZE PUSH1 0x4 PUSH2 0xD58 JUMP JUMPDEST PUSH2 0x96B JUMP JUMPDEST PUSH2 0x1B3 PUSH2 0x30C CALLDATASIZE PUSH1 0x4 PUSH2 0xDCB JUMP JUMPDEST PUSH2 0x98B JUMP JUMPDEST CALLVALUE DUP1 ISZERO PUSH2 0x31D JUMPI PUSH1 0x0 DUP1 REVERT JUMPDEST POP PUSH2 0x1B3 PUSH2 0x32C CALLDATASIZE PUSH1 0x4 PUSH2 0xD37 JUMP JUMPDEST PUSH2 0xB33 JUMP JUMPDEST CALLVALUE DUP1 ISZERO PUSH2 0x33D JUMPI PUSH1 0x0 DUP1 REVERT JUMPDEST POP PUSH2 0x159 PUSH2 0xBCB JUMP JUMPDEST PUSH1 0x2 SLOAD DUP2 JUMP JUMPDEST PUSH1 0x5 SLOAD PUSH1 0x1 PUSH1 0x1 PUSH1 0xA0 SHL SUB AND SWAP1 JUMP JUMPDEST PUSH1 0x0 DUP1 SLOAD PUSH1 0x1 PUSH1 0x1 PUSH1 0xA0 SHL SUB AND CALLER EQ PUSH2 0x38F JUMPI PUSH1 0x40 MLOAD PUSH3 0x461BCD PUSH1 0xE5 SHL DUP2 MSTORE PUSH1 0x4 ADD PUSH2 0x386 SWAP1 PUSH2 0xF68 JUMP JUMPDEST PUSH1 0x40 MLOAD DUP1 SWAP2 SUB SWAP1 REVERT JUMPDEST PUSH1 0x1 PUSH1 0x1 PUSH1 0xA0 SHL SUB DUP3 AND PUSH1 0x0 SWAP1 DUP2 MSTORE PUSH1 0x8 PUSH1 0x20 MSTORE PUSH1 0x40 SWAP1 DUP2 SWAP1 KECCAK256 DUP1 SLOAD PUSH1 0xFF NOT AND SWAP1 SSTORE MLOAD PUSH32 0x9E8CA6FF03906E81E8A6A03D4F96B7EDB0B97F0ED9D07EF1B699FFF634385496 SWAP1 PUSH2 0x3DF SWAP1 DUP5 SWAP1 PUSH2 0xE3D JUMP JUMPDEST PUSH1 0x40 MLOAD DUP1 SWAP2 SUB SWAP1 LOG1 POP PUSH1 0x1 JUMPDEST SWAP2 SWAP1 POP JUMP JUMPDEST CALLER PUSH1 0x0 SWAP1 DUP2 MSTORE PUSH1 0x8 PUSH1 0x20 MSTORE PUSH1 0x40 SWAP1 KECCAK256 SLOAD PUSH1 0xFF AND ISZERO ISZERO PUSH1 0x1 EQ DUP1 PUSH2 0x41D JUMPI POP PUSH1 0x0 SLOAD PUSH1 0x1 PUSH1 0x1 PUSH1 0xA0 SHL SUB AND CALLER EQ JUMPDEST PUSH2 0x439 JUMPI PUSH1 0x40 MLOAD PUSH3 0x461BCD PUSH1 0xE5 SHL DUP2 MSTORE PUSH1 0x4 ADD PUSH2 0x386 SWAP1 PUSH2 0xF95 JUMP JUMPDEST PUSH1 0x5 DUP1 SLOAD PUSH1 0x1 PUSH1 0x1 PUSH1 0xA0 SHL SUB NOT AND PUSH1 0x1 PUSH1 0x1 PUSH1 0xA0 SHL SUB SWAP3 SWAP1 SWAP3 AND SWAP2 SWAP1 SWAP2 OR SWAP1 SSTORE JUMP JUMPDEST PUSH1 0x0 DUP1 SLOAD PUSH1 0x1 PUSH1 0x1 PUSH1 0xA0 SHL SUB AND CALLER EQ PUSH2 0x486 JUMPI PUSH1 0x40 MLOAD PUSH3 0x461BCD PUSH1 0xE5 SHL DUP2 MSTORE PUSH1 0x4 ADD PUSH2 0x386 SWAP1 PUSH2 0xF68 JUMP JUMPDEST PUSH1 0x1 PUSH1 0x1 PUSH1 0xA0 SHL SUB DUP3 AND PUSH1 0x0 SWAP1 DUP2 MSTORE PUSH1 0x8 PUSH1 0x20 MSTORE PUSH1 0x40 SWAP1 DUP2 SWAP1 KECCAK256 DUP1 SLOAD PUSH1 0xFF NOT AND PUSH1 0x1 OR SWAP1 SSTORE MLOAD PUSH32 0x8AFECA650897BE3183B7C0D24EBA96A1B990F75C4BD74A0CFB2C0A71AEC48E61 SWAP1 PUSH2 0x3DF SWAP1 DUP5 SWAP1 PUSH2 0xE3D JUMP JUMPDEST CALLER PUSH1 0x0 SWAP1 DUP2 MSTORE PUSH1 0x8 PUSH1 0x20 MSTORE PUSH1 0x40 DUP2 KECCAK256 SLOAD PUSH1 0xFF AND ISZERO ISZERO PUSH1 0x1 EQ DUP1 PUSH2 0x506 JUMPI POP PUSH1 0x0 SLOAD PUSH1 0x1 PUSH1 0x1 PUSH1 0xA0 SHL SUB AND CALLER EQ JUMPDEST PUSH2 0x522 JUMPI PUSH1 0x40 MLOAD PUSH3 0x461BCD PUSH1 0xE5 SHL DUP2 MSTORE PUSH1 0x4 ADD PUSH2 0x386 SWAP1 PUSH2 0xF95 JUMP JUMPDEST PUSH1 0x2 DUP3 SWAP1 SSTORE PUSH1 0x40 MLOAD CALLER SWAP1 PUSH32 0x249CAD7392D218891BFA00CD4E48F39B08F37FF89E36A340132FA9415B959E49 SWAP1 PUSH2 0x559 SWAP1 DUP6 SWAP1 PUSH2 0xFE6 JUMP JUMPDEST PUSH1 0x40 MLOAD DUP1 SWAP2 SUB SWAP1 LOG2 POP PUSH1 0x1 SWAP2 SWAP1 POP JUMP JUMPDEST CALLER PUSH1 0x0 SWAP1 DUP2 MSTORE PUSH1 0x8 PUSH1 0x20 MSTORE PUSH1 0x40 DUP2 KECCAK256 SLOAD PUSH1 0xFF AND ISZERO ISZERO PUSH1 0x1 EQ DUP1 PUSH2 0x596 JUMPI POP PUSH1 0x0 SLOAD PUSH1 0x1 PUSH1 0x1 PUSH1 0xA0 SHL SUB AND CALLER EQ JUMPDEST PUSH2 0x5B2 JUMPI PUSH1 0x40 MLOAD PUSH3 0x461BCD PUSH1 0xE5 SHL DUP2 MSTORE PUSH1 0x4 ADD PUSH2 0x386 SWAP1 PUSH2 0xF95 JUMP JUMPDEST PUSH1 0x4 SLOAD CALLER SWAP1 PUSH2 0x5D3 JUMPI PUSH1 0x40 MLOAD PUSH3 0x461BCD PUSH1 0xE5 SHL DUP2 MSTORE PUSH1 0x4 ADD PUSH2 0x386 SWAP1 PUSH2 0xF03 JUMP JUMPDEST PUSH1 0x4 SLOAD PUSH1 0x40 MLOAD PUSH1 0x1 PUSH1 0x1 PUSH1 0xA0 SHL SUB DUP4 AND SWAP2 DUP1 ISZERO PUSH2 0x8FC MUL SWAP2 PUSH1 0x0 DUP2 DUP2 DUP2 DUP6 DUP9 DUP9 CALL SWAP4 POP POP POP POP ISZERO DUP1 ISZERO PUSH2 0x60A JUMPI RETURNDATASIZE PUSH1 0x0 DUP1 RETURNDATACOPY RETURNDATASIZE PUSH1 0x0 REVERT JUMPDEST POP CALLER PUSH1 0x1 PUSH1 0x1 PUSH1 0xA0 SHL SUB AND PUSH32 0xFD45F8E49CB2E6D825185846F6B2D24DD23E4D051673EA35211E64252BAC9528 PUSH1 0x4 SLOAD PUSH1 0x40 MLOAD PUSH2 0x646 SWAP2 SWAP1 PUSH2 0xFE6 JUMP JUMPDEST PUSH1 0x40 MLOAD DUP1 SWAP2 SUB SWAP1 LOG2 POP POP PUSH1 0x0 PUSH1 0x4 SSTORE PUSH1 0x1 SWAP1 JUMP JUMPDEST PUSH1 0x0 SLOAD PUSH1 0x1 PUSH1 0x1 PUSH1 0xA0 SHL SUB AND CALLER EQ PUSH2 0x684 JUMPI PUSH1 0x40 MLOAD PUSH3 0x461BCD PUSH1 0xE5 SHL DUP2 MSTORE PUSH1 0x4 ADD PUSH2 0x386 SWAP1 PUSH2 0xF68 JUMP JUMPDEST PUSH1 0x0 DUP1 SLOAD PUSH1 0x40 MLOAD PUSH1 0x1 PUSH1 0x1 PUSH1 0xA0 SHL SUB SWAP1 SWAP2 AND SWAP2 PUSH32 0xF8DF31144D9C2F0F6B59D69B8B98ABD5459D07F2742C4DF920B25AAE33C64820 SWAP2 LOG2 PUSH1 0x0 DUP1 SLOAD PUSH1 0x1 PUSH1 0x1 PUSH1 0xA0 SHL SUB NOT AND SWAP1 SSTORE JUMP JUMPDEST CALLER PUSH1 0x0 SWAP1 DUP2 MSTORE PUSH1 0x8 PUSH1 0x20 MSTORE PUSH1 0x40 DUP2 KECCAK256 SLOAD PUSH1 0xFF AND ISZERO ISZERO PUSH1 0x1 EQ DUP1 PUSH2 0x6F9 JUMPI POP PUSH1 0x0 SLOAD PUSH1 0x1 PUSH1 0x1 PUSH1 0xA0 SHL SUB AND CALLER EQ JUMPDEST PUSH2 0x715 JUMPI PUSH1 0x40 MLOAD PUSH3 0x461BCD PUSH1 0xE5 SHL DUP2 MSTORE PUSH1 0x4 ADD PUSH2 0x386 SWAP1 PUSH2 0xF95 JUMP JUMPDEST PUSH1 0x5 SLOAD PUSH1 0x40 MLOAD PUSH4 0xA9059CBB PUSH1 0xE0 SHL DUP2 MSTORE PUSH1 0x1 PUSH1 0x1 PUSH1 0xA0 SHL SUB SWAP1 SWAP2 AND SWAP1 PUSH4 0xA9059CBB SWAP1 PUSH2 0x747 SWAP1 CALLER SWAP1 DUP7 SWAP1 PUSH1 0x4 ADD PUSH2 0xE75 JUMP JUMPDEST PUSH1 0x0 PUSH1 0x40 MLOAD DUP1 DUP4 SUB DUP2 PUSH1 0x0 DUP8 DUP1 EXTCODESIZE ISZERO DUP1 ISZERO PUSH2 0x761 JUMPI PUSH1 0x0 DUP1 REVERT JUMPDEST POP GAS CALL ISZERO DUP1 ISZERO PUSH2 0x775 JUMPI RETURNDATASIZE PUSH1 0x0 DUP1 RETURNDATACOPY RETURNDATASIZE PUSH1 0x0 REVERT JUMPDEST POP POP POP POP CALLER PUSH1 0x1 PUSH1 0x1 PUSH1 0xA0 SHL SUB AND PUSH32 0xAAF4EDEA203DE44937046A30F527D68F6DD388BAFA36F925C4C23CAB18BFC83F DUP4 PUSH1 0x40 MLOAD PUSH2 0x559 SWAP2 SWAP1 PUSH2 0xFE6 JUMP JUMPDEST CALLER PUSH1 0x0 SWAP1 DUP2 MSTORE PUSH1 0x8 PUSH1 0x20 MSTORE PUSH1 0x40 SWAP1 KECCAK256 SLOAD PUSH1 0xFF AND ISZERO ISZERO PUSH1 0x1 EQ DUP1 PUSH2 0x7DF JUMPI POP PUSH1 0x0 SLOAD PUSH1 0x1 PUSH1 0x1 PUSH1 0xA0 SHL SUB AND CALLER EQ JUMPDEST PUSH2 0x7FB JUMPI PUSH1 0x40 MLOAD PUSH3 0x461BCD PUSH1 0xE5 SHL DUP2 MSTORE PUSH1 0x4 ADD PUSH2 0x386 SWAP1 PUSH2 0xF95 JUMP JUMPDEST ADDRESS PUSH1 0x0 SWAP1 DUP2 MSTORE PUSH1 0x6 PUSH1 0x20 SWAP1 DUP2 MSTORE PUSH1 0x40 DUP1 DUP4 KECCAK256 DUP5 DUP5 MSTORE SWAP1 SWAP2 MSTORE SWAP1 KECCAK256 SLOAD PUSH1 0xFF AND ISZERO PUSH2 0x836 JUMPI PUSH1 0x40 MLOAD PUSH3 0x461BCD PUSH1 0xE5 SHL DUP2 MSTORE PUSH1 0x4 ADD PUSH2 0x386 SWAP1 PUSH2 0xF31 JUMP JUMPDEST ADDRESS PUSH1 0x0 DUP2 DUP2 MSTORE PUSH1 0x6 PUSH1 0x20 SWAP1 DUP2 MSTORE PUSH1 0x40 DUP1 DUP4 KECCAK256 DUP6 DUP5 MSTORE DUP3 MSTORE DUP1 DUP4 KECCAK256 DUP1 SLOAD PUSH1 0xFF NOT AND PUSH1 0x1 SWAP1 DUP2 OR SWAP1 SWAP2 SSTORE SWAP4 DUP4 MSTORE PUSH1 0x7 SWAP1 SWAP2 MSTORE DUP2 KECCAK256 DUP1 SLOAD SWAP1 SWAP2 SWAP1 PUSH2 0x878 SWAP1 DUP5 SWAP1 PUSH2 0xFFD JUMP JUMPDEST SWAP1 SWAP2 SSTORE POP POP PUSH1 0x5 SLOAD PUSH1 0x40 MLOAD PUSH4 0xA9059CBB PUSH1 0xE0 SHL DUP2 MSTORE PUSH1 0x1 PUSH1 0x1 PUSH1 0xA0 SHL SUB SWAP1 SWAP2 AND SWAP1 PUSH4 0xA9059CBB SWAP1 PUSH2 0x8AF SWAP1 DUP7 SWAP1 DUP7 SWAP1 PUSH1 0x4 ADD PUSH2 0xE75 JUMP JUMPDEST PUSH1 0x0 PUSH1 0x40 MLOAD DUP1 DUP4 SUB DUP2 PUSH1 0x0 DUP8 DUP1 EXTCODESIZE ISZERO DUP1 ISZERO PUSH2 0x8C9 JUMPI PUSH1 0x0 DUP1 REVERT JUMPDEST POP GAS CALL ISZERO DUP1 ISZERO PUSH2 0x8DD JUMPI RETURNDATASIZE PUSH1 0x0 DUP1 RETURNDATACOPY RETURNDATASIZE PUSH1 0x0 REVERT JUMPDEST POP POP POP POP CALLER PUSH1 0x1 PUSH1 0x1 PUSH1 0xA0 SHL SUB AND PUSH32 0x554A422B9761D956D064193F424192874AA95CCCDFA968A11EAE3F93F83ED3C0 DUP4 DUP4 PUSH1 0x40 MLOAD PUSH2 0x91C SWAP3 SWAP2 SWAP1 PUSH2 0xFEF JUMP JUMPDEST PUSH1 0x40 MLOAD DUP1 SWAP2 SUB SWAP1 LOG2 POP POP POP JUMP JUMPDEST PUSH1 0x0 SLOAD PUSH1 0x1 PUSH1 0x1 PUSH1 0xA0 SHL SUB AND DUP2 JUMP JUMPDEST PUSH1 0x8 PUSH1 0x20 MSTORE PUSH1 0x0 SWAP1 DUP2 MSTORE PUSH1 0x40 SWAP1 KECCAK256 SLOAD PUSH1 0xFF AND DUP2 JUMP JUMPDEST PUSH1 0x4 SLOAD DUP2 JUMP JUMPDEST PUSH1 0x7 PUSH1 0x20 MSTORE PUSH1 0x0 SWAP1 DUP2 MSTORE PUSH1 0x40 SWAP1 KECCAK256 SLOAD DUP2 JUMP JUMPDEST PUSH1 0x3 SLOAD DUP2 JUMP JUMPDEST PUSH1 0x6 PUSH1 0x20 SWAP1 DUP2 MSTORE PUSH1 0x0 SWAP3 DUP4 MSTORE PUSH1 0x40 DUP1 DUP5 KECCAK256 SWAP1 SWAP2 MSTORE SWAP1 DUP3 MSTORE SWAP1 KECCAK256 SLOAD PUSH1 0xFF AND DUP2 JUMP JUMPDEST CALLER PUSH1 0x0 SWAP1 DUP2 MSTORE PUSH1 0x6 PUSH1 0x20 SWAP1 DUP2 MSTORE PUSH1 0x40 DUP1 DUP4 KECCAK256 DUP5 DUP5 MSTORE SWAP1 SWAP2 MSTORE SWAP1 KECCAK256 SLOAD PUSH1 0xFF AND ISZERO PUSH2 0x9C6 JUMPI PUSH1 0x40 MLOAD PUSH3 0x461BCD PUSH1 0xE5 SHL DUP2 MSTORE PUSH1 0x4 ADD PUSH2 0x386 SWAP1 PUSH2 0xECC JUMP JUMPDEST CALLER PUSH1 0x0 DUP2 DUP2 MSTORE PUSH1 0x6 PUSH1 0x20 SWAP1 DUP2 MSTORE PUSH1 0x40 DUP1 DUP4 KECCAK256 DUP6 DUP5 MSTORE DUP3 MSTORE DUP1 DUP4 KECCAK256 DUP1 SLOAD PUSH1 0xFF NOT AND PUSH1 0x1 SWAP1 DUP2 OR SWAP1 SWAP2 SSTORE SWAP4 DUP4 MSTORE PUSH1 0x7 SWAP1 SWAP2 MSTORE DUP2 KECCAK256 DUP1 SLOAD SWAP1 SWAP2 SWAP1 PUSH2 0xA08 SWAP1 DUP5 SWAP1 PUSH2 0xFFD JUMP JUMPDEST SWAP3 POP POP DUP2 SWAP1 SSTORE POP PUSH1 0x0 PUSH2 0xA1C PUSH1 0x2 SLOAD PUSH2 0xBDA JUMP JUMPDEST PUSH1 0x40 MLOAD PUSH1 0x20 ADD PUSH2 0xA2C SWAP2 SWAP1 PUSH2 0xDEC JUMP JUMPDEST PUSH1 0x40 MLOAD PUSH1 0x20 DUP2 DUP4 SUB SUB DUP2 MSTORE SWAP1 PUSH1 0x40 MSTORE SWAP1 POP PUSH1 0x2 SLOAD CALLVALUE EQ DUP2 SWAP1 PUSH2 0xA61 JUMPI PUSH1 0x40 MLOAD PUSH3 0x461BCD PUSH1 0xE5 SHL DUP2 MSTORE PUSH1 0x4 ADD PUSH2 0x386 SWAP2 SWAP1 PUSH2 0xE99 JUMP JUMPDEST POP CALLVALUE PUSH1 0x3 PUSH1 0x0 DUP3 DUP3 SLOAD PUSH2 0xA74 SWAP2 SWAP1 PUSH2 0xFFD JUMP JUMPDEST SWAP3 POP POP DUP2 SWAP1 SSTORE POP CALLVALUE PUSH1 0x4 PUSH1 0x0 DUP3 DUP3 SLOAD PUSH2 0xA8D SWAP2 SWAP1 PUSH2 0xFFD JUMP JUMPDEST SWAP1 SWAP2 SSTORE POP POP PUSH1 0x5 SLOAD PUSH1 0x40 MLOAD PUSH4 0x23B872DD PUSH1 0xE0 SHL DUP2 MSTORE PUSH1 0x1 PUSH1 0x1 PUSH1 0xA0 SHL SUB SWAP1 SWAP2 AND SWAP1 PUSH4 0x23B872DD SWAP1 PUSH2 0xAC6 SWAP1 CALLER SWAP1 ADDRESS SWAP1 DUP9 SWAP1 PUSH1 0x4 ADD PUSH2 0xE51 JUMP JUMPDEST PUSH1 0x0 PUSH1 0x40 MLOAD DUP1 DUP4 SUB DUP2 PUSH1 0x0 DUP8 DUP1 EXTCODESIZE ISZERO DUP1 ISZERO PUSH2 0xAE0 JUMPI PUSH1 0x0 DUP1 REVERT JUMPDEST POP GAS CALL ISZERO DUP1 ISZERO PUSH2 0xAF4 JUMPI RETURNDATASIZE PUSH1 0x0 DUP1 RETURNDATACOPY RETURNDATASIZE PUSH1 0x0 REVERT JUMPDEST POP POP POP POP CALLER PUSH1 0x1 PUSH1 0x1 PUSH1 0xA0 SHL SUB AND PUSH32 0xDAD5BE61B90FF2EB1A199136DDEC958884FF0A55B052908D840C913318C3A0F8 DUP5 DUP5 PUSH1 0x40 MLOAD PUSH2 0x91C SWAP3 SWAP2 SWAP1 PUSH2 0xFEF JUMP JUMPDEST PUSH1 0x0 SLOAD PUSH1 0x1 PUSH1 0x1 PUSH1 0xA0 SHL SUB AND CALLER EQ PUSH2 0xB5D JUMPI PUSH1 0x40 MLOAD PUSH3 0x461BCD PUSH1 0xE5 SHL DUP2 MSTORE PUSH1 0x4 ADD PUSH2 0x386 SWAP1 PUSH2 0xF68 JUMP JUMPDEST PUSH1 0x1 PUSH1 0x1 PUSH1 0xA0 SHL SUB DUP2 AND PUSH2 0xB70 JUMPI PUSH1 0x0 DUP1 REVERT JUMPDEST PUSH1 0x0 DUP1 SLOAD PUSH1 0x40 MLOAD PUSH1 0x1 PUSH1 0x1 PUSH1 0xA0 SHL SUB DUP1 DUP6 AND SWAP4 SWAP3 AND SWAP2 PUSH32 0x8BE0079C531659141344CD1FD0A4F28419497F9722A3DAAFE3B4186F6B6457E0 SWAP2 LOG3 PUSH1 0x0 DUP1 SLOAD PUSH1 0x1 PUSH1 0x1 PUSH1 0xA0 SHL SUB NOT AND PUSH1 0x1 PUSH1 0x1 PUSH1 0xA0 SHL SUB SWAP3 SWAP1 SWAP3 AND SWAP2 SWAP1 SWAP2 OR SWAP1 SSTORE JUMP JUMPDEST PUSH1 0x1 SLOAD PUSH1 0x1 PUSH1 0x1 PUSH1 0xA0 SHL SUB AND DUP2 JUMP JUMPDEST PUSH1 0x60 DUP2 PUSH2 0xBFF JUMPI POP PUSH1 0x40 DUP1 MLOAD DUP1 DUP3 ADD SWAP1 SWAP2 MSTORE PUSH1 0x1 DUP2 MSTORE PUSH1 0x3 PUSH1 0xFC SHL PUSH1 0x20 DUP3 ADD MSTORE PUSH2 0x3EB JUMP JUMPDEST DUP2 PUSH1 0x0 JUMPDEST DUP2 ISZERO PUSH2 0xC29 JUMPI DUP1 PUSH2 0xC13 DUP2 PUSH2 0x10C0 JUMP JUMPDEST SWAP2 POP PUSH2 0xC22 SWAP1 POP PUSH1 0xA DUP4 PUSH2 0x103A JUMP JUMPDEST SWAP2 POP PUSH2 0xC03 JUMP JUMPDEST PUSH1 0x0 DUP2 PUSH8 0xFFFFFFFFFFFFFFFF DUP2 GT ISZERO PUSH2 0xC52 JUMPI PUSH4 0x4E487B71 PUSH1 0xE0 SHL PUSH1 0x0 MSTORE PUSH1 0x41 PUSH1 0x4 MSTORE PUSH1 0x24 PUSH1 0x0 REVERT JUMPDEST PUSH1 0x40 MLOAD SWAP1 DUP1 DUP3 MSTORE DUP1 PUSH1 0x1F ADD PUSH1 0x1F NOT AND PUSH1 0x20 ADD DUP3 ADD PUSH1 0x40 MSTORE DUP1 ISZERO PUSH2 0xC7C JUMPI PUSH1 0x20 DUP3 ADD DUP2 DUP1 CALLDATASIZE DUP4 CALLDATACOPY ADD SWAP1 POP JUMPDEST POP SWAP1 POP DUP2 JUMPDEST DUP6 ISZERO PUSH2 0xD17 JUMPI PUSH2 0xC92 PUSH1 0x1 DUP3 PUSH2 0x1079 JUMP JUMPDEST SWAP1 POP PUSH1 0x0 PUSH2 0xCA1 PUSH1 0xA DUP9 PUSH2 0x103A JUMP JUMPDEST PUSH2 0xCAC SWAP1 PUSH1 0xA PUSH2 0x105A JUMP JUMPDEST PUSH2 0xCB6 SWAP1 DUP9 PUSH2 0x1079 JUMP JUMPDEST PUSH2 0xCC1 SWAP1 PUSH1 0x30 PUSH2 0x1015 JUMP JUMPDEST SWAP1 POP PUSH1 0x0 DUP2 PUSH1 0xF8 SHL SWAP1 POP DUP1 DUP5 DUP5 DUP2 MLOAD DUP2 LT PUSH2 0xCEC JUMPI PUSH4 0x4E487B71 PUSH1 0xE0 SHL PUSH1 0x0 MSTORE PUSH1 0x32 PUSH1 0x4 MSTORE PUSH1 0x24 PUSH1 0x0 REVERT JUMPDEST PUSH1 0x20 ADD ADD SWAP1 PUSH1 0x1 PUSH1 0x1 PUSH1 0xF8 SHL SUB NOT AND SWAP1 DUP2 PUSH1 0x0 BYTE SWAP1 MSTORE8 POP PUSH2 0xD0E PUSH1 0xA DUP10 PUSH2 0x103A JUMP JUMPDEST SWAP8 POP POP POP PUSH2 0xC81 JUMP JUMPDEST POP SWAP5 SWAP4 POP POP POP POP JUMP JUMPDEST DUP1 CALLDATALOAD PUSH1 0x1 PUSH1 0x1 PUSH1 0xA0 SHL SUB DUP2 AND DUP2 EQ PUSH2 0x3EB JUMPI PUSH1 0x0 DUP1 REVERT JUMPDEST PUSH1 0x0 PUSH1 0x20 DUP3 DUP5 SUB SLT ISZERO PUSH2 0xD48 JUMPI DUP1 DUP2 REVERT JUMPDEST PUSH2 0xD51 DUP3 PUSH2 0xD20 JUMP JUMPDEST SWAP4 SWAP3 POP POP POP JUMP JUMPDEST PUSH1 0x0 DUP1 PUSH1 0x40 DUP4 DUP6 SUB SLT ISZERO PUSH2 0xD6A JUMPI DUP1 DUP2 REVERT JUMPDEST PUSH2 0xD73 DUP4 PUSH2 0xD20 JUMP JUMPDEST SWAP5 PUSH1 0x20 SWAP4 SWAP1 SWAP4 ADD CALLDATALOAD SWAP4 POP POP POP JUMP JUMPDEST PUSH1 0x0 DUP1 PUSH1 0x0 PUSH1 0x60 DUP5 DUP7 SUB SLT ISZERO PUSH2 0xD95 JUMPI DUP1 DUP2 REVERT JUMPDEST PUSH2 0xD9E DUP5 PUSH2 0xD20 JUMP JUMPDEST SWAP6 PUSH1 0x20 DUP6 ADD CALLDATALOAD SWAP6 POP PUSH1 0x40 SWAP1 SWAP5 ADD CALLDATALOAD SWAP4 SWAP3 POP POP POP JUMP JUMPDEST PUSH1 0x0 PUSH1 0x20 DUP3 DUP5 SUB SLT ISZERO PUSH2 0xDC4 JUMPI DUP1 DUP2 REVERT JUMPDEST POP CALLDATALOAD SWAP2 SWAP1 POP JUMP JUMPDEST PUSH1 0x0 DUP1 PUSH1 0x40 DUP4 DUP6 SUB SLT ISZERO PUSH2 0xDDD JUMPI DUP2 DUP3 REVERT JUMPDEST POP POP DUP1 CALLDATALOAD SWAP3 PUSH1 0x20 SWAP1 SWAP2 ADD CALLDATALOAD SWAP2 POP JUMP JUMPDEST PUSH1 0x0 PUSH32 0x496E76616C6964204665652C2045787065637465642066656520696E20776569 DUP3 MSTORE PUSH3 0x101D1 PUSH1 0xED SHL PUSH1 0x20 DUP4 ADD MSTORE DUP3 MLOAD PUSH2 0xE30 DUP2 PUSH1 0x23 DUP6 ADD PUSH1 0x20 DUP8 ADD PUSH2 0x1090 JUMP JUMPDEST SWAP2 SWAP1 SWAP2 ADD PUSH1 0x23 ADD SWAP3 SWAP2 POP POP JUMP JUMPDEST PUSH1 0x1 PUSH1 0x1 PUSH1 0xA0 SHL SUB SWAP2 SWAP1 SWAP2 AND DUP2 MSTORE PUSH1 0x20 ADD SWAP1 JUMP JUMPDEST PUSH1 0x1 PUSH1 0x1 PUSH1 0xA0 SHL SUB SWAP4 DUP5 AND DUP2 MSTORE SWAP2 SWAP1 SWAP3 AND PUSH1 0x20 DUP3 ADD MSTORE PUSH1 0x40 DUP2 ADD SWAP2 SWAP1 SWAP2 MSTORE PUSH1 0x60 ADD SWAP1 JUMP JUMPDEST PUSH1 0x1 PUSH1 0x1 PUSH1 0xA0 SHL SUB SWAP3 SWAP1 SWAP3 AND DUP3 MSTORE PUSH1 0x20 DUP3 ADD MSTORE PUSH1 0x40 ADD SWAP1 JUMP JUMPDEST SWAP1 ISZERO ISZERO DUP2 MSTORE PUSH1 0x20 ADD SWAP1 JUMP JUMPDEST PUSH1 0x0 PUSH1 0x20 DUP3 MSTORE DUP3 MLOAD DUP1 PUSH1 0x20 DUP5 ADD MSTORE PUSH2 0xEB8 DUP2 PUSH1 0x40 DUP6 ADD PUSH1 0x20 DUP8 ADD PUSH2 0x1090 JUMP JUMPDEST PUSH1 0x1F ADD PUSH1 0x1F NOT AND SWAP2 SWAP1 SWAP2 ADD PUSH1 0x40 ADD SWAP3 SWAP2 POP POP JUMP JUMPDEST PUSH1 0x20 DUP1 DUP3 MSTORE PUSH1 0x1A SWAP1 DUP3 ADD MSTORE PUSH32 0x5472616E7366657220616C72656164792070726F636573736564000000000000 PUSH1 0x40 DUP3 ADD MSTORE PUSH1 0x60 ADD SWAP1 JUMP JUMPDEST PUSH1 0x20 DUP1 DUP3 MSTORE PUSH1 0x14 SWAP1 DUP3 ADD MSTORE PUSH20 0x496E73756666696369656E742062616C616E6365 PUSH1 0x60 SHL PUSH1 0x40 DUP3 ADD MSTORE PUSH1 0x60 ADD SWAP1 JUMP JUMPDEST PUSH1 0x20 DUP1 DUP3 MSTORE PUSH1 0x1A SWAP1 DUP3 ADD MSTORE PUSH32 0x7472616E7366657220616C72656164792070726F636573736564000000000000 PUSH1 0x40 DUP3 ADD MSTORE PUSH1 0x60 ADD SWAP1 JUMP JUMPDEST PUSH1 0x20 DUP1 DUP3 MSTORE PUSH1 0x13 SWAP1 DUP3 ADD MSTORE PUSH19 0x21B0B63632B91034B9902737BA1037BBB732B9 PUSH1 0x69 SHL PUSH1 0x40 DUP3 ADD MSTORE PUSH1 0x60 ADD SWAP1 JUMP JUMPDEST PUSH1 0x20 DUP1 DUP3 MSTORE PUSH1 0x31 SWAP1 DUP3 ADD MSTORE PUSH32 0x4F6E6C7920417574686F72697A656420616E64204F776E65722063616E207065 PUSH1 0x40 DUP3 ADD MSTORE PUSH17 0x393337B936903A3434B99030B1BA34B7B7 PUSH1 0x79 SHL PUSH1 0x60 DUP3 ADD MSTORE PUSH1 0x80 ADD SWAP1 JUMP JUMPDEST SWAP1 DUP2 MSTORE PUSH1 0x20 ADD SWAP1 JUMP JUMPDEST SWAP2 DUP3 MSTORE PUSH1 0x20 DUP3 ADD MSTORE PUSH1 0x40 ADD SWAP1 JUMP JUMPDEST PUSH1 0x0 DUP3 NOT DUP3 GT ISZERO PUSH2 0x1010 JUMPI PUSH2 0x1010 PUSH2 0x10DB JUMP JUMPDEST POP ADD SWAP1 JUMP JUMPDEST PUSH1 0x0 PUSH1 0xFF DUP3 AND PUSH1 0xFF DUP5 AND DUP1 PUSH1 0xFF SUB DUP3 GT ISZERO PUSH2 0x1032 JUMPI PUSH2 0x1032 PUSH2 0x10DB JUMP JUMPDEST ADD SWAP4 SWAP3 POP POP POP JUMP JUMPDEST PUSH1 0x0 DUP3 PUSH2 0x1055 JUMPI PUSH4 0x4E487B71 PUSH1 0xE0 SHL DUP2 MSTORE PUSH1 0x12 PUSH1 0x4 MSTORE PUSH1 0x24 DUP2 REVERT JUMPDEST POP DIV SWAP1 JUMP JUMPDEST PUSH1 0x0 DUP2 PUSH1 0x0 NOT DIV DUP4 GT DUP3 ISZERO ISZERO AND ISZERO PUSH2 0x1074 JUMPI PUSH2 0x1074 PUSH2 0x10DB JUMP JUMPDEST POP MUL SWAP1 JUMP JUMPDEST PUSH1 0x0 DUP3 DUP3 LT ISZERO PUSH2 0x108B JUMPI PUSH2 0x108B PUSH2 0x10DB JUMP JUMPDEST POP SUB SWAP1 JUMP JUMPDEST PUSH1 0x0 JUMPDEST DUP4 DUP2 LT ISZERO PUSH2 0x10AB JUMPI DUP2 DUP2 ADD MLOAD DUP4 DUP3 ADD MSTORE PUSH1 0x20 ADD PUSH2 0x1093 JUMP JUMPDEST DUP4 DUP2 GT ISZERO PUSH2 0x10BA JUMPI PUSH1 0x0 DUP5 DUP5 ADD MSTORE JUMPDEST POP POP POP POP JUMP JUMPDEST PUSH1 0x0 PUSH1 0x0 NOT DUP3 EQ ISZERO PUSH2 0x10D4 JUMPI PUSH2 0x10D4 PUSH2 0x10DB JUMP JUMPDEST POP PUSH1 0x1 ADD SWAP1 JUMP JUMPDEST PUSH4 0x4E487B71 PUSH1 0xE0 SHL PUSH1 0x0 MSTORE PUSH1 0x11 PUSH1 0x4 MSTORE PUSH1 0x24 PUSH1 0x0 REVERT INVALID LOG2 PUSH5 0x6970667358 0x22 SLT KECCAK256 0xF7 0xF8 CALLVALUE 0xAF 0xDB GASPRICE 0xE 0x4E 0xEB MULMOD PUSH1 0x40 0xB2 DUP4 JUMP DUP6 0xB0 EXP 0xBD PUSH23 0xD1D108AB538E5103F919FBCF64736F6C63430008000033 "
		},
		"gasEstimates": {
			"creation": {
				"codeDepositCost": "878200",
				"executionCost": "infinite",
				"totalCost": "infinite"
			},
			"external": {
				"admin()": "1180",
				"authorizeCaller(address)": "infinite",
				"authorizedCaller(address)": "1331",
				"claimDeposit(address,uint256,uint256)": "infinite",
				"deAuthorizeCaller(address)": "infinite",
				"depositAmount(uint256,uint256)": "infinite",
				"depositedFee()": "1117",
				"emergencyELXWithdraw(uint256)": "infinite",
				"getTokenAddress()": "1116",
				"owner()": "1115",
				"processedNonces(address)": "1363",
				"processedNoncesMap(address,uint256)": "1401",
				"renounceOwnership()": "23873",
				"setSwapFee(uint256)": "23587",
				"setTokenAddress(address)": "23009",
				"tokenSwapFee()": "1052",
				"totalDepositedFee()": "1050",
				"transferOwnership(address)": "24488",
				"withdrawDepositedFee()": "infinite"
			},
			"internal": {
				"uint2str(uint256)": "infinite"
			}
		},
		"methodIdentifiers": {
			"admin()": "f851a440",
			"authorizeCaller(address)": "2c388d5d",
			"authorizedCaller(address)": "98f6ef12",
			"claimDeposit(address,uint256,uint256)": "813907ae",
			"deAuthorizeCaller(address)": "1bcd250a",
			"depositAmount(uint256,uint256)": "ec9b9a6f",
			"depositedFee()": "ac6b4393",
			"emergencyELXWithdraw(uint256)": "8081cecd",
			"getTokenAddress()": "10fe9ae8",
			"owner()": "8da5cb5b",
			"processedNonces(address)": "b6e6ee19",
			"processedNoncesMap(address,uint256)": "e668a1cf",
			"renounceOwnership()": "715018a6",
			"setSwapFee(uint256)": "34e19907",
			"setTokenAddress(address)": "26a4e8d2",
			"tokenSwapFee()": "04c96758",
			"totalDepositedFee()": "c604061c",
			"transferOwnership(address)": "f2fde38b",
			"withdrawDepositedFee()": "650ad8ce"
		}
	},
	"abi": [
		{
			"inputs": [
				{
					"internalType": "address",
					"name": "_tokenAddress",
					"type": "address"
				}
			],
			"stateMutability": "nonpayable",
			"type": "constructor"
		},
		{
			"anonymous": false,
			"inputs": [
				{
					"indexed": false,
					"internalType": "address",
					"name": "_caller",
					"type": "address"
				}
			],
			"name": "AuthorizedCaller",
			"type": "event"
		},
		{
			"anonymous": false,
			"inputs": [
				{
					"indexed": false,
					"internalType": "address",
					"name": "_caller",
					"type": "address"
				}
			],
			"name": "DeAuthorizedCaller",
			"type": "event"
		},
		{
			"anonymous": false,
			"inputs": [
				{
					"indexed": true,
					"internalType": "address",
					"name": "_account",
					"type": "address"
				},
				{
					"indexed": false,
					"internalType": "uint256",
					"name": "_amount",
					"type": "uint256"
				},
				{
					"indexed": false,
					"internalType": "uint256",
					"name": "_nonce",
					"type": "uint256"
				}
			],
			"name": "ELXDeposited",
			"type": "event"
		},
		{
			"anonymous": false,
			"inputs": [
				{
					"indexed": true,
					"internalType": "address",
					"name": "_account",
					"type": "address"
				},
				{
					"indexed": false,
					"internalType": "uint256",
					"name": "_amount",
					"type": "uint256"
				},
				{
					"indexed": false,
					"internalType": "uint256",
					"name": "_nonce",
					"type": "uint256"
				}
			],
			"name": "ELXDepositedClaimed",
			"type": "event"
		},
		{
			"anonymous": false,
			"inputs": [
				{
					"indexed": true,
					"internalType": "address",
					"name": "previousOwner",
					"type": "address"
				}
			],
			"name": "OwnershipRenounced",
			"type": "event"
		},
		{
			"anonymous": false,
			"inputs": [
				{
					"indexed": true,
					"internalType": "address",
					"name": "previousOwner",
					"type": "address"
				},
				{
					"indexed": true,
					"internalType": "address",
					"name": "newOwner",
					"type": "address"
				}
			],
			"name": "OwnershipTransferred",
			"type": "event"
		},
		{
			"anonymous": false,
			"inputs": [
				{
					"indexed": true,
					"internalType": "address",
					"name": "_operator",
					"type": "address"
				},
				{
					"indexed": false,
					"internalType": "uint256",
					"name": "_fee",
					"type": "uint256"
				}
			],
			"name": "UpdateSwapFee",
			"type": "event"
		},
		{
			"anonymous": false,
			"inputs": [
				{
					"indexed": true,
					"internalType": "address",
					"name": "_operator",
					"type": "address"
				},
				{
					"indexed": false,
					"internalType": "uint256",
					"name": "_depositedFee",
					"type": "uint256"
				}
			],
			"name": "UpdateWithdrawFee",
			"type": "event"
		},
		{
			"anonymous": false,
			"inputs": [
				{
					"indexed": true,
					"internalType": "address",
					"name": "_account",
					"type": "address"
				},
				{
					"indexed": false,
					"internalType": "uint256",
					"name": "_amount",
					"type": "uint256"
				}
			],
			"name": "emergencyELXWithdrawal",
			"type": "event"
		},
		{
			"inputs": [],
			"name": "admin",
			"outputs": [
				{
					"internalType": "address",
					"name": "",
					"type": "address"
				}
			],
			"stateMutability": "view",
			"type": "function"
		},
		{
			"inputs": [
				{
					"internalType": "address",
					"name": "_caller",
					"type": "address"
				}
			],
			"name": "authorizeCaller",
			"outputs": [
				{
					"internalType": "bool",
					"name": "",
					"type": "bool"
				}
			],
			"stateMutability": "nonpayable",
			"type": "function"
		},
		{
			"inputs": [
				{
					"internalType": "address",
					"name": "",
					"type": "address"
				}
			],
			"name": "authorizedCaller",
			"outputs": [
				{
					"internalType": "bool",
					"name": "",
					"type": "bool"
				}
			],
			"stateMutability": "view",
			"type": "function"
		},
		{
			"inputs": [
				{
					"internalType": "address",
					"name": "_to",
					"type": "address"
				},
				{
					"internalType": "uint256",
					"name": "amount",
					"type": "uint256"
				},
				{
					"internalType": "uint256",
					"name": "_nonce",
					"type": "uint256"
				}
			],
			"name": "claimDeposit",
			"outputs": [],
			"stateMutability": "nonpayable",
			"type": "function"
		},
		{
			"inputs": [
				{
					"internalType": "address",
					"name": "_caller",
					"type": "address"
				}
			],
			"name": "deAuthorizeCaller",
			"outputs": [
				{
					"internalType": "bool",
					"name": "",
					"type": "bool"
				}
			],
			"stateMutability": "nonpayable",
			"type": "function"
		},
		{
			"inputs": [
				{
					"internalType": "uint256",
					"name": "amount",
					"type": "uint256"
				},
				{
					"internalType": "uint256",
					"name": "_nonce",
					"type": "uint256"
				}
			],
			"name": "depositAmount",
			"outputs": [],
			"stateMutability": "payable",
			"type": "function"
		},
		{
			"inputs": [],
			"name": "depositedFee",
			"outputs": [
				{
					"internalType": "uint256",
					"name": "",
					"type": "uint256"
				}
			],
			"stateMutability": "view",
			"type": "function"
		},
		{
			"inputs": [
				{
					"internalType": "uint256",
					"name": "amount",
					"type": "uint256"
				}
			],
			"name": "emergencyELXWithdraw",
			"outputs": [
				{
					"internalType": "bool",
					"name": "",
					"type": "bool"
				}
			],
			"stateMutability": "nonpayable",
			"type": "function"
		},
		{
			"inputs": [],
			"name": "getTokenAddress",
			"outputs": [
				{
					"internalType": "address",
					"name": "_tokenAddress",
					"type": "address"
				}
			],
			"stateMutability": "view",
			"type": "function"
		},
		{
			"inputs": [],
			"name": "owner",
			"outputs": [
				{
					"internalType": "address",
					"name": "",
					"type": "address"
				}
			],
			"stateMutability": "view",
			"type": "function"
		},
		{
			"inputs": [
				{
					"internalType": "address",
					"name": "",
					"type": "address"
				}
			],
			"name": "processedNonces",
			"outputs": [
				{
					"internalType": "uint256",
					"name": "",
					"type": "uint256"
				}
			],
			"stateMutability": "view",
			"type": "function"
		},
		{
			"inputs": [
				{
					"internalType": "address",
					"name": "",
					"type": "address"
				},
				{
					"internalType": "uint256",
					"name": "",
					"type": "uint256"
				}
			],
			"name": "processedNoncesMap",
			"outputs": [
				{
					"internalType": "bool",
					"name": "",
					"type": "bool"
				}
			],
			"stateMutability": "view",
			"type": "function"
		},
		{
			"inputs": [],
			"name": "renounceOwnership",
			"outputs": [],
			"stateMutability": "nonpayable",
			"type": "function"
		},
		{
			"inputs": [
				{
					"internalType": "uint256",
					"name": "_tokenSwapFee",
					"type": "uint256"
				}
			],
			"name": "setSwapFee",
			"outputs": [
				{
					"internalType": "bool",
					"name": "",
					"type": "bool"
				}
			],
			"stateMutability": "nonpayable",
			"type": "function"
		},
		{
			"inputs": [
				{
					"internalType": "address",
					"name": "_tokenAddress",
					"type": "address"
				}
			],
			"name": "setTokenAddress",
			"outputs": [],
			"stateMutability": "nonpayable",
			"type": "function"
		},
		{
			"inputs": [],
			"name": "tokenSwapFee",
			"outputs": [
				{
					"internalType": "uint256",
					"name": "",
					"type": "uint256"
				}
			],
			"stateMutability": "view",
			"type": "function"
		},
		{
			"inputs": [],
			"name": "totalDepositedFee",
			"outputs": [
				{
					"internalType": "uint256",
					"name": "",
					"type": "uint256"
				}
			],
			"stateMutability": "view",
			"type": "function"
		},
		{
			"inputs": [
				{
					"internalType": "address",
					"name": "newOwner",
					"type": "address"
				}
			],
			"name": "transferOwnership",
			"outputs": [],
			"stateMutability": "nonpayable",
			"type": "function"
		},
		{
			"inputs": [],
			"name": "withdrawDepositedFee",
			"outputs": [
				{
					"internalType": "bool",
					"name": "",
					"type": "bool"
				}
			],
			"stateMutability": "nonpayable",
			"type": "function"
		}
	]
}