{
	"data": {
		"bytecode": {
			"linkReferences": {},
			"object": "60806040523480156200001157600080fd5b5060405162003488380380620034888339810160408190526200003491620000b3565b60008054336001600160a01b031991821681178355600180549092166001600160a01b0385161782558083526003602052604092839020805460ff19168317905591517fc5238a63fa205f95e98807f6cbc91d2ad8555a2250075e47491f11d9c69db3bc91620000a491620000e3565b60405180910390a250620000ee565b600060208284031215620000c5578081fd5b81516001600160a01b0381168114620000dc578182fd5b9392505050565b901515815260200190565b61338a80620000fe6000396000f3fe608060405234801561001057600080fd5b506004361061012c5760003560e01c806398f6ef12116100ad578063ebd449f811610071578063ebd449f8146102be578063ebe50819146102d1578063ee3fa880146102e4578063f2fde38b14610306578063febd0492146103195761012c565b806398f6ef121461023f5780639de2620f1461025f578063ae8da9c914610272578063b658e62414610285578063b6959d73146102985761012c565b806347916bf8116100f457806347916bf8146101b85780634d6b5e00146101df5780635e1be8b4146101ff578063715018a6146102205780638da5cb5b1461022a5761012c565b806304ec30711461013157806306ecd6d41461015a5780630b8f8aea1461017f5780631bcd250a146101925780632c388d5d146101a5575b600080fd5b61014461013f366004612a46565b61032c565b6040516101519190612ec8565b60405180910390f35b61016d6101683660046129b4565b61062c565b60405161015196959493929190612fc7565b61014461018d3660046129d5565b610a06565b6101446101a03660046129b4565b610cc7565b6101446101b33660046129b4565b610d50565b6101cb6101c63660046129b4565b610dd0565b604051610151989796959493929190612f4e565b6101f26101ed3660046129b4565b61105f565b6040516101519190612ed3565b61021261020d3660046129b4565b611070565b604051610151929190612ee6565b6102286111df565b005b610232611251565b6040516101519190612eb4565b61025261024d3660046129b4565b611260565b6040516101519190613273565b61014461026d366004612bdb565b611275565b610232610280366004612d72565b611655565b6101f26102933660046129b4565b6118b3565b6102ab6102a63660046129b4565b61195f565b6040516101519796959493929190613049565b6101446102cc366004612bdb565b611dd9565b6101446102df366004612adb565b6121b5565b6102f76102f23660046129b4565b61254a565b60405161015193929190612f0b565b6102286103143660046129b4565b612753565b6102ab6103273660046129b4565b6127eb565b600084604051806040016040528060018152602001603160f81b8152508060405160200161035a9190612e98565b60408051601f198184030181529082905280516020909101206001546309f7b4e560e31b835290916001600160a01b0390911690634fbda728906103a2903390600401612eb4565b60006040518083038186803b1580156103ba57600080fd5b505afa1580156103ce573d6000803e3d6000fd5b505050506040513d6000823e601f3d908101601f191682016040526103f69190810190612cff565b6040516020016104069190612e98565b60405160208183030381529060405280519060200120146104425760405162461bcd60e51b8152600401610439906131df565b60405180910390fd5b806040516020016104539190612e98565b604051602081830303815290604052805190602001206104728361105f565b6040516020016104829190612e98565b60405160208183030381529060405280519060200120146104b55760405162461bcd60e51b815260040161043990613205565b6001600160a01b03878116600090815260046020819052604090912001541633146104f25760405162461bcd60e51b81526004016104399061310a565b8551610505906014906020890190612838565b508451610519906015906020880190612838565b50835161052d906016906020870190612838565b506001600160a01b0387166000908152600660205260409020601480549091908190839061055a90613303565b6105659291906128bc565b50600182018160010190805461057a90613303565b6105859291906128bc565b50600282018160020190805461059a90613303565b6105a59291906128bc565b505060408051808201825260018152601960f91b60208083019182526001600160a01b038c16600090815260029091529290922090516105e89350909190612838565b506040516001600160a01b0388169033907f1a9e54c741ddea5903c67cf93287f3e09598ddfb41d14833169dda5aef87fdb690600090a35060019695505050505050565b606080606080606080600060076000896001600160a01b03166001600160a01b031681526020019081526020016000206040518060c001604052908160008201805461067790613303565b80601f01602080910402602001604051908101604052809291908181526020018280546106a390613303565b80156106f05780601f106106c5576101008083540402835291602001916106f0565b820191906000526020600020905b8154815290600101906020018083116106d357829003601f168201915b5050505050815260200160018201805461070990613303565b80601f016020809104026020016040519081016040528092919081815260200182805461073590613303565b80156107825780601f1061075757610100808354040283529160200191610782565b820191906000526020600020905b81548152906001019060200180831161076557829003601f168201915b5050505050815260200160028201805461079b90613303565b80601f01602080910402602001604051908101604052809291908181526020018280546107c790613303565b80156108145780601f106107e957610100808354040283529160200191610814565b820191906000526020600020905b8154815290600101906020018083116107f757829003601f168201915b5050505050815260200160038201805461082d90613303565b80601f016020809104026020016040519081016040528092919081815260200182805461085990613303565b80156108a65780601f1061087b576101008083540402835291602001916108a6565b820191906000526020600020905b81548152906001019060200180831161088957829003601f168201915b505050505081526020016004820180546108bf90613303565b80601f01602080910402602001604051908101604052809291908181526020018280546108eb90613303565b80156109385780601f1061090d57610100808354040283529160200191610938565b820191906000526020600020905b81548152906001019060200180831161091b57829003601f168201915b5050505050815260200160058201805461095190613303565b80601f016020809104026020016040519081016040528092919081815260200182805461097d90613303565b80156109ca5780601f1061099f576101008083540402835291602001916109ca565b820191906000526020600020905b8154815290600101906020018083116109ad57829003601f168201915b5050509190925250508151602083015160408401516060850151608086015160a090960151939e929d50909b5099509297509550909350505050565b600083604051806040016040528060018152602001600360fc1b81525080604051602001610a349190612e98565b60408051601f198184030181529082905280516020909101206001546309f7b4e560e31b835290916001600160a01b0390911690634fbda72890610a7c903390600401612eb4565b60006040518083038186803b158015610a9457600080fd5b505afa158015610aa8573d6000803e3d6000fd5b505050506040513d6000823e601f3d908101601f19168201604052610ad09190810190612cff565b604051602001610ae09190612e98565b6040516020818303038152906040528051906020012014610b135760405162461bcd60e51b8152600401610439906131df565b80604051602001610b249190612e98565b60405160208183030381529060405280519060200120610b438361105f565b604051602001610b539190612e98565b6040516020818303038152906040528051906020012014610b865760405162461bcd60e51b815260040161043990613205565b6001600160a01b03868116600090815260046020526040902060030154163314610bc25760405162461bcd60e51b815260040161043990613161565b8451610bd5906012906020880190612838565b508351610be9906013906020870190612838565b506001600160a01b03861660009081526005602052604090206012805490919081908390610c1690613303565b610c219291906128bc565b506001820181600101908054610c3690613303565b610c419291906128bc565b505060408051808201825260018152603160f81b60208083019182526001600160a01b038b1660009081526002909152929092209051610c849350909190612838565b506040516001600160a01b0387169033907f20cd58ba911ed241d89bc5a95db6d653509665a2cd05c7fe08fca46237150ed990600090a350600195945050505050565b600080546001600160a01b03163314610cf25760405162461bcd60e51b815260040161043990613134565b6001600160a01b038216600081815260036020526040808220805460ff19169055517fc5238a63fa205f95e98807f6cbc91d2ad8555a2250075e47491f11d9c69db3bc91610d3f91612ec8565b60405180910390a25060015b919050565b600080546001600160a01b03163314610d7b5760405162461bcd60e51b815260040161043990613134565b6001600160a01b03821660008181526003602052604090819020805460ff1916600190811790915590517fc5238a63fa205f95e98807f6cbc91d2ad8555a2250075e47491f11d9c69db3bc91610d3f91612ec8565b6060806060600080600080600080600460008b6001600160a01b03166001600160a01b0316815260200190815260200160002060405180610100016040529081600082018054610e1f90613303565b80601f0160208091040260200160405190810160405280929190818152602001828054610e4b90613303565b8015610e985780601f10610e6d57610100808354040283529160200191610e98565b820191906000526020600020905b815481529060010190602001808311610e7b57829003601f168201915b50505050508152602001600182018054610eb190613303565b80601f0160208091040260200160405190810160405280929190818152602001828054610edd90613303565b8015610f2a5780601f10610eff57610100808354040283529160200191610f2a565b820191906000526020600020905b815481529060010190602001808311610f0d57829003601f168201915b50505050508152602001600282018054610f4390613303565b80601f0160208091040260200160405190810160405280929190818152602001828054610f6f90613303565b8015610fbc5780601f10610f9157610100808354040283529160200191610fbc565b820191906000526020600020905b815481529060010190602001808311610f9f57829003601f168201915b505050918352505060038201546001600160a01b0390811660208084019190915260048401548216604080850191909152600585015483166060808601919091526006860154841660808087019190915260079096015490931660a0948501528551918601519086015192860151948601519386015160c087015160e090970151929f50909d50919b509299509097509550909350915050919395975091939597565b606061106a826118b3565b92915050565b606080600060056000856001600160a01b03166001600160a01b031681526020019081526020016000206040518060400160405290816000820180546110b590613303565b80601f01602080910402602001604051908101604052809291908181526020018280546110e190613303565b801561112e5780601f106111035761010080835404028352916020019161112e565b820191906000526020600020905b81548152906001019060200180831161111157829003601f168201915b5050505050815260200160018201805461114790613303565b80601f016020809104026020016040519081016040528092919081815260200182805461117390613303565b80156111c05780601f10611195576101008083540402835291602001916111c0565b820191906000526020600020905b8154815290600101906020018083116111a357829003601f168201915b5050505050815250509050806000015181602001519250925050915091565b6000546001600160a01b031633146112095760405162461bcd60e51b815260040161043990613134565b600080546040516001600160a01b03909116917ff8df31144d9c2f0f6b59d69b8b98abd5459d07f2742c4df920b25aae33c6482091a2600080546001600160a01b0319169055565b6000546001600160a01b031681565b60036020526000908152604090205460ff1681565b600088604051806040016040528060018152602001600d60fa1b815250806040516020016112a39190612e98565b60408051601f198184030181529082905280516020909101206001546309f7b4e560e31b835290916001600160a01b0390911690634fbda728906112eb903390600401612eb4565b60006040518083038186803b15801561130357600080fd5b505afa158015611317573d6000803e3d6000fd5b505050506040513d6000823e601f3d908101601f1916820160405261133f9190810190612cff565b60405160200161134f9190612e98565b60405160208183030381529060405280519060200120146113825760405162461bcd60e51b8152600401610439906131df565b806040516020016113939190612e98565b604051602081830303815290604052805190602001206113b28361105f565b6040516020016113c29190612e98565b60405160208183030381529060405280519060200120146113f55760405162461bcd60e51b815260040161043990613205565b6001600160a01b038b81166000908152600460205260409020600701541633146114315760405162461bcd60e51b8152600401610439906131b4565b89516114449060249060208d0190612838565b5088516114589060259060208c0190612838565b50875161146c9060269060208b0190612838565b5086516114809060279060208a0190612838565b508551611494906028906020890190612838565b5084516114a8906029906020880190612838565b5083516114bc90602a906020870190612838565b506001600160a01b038b16600090815260096020526040902060248054909190819083906114e990613303565b6114f49291906128bc565b50600182018160010190805461150990613303565b6115149291906128bc565b50600282018160020190805461152990613303565b6115349291906128bc565b50600382018160030190805461154990613303565b6115549291906128bc565b50600482018160040190805461156990613303565b6115749291906128bc565b50600582018160050190805461158990613303565b6115949291906128bc565b5060068201816006019080546115a990613303565b6115b49291906128bc565b5090505060405180604001604052806004815260200163444f4e4560e01b815250600260008d6001600160a01b03166001600160a01b03168152602001908152602001600020908051906020019061160d929190612838565b506040516001600160a01b038c169033907f4e233531fca5ff48938ce2955902318dc5b5c0286e3d72fbcaca690f65c6c86f90600090a35060019a9950505050505050505050565b3360009081526003602052604081205460ff166001146116875760405162461bcd60e51b81526004016104399061323c565b6000334260405160200161169c929190612e76565b60408051601f1981840301815291905280516020918201208b5190925082916116ca91600a918e0190612838565b5089516116de90600b9060208d0190612838565b5088516116f290600c9060208c0190612838565b50600d80546001600160a01b03199081166001600160a01b038b811691909117909255600e805482168a8416179055600f805482168984161790556010805482168884161790556011805490911686831617905581166000908152600460205260409020600a80549091908190839061176a90613303565b6117759291906128bc565b50600182018160010190805461178a90613303565b6117959291906128bc565b5060028201816002019080546117aa90613303565b6117b59291906128bc565b5060038281015490820180546001600160a01b03199081166001600160a01b039384161790915560048085015490840180548316918416919091179055600580850154908401805483169184169190911790556006808501549084018054831691841691909117905560079384015493909201805490921692811692909217905560408051808201825260018152600360fc1b60208083019182529385166000908152600290945291909220915161186e929190612838565b506040516001600160a01b0382169033907fdb769f7c34ed3c373f40bb14b2b74bc7cff51a86a6ff6d23f084abf76700c55890600090a39a9950505050505050505050565b6001600160a01b03811660009081526002602052604090208054606091906118da90613303565b80601f016020809104026020016040519081016040528092919081815260200182805461190690613303565b80156119535780601f1061192857610100808354040283529160200191611953565b820191906000526020600020905b81548152906001019060200180831161193657829003601f168201915b50505050509050919050565b60608060608060608060606000600960008a6001600160a01b03166001600160a01b031681526020019081526020016000206040518060e00160405290816000820180546119ac90613303565b80601f01602080910402602001604051908101604052809291908181526020018280546119d890613303565b8015611a255780601f106119fa57610100808354040283529160200191611a25565b820191906000526020600020905b815481529060010190602001808311611a0857829003601f168201915b50505050508152602001600182018054611a3e90613303565b80601f0160208091040260200160405190810160405280929190818152602001828054611a6a90613303565b8015611ab75780601f10611a8c57610100808354040283529160200191611ab7565b820191906000526020600020905b815481529060010190602001808311611a9a57829003601f168201915b50505050508152602001600282018054611ad090613303565b80601f0160208091040260200160405190810160405280929190818152602001828054611afc90613303565b8015611b495780601f10611b1e57610100808354040283529160200191611b49565b820191906000526020600020905b815481529060010190602001808311611b2c57829003601f168201915b50505050508152602001600382018054611b6290613303565b80601f0160208091040260200160405190810160405280929190818152602001828054611b8e90613303565b8015611bdb5780601f10611bb057610100808354040283529160200191611bdb565b820191906000526020600020905b815481529060010190602001808311611bbe57829003601f168201915b50505050508152602001600482018054611bf490613303565b80601f0160208091040260200160405190810160405280929190818152602001828054611c2090613303565b8015611c6d5780601f10611c4257610100808354040283529160200191611c6d565b820191906000526020600020905b815481529060010190602001808311611c5057829003601f168201915b50505050508152602001600582018054611c8690613303565b80601f0160208091040260200160405190810160405280929190818152602001828054611cb290613303565b8015611cff5780601f10611cd457610100808354040283529160200191611cff565b820191906000526020600020905b815481529060010190602001808311611ce257829003601f168201915b50505050508152602001600682018054611d1890613303565b80601f0160208091040260200160405190810160405280929190818152602001828054611d4490613303565b8015611d915780601f10611d6657610100808354040283529160200191611d91565b820191906000526020600020905b815481529060010190602001808311611d7457829003601f168201915b5050505050815250509050806000015181602001518260400151836060015184608001518560a001518660c00151975097509750975097509750975050919395979092949650565b600088604051806040016040528060018152602001603360f81b81525080604051602001611e079190612e98565b60408051601f198184030181529082905280516020909101206001546309f7b4e560e31b835290916001600160a01b0390911690634fbda72890611e4f903390600401612eb4565b60006040518083038186803b158015611e6757600080fd5b505afa158015611e7b573d6000803e3d6000fd5b505050506040513d6000823e601f3d908101601f19168201604052611ea39190810190612cff565b604051602001611eb39190612e98565b6040516020818303038152906040528051906020012014611ee65760405162461bcd60e51b8152600401610439906131df565b80604051602001611ef79190612e98565b60405160208183030381529060405280519060200120611f168361105f565b604051602001611f269190612e98565b6040516020818303038152906040528051906020012014611f595760405162461bcd60e51b815260040161043990613205565b6001600160a01b038b8116600090815260046020526040902060060154163314611f955760405162461bcd60e51b8152600401610439906130e0565b8951611fa890601d9060208d0190612838565b508851611fbc90601e9060208c0190612838565b508751611fd090601f9060208b0190612838565b508651611fe390602090818a0190612838565b508551611ff7906021906020890190612838565b50845161200b906022906020880190612838565b50835161201f906023906020870190612838565b506001600160a01b038b166000908152600860205260409020601d80549091908190839061204c90613303565b6120579291906128bc565b50600182018160010190805461206c90613303565b6120779291906128bc565b50600282018160020190805461208c90613303565b6120979291906128bc565b5060038201816003019080546120ac90613303565b6120b79291906128bc565b5060048201816004019080546120cc90613303565b6120d79291906128bc565b5060058201816005019080546120ec90613303565b6120f79291906128bc565b50600682018160060190805461210c90613303565b6121179291906128bc565b50905050604051806040016040528060018152602001600d60fa1b815250600260008d6001600160a01b03166001600160a01b03168152602001908152602001600020908051906020019061216d929190612838565b506040516001600160a01b038c169033907f38c05509a9c9dec5b48a3aefc9e921b700b90165ddcc57d1fb19d28bdde5133490600090a35060019a9950505050505050505050565b600087604051806040016040528060018152602001601960f91b815250806040516020016121e39190612e98565b60408051601f198184030181529082905280516020909101206001546309f7b4e560e31b835290916001600160a01b0390911690634fbda7289061222b903390600401612eb4565b60006040518083038186803b15801561224357600080fd5b505afa158015612257573d6000803e3d6000fd5b505050506040513d6000823e601f3d908101601f1916820160405261227f9190810190612cff565b60405160200161228f9190612e98565b60405160208183030381529060405280519060200120146122c25760405162461bcd60e51b8152600401610439906131df565b806040516020016122d39190612e98565b604051602081830303815290604052805190602001206122f28361105f565b6040516020016123029190612e98565b60405160208183030381529060405280519060200120146123355760405162461bcd60e51b815260040161043990613205565b6001600160a01b038a81166000908152600460205260409020600501541633146123715760405162461bcd60e51b81526004016104399061318a565b88516123849060179060208c0190612838565b5087516123989060189060208b0190612838565b5086516123ac9060199060208a0190612838565b5085516123c090601a906020890190612838565b5084516123d490601b906020880190612838565b5083516123e890601c906020870190612838565b506001600160a01b038a166000908152600760205260409020601780549091908190839061241590613303565b6124209291906128bc565b50600182018160010190805461243590613303565b6124409291906128bc565b50600282018160020190805461245590613303565b6124609291906128bc565b50600382018160030190805461247590613303565b6124809291906128bc565b50600482018160040190805461249590613303565b6124a09291906128bc565b5060058201816005019080546124b590613303565b6124c09291906128bc565b505060408051808201825260018152603360f81b60208083019182526001600160a01b038f16600090815260029091529290922090516125039350909190612838565b506040516001600160a01b038b169033907fbdccb285e4cf8e4e0e4c7a8ccb136c00d80f78d0ee8f9a14c673ea8319f17e7e90600090a35060019998505050505050505050565b6060806060600060066000866001600160a01b03166001600160a01b0316815260200190815260200160002060405180606001604052908160008201805461259190613303565b80601f01602080910402602001604051908101604052809291908181526020018280546125bd90613303565b801561260a5780601f106125df5761010080835404028352916020019161260a565b820191906000526020600020905b8154815290600101906020018083116125ed57829003601f168201915b5050505050815260200160018201805461262390613303565b80601f016020809104026020016040519081016040528092919081815260200182805461264f90613303565b801561269c5780601f106126715761010080835404028352916020019161269c565b820191906000526020600020905b81548152906001019060200180831161267f57829003601f168201915b505050505081526020016002820180546126b590613303565b80601f01602080910402602001604051908101604052809291908181526020018280546126e190613303565b801561272e5780601f106127035761010080835404028352916020019161272e565b820191906000526020600020905b81548152906001019060200180831161271157829003601f168201915b5050509190925250508151602083015160409093015190989297509550909350505050565b6000546001600160a01b0316331461277d5760405162461bcd60e51b815260040161043990613134565b6001600160a01b03811661279057600080fd5b600080546040516001600160a01b03808516939216917f8be0079c531659141344cd1fd0a4f28419497f9722a3daafe3b4186f6b6457e091a3600080546001600160a01b0319166001600160a01b0392909216919091179055565b60608060608060608060606000600860008a6001600160a01b03166001600160a01b031681526020019081526020016000206040518060e00160405290816000820180546119ac90613303565b82805461284490613303565b90600052602060002090601f01602090048101928261286657600085556128ac565b82601f1061287f57805160ff19168380011785556128ac565b828001600101855582156128ac579182015b828111156128ac578251825591602001919060010190612891565b506128b8929150612937565b5090565b8280546128c890613303565b90600052602060002090601f0160209004810192826128ea57600085556128ac565b82601f106128fb57805485556128ac565b828001600101855582156128ac57600052602060002091601f016020900482015b828111156128ac57825482559160010191906001019061291c565b5b808211156128b85760008155600101612938565b80356001600160a01b0381168114610d4b57600080fd5b600082601f830112612973578081fd5b8135612986612981826132ab565b613281565b81815284602083860101111561299a578283fd5b816020850160208301379081016020019190915292915050565b6000602082840312156129c5578081fd5b6129ce8261294c565b9392505050565b6000806000606084860312156129e9578182fd5b6129f28461294c565b9250602084013567ffffffffffffffff80821115612a0e578384fd5b612a1a87838801612963565b93506040860135915080821115612a2f578283fd5b50612a3c86828701612963565b9150509250925092565b60008060008060808587031215612a5b578081fd5b612a648561294c565b9350602085013567ffffffffffffffff80821115612a80578283fd5b612a8c88838901612963565b94506040870135915080821115612aa1578283fd5b612aad88838901612963565b93506060870135915080821115612ac2578283fd5b50612acf87828801612963565b91505092959194509250565b600080600080600080600060e0888a031215612af5578283fd5b612afe8861294c565b9650602088013567ffffffffffffffff80821115612b1a578485fd5b612b268b838c01612963565b975060408a0135915080821115612b3b578485fd5b612b478b838c01612963565b965060608a0135915080821115612b5c578485fd5b612b688b838c01612963565b955060808a0135915080821115612b7d578485fd5b612b898b838c01612963565b945060a08a0135915080821115612b9e578384fd5b612baa8b838c01612963565b935060c08a0135915080821115612bbf578283fd5b50612bcc8a828b01612963565b91505092959891949750929550565b600080600080600080600080610100898b031215612bf7578081fd5b612c008961294c565b9750602089013567ffffffffffffffff80821115612c1c578283fd5b612c288c838d01612963565b985060408b0135915080821115612c3d578283fd5b612c498c838d01612963565b975060608b0135915080821115612c5e578283fd5b612c6a8c838d01612963565b965060808b0135915080821115612c7f578283fd5b612c8b8c838d01612963565b955060a08b0135915080821115612ca0578283fd5b612cac8c838d01612963565b945060c08b0135915080821115612cc1578283fd5b612ccd8c838d01612963565b935060e08b0135915080821115612ce2578283fd5b50612cef8b828c01612963565b9150509295985092959890939650565b600060208284031215612d10578081fd5b815167ffffffffffffffff811115612d26578182fd5b8201601f81018413612d36578182fd5b8051612d44612981826132ab565b818152856020838501011115612d58578384fd5b612d698260208301602086016132d3565b95945050505050565b600080600080600080600080610100898b031215612d8e578384fd5b883567ffffffffffffffff80821115612da5578586fd5b612db18c838d01612963565b995060208b0135915080821115612dc6578586fd5b612dd28c838d01612963565b985060408b0135915080821115612de7578586fd5b50612df48b828c01612963565b965050612e0360608a0161294c565b9450612e1160808a0161294c565b9350612e1f60a08a0161294c565b9250612e2d60c08a0161294c565b9150612e3b60e08a0161294c565b90509295985092959890939650565b60008151808452612e628160208601602086016132d3565b601f01601f19169290920160200192915050565b60609290921b6bffffffffffffffffffffffff19168252601482015260340190565b60008251612eaa8184602087016132d3565b9190910192915050565b6001600160a01b0391909116815260200190565b901515815260200190565b6000602082526129ce6020830184612e4a565b600060408252612ef96040830185612e4a565b8281036020840152612d698185612e4a565b600060608252612f1e6060830186612e4a565b8281036020840152612f308186612e4a565b90508281036040840152612f448185612e4a565b9695505050505050565b6000610100808352612f628184018c612e4a565b90508281036020840152612f76818b612e4a565b90508281036040840152612f8a818a612e4a565b6001600160a01b0398891660608501529688166080840152505092851660a084015290841660c083015290921660e0909201919091529392505050565b600060c08252612fda60c0830189612e4a565b8281036020840152612fec8189612e4a565b905082810360408401526130008188612e4a565b905082810360608401526130148187612e4a565b905082810360808401526130288186612e4a565b905082810360a084015261303c8185612e4a565b9998505050505050505050565b600060e0825261305c60e083018a612e4a565b828103602084015261306e818a612e4a565b905082810360408401526130828189612e4a565b905082810360608401526130968188612e4a565b905082810360808401526130aa8187612e4a565b905082810360a08401526130be8186612e4a565b905082810360c08401526130d28185612e4a565b9a9950505050505050505050565b60208082526010908201526f24b73b30b634b21034b6b837b93a32b960811b604082015260600190565b60208082526010908201526f24b73b30b634b21027b832b930ba37b960811b604082015260600190565b60208082526013908201527221b0b63632b91034b9902737ba1037bbb732b960691b604082015260600190565b6020808252600f908201526e24b73b30b634b21020bab234ba37b960891b604082015260600190565b60208082526010908201526f24b73b30b634b21032bc3837b93a32b960811b604082015260600190565b60208082526011908201527024b73b30b634b210383937b1b2b9b9b7b960791b604082015260600190565b6020808252600c908201526b24b73b30b634b2103ab9b2b960a11b604082015260600190565b60208082526017908201527f496e76616c6964207374657020746f2070726f63656564000000000000000000604082015260600190565b60208082526018908201527f43616c6c6572206973204e6f7420617574686f72697a65640000000000000000604082015260600190565b60ff91909116815260200190565b60405181810167ffffffffffffffff811182821017156132a3576132a361333e565b604052919050565b600067ffffffffffffffff8211156132c5576132c561333e565b50601f01601f191660200190565b60005b838110156132ee5781810151838201526020016132d6565b838111156132fd576000848401525b50505050565b60028104600182168061331757607f821691505b6020821081141561333857634e487b7160e01b600052602260045260246000fd5b50919050565b634e487b7160e01b600052604160045260246000fdfea2646970667358221220ab8c2e5c10f134e32940a8366780dc69a012ad090d975a96c1f84d6845cafecf64736f6c63430008000033",
			"opcodes": "PUSH1 0x80 PUSH1 0x40 MSTORE CALLVALUE DUP1 ISZERO PUSH3 0x11 JUMPI PUSH1 0x0 DUP1 REVERT JUMPDEST POP PUSH1 0x40 MLOAD PUSH3 0x3488 CODESIZE SUB DUP1 PUSH3 0x3488 DUP4 CODECOPY DUP2 ADD PUSH1 0x40 DUP2 SWAP1 MSTORE PUSH3 0x34 SWAP2 PUSH3 0xB3 JUMP JUMPDEST PUSH1 0x0 DUP1 SLOAD CALLER PUSH1 0x1 PUSH1 0x1 PUSH1 0xA0 SHL SUB NOT SWAP2 DUP3 AND DUP2 OR DUP4 SSTORE PUSH1 0x1 DUP1 SLOAD SWAP1 SWAP3 AND PUSH1 0x1 PUSH1 0x1 PUSH1 0xA0 SHL SUB DUP6 AND OR DUP3 SSTORE DUP1 DUP4 MSTORE PUSH1 0x3 PUSH1 0x20 MSTORE PUSH1 0x40 SWAP3 DUP4 SWAP1 KECCAK256 DUP1 SLOAD PUSH1 0xFF NOT AND DUP4 OR SWAP1 SSTORE SWAP2 MLOAD PUSH32 0xC5238A63FA205F95E98807F6CBC91D2AD8555A2250075E47491F11D9C69DB3BC SWAP2 PUSH3 0xA4 SWAP2 PUSH3 0xE3 JUMP JUMPDEST PUSH1 0x40 MLOAD DUP1 SWAP2 SUB SWAP1 LOG2 POP PUSH3 0xEE JUMP JUMPDEST PUSH1 0x0 PUSH1 0x20 DUP3 DUP5 SUB SLT ISZERO PUSH3 0xC5 JUMPI DUP1 DUP2 REVERT JUMPDEST DUP2 MLOAD PUSH1 0x1 PUSH1 0x1 PUSH1 0xA0 SHL SUB DUP2 AND DUP2 EQ PUSH3 0xDC JUMPI DUP2 DUP3 REVERT JUMPDEST SWAP4 SWAP3 POP POP POP JUMP JUMPDEST SWAP1 ISZERO ISZERO DUP2 MSTORE PUSH1 0x20 ADD SWAP1 JUMP JUMPDEST PUSH2 0x338A DUP1 PUSH3 0xFE PUSH1 0x0 CODECOPY PUSH1 0x0 RETURN INVALID PUSH1 0x80 PUSH1 0x40 MSTORE CALLVALUE DUP1 ISZERO PUSH2 0x10 JUMPI PUSH1 0x0 DUP1 REVERT JUMPDEST POP PUSH1 0x4 CALLDATASIZE LT PUSH2 0x12C JUMPI PUSH1 0x0 CALLDATALOAD PUSH1 0xE0 SHR DUP1 PUSH4 0x98F6EF12 GT PUSH2 0xAD JUMPI DUP1 PUSH4 0xEBD449F8 GT PUSH2 0x71 JUMPI DUP1 PUSH4 0xEBD449F8 EQ PUSH2 0x2BE JUMPI DUP1 PUSH4 0xEBE50819 EQ PUSH2 0x2D1 JUMPI DUP1 PUSH4 0xEE3FA880 EQ PUSH2 0x2E4 JUMPI DUP1 PUSH4 0xF2FDE38B EQ PUSH2 0x306 JUMPI DUP1 PUSH4 0xFEBD0492 EQ PUSH2 0x319 JUMPI PUSH2 0x12C JUMP JUMPDEST DUP1 PUSH4 0x98F6EF12 EQ PUSH2 0x23F JUMPI DUP1 PUSH4 0x9DE2620F EQ PUSH2 0x25F JUMPI DUP1 PUSH4 0xAE8DA9C9 EQ PUSH2 0x272 JUMPI DUP1 PUSH4 0xB658E624 EQ PUSH2 0x285 JUMPI DUP1 PUSH4 0xB6959D73 EQ PUSH2 0x298 JUMPI PUSH2 0x12C JUMP JUMPDEST DUP1 PUSH4 0x47916BF8 GT PUSH2 0xF4 JUMPI DUP1 PUSH4 0x47916BF8 EQ PUSH2 0x1B8 JUMPI DUP1 PUSH4 0x4D6B5E00 EQ PUSH2 0x1DF JUMPI DUP1 PUSH4 0x5E1BE8B4 EQ PUSH2 0x1FF JUMPI DUP1 PUSH4 0x715018A6 EQ PUSH2 0x220 JUMPI DUP1 PUSH4 0x8DA5CB5B EQ PUSH2 0x22A JUMPI PUSH2 0x12C JUMP JUMPDEST DUP1 PUSH4 0x4EC3071 EQ PUSH2 0x131 JUMPI DUP1 PUSH4 0x6ECD6D4 EQ PUSH2 0x15A JUMPI DUP1 PUSH4 0xB8F8AEA EQ PUSH2 0x17F JUMPI DUP1 PUSH4 0x1BCD250A EQ PUSH2 0x192 JUMPI DUP1 PUSH4 0x2C388D5D EQ PUSH2 0x1A5 JUMPI JUMPDEST PUSH1 0x0 DUP1 REVERT JUMPDEST PUSH2 0x144 PUSH2 0x13F CALLDATASIZE PUSH1 0x4 PUSH2 0x2A46 JUMP JUMPDEST PUSH2 0x32C JUMP JUMPDEST PUSH1 0x40 MLOAD PUSH2 0x151 SWAP2 SWAP1 PUSH2 0x2EC8 JUMP JUMPDEST PUSH1 0x40 MLOAD DUP1 SWAP2 SUB SWAP1 RETURN JUMPDEST PUSH2 0x16D PUSH2 0x168 CALLDATASIZE PUSH1 0x4 PUSH2 0x29B4 JUMP JUMPDEST PUSH2 0x62C JUMP JUMPDEST PUSH1 0x40 MLOAD PUSH2 0x151 SWAP7 SWAP6 SWAP5 SWAP4 SWAP3 SWAP2 SWAP1 PUSH2 0x2FC7 JUMP JUMPDEST PUSH2 0x144 PUSH2 0x18D CALLDATASIZE PUSH1 0x4 PUSH2 0x29D5 JUMP JUMPDEST PUSH2 0xA06 JUMP JUMPDEST PUSH2 0x144 PUSH2 0x1A0 CALLDATASIZE PUSH1 0x4 PUSH2 0x29B4 JUMP JUMPDEST PUSH2 0xCC7 JUMP JUMPDEST PUSH2 0x144 PUSH2 0x1B3 CALLDATASIZE PUSH1 0x4 PUSH2 0x29B4 JUMP JUMPDEST PUSH2 0xD50 JUMP JUMPDEST PUSH2 0x1CB PUSH2 0x1C6 CALLDATASIZE PUSH1 0x4 PUSH2 0x29B4 JUMP JUMPDEST PUSH2 0xDD0 JUMP JUMPDEST PUSH1 0x40 MLOAD PUSH2 0x151 SWAP9 SWAP8 SWAP7 SWAP6 SWAP5 SWAP4 SWAP3 SWAP2 SWAP1 PUSH2 0x2F4E JUMP JUMPDEST PUSH2 0x1F2 PUSH2 0x1ED CALLDATASIZE PUSH1 0x4 PUSH2 0x29B4 JUMP JUMPDEST PUSH2 0x105F JUMP JUMPDEST PUSH1 0x40 MLOAD PUSH2 0x151 SWAP2 SWAP1 PUSH2 0x2ED3 JUMP JUMPDEST PUSH2 0x212 PUSH2 0x20D CALLDATASIZE PUSH1 0x4 PUSH2 0x29B4 JUMP JUMPDEST PUSH2 0x1070 JUMP JUMPDEST PUSH1 0x40 MLOAD PUSH2 0x151 SWAP3 SWAP2 SWAP1 PUSH2 0x2EE6 JUMP JUMPDEST PUSH2 0x228 PUSH2 0x11DF JUMP JUMPDEST STOP JUMPDEST PUSH2 0x232 PUSH2 0x1251 JUMP JUMPDEST PUSH1 0x40 MLOAD PUSH2 0x151 SWAP2 SWAP1 PUSH2 0x2EB4 JUMP JUMPDEST PUSH2 0x252 PUSH2 0x24D CALLDATASIZE PUSH1 0x4 PUSH2 0x29B4 JUMP JUMPDEST PUSH2 0x1260 JUMP JUMPDEST PUSH1 0x40 MLOAD PUSH2 0x151 SWAP2 SWAP1 PUSH2 0x3273 JUMP JUMPDEST PUSH2 0x144 PUSH2 0x26D CALLDATASIZE PUSH1 0x4 PUSH2 0x2BDB JUMP JUMPDEST PUSH2 0x1275 JUMP JUMPDEST PUSH2 0x232 PUSH2 0x280 CALLDATASIZE PUSH1 0x4 PUSH2 0x2D72 JUMP JUMPDEST PUSH2 0x1655 JUMP JUMPDEST PUSH2 0x1F2 PUSH2 0x293 CALLDATASIZE PUSH1 0x4 PUSH2 0x29B4 JUMP JUMPDEST PUSH2 0x18B3 JUMP JUMPDEST PUSH2 0x2AB PUSH2 0x2A6 CALLDATASIZE PUSH1 0x4 PUSH2 0x29B4 JUMP JUMPDEST PUSH2 0x195F JUMP JUMPDEST PUSH1 0x40 MLOAD PUSH2 0x151 SWAP8 SWAP7 SWAP6 SWAP5 SWAP4 SWAP3 SWAP2 SWAP1 PUSH2 0x3049 JUMP JUMPDEST PUSH2 0x144 PUSH2 0x2CC CALLDATASIZE PUSH1 0x4 PUSH2 0x2BDB JUMP JUMPDEST PUSH2 0x1DD9 JUMP JUMPDEST PUSH2 0x144 PUSH2 0x2DF CALLDATASIZE PUSH1 0x4 PUSH2 0x2ADB JUMP JUMPDEST PUSH2 0x21B5 JUMP JUMPDEST PUSH2 0x2F7 PUSH2 0x2F2 CALLDATASIZE PUSH1 0x4 PUSH2 0x29B4 JUMP JUMPDEST PUSH2 0x254A JUMP JUMPDEST PUSH1 0x40 MLOAD PUSH2 0x151 SWAP4 SWAP3 SWAP2 SWAP1 PUSH2 0x2F0B JUMP JUMPDEST PUSH2 0x228 PUSH2 0x314 CALLDATASIZE PUSH1 0x4 PUSH2 0x29B4 JUMP JUMPDEST PUSH2 0x2753 JUMP JUMPDEST PUSH2 0x2AB PUSH2 0x327 CALLDATASIZE PUSH1 0x4 PUSH2 0x29B4 JUMP JUMPDEST PUSH2 0x27EB JUMP JUMPDEST PUSH1 0x0 DUP5 PUSH1 0x40 MLOAD DUP1 PUSH1 0x40 ADD PUSH1 0x40 MSTORE DUP1 PUSH1 0x1 DUP2 MSTORE PUSH1 0x20 ADD PUSH1 0x31 PUSH1 0xF8 SHL DUP2 MSTORE POP DUP1 PUSH1 0x40 MLOAD PUSH1 0x20 ADD PUSH2 0x35A SWAP2 SWAP1 PUSH2 0x2E98 JUMP JUMPDEST PUSH1 0x40 DUP1 MLOAD PUSH1 0x1F NOT DUP2 DUP5 SUB ADD DUP2 MSTORE SWAP1 DUP3 SWAP1 MSTORE DUP1 MLOAD PUSH1 0x20 SWAP1 SWAP2 ADD KECCAK256 PUSH1 0x1 SLOAD PUSH4 0x9F7B4E5 PUSH1 0xE3 SHL DUP4 MSTORE SWAP1 SWAP2 PUSH1 0x1 PUSH1 0x1 PUSH1 0xA0 SHL SUB SWAP1 SWAP2 AND SWAP1 PUSH4 0x4FBDA728 SWAP1 PUSH2 0x3A2 SWAP1 CALLER SWAP1 PUSH1 0x4 ADD PUSH2 0x2EB4 JUMP JUMPDEST PUSH1 0x0 PUSH1 0x40 MLOAD DUP1 DUP4 SUB DUP2 DUP7 DUP1 EXTCODESIZE ISZERO DUP1 ISZERO PUSH2 0x3BA JUMPI PUSH1 0x0 DUP1 REVERT JUMPDEST POP GAS STATICCALL ISZERO DUP1 ISZERO PUSH2 0x3CE JUMPI RETURNDATASIZE PUSH1 0x0 DUP1 RETURNDATACOPY RETURNDATASIZE PUSH1 0x0 REVERT JUMPDEST POP POP POP POP PUSH1 0x40 MLOAD RETURNDATASIZE PUSH1 0x0 DUP3 RETURNDATACOPY PUSH1 0x1F RETURNDATASIZE SWAP1 DUP2 ADD PUSH1 0x1F NOT AND DUP3 ADD PUSH1 0x40 MSTORE PUSH2 0x3F6 SWAP2 SWAP1 DUP2 ADD SWAP1 PUSH2 0x2CFF JUMP JUMPDEST PUSH1 0x40 MLOAD PUSH1 0x20 ADD PUSH2 0x406 SWAP2 SWAP1 PUSH2 0x2E98 JUMP JUMPDEST PUSH1 0x40 MLOAD PUSH1 0x20 DUP2 DUP4 SUB SUB DUP2 MSTORE SWAP1 PUSH1 0x40 MSTORE DUP1 MLOAD SWAP1 PUSH1 0x20 ADD KECCAK256 EQ PUSH2 0x442 JUMPI PUSH1 0x40 MLOAD PUSH3 0x461BCD PUSH1 0xE5 SHL DUP2 MSTORE PUSH1 0x4 ADD PUSH2 0x439 SWAP1 PUSH2 0x31DF JUMP JUMPDEST PUSH1 0x40 MLOAD DUP1 SWAP2 SUB SWAP1 REVERT JUMPDEST DUP1 PUSH1 0x40 MLOAD PUSH1 0x20 ADD PUSH2 0x453 SWAP2 SWAP1 PUSH2 0x2E98 JUMP JUMPDEST PUSH1 0x40 MLOAD PUSH1 0x20 DUP2 DUP4 SUB SUB DUP2 MSTORE SWAP1 PUSH1 0x40 MSTORE DUP1 MLOAD SWAP1 PUSH1 0x20 ADD KECCAK256 PUSH2 0x472 DUP4 PUSH2 0x105F JUMP JUMPDEST PUSH1 0x40 MLOAD PUSH1 0x20 ADD PUSH2 0x482 SWAP2 SWAP1 PUSH2 0x2E98 JUMP JUMPDEST PUSH1 0x40 MLOAD PUSH1 0x20 DUP2 DUP4 SUB SUB DUP2 MSTORE SWAP1 PUSH1 0x40 MSTORE DUP1 MLOAD SWAP1 PUSH1 0x20 ADD KECCAK256 EQ PUSH2 0x4B5 JUMPI PUSH1 0x40 MLOAD PUSH3 0x461BCD PUSH1 0xE5 SHL DUP2 MSTORE PUSH1 0x4 ADD PUSH2 0x439 SWAP1 PUSH2 0x3205 JUMP JUMPDEST PUSH1 0x1 PUSH1 0x1 PUSH1 0xA0 SHL SUB DUP8 DUP2 AND PUSH1 0x0 SWAP1 DUP2 MSTORE PUSH1 0x4 PUSH1 0x20 DUP2 SWAP1 MSTORE PUSH1 0x40 SWAP1 SWAP2 KECCAK256 ADD SLOAD AND CALLER EQ PUSH2 0x4F2 JUMPI PUSH1 0x40 MLOAD PUSH3 0x461BCD PUSH1 0xE5 SHL DUP2 MSTORE PUSH1 0x4 ADD PUSH2 0x439 SWAP1 PUSH2 0x310A JUMP JUMPDEST DUP6 MLOAD PUSH2 0x505 SWAP1 PUSH1 0x14 SWAP1 PUSH1 0x20 DUP10 ADD SWAP1 PUSH2 0x2838 JUMP JUMPDEST POP DUP5 MLOAD PUSH2 0x519 SWAP1 PUSH1 0x15 SWAP1 PUSH1 0x20 DUP9 ADD SWAP1 PUSH2 0x2838 JUMP JUMPDEST POP DUP4 MLOAD PUSH2 0x52D SWAP1 PUSH1 0x16 SWAP1 PUSH1 0x20 DUP8 ADD SWAP1 PUSH2 0x2838 JUMP JUMPDEST POP PUSH1 0x1 PUSH1 0x1 PUSH1 0xA0 SHL SUB DUP8 AND PUSH1 0x0 SWAP1 DUP2 MSTORE PUSH1 0x6 PUSH1 0x20 MSTORE PUSH1 0x40 SWAP1 KECCAK256 PUSH1 0x14 DUP1 SLOAD SWAP1 SWAP2 SWAP1 DUP2 SWAP1 DUP4 SWAP1 PUSH2 0x55A SWAP1 PUSH2 0x3303 JUMP JUMPDEST PUSH2 0x565 SWAP3 SWAP2 SWAP1 PUSH2 0x28BC JUMP JUMPDEST POP PUSH1 0x1 DUP3 ADD DUP2 PUSH1 0x1 ADD SWAP1 DUP1 SLOAD PUSH2 0x57A SWAP1 PUSH2 0x3303 JUMP JUMPDEST PUSH2 0x585 SWAP3 SWAP2 SWAP1 PUSH2 0x28BC JUMP JUMPDEST POP PUSH1 0x2 DUP3 ADD DUP2 PUSH1 0x2 ADD SWAP1 DUP1 SLOAD PUSH2 0x59A SWAP1 PUSH2 0x3303 JUMP JUMPDEST PUSH2 0x5A5 SWAP3 SWAP2 SWAP1 PUSH2 0x28BC JUMP JUMPDEST POP POP PUSH1 0x40 DUP1 MLOAD DUP1 DUP3 ADD DUP3 MSTORE PUSH1 0x1 DUP2 MSTORE PUSH1 0x19 PUSH1 0xF9 SHL PUSH1 0x20 DUP1 DUP4 ADD SWAP2 DUP3 MSTORE PUSH1 0x1 PUSH1 0x1 PUSH1 0xA0 SHL SUB DUP13 AND PUSH1 0x0 SWAP1 DUP2 MSTORE PUSH1 0x2 SWAP1 SWAP2 MSTORE SWAP3 SWAP1 SWAP3 KECCAK256 SWAP1 MLOAD PUSH2 0x5E8 SWAP4 POP SWAP1 SWAP2 SWAP1 PUSH2 0x2838 JUMP JUMPDEST POP PUSH1 0x40 MLOAD PUSH1 0x1 PUSH1 0x1 PUSH1 0xA0 SHL SUB DUP9 AND SWAP1 CALLER SWAP1 PUSH32 0x1A9E54C741DDEA5903C67CF93287F3E09598DDFB41D14833169DDA5AEF87FDB6 SWAP1 PUSH1 0x0 SWAP1 LOG3 POP PUSH1 0x1 SWAP7 SWAP6 POP POP POP POP POP POP JUMP JUMPDEST PUSH1 0x60 DUP1 PUSH1 0x60 DUP1 PUSH1 0x60 DUP1 PUSH1 0x0 PUSH1 0x7 PUSH1 0x0 DUP10 PUSH1 0x1 PUSH1 0x1 PUSH1 0xA0 SHL SUB AND PUSH1 0x1 PUSH1 0x1 PUSH1 0xA0 SHL SUB AND DUP2 MSTORE PUSH1 0x20 ADD SWAP1 DUP2 MSTORE PUSH1 0x20 ADD PUSH1 0x0 KECCAK256 PUSH1 0x40 MLOAD DUP1 PUSH1 0xC0 ADD PUSH1 0x40 MSTORE SWAP1 DUP2 PUSH1 0x0 DUP3 ADD DUP1 SLOAD PUSH2 0x677 SWAP1 PUSH2 0x3303 JUMP JUMPDEST DUP1 PUSH1 0x1F ADD PUSH1 0x20 DUP1 SWAP2 DIV MUL PUSH1 0x20 ADD PUSH1 0x40 MLOAD SWAP1 DUP2 ADD PUSH1 0x40 MSTORE DUP1 SWAP3 SWAP2 SWAP1 DUP2 DUP2 MSTORE PUSH1 0x20 ADD DUP3 DUP1 SLOAD PUSH2 0x6A3 SWAP1 PUSH2 0x3303 JUMP JUMPDEST DUP1 ISZERO PUSH2 0x6F0 JUMPI DUP1 PUSH1 0x1F LT PUSH2 0x6C5 JUMPI PUSH2 0x100 DUP1 DUP4 SLOAD DIV MUL DUP4 MSTORE SWAP2 PUSH1 0x20 ADD SWAP2 PUSH2 0x6F0 JUMP JUMPDEST DUP3 ADD SWAP2 SWAP1 PUSH1 0x0 MSTORE PUSH1 0x20 PUSH1 0x0 KECCAK256 SWAP1 JUMPDEST DUP2 SLOAD DUP2 MSTORE SWAP1 PUSH1 0x1 ADD SWAP1 PUSH1 0x20 ADD DUP1 DUP4 GT PUSH2 0x6D3 JUMPI DUP3 SWAP1 SUB PUSH1 0x1F AND DUP3 ADD SWAP2 JUMPDEST POP POP POP POP POP DUP2 MSTORE PUSH1 0x20 ADD PUSH1 0x1 DUP3 ADD DUP1 SLOAD PUSH2 0x709 SWAP1 PUSH2 0x3303 JUMP JUMPDEST DUP1 PUSH1 0x1F ADD PUSH1 0x20 DUP1 SWAP2 DIV MUL PUSH1 0x20 ADD PUSH1 0x40 MLOAD SWAP1 DUP2 ADD PUSH1 0x40 MSTORE DUP1 SWAP3 SWAP2 SWAP1 DUP2 DUP2 MSTORE PUSH1 0x20 ADD DUP3 DUP1 SLOAD PUSH2 0x735 SWAP1 PUSH2 0x3303 JUMP JUMPDEST DUP1 ISZERO PUSH2 0x782 JUMPI DUP1 PUSH1 0x1F LT PUSH2 0x757 JUMPI PUSH2 0x100 DUP1 DUP4 SLOAD DIV MUL DUP4 MSTORE SWAP2 PUSH1 0x20 ADD SWAP2 PUSH2 0x782 JUMP JUMPDEST DUP3 ADD SWAP2 SWAP1 PUSH1 0x0 MSTORE PUSH1 0x20 PUSH1 0x0 KECCAK256 SWAP1 JUMPDEST DUP2 SLOAD DUP2 MSTORE SWAP1 PUSH1 0x1 ADD SWAP1 PUSH1 0x20 ADD DUP1 DUP4 GT PUSH2 0x765 JUMPI DUP3 SWAP1 SUB PUSH1 0x1F AND DUP3 ADD SWAP2 JUMPDEST POP POP POP POP POP DUP2 MSTORE PUSH1 0x20 ADD PUSH1 0x2 DUP3 ADD DUP1 SLOAD PUSH2 0x79B SWAP1 PUSH2 0x3303 JUMP JUMPDEST DUP1 PUSH1 0x1F ADD PUSH1 0x20 DUP1 SWAP2 DIV MUL PUSH1 0x20 ADD PUSH1 0x40 MLOAD SWAP1 DUP2 ADD PUSH1 0x40 MSTORE DUP1 SWAP3 SWAP2 SWAP1 DUP2 DUP2 MSTORE PUSH1 0x20 ADD DUP3 DUP1 SLOAD PUSH2 0x7C7 SWAP1 PUSH2 0x3303 JUMP JUMPDEST DUP1 ISZERO PUSH2 0x814 JUMPI DUP1 PUSH1 0x1F LT PUSH2 0x7E9 JUMPI PUSH2 0x100 DUP1 DUP4 SLOAD DIV MUL DUP4 MSTORE SWAP2 PUSH1 0x20 ADD SWAP2 PUSH2 0x814 JUMP JUMPDEST DUP3 ADD SWAP2 SWAP1 PUSH1 0x0 MSTORE PUSH1 0x20 PUSH1 0x0 KECCAK256 SWAP1 JUMPDEST DUP2 SLOAD DUP2 MSTORE SWAP1 PUSH1 0x1 ADD SWAP1 PUSH1 0x20 ADD DUP1 DUP4 GT PUSH2 0x7F7 JUMPI DUP3 SWAP1 SUB PUSH1 0x1F AND DUP3 ADD SWAP2 JUMPDEST POP POP POP POP POP DUP2 MSTORE PUSH1 0x20 ADD PUSH1 0x3 DUP3 ADD DUP1 SLOAD PUSH2 0x82D SWAP1 PUSH2 0x3303 JUMP JUMPDEST DUP1 PUSH1 0x1F ADD PUSH1 0x20 DUP1 SWAP2 DIV MUL PUSH1 0x20 ADD PUSH1 0x40 MLOAD SWAP1 DUP2 ADD PUSH1 0x40 MSTORE DUP1 SWAP3 SWAP2 SWAP1 DUP2 DUP2 MSTORE PUSH1 0x20 ADD DUP3 DUP1 SLOAD PUSH2 0x859 SWAP1 PUSH2 0x3303 JUMP JUMPDEST DUP1 ISZERO PUSH2 0x8A6 JUMPI DUP1 PUSH1 0x1F LT PUSH2 0x87B JUMPI PUSH2 0x100 DUP1 DUP4 SLOAD DIV MUL DUP4 MSTORE SWAP2 PUSH1 0x20 ADD SWAP2 PUSH2 0x8A6 JUMP JUMPDEST DUP3 ADD SWAP2 SWAP1 PUSH1 0x0 MSTORE PUSH1 0x20 PUSH1 0x0 KECCAK256 SWAP1 JUMPDEST DUP2 SLOAD DUP2 MSTORE SWAP1 PUSH1 0x1 ADD SWAP1 PUSH1 0x20 ADD DUP1 DUP4 GT PUSH2 0x889 JUMPI DUP3 SWAP1 SUB PUSH1 0x1F AND DUP3 ADD SWAP2 JUMPDEST POP POP POP POP POP DUP2 MSTORE PUSH1 0x20 ADD PUSH1 0x4 DUP3 ADD DUP1 SLOAD PUSH2 0x8BF SWAP1 PUSH2 0x3303 JUMP JUMPDEST DUP1 PUSH1 0x1F ADD PUSH1 0x20 DUP1 SWAP2 DIV MUL PUSH1 0x20 ADD PUSH1 0x40 MLOAD SWAP1 DUP2 ADD PUSH1 0x40 MSTORE DUP1 SWAP3 SWAP2 SWAP1 DUP2 DUP2 MSTORE PUSH1 0x20 ADD DUP3 DUP1 SLOAD PUSH2 0x8EB SWAP1 PUSH2 0x3303 JUMP JUMPDEST DUP1 ISZERO PUSH2 0x938 JUMPI DUP1 PUSH1 0x1F LT PUSH2 0x90D JUMPI PUSH2 0x100 DUP1 DUP4 SLOAD DIV MUL DUP4 MSTORE SWAP2 PUSH1 0x20 ADD SWAP2 PUSH2 0x938 JUMP JUMPDEST DUP3 ADD SWAP2 SWAP1 PUSH1 0x0 MSTORE PUSH1 0x20 PUSH1 0x0 KECCAK256 SWAP1 JUMPDEST DUP2 SLOAD DUP2 MSTORE SWAP1 PUSH1 0x1 ADD SWAP1 PUSH1 0x20 ADD DUP1 DUP4 GT PUSH2 0x91B JUMPI DUP3 SWAP1 SUB PUSH1 0x1F AND DUP3 ADD SWAP2 JUMPDEST POP POP POP POP POP DUP2 MSTORE PUSH1 0x20 ADD PUSH1 0x5 DUP3 ADD DUP1 SLOAD PUSH2 0x951 SWAP1 PUSH2 0x3303 JUMP JUMPDEST DUP1 PUSH1 0x1F ADD PUSH1 0x20 DUP1 SWAP2 DIV MUL PUSH1 0x20 ADD PUSH1 0x40 MLOAD SWAP1 DUP2 ADD PUSH1 0x40 MSTORE DUP1 SWAP3 SWAP2 SWAP1 DUP2 DUP2 MSTORE PUSH1 0x20 ADD DUP3 DUP1 SLOAD PUSH2 0x97D SWAP1 PUSH2 0x3303 JUMP JUMPDEST DUP1 ISZERO PUSH2 0x9CA JUMPI DUP1 PUSH1 0x1F LT PUSH2 0x99F JUMPI PUSH2 0x100 DUP1 DUP4 SLOAD DIV MUL DUP4 MSTORE SWAP2 PUSH1 0x20 ADD SWAP2 PUSH2 0x9CA JUMP JUMPDEST DUP3 ADD SWAP2 SWAP1 PUSH1 0x0 MSTORE PUSH1 0x20 PUSH1 0x0 KECCAK256 SWAP1 JUMPDEST DUP2 SLOAD DUP2 MSTORE SWAP1 PUSH1 0x1 ADD SWAP1 PUSH1 0x20 ADD DUP1 DUP4 GT PUSH2 0x9AD JUMPI DUP3 SWAP1 SUB PUSH1 0x1F AND DUP3 ADD SWAP2 JUMPDEST POP POP POP SWAP2 SWAP1 SWAP3 MSTORE POP POP DUP2 MLOAD PUSH1 0x20 DUP4 ADD MLOAD PUSH1 0x40 DUP5 ADD MLOAD PUSH1 0x60 DUP6 ADD MLOAD PUSH1 0x80 DUP7 ADD MLOAD PUSH1 0xA0 SWAP1 SWAP7 ADD MLOAD SWAP4 SWAP15 SWAP3 SWAP14 POP SWAP1 SWAP12 POP SWAP10 POP SWAP3 SWAP8 POP SWAP6 POP SWAP1 SWAP4 POP POP POP POP JUMP JUMPDEST PUSH1 0x0 DUP4 PUSH1 0x40 MLOAD DUP1 PUSH1 0x40 ADD PUSH1 0x40 MSTORE DUP1 PUSH1 0x1 DUP2 MSTORE PUSH1 0x20 ADD PUSH1 0x3 PUSH1 0xFC SHL DUP2 MSTORE POP DUP1 PUSH1 0x40 MLOAD PUSH1 0x20 ADD PUSH2 0xA34 SWAP2 SWAP1 PUSH2 0x2E98 JUMP JUMPDEST PUSH1 0x40 DUP1 MLOAD PUSH1 0x1F NOT DUP2 DUP5 SUB ADD DUP2 MSTORE SWAP1 DUP3 SWAP1 MSTORE DUP1 MLOAD PUSH1 0x20 SWAP1 SWAP2 ADD KECCAK256 PUSH1 0x1 SLOAD PUSH4 0x9F7B4E5 PUSH1 0xE3 SHL DUP4 MSTORE SWAP1 SWAP2 PUSH1 0x1 PUSH1 0x1 PUSH1 0xA0 SHL SUB SWAP1 SWAP2 AND SWAP1 PUSH4 0x4FBDA728 SWAP1 PUSH2 0xA7C SWAP1 CALLER SWAP1 PUSH1 0x4 ADD PUSH2 0x2EB4 JUMP JUMPDEST PUSH1 0x0 PUSH1 0x40 MLOAD DUP1 DUP4 SUB DUP2 DUP7 DUP1 EXTCODESIZE ISZERO DUP1 ISZERO PUSH2 0xA94 JUMPI PUSH1 0x0 DUP1 REVERT JUMPDEST POP GAS STATICCALL ISZERO DUP1 ISZERO PUSH2 0xAA8 JUMPI RETURNDATASIZE PUSH1 0x0 DUP1 RETURNDATACOPY RETURNDATASIZE PUSH1 0x0 REVERT JUMPDEST POP POP POP POP PUSH1 0x40 MLOAD RETURNDATASIZE PUSH1 0x0 DUP3 RETURNDATACOPY PUSH1 0x1F RETURNDATASIZE SWAP1 DUP2 ADD PUSH1 0x1F NOT AND DUP3 ADD PUSH1 0x40 MSTORE PUSH2 0xAD0 SWAP2 SWAP1 DUP2 ADD SWAP1 PUSH2 0x2CFF JUMP JUMPDEST PUSH1 0x40 MLOAD PUSH1 0x20 ADD PUSH2 0xAE0 SWAP2 SWAP1 PUSH2 0x2E98 JUMP JUMPDEST PUSH1 0x40 MLOAD PUSH1 0x20 DUP2 DUP4 SUB SUB DUP2 MSTORE SWAP1 PUSH1 0x40 MSTORE DUP1 MLOAD SWAP1 PUSH1 0x20 ADD KECCAK256 EQ PUSH2 0xB13 JUMPI PUSH1 0x40 MLOAD PUSH3 0x461BCD PUSH1 0xE5 SHL DUP2 MSTORE PUSH1 0x4 ADD PUSH2 0x439 SWAP1 PUSH2 0x31DF JUMP JUMPDEST DUP1 PUSH1 0x40 MLOAD PUSH1 0x20 ADD PUSH2 0xB24 SWAP2 SWAP1 PUSH2 0x2E98 JUMP JUMPDEST PUSH1 0x40 MLOAD PUSH1 0x20 DUP2 DUP4 SUB SUB DUP2 MSTORE SWAP1 PUSH1 0x40 MSTORE DUP1 MLOAD SWAP1 PUSH1 0x20 ADD KECCAK256 PUSH2 0xB43 DUP4 PUSH2 0x105F JUMP JUMPDEST PUSH1 0x40 MLOAD PUSH1 0x20 ADD PUSH2 0xB53 SWAP2 SWAP1 PUSH2 0x2E98 JUMP JUMPDEST PUSH1 0x40 MLOAD PUSH1 0x20 DUP2 DUP4 SUB SUB DUP2 MSTORE SWAP1 PUSH1 0x40 MSTORE DUP1 MLOAD SWAP1 PUSH1 0x20 ADD KECCAK256 EQ PUSH2 0xB86 JUMPI PUSH1 0x40 MLOAD PUSH3 0x461BCD PUSH1 0xE5 SHL DUP2 MSTORE PUSH1 0x4 ADD PUSH2 0x439 SWAP1 PUSH2 0x3205 JUMP JUMPDEST PUSH1 0x1 PUSH1 0x1 PUSH1 0xA0 SHL SUB DUP7 DUP2 AND PUSH1 0x0 SWAP1 DUP2 MSTORE PUSH1 0x4 PUSH1 0x20 MSTORE PUSH1 0x40 SWAP1 KECCAK256 PUSH1 0x3 ADD SLOAD AND CALLER EQ PUSH2 0xBC2 JUMPI PUSH1 0x40 MLOAD PUSH3 0x461BCD PUSH1 0xE5 SHL DUP2 MSTORE PUSH1 0x4 ADD PUSH2 0x439 SWAP1 PUSH2 0x3161 JUMP JUMPDEST DUP5 MLOAD PUSH2 0xBD5 SWAP1 PUSH1 0x12 SWAP1 PUSH1 0x20 DUP9 ADD SWAP1 PUSH2 0x2838 JUMP JUMPDEST POP DUP4 MLOAD PUSH2 0xBE9 SWAP1 PUSH1 0x13 SWAP1 PUSH1 0x20 DUP8 ADD SWAP1 PUSH2 0x2838 JUMP JUMPDEST POP PUSH1 0x1 PUSH1 0x1 PUSH1 0xA0 SHL SUB DUP7 AND PUSH1 0x0 SWAP1 DUP2 MSTORE PUSH1 0x5 PUSH1 0x20 MSTORE PUSH1 0x40 SWAP1 KECCAK256 PUSH1 0x12 DUP1 SLOAD SWAP1 SWAP2 SWAP1 DUP2 SWAP1 DUP4 SWAP1 PUSH2 0xC16 SWAP1 PUSH2 0x3303 JUMP JUMPDEST PUSH2 0xC21 SWAP3 SWAP2 SWAP1 PUSH2 0x28BC JUMP JUMPDEST POP PUSH1 0x1 DUP3 ADD DUP2 PUSH1 0x1 ADD SWAP1 DUP1 SLOAD PUSH2 0xC36 SWAP1 PUSH2 0x3303 JUMP JUMPDEST PUSH2 0xC41 SWAP3 SWAP2 SWAP1 PUSH2 0x28BC JUMP JUMPDEST POP POP PUSH1 0x40 DUP1 MLOAD DUP1 DUP3 ADD DUP3 MSTORE PUSH1 0x1 DUP2 MSTORE PUSH1 0x31 PUSH1 0xF8 SHL PUSH1 0x20 DUP1 DUP4 ADD SWAP2 DUP3 MSTORE PUSH1 0x1 PUSH1 0x1 PUSH1 0xA0 SHL SUB DUP12 AND PUSH1 0x0 SWAP1 DUP2 MSTORE PUSH1 0x2 SWAP1 SWAP2 MSTORE SWAP3 SWAP1 SWAP3 KECCAK256 SWAP1 MLOAD PUSH2 0xC84 SWAP4 POP SWAP1 SWAP2 SWAP1 PUSH2 0x2838 JUMP JUMPDEST POP PUSH1 0x40 MLOAD PUSH1 0x1 PUSH1 0x1 PUSH1 0xA0 SHL SUB DUP8 AND SWAP1 CALLER SWAP1 PUSH32 0x20CD58BA911ED241D89BC5A95DB6D653509665A2CD05C7FE08FCA46237150ED9 SWAP1 PUSH1 0x0 SWAP1 LOG3 POP PUSH1 0x1 SWAP6 SWAP5 POP POP POP POP POP JUMP JUMPDEST PUSH1 0x0 DUP1 SLOAD PUSH1 0x1 PUSH1 0x1 PUSH1 0xA0 SHL SUB AND CALLER EQ PUSH2 0xCF2 JUMPI PUSH1 0x40 MLOAD PUSH3 0x461BCD PUSH1 0xE5 SHL DUP2 MSTORE PUSH1 0x4 ADD PUSH2 0x439 SWAP1 PUSH2 0x3134 JUMP JUMPDEST PUSH1 0x1 PUSH1 0x1 PUSH1 0xA0 SHL SUB DUP3 AND PUSH1 0x0 DUP2 DUP2 MSTORE PUSH1 0x3 PUSH1 0x20 MSTORE PUSH1 0x40 DUP1 DUP3 KECCAK256 DUP1 SLOAD PUSH1 0xFF NOT AND SWAP1 SSTORE MLOAD PUSH32 0xC5238A63FA205F95E98807F6CBC91D2AD8555A2250075E47491F11D9C69DB3BC SWAP2 PUSH2 0xD3F SWAP2 PUSH2 0x2EC8 JUMP JUMPDEST PUSH1 0x40 MLOAD DUP1 SWAP2 SUB SWAP1 LOG2 POP PUSH1 0x1 JUMPDEST SWAP2 SWAP1 POP JUMP JUMPDEST PUSH1 0x0 DUP1 SLOAD PUSH1 0x1 PUSH1 0x1 PUSH1 0xA0 SHL SUB AND CALLER EQ PUSH2 0xD7B JUMPI PUSH1 0x40 MLOAD PUSH3 0x461BCD PUSH1 0xE5 SHL DUP2 MSTORE PUSH1 0x4 ADD PUSH2 0x439 SWAP1 PUSH2 0x3134 JUMP JUMPDEST PUSH1 0x1 PUSH1 0x1 PUSH1 0xA0 SHL SUB DUP3 AND PUSH1 0x0 DUP2 DUP2 MSTORE PUSH1 0x3 PUSH1 0x20 MSTORE PUSH1 0x40 SWAP1 DUP2 SWAP1 KECCAK256 DUP1 SLOAD PUSH1 0xFF NOT AND PUSH1 0x1 SWAP1 DUP2 OR SWAP1 SWAP2 SSTORE SWAP1 MLOAD PUSH32 0xC5238A63FA205F95E98807F6CBC91D2AD8555A2250075E47491F11D9C69DB3BC SWAP2 PUSH2 0xD3F SWAP2 PUSH2 0x2EC8 JUMP JUMPDEST PUSH1 0x60 DUP1 PUSH1 0x60 PUSH1 0x0 DUP1 PUSH1 0x0 DUP1 PUSH1 0x0 DUP1 PUSH1 0x4 PUSH1 0x0 DUP12 PUSH1 0x1 PUSH1 0x1 PUSH1 0xA0 SHL SUB AND PUSH1 0x1 PUSH1 0x1 PUSH1 0xA0 SHL SUB AND DUP2 MSTORE PUSH1 0x20 ADD SWAP1 DUP2 MSTORE PUSH1 0x20 ADD PUSH1 0x0 KECCAK256 PUSH1 0x40 MLOAD DUP1 PUSH2 0x100 ADD PUSH1 0x40 MSTORE SWAP1 DUP2 PUSH1 0x0 DUP3 ADD DUP1 SLOAD PUSH2 0xE1F SWAP1 PUSH2 0x3303 JUMP JUMPDEST DUP1 PUSH1 0x1F ADD PUSH1 0x20 DUP1 SWAP2 DIV MUL PUSH1 0x20 ADD PUSH1 0x40 MLOAD SWAP1 DUP2 ADD PUSH1 0x40 MSTORE DUP1 SWAP3 SWAP2 SWAP1 DUP2 DUP2 MSTORE PUSH1 0x20 ADD DUP3 DUP1 SLOAD PUSH2 0xE4B SWAP1 PUSH2 0x3303 JUMP JUMPDEST DUP1 ISZERO PUSH2 0xE98 JUMPI DUP1 PUSH1 0x1F LT PUSH2 0xE6D JUMPI PUSH2 0x100 DUP1 DUP4 SLOAD DIV MUL DUP4 MSTORE SWAP2 PUSH1 0x20 ADD SWAP2 PUSH2 0xE98 JUMP JUMPDEST DUP3 ADD SWAP2 SWAP1 PUSH1 0x0 MSTORE PUSH1 0x20 PUSH1 0x0 KECCAK256 SWAP1 JUMPDEST DUP2 SLOAD DUP2 MSTORE SWAP1 PUSH1 0x1 ADD SWAP1 PUSH1 0x20 ADD DUP1 DUP4 GT PUSH2 0xE7B JUMPI DUP3 SWAP1 SUB PUSH1 0x1F AND DUP3 ADD SWAP2 JUMPDEST POP POP POP POP POP DUP2 MSTORE PUSH1 0x20 ADD PUSH1 0x1 DUP3 ADD DUP1 SLOAD PUSH2 0xEB1 SWAP1 PUSH2 0x3303 JUMP JUMPDEST DUP1 PUSH1 0x1F ADD PUSH1 0x20 DUP1 SWAP2 DIV MUL PUSH1 0x20 ADD PUSH1 0x40 MLOAD SWAP1 DUP2 ADD PUSH1 0x40 MSTORE DUP1 SWAP3 SWAP2 SWAP1 DUP2 DUP2 MSTORE PUSH1 0x20 ADD DUP3 DUP1 SLOAD PUSH2 0xEDD SWAP1 PUSH2 0x3303 JUMP JUMPDEST DUP1 ISZERO PUSH2 0xF2A JUMPI DUP1 PUSH1 0x1F LT PUSH2 0xEFF JUMPI PUSH2 0x100 DUP1 DUP4 SLOAD DIV MUL DUP4 MSTORE SWAP2 PUSH1 0x20 ADD SWAP2 PUSH2 0xF2A JUMP JUMPDEST DUP3 ADD SWAP2 SWAP1 PUSH1 0x0 MSTORE PUSH1 0x20 PUSH1 0x0 KECCAK256 SWAP1 JUMPDEST DUP2 SLOAD DUP2 MSTORE SWAP1 PUSH1 0x1 ADD SWAP1 PUSH1 0x20 ADD DUP1 DUP4 GT PUSH2 0xF0D JUMPI DUP3 SWAP1 SUB PUSH1 0x1F AND DUP3 ADD SWAP2 JUMPDEST POP POP POP POP POP DUP2 MSTORE PUSH1 0x20 ADD PUSH1 0x2 DUP3 ADD DUP1 SLOAD PUSH2 0xF43 SWAP1 PUSH2 0x3303 JUMP JUMPDEST DUP1 PUSH1 0x1F ADD PUSH1 0x20 DUP1 SWAP2 DIV MUL PUSH1 0x20 ADD PUSH1 0x40 MLOAD SWAP1 DUP2 ADD PUSH1 0x40 MSTORE DUP1 SWAP3 SWAP2 SWAP1 DUP2 DUP2 MSTORE PUSH1 0x20 ADD DUP3 DUP1 SLOAD PUSH2 0xF6F SWAP1 PUSH2 0x3303 JUMP JUMPDEST DUP1 ISZERO PUSH2 0xFBC JUMPI DUP1 PUSH1 0x1F LT PUSH2 0xF91 JUMPI PUSH2 0x100 DUP1 DUP4 SLOAD DIV MUL DUP4 MSTORE SWAP2 PUSH1 0x20 ADD SWAP2 PUSH2 0xFBC JUMP JUMPDEST DUP3 ADD SWAP2 SWAP1 PUSH1 0x0 MSTORE PUSH1 0x20 PUSH1 0x0 KECCAK256 SWAP1 JUMPDEST DUP2 SLOAD DUP2 MSTORE SWAP1 PUSH1 0x1 ADD SWAP1 PUSH1 0x20 ADD DUP1 DUP4 GT PUSH2 0xF9F JUMPI DUP3 SWAP1 SUB PUSH1 0x1F AND DUP3 ADD SWAP2 JUMPDEST POP POP POP SWAP2 DUP4 MSTORE POP POP PUSH1 0x3 DUP3 ADD SLOAD PUSH1 0x1 PUSH1 0x1 PUSH1 0xA0 SHL SUB SWAP1 DUP2 AND PUSH1 0x20 DUP1 DUP5 ADD SWAP2 SWAP1 SWAP2 MSTORE PUSH1 0x4 DUP5 ADD SLOAD DUP3 AND PUSH1 0x40 DUP1 DUP6 ADD SWAP2 SWAP1 SWAP2 MSTORE PUSH1 0x5 DUP6 ADD SLOAD DUP4 AND PUSH1 0x60 DUP1 DUP7 ADD SWAP2 SWAP1 SWAP2 MSTORE PUSH1 0x6 DUP7 ADD SLOAD DUP5 AND PUSH1 0x80 DUP1 DUP8 ADD SWAP2 SWAP1 SWAP2 MSTORE PUSH1 0x7 SWAP1 SWAP7 ADD SLOAD SWAP1 SWAP4 AND PUSH1 0xA0 SWAP5 DUP6 ADD MSTORE DUP6 MLOAD SWAP2 DUP7 ADD MLOAD SWAP1 DUP7 ADD MLOAD SWAP3 DUP7 ADD MLOAD SWAP5 DUP7 ADD MLOAD SWAP4 DUP7 ADD MLOAD PUSH1 0xC0 DUP8 ADD MLOAD PUSH1 0xE0 SWAP1 SWAP8 ADD MLOAD SWAP3 SWAP16 POP SWAP1 SWAP14 POP SWAP2 SWAP12 POP SWAP3 SWAP10 POP SWAP1 SWAP8 POP SWAP6 POP SWAP1 SWAP4 POP SWAP2 POP POP SWAP2 SWAP4 SWAP6 SWAP8 POP SWAP2 SWAP4 SWAP6 SWAP8 JUMP JUMPDEST PUSH1 0x60 PUSH2 0x106A DUP3 PUSH2 0x18B3 JUMP JUMPDEST SWAP3 SWAP2 POP POP JUMP JUMPDEST PUSH1 0x60 DUP1 PUSH1 0x0 PUSH1 0x5 PUSH1 0x0 DUP6 PUSH1 0x1 PUSH1 0x1 PUSH1 0xA0 SHL SUB AND PUSH1 0x1 PUSH1 0x1 PUSH1 0xA0 SHL SUB AND DUP2 MSTORE PUSH1 0x20 ADD SWAP1 DUP2 MSTORE PUSH1 0x20 ADD PUSH1 0x0 KECCAK256 PUSH1 0x40 MLOAD DUP1 PUSH1 0x40 ADD PUSH1 0x40 MSTORE SWAP1 DUP2 PUSH1 0x0 DUP3 ADD DUP1 SLOAD PUSH2 0x10B5 SWAP1 PUSH2 0x3303 JUMP JUMPDEST DUP1 PUSH1 0x1F ADD PUSH1 0x20 DUP1 SWAP2 DIV MUL PUSH1 0x20 ADD PUSH1 0x40 MLOAD SWAP1 DUP2 ADD PUSH1 0x40 MSTORE DUP1 SWAP3 SWAP2 SWAP1 DUP2 DUP2 MSTORE PUSH1 0x20 ADD DUP3 DUP1 SLOAD PUSH2 0x10E1 SWAP1 PUSH2 0x3303 JUMP JUMPDEST DUP1 ISZERO PUSH2 0x112E JUMPI DUP1 PUSH1 0x1F LT PUSH2 0x1103 JUMPI PUSH2 0x100 DUP1 DUP4 SLOAD DIV MUL DUP4 MSTORE SWAP2 PUSH1 0x20 ADD SWAP2 PUSH2 0x112E JUMP JUMPDEST DUP3 ADD SWAP2 SWAP1 PUSH1 0x0 MSTORE PUSH1 0x20 PUSH1 0x0 KECCAK256 SWAP1 JUMPDEST DUP2 SLOAD DUP2 MSTORE SWAP1 PUSH1 0x1 ADD SWAP1 PUSH1 0x20 ADD DUP1 DUP4 GT PUSH2 0x1111 JUMPI DUP3 SWAP1 SUB PUSH1 0x1F AND DUP3 ADD SWAP2 JUMPDEST POP POP POP POP POP DUP2 MSTORE PUSH1 0x20 ADD PUSH1 0x1 DUP3 ADD DUP1 SLOAD PUSH2 0x1147 SWAP1 PUSH2 0x3303 JUMP JUMPDEST DUP1 PUSH1 0x1F ADD PUSH1 0x20 DUP1 SWAP2 DIV MUL PUSH1 0x20 ADD PUSH1 0x40 MLOAD SWAP1 DUP2 ADD PUSH1 0x40 MSTORE DUP1 SWAP3 SWAP2 SWAP1 DUP2 DUP2 MSTORE PUSH1 0x20 ADD DUP3 DUP1 SLOAD PUSH2 0x1173 SWAP1 PUSH2 0x3303 JUMP JUMPDEST DUP1 ISZERO PUSH2 0x11C0 JUMPI DUP1 PUSH1 0x1F LT PUSH2 0x1195 JUMPI PUSH2 0x100 DUP1 DUP4 SLOAD DIV MUL DUP4 MSTORE SWAP2 PUSH1 0x20 ADD SWAP2 PUSH2 0x11C0 JUMP JUMPDEST DUP3 ADD SWAP2 SWAP1 PUSH1 0x0 MSTORE PUSH1 0x20 PUSH1 0x0 KECCAK256 SWAP1 JUMPDEST DUP2 SLOAD DUP2 MSTORE SWAP1 PUSH1 0x1 ADD SWAP1 PUSH1 0x20 ADD DUP1 DUP4 GT PUSH2 0x11A3 JUMPI DUP3 SWAP1 SUB PUSH1 0x1F AND DUP3 ADD SWAP2 JUMPDEST POP POP POP POP POP DUP2 MSTORE POP POP SWAP1 POP DUP1 PUSH1 0x0 ADD MLOAD DUP2 PUSH1 0x20 ADD MLOAD SWAP3 POP SWAP3 POP POP SWAP2 POP SWAP2 JUMP JUMPDEST PUSH1 0x0 SLOAD PUSH1 0x1 PUSH1 0x1 PUSH1 0xA0 SHL SUB AND CALLER EQ PUSH2 0x1209 JUMPI PUSH1 0x40 MLOAD PUSH3 0x461BCD PUSH1 0xE5 SHL DUP2 MSTORE PUSH1 0x4 ADD PUSH2 0x439 SWAP1 PUSH2 0x3134 JUMP JUMPDEST PUSH1 0x0 DUP1 SLOAD PUSH1 0x40 MLOAD PUSH1 0x1 PUSH1 0x1 PUSH1 0xA0 SHL SUB SWAP1 SWAP2 AND SWAP2 PUSH32 0xF8DF31144D9C2F0F6B59D69B8B98ABD5459D07F2742C4DF920B25AAE33C64820 SWAP2 LOG2 PUSH1 0x0 DUP1 SLOAD PUSH1 0x1 PUSH1 0x1 PUSH1 0xA0 SHL SUB NOT AND SWAP1 SSTORE JUMP JUMPDEST PUSH1 0x0 SLOAD PUSH1 0x1 PUSH1 0x1 PUSH1 0xA0 SHL SUB AND DUP2 JUMP JUMPDEST PUSH1 0x3 PUSH1 0x20 MSTORE PUSH1 0x0 SWAP1 DUP2 MSTORE PUSH1 0x40 SWAP1 KECCAK256 SLOAD PUSH1 0xFF AND DUP2 JUMP JUMPDEST PUSH1 0x0 DUP9 PUSH1 0x40 MLOAD DUP1 PUSH1 0x40 ADD PUSH1 0x40 MSTORE DUP1 PUSH1 0x1 DUP2 MSTORE PUSH1 0x20 ADD PUSH1 0xD PUSH1 0xFA SHL DUP2 MSTORE POP DUP1 PUSH1 0x40 MLOAD PUSH1 0x20 ADD PUSH2 0x12A3 SWAP2 SWAP1 PUSH2 0x2E98 JUMP JUMPDEST PUSH1 0x40 DUP1 MLOAD PUSH1 0x1F NOT DUP2 DUP5 SUB ADD DUP2 MSTORE SWAP1 DUP3 SWAP1 MSTORE DUP1 MLOAD PUSH1 0x20 SWAP1 SWAP2 ADD KECCAK256 PUSH1 0x1 SLOAD PUSH4 0x9F7B4E5 PUSH1 0xE3 SHL DUP4 MSTORE SWAP1 SWAP2 PUSH1 0x1 PUSH1 0x1 PUSH1 0xA0 SHL SUB SWAP1 SWAP2 AND SWAP1 PUSH4 0x4FBDA728 SWAP1 PUSH2 0x12EB SWAP1 CALLER SWAP1 PUSH1 0x4 ADD PUSH2 0x2EB4 JUMP JUMPDEST PUSH1 0x0 PUSH1 0x40 MLOAD DUP1 DUP4 SUB DUP2 DUP7 DUP1 EXTCODESIZE ISZERO DUP1 ISZERO PUSH2 0x1303 JUMPI PUSH1 0x0 DUP1 REVERT JUMPDEST POP GAS STATICCALL ISZERO DUP1 ISZERO PUSH2 0x1317 JUMPI RETURNDATASIZE PUSH1 0x0 DUP1 RETURNDATACOPY RETURNDATASIZE PUSH1 0x0 REVERT JUMPDEST POP POP POP POP PUSH1 0x40 MLOAD RETURNDATASIZE PUSH1 0x0 DUP3 RETURNDATACOPY PUSH1 0x1F RETURNDATASIZE SWAP1 DUP2 ADD PUSH1 0x1F NOT AND DUP3 ADD PUSH1 0x40 MSTORE PUSH2 0x133F SWAP2 SWAP1 DUP2 ADD SWAP1 PUSH2 0x2CFF JUMP JUMPDEST PUSH1 0x40 MLOAD PUSH1 0x20 ADD PUSH2 0x134F SWAP2 SWAP1 PUSH2 0x2E98 JUMP JUMPDEST PUSH1 0x40 MLOAD PUSH1 0x20 DUP2 DUP4 SUB SUB DUP2 MSTORE SWAP1 PUSH1 0x40 MSTORE DUP1 MLOAD SWAP1 PUSH1 0x20 ADD KECCAK256 EQ PUSH2 0x1382 JUMPI PUSH1 0x40 MLOAD PUSH3 0x461BCD PUSH1 0xE5 SHL DUP2 MSTORE PUSH1 0x4 ADD PUSH2 0x439 SWAP1 PUSH2 0x31DF JUMP JUMPDEST DUP1 PUSH1 0x40 MLOAD PUSH1 0x20 ADD PUSH2 0x1393 SWAP2 SWAP1 PUSH2 0x2E98 JUMP JUMPDEST PUSH1 0x40 MLOAD PUSH1 0x20 DUP2 DUP4 SUB SUB DUP2 MSTORE SWAP1 PUSH1 0x40 MSTORE DUP1 MLOAD SWAP1 PUSH1 0x20 ADD KECCAK256 PUSH2 0x13B2 DUP4 PUSH2 0x105F JUMP JUMPDEST PUSH1 0x40 MLOAD PUSH1 0x20 ADD PUSH2 0x13C2 SWAP2 SWAP1 PUSH2 0x2E98 JUMP JUMPDEST PUSH1 0x40 MLOAD PUSH1 0x20 DUP2 DUP4 SUB SUB DUP2 MSTORE SWAP1 PUSH1 0x40 MSTORE DUP1 MLOAD SWAP1 PUSH1 0x20 ADD KECCAK256 EQ PUSH2 0x13F5 JUMPI PUSH1 0x40 MLOAD PUSH3 0x461BCD PUSH1 0xE5 SHL DUP2 MSTORE PUSH1 0x4 ADD PUSH2 0x439 SWAP1 PUSH2 0x3205 JUMP JUMPDEST PUSH1 0x1 PUSH1 0x1 PUSH1 0xA0 SHL SUB DUP12 DUP2 AND PUSH1 0x0 SWAP1 DUP2 MSTORE PUSH1 0x4 PUSH1 0x20 MSTORE PUSH1 0x40 SWAP1 KECCAK256 PUSH1 0x7 ADD SLOAD AND CALLER EQ PUSH2 0x1431 JUMPI PUSH1 0x40 MLOAD PUSH3 0x461BCD PUSH1 0xE5 SHL DUP2 MSTORE PUSH1 0x4 ADD PUSH2 0x439 SWAP1 PUSH2 0x31B4 JUMP JUMPDEST DUP10 MLOAD PUSH2 0x1444 SWAP1 PUSH1 0x24 SWAP1 PUSH1 0x20 DUP14 ADD SWAP1 PUSH2 0x2838 JUMP JUMPDEST POP DUP9 MLOAD PUSH2 0x1458 SWAP1 PUSH1 0x25 SWAP1 PUSH1 0x20 DUP13 ADD SWAP1 PUSH2 0x2838 JUMP JUMPDEST POP DUP8 MLOAD PUSH2 0x146C SWAP1 PUSH1 0x26 SWAP1 PUSH1 0x20 DUP12 ADD SWAP1 PUSH2 0x2838 JUMP JUMPDEST POP DUP7 MLOAD PUSH2 0x1480 SWAP1 PUSH1 0x27 SWAP1 PUSH1 0x20 DUP11 ADD SWAP1 PUSH2 0x2838 JUMP JUMPDEST POP DUP6 MLOAD PUSH2 0x1494 SWAP1 PUSH1 0x28 SWAP1 PUSH1 0x20 DUP10 ADD SWAP1 PUSH2 0x2838 JUMP JUMPDEST POP DUP5 MLOAD PUSH2 0x14A8 SWAP1 PUSH1 0x29 SWAP1 PUSH1 0x20 DUP9 ADD SWAP1 PUSH2 0x2838 JUMP JUMPDEST POP DUP4 MLOAD PUSH2 0x14BC SWAP1 PUSH1 0x2A SWAP1 PUSH1 0x20 DUP8 ADD SWAP1 PUSH2 0x2838 JUMP JUMPDEST POP PUSH1 0x1 PUSH1 0x1 PUSH1 0xA0 SHL SUB DUP12 AND PUSH1 0x0 SWAP1 DUP2 MSTORE PUSH1 0x9 PUSH1 0x20 MSTORE PUSH1 0x40 SWAP1 KECCAK256 PUSH1 0x24 DUP1 SLOAD SWAP1 SWAP2 SWAP1 DUP2 SWAP1 DUP4 SWAP1 PUSH2 0x14E9 SWAP1 PUSH2 0x3303 JUMP JUMPDEST PUSH2 0x14F4 SWAP3 SWAP2 SWAP1 PUSH2 0x28BC JUMP JUMPDEST POP PUSH1 0x1 DUP3 ADD DUP2 PUSH1 0x1 ADD SWAP1 DUP1 SLOAD PUSH2 0x1509 SWAP1 PUSH2 0x3303 JUMP JUMPDEST PUSH2 0x1514 SWAP3 SWAP2 SWAP1 PUSH2 0x28BC JUMP JUMPDEST POP PUSH1 0x2 DUP3 ADD DUP2 PUSH1 0x2 ADD SWAP1 DUP1 SLOAD PUSH2 0x1529 SWAP1 PUSH2 0x3303 JUMP JUMPDEST PUSH2 0x1534 SWAP3 SWAP2 SWAP1 PUSH2 0x28BC JUMP JUMPDEST POP PUSH1 0x3 DUP3 ADD DUP2 PUSH1 0x3 ADD SWAP1 DUP1 SLOAD PUSH2 0x1549 SWAP1 PUSH2 0x3303 JUMP JUMPDEST PUSH2 0x1554 SWAP3 SWAP2 SWAP1 PUSH2 0x28BC JUMP JUMPDEST POP PUSH1 0x4 DUP3 ADD DUP2 PUSH1 0x4 ADD SWAP1 DUP1 SLOAD PUSH2 0x1569 SWAP1 PUSH2 0x3303 JUMP JUMPDEST PUSH2 0x1574 SWAP3 SWAP2 SWAP1 PUSH2 0x28BC JUMP JUMPDEST POP PUSH1 0x5 DUP3 ADD DUP2 PUSH1 0x5 ADD SWAP1 DUP1 SLOAD PUSH2 0x1589 SWAP1 PUSH2 0x3303 JUMP JUMPDEST PUSH2 0x1594 SWAP3 SWAP2 SWAP1 PUSH2 0x28BC JUMP JUMPDEST POP PUSH1 0x6 DUP3 ADD DUP2 PUSH1 0x6 ADD SWAP1 DUP1 SLOAD PUSH2 0x15A9 SWAP1 PUSH2 0x3303 JUMP JUMPDEST PUSH2 0x15B4 SWAP3 SWAP2 SWAP1 PUSH2 0x28BC JUMP JUMPDEST POP SWAP1 POP POP PUSH1 0x40 MLOAD DUP1 PUSH1 0x40 ADD PUSH1 0x40 MSTORE DUP1 PUSH1 0x4 DUP2 MSTORE PUSH1 0x20 ADD PUSH4 0x444F4E45 PUSH1 0xE0 SHL DUP2 MSTORE POP PUSH1 0x2 PUSH1 0x0 DUP14 PUSH1 0x1 PUSH1 0x1 PUSH1 0xA0 SHL SUB AND PUSH1 0x1 PUSH1 0x1 PUSH1 0xA0 SHL SUB AND DUP2 MSTORE PUSH1 0x20 ADD SWAP1 DUP2 MSTORE PUSH1 0x20 ADD PUSH1 0x0 KECCAK256 SWAP1 DUP1 MLOAD SWAP1 PUSH1 0x20 ADD SWAP1 PUSH2 0x160D SWAP3 SWAP2 SWAP1 PUSH2 0x2838 JUMP JUMPDEST POP PUSH1 0x40 MLOAD PUSH1 0x1 PUSH1 0x1 PUSH1 0xA0 SHL SUB DUP13 AND SWAP1 CALLER SWAP1 PUSH32 0x4E233531FCA5FF48938CE2955902318DC5B5C0286E3D72FBCACA690F65C6C86F SWAP1 PUSH1 0x0 SWAP1 LOG3 POP PUSH1 0x1 SWAP11 SWAP10 POP POP POP POP POP POP POP POP POP POP JUMP JUMPDEST CALLER PUSH1 0x0 SWAP1 DUP2 MSTORE PUSH1 0x3 PUSH1 0x20 MSTORE PUSH1 0x40 DUP2 KECCAK256 SLOAD PUSH1 0xFF AND PUSH1 0x1 EQ PUSH2 0x1687 JUMPI PUSH1 0x40 MLOAD PUSH3 0x461BCD PUSH1 0xE5 SHL DUP2 MSTORE PUSH1 0x4 ADD PUSH2 0x439 SWAP1 PUSH2 0x323C JUMP JUMPDEST PUSH1 0x0 CALLER TIMESTAMP PUSH1 0x40 MLOAD PUSH1 0x20 ADD PUSH2 0x169C SWAP3 SWAP2 SWAP1 PUSH2 0x2E76 JUMP JUMPDEST PUSH1 0x40 DUP1 MLOAD PUSH1 0x1F NOT DUP2 DUP5 SUB ADD DUP2 MSTORE SWAP2 SWAP1 MSTORE DUP1 MLOAD PUSH1 0x20 SWAP2 DUP3 ADD KECCAK256 DUP12 MLOAD SWAP1 SWAP3 POP DUP3 SWAP2 PUSH2 0x16CA SWAP2 PUSH1 0xA SWAP2 DUP15 ADD SWAP1 PUSH2 0x2838 JUMP JUMPDEST POP DUP10 MLOAD PUSH2 0x16DE SWAP1 PUSH1 0xB SWAP1 PUSH1 0x20 DUP14 ADD SWAP1 PUSH2 0x2838 JUMP JUMPDEST POP DUP9 MLOAD PUSH2 0x16F2 SWAP1 PUSH1 0xC SWAP1 PUSH1 0x20 DUP13 ADD SWAP1 PUSH2 0x2838 JUMP JUMPDEST POP PUSH1 0xD DUP1 SLOAD PUSH1 0x1 PUSH1 0x1 PUSH1 0xA0 SHL SUB NOT SWAP1 DUP2 AND PUSH1 0x1 PUSH1 0x1 PUSH1 0xA0 SHL SUB DUP12 DUP2 AND SWAP2 SWAP1 SWAP2 OR SWAP1 SWAP3 SSTORE PUSH1 0xE DUP1 SLOAD DUP3 AND DUP11 DUP5 AND OR SWAP1 SSTORE PUSH1 0xF DUP1 SLOAD DUP3 AND DUP10 DUP5 AND OR SWAP1 SSTORE PUSH1 0x10 DUP1 SLOAD DUP3 AND DUP9 DUP5 AND OR SWAP1 SSTORE PUSH1 0x11 DUP1 SLOAD SWAP1 SWAP2 AND DUP7 DUP4 AND OR SWAP1 SSTORE DUP2 AND PUSH1 0x0 SWAP1 DUP2 MSTORE PUSH1 0x4 PUSH1 0x20 MSTORE PUSH1 0x40 SWAP1 KECCAK256 PUSH1 0xA DUP1 SLOAD SWAP1 SWAP2 SWAP1 DUP2 SWAP1 DUP4 SWAP1 PUSH2 0x176A SWAP1 PUSH2 0x3303 JUMP JUMPDEST PUSH2 0x1775 SWAP3 SWAP2 SWAP1 PUSH2 0x28BC JUMP JUMPDEST POP PUSH1 0x1 DUP3 ADD DUP2 PUSH1 0x1 ADD SWAP1 DUP1 SLOAD PUSH2 0x178A SWAP1 PUSH2 0x3303 JUMP JUMPDEST PUSH2 0x1795 SWAP3 SWAP2 SWAP1 PUSH2 0x28BC JUMP JUMPDEST POP PUSH1 0x2 DUP3 ADD DUP2 PUSH1 0x2 ADD SWAP1 DUP1 SLOAD PUSH2 0x17AA SWAP1 PUSH2 0x3303 JUMP JUMPDEST PUSH2 0x17B5 SWAP3 SWAP2 SWAP1 PUSH2 0x28BC JUMP JUMPDEST POP PUSH1 0x3 DUP3 DUP2 ADD SLOAD SWAP1 DUP3 ADD DUP1 SLOAD PUSH1 0x1 PUSH1 0x1 PUSH1 0xA0 SHL SUB NOT SWAP1 DUP2 AND PUSH1 0x1 PUSH1 0x1 PUSH1 0xA0 SHL SUB SWAP4 DUP5 AND OR SWAP1 SWAP2 SSTORE PUSH1 0x4 DUP1 DUP6 ADD SLOAD SWAP1 DUP5 ADD DUP1 SLOAD DUP4 AND SWAP2 DUP5 AND SWAP2 SWAP1 SWAP2 OR SWAP1 SSTORE PUSH1 0x5 DUP1 DUP6 ADD SLOAD SWAP1 DUP5 ADD DUP1 SLOAD DUP4 AND SWAP2 DUP5 AND SWAP2 SWAP1 SWAP2 OR SWAP1 SSTORE PUSH1 0x6 DUP1 DUP6 ADD SLOAD SWAP1 DUP5 ADD DUP1 SLOAD DUP4 AND SWAP2 DUP5 AND SWAP2 SWAP1 SWAP2 OR SWAP1 SSTORE PUSH1 0x7 SWAP4 DUP5 ADD SLOAD SWAP4 SWAP1 SWAP3 ADD DUP1 SLOAD SWAP1 SWAP3 AND SWAP3 DUP2 AND SWAP3 SWAP1 SWAP3 OR SWAP1 SSTORE PUSH1 0x40 DUP1 MLOAD DUP1 DUP3 ADD DUP3 MSTORE PUSH1 0x1 DUP2 MSTORE PUSH1 0x3 PUSH1 0xFC SHL PUSH1 0x20 DUP1 DUP4 ADD SWAP2 DUP3 MSTORE SWAP4 DUP6 AND PUSH1 0x0 SWAP1 DUP2 MSTORE PUSH1 0x2 SWAP1 SWAP5 MSTORE SWAP2 SWAP1 SWAP3 KECCAK256 SWAP2 MLOAD PUSH2 0x186E SWAP3 SWAP2 SWAP1 PUSH2 0x2838 JUMP JUMPDEST POP PUSH1 0x40 MLOAD PUSH1 0x1 PUSH1 0x1 PUSH1 0xA0 SHL SUB DUP3 AND SWAP1 CALLER SWAP1 PUSH32 0xDB769F7C34ED3C373F40BB14B2B74BC7CFF51A86A6FF6D23F084ABF76700C558 SWAP1 PUSH1 0x0 SWAP1 LOG3 SWAP11 SWAP10 POP POP POP POP POP POP POP POP POP POP JUMP JUMPDEST PUSH1 0x1 PUSH1 0x1 PUSH1 0xA0 SHL SUB DUP2 AND PUSH1 0x0 SWAP1 DUP2 MSTORE PUSH1 0x2 PUSH1 0x20 MSTORE PUSH1 0x40 SWAP1 KECCAK256 DUP1 SLOAD PUSH1 0x60 SWAP2 SWAP1 PUSH2 0x18DA SWAP1 PUSH2 0x3303 JUMP JUMPDEST DUP1 PUSH1 0x1F ADD PUSH1 0x20 DUP1 SWAP2 DIV MUL PUSH1 0x20 ADD PUSH1 0x40 MLOAD SWAP1 DUP2 ADD PUSH1 0x40 MSTORE DUP1 SWAP3 SWAP2 SWAP1 DUP2 DUP2 MSTORE PUSH1 0x20 ADD DUP3 DUP1 SLOAD PUSH2 0x1906 SWAP1 PUSH2 0x3303 JUMP JUMPDEST DUP1 ISZERO PUSH2 0x1953 JUMPI DUP1 PUSH1 0x1F LT PUSH2 0x1928 JUMPI PUSH2 0x100 DUP1 DUP4 SLOAD DIV MUL DUP4 MSTORE SWAP2 PUSH1 0x20 ADD SWAP2 PUSH2 0x1953 JUMP JUMPDEST DUP3 ADD SWAP2 SWAP1 PUSH1 0x0 MSTORE PUSH1 0x20 PUSH1 0x0 KECCAK256 SWAP1 JUMPDEST DUP2 SLOAD DUP2 MSTORE SWAP1 PUSH1 0x1 ADD SWAP1 PUSH1 0x20 ADD DUP1 DUP4 GT PUSH2 0x1936 JUMPI DUP3 SWAP1 SUB PUSH1 0x1F AND DUP3 ADD SWAP2 JUMPDEST POP POP POP POP POP SWAP1 POP SWAP2 SWAP1 POP JUMP JUMPDEST PUSH1 0x60 DUP1 PUSH1 0x60 DUP1 PUSH1 0x60 DUP1 PUSH1 0x60 PUSH1 0x0 PUSH1 0x9 PUSH1 0x0 DUP11 PUSH1 0x1 PUSH1 0x1 PUSH1 0xA0 SHL SUB AND PUSH1 0x1 PUSH1 0x1 PUSH1 0xA0 SHL SUB AND DUP2 MSTORE PUSH1 0x20 ADD SWAP1 DUP2 MSTORE PUSH1 0x20 ADD PUSH1 0x0 KECCAK256 PUSH1 0x40 MLOAD DUP1 PUSH1 0xE0 ADD PUSH1 0x40 MSTORE SWAP1 DUP2 PUSH1 0x0 DUP3 ADD DUP1 SLOAD PUSH2 0x19AC SWAP1 PUSH2 0x3303 JUMP JUMPDEST DUP1 PUSH1 0x1F ADD PUSH1 0x20 DUP1 SWAP2 DIV MUL PUSH1 0x20 ADD PUSH1 0x40 MLOAD SWAP1 DUP2 ADD PUSH1 0x40 MSTORE DUP1 SWAP3 SWAP2 SWAP1 DUP2 DUP2 MSTORE PUSH1 0x20 ADD DUP3 DUP1 SLOAD PUSH2 0x19D8 SWAP1 PUSH2 0x3303 JUMP JUMPDEST DUP1 ISZERO PUSH2 0x1A25 JUMPI DUP1 PUSH1 0x1F LT PUSH2 0x19FA JUMPI PUSH2 0x100 DUP1 DUP4 SLOAD DIV MUL DUP4 MSTORE SWAP2 PUSH1 0x20 ADD SWAP2 PUSH2 0x1A25 JUMP JUMPDEST DUP3 ADD SWAP2 SWAP1 PUSH1 0x0 MSTORE PUSH1 0x20 PUSH1 0x0 KECCAK256 SWAP1 JUMPDEST DUP2 SLOAD DUP2 MSTORE SWAP1 PUSH1 0x1 ADD SWAP1 PUSH1 0x20 ADD DUP1 DUP4 GT PUSH2 0x1A08 JUMPI DUP3 SWAP1 SUB PUSH1 0x1F AND DUP3 ADD SWAP2 JUMPDEST POP POP POP POP POP DUP2 MSTORE PUSH1 0x20 ADD PUSH1 0x1 DUP3 ADD DUP1 SLOAD PUSH2 0x1A3E SWAP1 PUSH2 0x3303 JUMP JUMPDEST DUP1 PUSH1 0x1F ADD PUSH1 0x20 DUP1 SWAP2 DIV MUL PUSH1 0x20 ADD PUSH1 0x40 MLOAD SWAP1 DUP2 ADD PUSH1 0x40 MSTORE DUP1 SWAP3 SWAP2 SWAP1 DUP2 DUP2 MSTORE PUSH1 0x20 ADD DUP3 DUP1 SLOAD PUSH2 0x1A6A SWAP1 PUSH2 0x3303 JUMP JUMPDEST DUP1 ISZERO PUSH2 0x1AB7 JUMPI DUP1 PUSH1 0x1F LT PUSH2 0x1A8C JUMPI PUSH2 0x100 DUP1 DUP4 SLOAD DIV MUL DUP4 MSTORE SWAP2 PUSH1 0x20 ADD SWAP2 PUSH2 0x1AB7 JUMP JUMPDEST DUP3 ADD SWAP2 SWAP1 PUSH1 0x0 MSTORE PUSH1 0x20 PUSH1 0x0 KECCAK256 SWAP1 JUMPDEST DUP2 SLOAD DUP2 MSTORE SWAP1 PUSH1 0x1 ADD SWAP1 PUSH1 0x20 ADD DUP1 DUP4 GT PUSH2 0x1A9A JUMPI DUP3 SWAP1 SUB PUSH1 0x1F AND DUP3 ADD SWAP2 JUMPDEST POP POP POP POP POP DUP2 MSTORE PUSH1 0x20 ADD PUSH1 0x2 DUP3 ADD DUP1 SLOAD PUSH2 0x1AD0 SWAP1 PUSH2 0x3303 JUMP JUMPDEST DUP1 PUSH1 0x1F ADD PUSH1 0x20 DUP1 SWAP2 DIV MUL PUSH1 0x20 ADD PUSH1 0x40 MLOAD SWAP1 DUP2 ADD PUSH1 0x40 MSTORE DUP1 SWAP3 SWAP2 SWAP1 DUP2 DUP2 MSTORE PUSH1 0x20 ADD DUP3 DUP1 SLOAD PUSH2 0x1AFC SWAP1 PUSH2 0x3303 JUMP JUMPDEST DUP1 ISZERO PUSH2 0x1B49 JUMPI DUP1 PUSH1 0x1F LT PUSH2 0x1B1E JUMPI PUSH2 0x100 DUP1 DUP4 SLOAD DIV MUL DUP4 MSTORE SWAP2 PUSH1 0x20 ADD SWAP2 PUSH2 0x1B49 JUMP JUMPDEST DUP3 ADD SWAP2 SWAP1 PUSH1 0x0 MSTORE PUSH1 0x20 PUSH1 0x0 KECCAK256 SWAP1 JUMPDEST DUP2 SLOAD DUP2 MSTORE SWAP1 PUSH1 0x1 ADD SWAP1 PUSH1 0x20 ADD DUP1 DUP4 GT PUSH2 0x1B2C JUMPI DUP3 SWAP1 SUB PUSH1 0x1F AND DUP3 ADD SWAP2 JUMPDEST POP POP POP POP POP DUP2 MSTORE PUSH1 0x20 ADD PUSH1 0x3 DUP3 ADD DUP1 SLOAD PUSH2 0x1B62 SWAP1 PUSH2 0x3303 JUMP JUMPDEST DUP1 PUSH1 0x1F ADD PUSH1 0x20 DUP1 SWAP2 DIV MUL PUSH1 0x20 ADD PUSH1 0x40 MLOAD SWAP1 DUP2 ADD PUSH1 0x40 MSTORE DUP1 SWAP3 SWAP2 SWAP1 DUP2 DUP2 MSTORE PUSH1 0x20 ADD DUP3 DUP1 SLOAD PUSH2 0x1B8E SWAP1 PUSH2 0x3303 JUMP JUMPDEST DUP1 ISZERO PUSH2 0x1BDB JUMPI DUP1 PUSH1 0x1F LT PUSH2 0x1BB0 JUMPI PUSH2 0x100 DUP1 DUP4 SLOAD DIV MUL DUP4 MSTORE SWAP2 PUSH1 0x20 ADD SWAP2 PUSH2 0x1BDB JUMP JUMPDEST DUP3 ADD SWAP2 SWAP1 PUSH1 0x0 MSTORE PUSH1 0x20 PUSH1 0x0 KECCAK256 SWAP1 JUMPDEST DUP2 SLOAD DUP2 MSTORE SWAP1 PUSH1 0x1 ADD SWAP1 PUSH1 0x20 ADD DUP1 DUP4 GT PUSH2 0x1BBE JUMPI DUP3 SWAP1 SUB PUSH1 0x1F AND DUP3 ADD SWAP2 JUMPDEST POP POP POP POP POP DUP2 MSTORE PUSH1 0x20 ADD PUSH1 0x4 DUP3 ADD DUP1 SLOAD PUSH2 0x1BF4 SWAP1 PUSH2 0x3303 JUMP JUMPDEST DUP1 PUSH1 0x1F ADD PUSH1 0x20 DUP1 SWAP2 DIV MUL PUSH1 0x20 ADD PUSH1 0x40 MLOAD SWAP1 DUP2 ADD PUSH1 0x40 MSTORE DUP1 SWAP3 SWAP2 SWAP1 DUP2 DUP2 MSTORE PUSH1 0x20 ADD DUP3 DUP1 SLOAD PUSH2 0x1C20 SWAP1 PUSH2 0x3303 JUMP JUMPDEST DUP1 ISZERO PUSH2 0x1C6D JUMPI DUP1 PUSH1 0x1F LT PUSH2 0x1C42 JUMPI PUSH2 0x100 DUP1 DUP4 SLOAD DIV MUL DUP4 MSTORE SWAP2 PUSH1 0x20 ADD SWAP2 PUSH2 0x1C6D JUMP JUMPDEST DUP3 ADD SWAP2 SWAP1 PUSH1 0x0 MSTORE PUSH1 0x20 PUSH1 0x0 KECCAK256 SWAP1 JUMPDEST DUP2 SLOAD DUP2 MSTORE SWAP1 PUSH1 0x1 ADD SWAP1 PUSH1 0x20 ADD DUP1 DUP4 GT PUSH2 0x1C50 JUMPI DUP3 SWAP1 SUB PUSH1 0x1F AND DUP3 ADD SWAP2 JUMPDEST POP POP POP POP POP DUP2 MSTORE PUSH1 0x20 ADD PUSH1 0x5 DUP3 ADD DUP1 SLOAD PUSH2 0x1C86 SWAP1 PUSH2 0x3303 JUMP JUMPDEST DUP1 PUSH1 0x1F ADD PUSH1 0x20 DUP1 SWAP2 DIV MUL PUSH1 0x20 ADD PUSH1 0x40 MLOAD SWAP1 DUP2 ADD PUSH1 0x40 MSTORE DUP1 SWAP3 SWAP2 SWAP1 DUP2 DUP2 MSTORE PUSH1 0x20 ADD DUP3 DUP1 SLOAD PUSH2 0x1CB2 SWAP1 PUSH2 0x3303 JUMP JUMPDEST DUP1 ISZERO PUSH2 0x1CFF JUMPI DUP1 PUSH1 0x1F LT PUSH2 0x1CD4 JUMPI PUSH2 0x100 DUP1 DUP4 SLOAD DIV MUL DUP4 MSTORE SWAP2 PUSH1 0x20 ADD SWAP2 PUSH2 0x1CFF JUMP JUMPDEST DUP3 ADD SWAP2 SWAP1 PUSH1 0x0 MSTORE PUSH1 0x20 PUSH1 0x0 KECCAK256 SWAP1 JUMPDEST DUP2 SLOAD DUP2 MSTORE SWAP1 PUSH1 0x1 ADD SWAP1 PUSH1 0x20 ADD DUP1 DUP4 GT PUSH2 0x1CE2 JUMPI DUP3 SWAP1 SUB PUSH1 0x1F AND DUP3 ADD SWAP2 JUMPDEST POP POP POP POP POP DUP2 MSTORE PUSH1 0x20 ADD PUSH1 0x6 DUP3 ADD DUP1 SLOAD PUSH2 0x1D18 SWAP1 PUSH2 0x3303 JUMP JUMPDEST DUP1 PUSH1 0x1F ADD PUSH1 0x20 DUP1 SWAP2 DIV MUL PUSH1 0x20 ADD PUSH1 0x40 MLOAD SWAP1 DUP2 ADD PUSH1 0x40 MSTORE DUP1 SWAP3 SWAP2 SWAP1 DUP2 DUP2 MSTORE PUSH1 0x20 ADD DUP3 DUP1 SLOAD PUSH2 0x1D44 SWAP1 PUSH2 0x3303 JUMP JUMPDEST DUP1 ISZERO PUSH2 0x1D91 JUMPI DUP1 PUSH1 0x1F LT PUSH2 0x1D66 JUMPI PUSH2 0x100 DUP1 DUP4 SLOAD DIV MUL DUP4 MSTORE SWAP2 PUSH1 0x20 ADD SWAP2 PUSH2 0x1D91 JUMP JUMPDEST DUP3 ADD SWAP2 SWAP1 PUSH1 0x0 MSTORE PUSH1 0x20 PUSH1 0x0 KECCAK256 SWAP1 JUMPDEST DUP2 SLOAD DUP2 MSTORE SWAP1 PUSH1 0x1 ADD SWAP1 PUSH1 0x20 ADD DUP1 DUP4 GT PUSH2 0x1D74 JUMPI DUP3 SWAP1 SUB PUSH1 0x1F AND DUP3 ADD SWAP2 JUMPDEST POP POP POP POP POP DUP2 MSTORE POP POP SWAP1 POP DUP1 PUSH1 0x0 ADD MLOAD DUP2 PUSH1 0x20 ADD MLOAD DUP3 PUSH1 0x40 ADD MLOAD DUP4 PUSH1 0x60 ADD MLOAD DUP5 PUSH1 0x80 ADD MLOAD DUP6 PUSH1 0xA0 ADD MLOAD DUP7 PUSH1 0xC0 ADD MLOAD SWAP8 POP SWAP8 POP SWAP8 POP SWAP8 POP SWAP8 POP SWAP8 POP SWAP8 POP POP SWAP2 SWAP4 SWAP6 SWAP8 SWAP1 SWAP3 SWAP5 SWAP7 POP JUMP JUMPDEST PUSH1 0x0 DUP9 PUSH1 0x40 MLOAD DUP1 PUSH1 0x40 ADD PUSH1 0x40 MSTORE DUP1 PUSH1 0x1 DUP2 MSTORE PUSH1 0x20 ADD PUSH1 0x33 PUSH1 0xF8 SHL DUP2 MSTORE POP DUP1 PUSH1 0x40 MLOAD PUSH1 0x20 ADD PUSH2 0x1E07 SWAP2 SWAP1 PUSH2 0x2E98 JUMP JUMPDEST PUSH1 0x40 DUP1 MLOAD PUSH1 0x1F NOT DUP2 DUP5 SUB ADD DUP2 MSTORE SWAP1 DUP3 SWAP1 MSTORE DUP1 MLOAD PUSH1 0x20 SWAP1 SWAP2 ADD KECCAK256 PUSH1 0x1 SLOAD PUSH4 0x9F7B4E5 PUSH1 0xE3 SHL DUP4 MSTORE SWAP1 SWAP2 PUSH1 0x1 PUSH1 0x1 PUSH1 0xA0 SHL SUB SWAP1 SWAP2 AND SWAP1 PUSH4 0x4FBDA728 SWAP1 PUSH2 0x1E4F SWAP1 CALLER SWAP1 PUSH1 0x4 ADD PUSH2 0x2EB4 JUMP JUMPDEST PUSH1 0x0 PUSH1 0x40 MLOAD DUP1 DUP4 SUB DUP2 DUP7 DUP1 EXTCODESIZE ISZERO DUP1 ISZERO PUSH2 0x1E67 JUMPI PUSH1 0x0 DUP1 REVERT JUMPDEST POP GAS STATICCALL ISZERO DUP1 ISZERO PUSH2 0x1E7B JUMPI RETURNDATASIZE PUSH1 0x0 DUP1 RETURNDATACOPY RETURNDATASIZE PUSH1 0x0 REVERT JUMPDEST POP POP POP POP PUSH1 0x40 MLOAD RETURNDATASIZE PUSH1 0x0 DUP3 RETURNDATACOPY PUSH1 0x1F RETURNDATASIZE SWAP1 DUP2 ADD PUSH1 0x1F NOT AND DUP3 ADD PUSH1 0x40 MSTORE PUSH2 0x1EA3 SWAP2 SWAP1 DUP2 ADD SWAP1 PUSH2 0x2CFF JUMP JUMPDEST PUSH1 0x40 MLOAD PUSH1 0x20 ADD PUSH2 0x1EB3 SWAP2 SWAP1 PUSH2 0x2E98 JUMP JUMPDEST PUSH1 0x40 MLOAD PUSH1 0x20 DUP2 DUP4 SUB SUB DUP2 MSTORE SWAP1 PUSH1 0x40 MSTORE DUP1 MLOAD SWAP1 PUSH1 0x20 ADD KECCAK256 EQ PUSH2 0x1EE6 JUMPI PUSH1 0x40 MLOAD PUSH3 0x461BCD PUSH1 0xE5 SHL DUP2 MSTORE PUSH1 0x4 ADD PUSH2 0x439 SWAP1 PUSH2 0x31DF JUMP JUMPDEST DUP1 PUSH1 0x40 MLOAD PUSH1 0x20 ADD PUSH2 0x1EF7 SWAP2 SWAP1 PUSH2 0x2E98 JUMP JUMPDEST PUSH1 0x40 MLOAD PUSH1 0x20 DUP2 DUP4 SUB SUB DUP2 MSTORE SWAP1 PUSH1 0x40 MSTORE DUP1 MLOAD SWAP1 PUSH1 0x20 ADD KECCAK256 PUSH2 0x1F16 DUP4 PUSH2 0x105F JUMP JUMPDEST PUSH1 0x40 MLOAD PUSH1 0x20 ADD PUSH2 0x1F26 SWAP2 SWAP1 PUSH2 0x2E98 JUMP JUMPDEST PUSH1 0x40 MLOAD PUSH1 0x20 DUP2 DUP4 SUB SUB DUP2 MSTORE SWAP1 PUSH1 0x40 MSTORE DUP1 MLOAD SWAP1 PUSH1 0x20 ADD KECCAK256 EQ PUSH2 0x1F59 JUMPI PUSH1 0x40 MLOAD PUSH3 0x461BCD PUSH1 0xE5 SHL DUP2 MSTORE PUSH1 0x4 ADD PUSH2 0x439 SWAP1 PUSH2 0x3205 JUMP JUMPDEST PUSH1 0x1 PUSH1 0x1 PUSH1 0xA0 SHL SUB DUP12 DUP2 AND PUSH1 0x0 SWAP1 DUP2 MSTORE PUSH1 0x4 PUSH1 0x20 MSTORE PUSH1 0x40 SWAP1 KECCAK256 PUSH1 0x6 ADD SLOAD AND CALLER EQ PUSH2 0x1F95 JUMPI PUSH1 0x40 MLOAD PUSH3 0x461BCD PUSH1 0xE5 SHL DUP2 MSTORE PUSH1 0x4 ADD PUSH2 0x439 SWAP1 PUSH2 0x30E0 JUMP JUMPDEST DUP10 MLOAD PUSH2 0x1FA8 SWAP1 PUSH1 0x1D SWAP1 PUSH1 0x20 DUP14 ADD SWAP1 PUSH2 0x2838 JUMP JUMPDEST POP DUP9 MLOAD PUSH2 0x1FBC SWAP1 PUSH1 0x1E SWAP1 PUSH1 0x20 DUP13 ADD SWAP1 PUSH2 0x2838 JUMP JUMPDEST POP DUP8 MLOAD PUSH2 0x1FD0 SWAP1 PUSH1 0x1F SWAP1 PUSH1 0x20 DUP12 ADD SWAP1 PUSH2 0x2838 JUMP JUMPDEST POP DUP7 MLOAD PUSH2 0x1FE3 SWAP1 PUSH1 0x20 SWAP1 DUP2 DUP11 ADD SWAP1 PUSH2 0x2838 JUMP JUMPDEST POP DUP6 MLOAD PUSH2 0x1FF7 SWAP1 PUSH1 0x21 SWAP1 PUSH1 0x20 DUP10 ADD SWAP1 PUSH2 0x2838 JUMP JUMPDEST POP DUP5 MLOAD PUSH2 0x200B SWAP1 PUSH1 0x22 SWAP1 PUSH1 0x20 DUP9 ADD SWAP1 PUSH2 0x2838 JUMP JUMPDEST POP DUP4 MLOAD PUSH2 0x201F SWAP1 PUSH1 0x23 SWAP1 PUSH1 0x20 DUP8 ADD SWAP1 PUSH2 0x2838 JUMP JUMPDEST POP PUSH1 0x1 PUSH1 0x1 PUSH1 0xA0 SHL SUB DUP12 AND PUSH1 0x0 SWAP1 DUP2 MSTORE PUSH1 0x8 PUSH1 0x20 MSTORE PUSH1 0x40 SWAP1 KECCAK256 PUSH1 0x1D DUP1 SLOAD SWAP1 SWAP2 SWAP1 DUP2 SWAP1 DUP4 SWAP1 PUSH2 0x204C SWAP1 PUSH2 0x3303 JUMP JUMPDEST PUSH2 0x2057 SWAP3 SWAP2 SWAP1 PUSH2 0x28BC JUMP JUMPDEST POP PUSH1 0x1 DUP3 ADD DUP2 PUSH1 0x1 ADD SWAP1 DUP1 SLOAD PUSH2 0x206C SWAP1 PUSH2 0x3303 JUMP JUMPDEST PUSH2 0x2077 SWAP3 SWAP2 SWAP1 PUSH2 0x28BC JUMP JUMPDEST POP PUSH1 0x2 DUP3 ADD DUP2 PUSH1 0x2 ADD SWAP1 DUP1 SLOAD PUSH2 0x208C SWAP1 PUSH2 0x3303 JUMP JUMPDEST PUSH2 0x2097 SWAP3 SWAP2 SWAP1 PUSH2 0x28BC JUMP JUMPDEST POP PUSH1 0x3 DUP3 ADD DUP2 PUSH1 0x3 ADD SWAP1 DUP1 SLOAD PUSH2 0x20AC SWAP1 PUSH2 0x3303 JUMP JUMPDEST PUSH2 0x20B7 SWAP3 SWAP2 SWAP1 PUSH2 0x28BC JUMP JUMPDEST POP PUSH1 0x4 DUP3 ADD DUP2 PUSH1 0x4 ADD SWAP1 DUP1 SLOAD PUSH2 0x20CC SWAP1 PUSH2 0x3303 JUMP JUMPDEST PUSH2 0x20D7 SWAP3 SWAP2 SWAP1 PUSH2 0x28BC JUMP JUMPDEST POP PUSH1 0x5 DUP3 ADD DUP2 PUSH1 0x5 ADD SWAP1 DUP1 SLOAD PUSH2 0x20EC SWAP1 PUSH2 0x3303 JUMP JUMPDEST PUSH2 0x20F7 SWAP3 SWAP2 SWAP1 PUSH2 0x28BC JUMP JUMPDEST POP PUSH1 0x6 DUP3 ADD DUP2 PUSH1 0x6 ADD SWAP1 DUP1 SLOAD PUSH2 0x210C SWAP1 PUSH2 0x3303 JUMP JUMPDEST PUSH2 0x2117 SWAP3 SWAP2 SWAP1 PUSH2 0x28BC JUMP JUMPDEST POP SWAP1 POP POP PUSH1 0x40 MLOAD DUP1 PUSH1 0x40 ADD PUSH1 0x40 MSTORE DUP1 PUSH1 0x1 DUP2 MSTORE PUSH1 0x20 ADD PUSH1 0xD PUSH1 0xFA SHL DUP2 MSTORE POP PUSH1 0x2 PUSH1 0x0 DUP14 PUSH1 0x1 PUSH1 0x1 PUSH1 0xA0 SHL SUB AND PUSH1 0x1 PUSH1 0x1 PUSH1 0xA0 SHL SUB AND DUP2 MSTORE PUSH1 0x20 ADD SWAP1 DUP2 MSTORE PUSH1 0x20 ADD PUSH1 0x0 KECCAK256 SWAP1 DUP1 MLOAD SWAP1 PUSH1 0x20 ADD SWAP1 PUSH2 0x216D SWAP3 SWAP2 SWAP1 PUSH2 0x2838 JUMP JUMPDEST POP PUSH1 0x40 MLOAD PUSH1 0x1 PUSH1 0x1 PUSH1 0xA0 SHL SUB DUP13 AND SWAP1 CALLER SWAP1 PUSH32 0x38C05509A9C9DEC5B48A3AEFC9E921B700B90165DDCC57D1FB19D28BDDE51334 SWAP1 PUSH1 0x0 SWAP1 LOG3 POP PUSH1 0x1 SWAP11 SWAP10 POP POP POP POP POP POP POP POP POP POP JUMP JUMPDEST PUSH1 0x0 DUP8 PUSH1 0x40 MLOAD DUP1 PUSH1 0x40 ADD PUSH1 0x40 MSTORE DUP1 PUSH1 0x1 DUP2 MSTORE PUSH1 0x20 ADD PUSH1 0x19 PUSH1 0xF9 SHL DUP2 MSTORE POP DUP1 PUSH1 0x40 MLOAD PUSH1 0x20 ADD PUSH2 0x21E3 SWAP2 SWAP1 PUSH2 0x2E98 JUMP JUMPDEST PUSH1 0x40 DUP1 MLOAD PUSH1 0x1F NOT DUP2 DUP5 SUB ADD DUP2 MSTORE SWAP1 DUP3 SWAP1 MSTORE DUP1 MLOAD PUSH1 0x20 SWAP1 SWAP2 ADD KECCAK256 PUSH1 0x1 SLOAD PUSH4 0x9F7B4E5 PUSH1 0xE3 SHL DUP4 MSTORE SWAP1 SWAP2 PUSH1 0x1 PUSH1 0x1 PUSH1 0xA0 SHL SUB SWAP1 SWAP2 AND SWAP1 PUSH4 0x4FBDA728 SWAP1 PUSH2 0x222B SWAP1 CALLER SWAP1 PUSH1 0x4 ADD PUSH2 0x2EB4 JUMP JUMPDEST PUSH1 0x0 PUSH1 0x40 MLOAD DUP1 DUP4 SUB DUP2 DUP7 DUP1 EXTCODESIZE ISZERO DUP1 ISZERO PUSH2 0x2243 JUMPI PUSH1 0x0 DUP1 REVERT JUMPDEST POP GAS STATICCALL ISZERO DUP1 ISZERO PUSH2 0x2257 JUMPI RETURNDATASIZE PUSH1 0x0 DUP1 RETURNDATACOPY RETURNDATASIZE PUSH1 0x0 REVERT JUMPDEST POP POP POP POP PUSH1 0x40 MLOAD RETURNDATASIZE PUSH1 0x0 DUP3 RETURNDATACOPY PUSH1 0x1F RETURNDATASIZE SWAP1 DUP2 ADD PUSH1 0x1F NOT AND DUP3 ADD PUSH1 0x40 MSTORE PUSH2 0x227F SWAP2 SWAP1 DUP2 ADD SWAP1 PUSH2 0x2CFF JUMP JUMPDEST PUSH1 0x40 MLOAD PUSH1 0x20 ADD PUSH2 0x228F SWAP2 SWAP1 PUSH2 0x2E98 JUMP JUMPDEST PUSH1 0x40 MLOAD PUSH1 0x20 DUP2 DUP4 SUB SUB DUP2 MSTORE SWAP1 PUSH1 0x40 MSTORE DUP1 MLOAD SWAP1 PUSH1 0x20 ADD KECCAK256 EQ PUSH2 0x22C2 JUMPI PUSH1 0x40 MLOAD PUSH3 0x461BCD PUSH1 0xE5 SHL DUP2 MSTORE PUSH1 0x4 ADD PUSH2 0x439 SWAP1 PUSH2 0x31DF JUMP JUMPDEST DUP1 PUSH1 0x40 MLOAD PUSH1 0x20 ADD PUSH2 0x22D3 SWAP2 SWAP1 PUSH2 0x2E98 JUMP JUMPDEST PUSH1 0x40 MLOAD PUSH1 0x20 DUP2 DUP4 SUB SUB DUP2 MSTORE SWAP1 PUSH1 0x40 MSTORE DUP1 MLOAD SWAP1 PUSH1 0x20 ADD KECCAK256 PUSH2 0x22F2 DUP4 PUSH2 0x105F JUMP JUMPDEST PUSH1 0x40 MLOAD PUSH1 0x20 ADD PUSH2 0x2302 SWAP2 SWAP1 PUSH2 0x2E98 JUMP JUMPDEST PUSH1 0x40 MLOAD PUSH1 0x20 DUP2 DUP4 SUB SUB DUP2 MSTORE SWAP1 PUSH1 0x40 MSTORE DUP1 MLOAD SWAP1 PUSH1 0x20 ADD KECCAK256 EQ PUSH2 0x2335 JUMPI PUSH1 0x40 MLOAD PUSH3 0x461BCD PUSH1 0xE5 SHL DUP2 MSTORE PUSH1 0x4 ADD PUSH2 0x439 SWAP1 PUSH2 0x3205 JUMP JUMPDEST PUSH1 0x1 PUSH1 0x1 PUSH1 0xA0 SHL SUB DUP11 DUP2 AND PUSH1 0x0 SWAP1 DUP2 MSTORE PUSH1 0x4 PUSH1 0x20 MSTORE PUSH1 0x40 SWAP1 KECCAK256 PUSH1 0x5 ADD SLOAD AND CALLER EQ PUSH2 0x2371 JUMPI PUSH1 0x40 MLOAD PUSH3 0x461BCD PUSH1 0xE5 SHL DUP2 MSTORE PUSH1 0x4 ADD PUSH2 0x439 SWAP1 PUSH2 0x318A JUMP JUMPDEST DUP9 MLOAD PUSH2 0x2384 SWAP1 PUSH1 0x17 SWAP1 PUSH1 0x20 DUP13 ADD SWAP1 PUSH2 0x2838 JUMP JUMPDEST POP DUP8 MLOAD PUSH2 0x2398 SWAP1 PUSH1 0x18 SWAP1 PUSH1 0x20 DUP12 ADD SWAP1 PUSH2 0x2838 JUMP JUMPDEST POP DUP7 MLOAD PUSH2 0x23AC SWAP1 PUSH1 0x19 SWAP1 PUSH1 0x20 DUP11 ADD SWAP1 PUSH2 0x2838 JUMP JUMPDEST POP DUP6 MLOAD PUSH2 0x23C0 SWAP1 PUSH1 0x1A SWAP1 PUSH1 0x20 DUP10 ADD SWAP1 PUSH2 0x2838 JUMP JUMPDEST POP DUP5 MLOAD PUSH2 0x23D4 SWAP1 PUSH1 0x1B SWAP1 PUSH1 0x20 DUP9 ADD SWAP1 PUSH2 0x2838 JUMP JUMPDEST POP DUP4 MLOAD PUSH2 0x23E8 SWAP1 PUSH1 0x1C SWAP1 PUSH1 0x20 DUP8 ADD SWAP1 PUSH2 0x2838 JUMP JUMPDEST POP PUSH1 0x1 PUSH1 0x1 PUSH1 0xA0 SHL SUB DUP11 AND PUSH1 0x0 SWAP1 DUP2 MSTORE PUSH1 0x7 PUSH1 0x20 MSTORE PUSH1 0x40 SWAP1 KECCAK256 PUSH1 0x17 DUP1 SLOAD SWAP1 SWAP2 SWAP1 DUP2 SWAP1 DUP4 SWAP1 PUSH2 0x2415 SWAP1 PUSH2 0x3303 JUMP JUMPDEST PUSH2 0x2420 SWAP3 SWAP2 SWAP1 PUSH2 0x28BC JUMP JUMPDEST POP PUSH1 0x1 DUP3 ADD DUP2 PUSH1 0x1 ADD SWAP1 DUP1 SLOAD PUSH2 0x2435 SWAP1 PUSH2 0x3303 JUMP JUMPDEST PUSH2 0x2440 SWAP3 SWAP2 SWAP1 PUSH2 0x28BC JUMP JUMPDEST POP PUSH1 0x2 DUP3 ADD DUP2 PUSH1 0x2 ADD SWAP1 DUP1 SLOAD PUSH2 0x2455 SWAP1 PUSH2 0x3303 JUMP JUMPDEST PUSH2 0x2460 SWAP3 SWAP2 SWAP1 PUSH2 0x28BC JUMP JUMPDEST POP PUSH1 0x3 DUP3 ADD DUP2 PUSH1 0x3 ADD SWAP1 DUP1 SLOAD PUSH2 0x2475 SWAP1 PUSH2 0x3303 JUMP JUMPDEST PUSH2 0x2480 SWAP3 SWAP2 SWAP1 PUSH2 0x28BC JUMP JUMPDEST POP PUSH1 0x4 DUP3 ADD DUP2 PUSH1 0x4 ADD SWAP1 DUP1 SLOAD PUSH2 0x2495 SWAP1 PUSH2 0x3303 JUMP JUMPDEST PUSH2 0x24A0 SWAP3 SWAP2 SWAP1 PUSH2 0x28BC JUMP JUMPDEST POP PUSH1 0x5 DUP3 ADD DUP2 PUSH1 0x5 ADD SWAP1 DUP1 SLOAD PUSH2 0x24B5 SWAP1 PUSH2 0x3303 JUMP JUMPDEST PUSH2 0x24C0 SWAP3 SWAP2 SWAP1 PUSH2 0x28BC JUMP JUMPDEST POP POP PUSH1 0x40 DUP1 MLOAD DUP1 DUP3 ADD DUP3 MSTORE PUSH1 0x1 DUP2 MSTORE PUSH1 0x33 PUSH1 0xF8 SHL PUSH1 0x20 DUP1 DUP4 ADD SWAP2 DUP3 MSTORE PUSH1 0x1 PUSH1 0x1 PUSH1 0xA0 SHL SUB DUP16 AND PUSH1 0x0 SWAP1 DUP2 MSTORE PUSH1 0x2 SWAP1 SWAP2 MSTORE SWAP3 SWAP1 SWAP3 KECCAK256 SWAP1 MLOAD PUSH2 0x2503 SWAP4 POP SWAP1 SWAP2 SWAP1 PUSH2 0x2838 JUMP JUMPDEST POP PUSH1 0x40 MLOAD PUSH1 0x1 PUSH1 0x1 PUSH1 0xA0 SHL SUB DUP12 AND SWAP1 CALLER SWAP1 PUSH32 0xBDCCB285E4CF8E4E0E4C7A8CCB136C00D80F78D0EE8F9A14C673EA8319F17E7E SWAP1 PUSH1 0x0 SWAP1 LOG3 POP PUSH1 0x1 SWAP10 SWAP9 POP POP POP POP POP POP POP POP POP JUMP JUMPDEST PUSH1 0x60 DUP1 PUSH1 0x60 PUSH1 0x0 PUSH1 0x6 PUSH1 0x0 DUP7 PUSH1 0x1 PUSH1 0x1 PUSH1 0xA0 SHL SUB AND PUSH1 0x1 PUSH1 0x1 PUSH1 0xA0 SHL SUB AND DUP2 MSTORE PUSH1 0x20 ADD SWAP1 DUP2 MSTORE PUSH1 0x20 ADD PUSH1 0x0 KECCAK256 PUSH1 0x40 MLOAD DUP1 PUSH1 0x60 ADD PUSH1 0x40 MSTORE SWAP1 DUP2 PUSH1 0x0 DUP3 ADD DUP1 SLOAD PUSH2 0x2591 SWAP1 PUSH2 0x3303 JUMP JUMPDEST DUP1 PUSH1 0x1F ADD PUSH1 0x20 DUP1 SWAP2 DIV MUL PUSH1 0x20 ADD PUSH1 0x40 MLOAD SWAP1 DUP2 ADD PUSH1 0x40 MSTORE DUP1 SWAP3 SWAP2 SWAP1 DUP2 DUP2 MSTORE PUSH1 0x20 ADD DUP3 DUP1 SLOAD PUSH2 0x25BD SWAP1 PUSH2 0x3303 JUMP JUMPDEST DUP1 ISZERO PUSH2 0x260A JUMPI DUP1 PUSH1 0x1F LT PUSH2 0x25DF JUMPI PUSH2 0x100 DUP1 DUP4 SLOAD DIV MUL DUP4 MSTORE SWAP2 PUSH1 0x20 ADD SWAP2 PUSH2 0x260A JUMP JUMPDEST DUP3 ADD SWAP2 SWAP1 PUSH1 0x0 MSTORE PUSH1 0x20 PUSH1 0x0 KECCAK256 SWAP1 JUMPDEST DUP2 SLOAD DUP2 MSTORE SWAP1 PUSH1 0x1 ADD SWAP1 PUSH1 0x20 ADD DUP1 DUP4 GT PUSH2 0x25ED JUMPI DUP3 SWAP1 SUB PUSH1 0x1F AND DUP3 ADD SWAP2 JUMPDEST POP POP POP POP POP DUP2 MSTORE PUSH1 0x20 ADD PUSH1 0x1 DUP3 ADD DUP1 SLOAD PUSH2 0x2623 SWAP1 PUSH2 0x3303 JUMP JUMPDEST DUP1 PUSH1 0x1F ADD PUSH1 0x20 DUP1 SWAP2 DIV MUL PUSH1 0x20 ADD PUSH1 0x40 MLOAD SWAP1 DUP2 ADD PUSH1 0x40 MSTORE DUP1 SWAP3 SWAP2 SWAP1 DUP2 DUP2 MSTORE PUSH1 0x20 ADD DUP3 DUP1 SLOAD PUSH2 0x264F SWAP1 PUSH2 0x3303 JUMP JUMPDEST DUP1 ISZERO PUSH2 0x269C JUMPI DUP1 PUSH1 0x1F LT PUSH2 0x2671 JUMPI PUSH2 0x100 DUP1 DUP4 SLOAD DIV MUL DUP4 MSTORE SWAP2 PUSH1 0x20 ADD SWAP2 PUSH2 0x269C JUMP JUMPDEST DUP3 ADD SWAP2 SWAP1 PUSH1 0x0 MSTORE PUSH1 0x20 PUSH1 0x0 KECCAK256 SWAP1 JUMPDEST DUP2 SLOAD DUP2 MSTORE SWAP1 PUSH1 0x1 ADD SWAP1 PUSH1 0x20 ADD DUP1 DUP4 GT PUSH2 0x267F JUMPI DUP3 SWAP1 SUB PUSH1 0x1F AND DUP3 ADD SWAP2 JUMPDEST POP POP POP POP POP DUP2 MSTORE PUSH1 0x20 ADD PUSH1 0x2 DUP3 ADD DUP1 SLOAD PUSH2 0x26B5 SWAP1 PUSH2 0x3303 JUMP JUMPDEST DUP1 PUSH1 0x1F ADD PUSH1 0x20 DUP1 SWAP2 DIV MUL PUSH1 0x20 ADD PUSH1 0x40 MLOAD SWAP1 DUP2 ADD PUSH1 0x40 MSTORE DUP1 SWAP3 SWAP2 SWAP1 DUP2 DUP2 MSTORE PUSH1 0x20 ADD DUP3 DUP1 SLOAD PUSH2 0x26E1 SWAP1 PUSH2 0x3303 JUMP JUMPDEST DUP1 ISZERO PUSH2 0x272E JUMPI DUP1 PUSH1 0x1F LT PUSH2 0x2703 JUMPI PUSH2 0x100 DUP1 DUP4 SLOAD DIV MUL DUP4 MSTORE SWAP2 PUSH1 0x20 ADD SWAP2 PUSH2 0x272E JUMP JUMPDEST DUP3 ADD SWAP2 SWAP1 PUSH1 0x0 MSTORE PUSH1 0x20 PUSH1 0x0 KECCAK256 SWAP1 JUMPDEST DUP2 SLOAD DUP2 MSTORE SWAP1 PUSH1 0x1 ADD SWAP1 PUSH1 0x20 ADD DUP1 DUP4 GT PUSH2 0x2711 JUMPI DUP3 SWAP1 SUB PUSH1 0x1F AND DUP3 ADD SWAP2 JUMPDEST POP POP POP SWAP2 SWAP1 SWAP3 MSTORE POP POP DUP2 MLOAD PUSH1 0x20 DUP4 ADD MLOAD PUSH1 0x40 SWAP1 SWAP4 ADD MLOAD SWAP1 SWAP9 SWAP3 SWAP8 POP SWAP6 POP SWAP1 SWAP4 POP POP POP POP JUMP JUMPDEST PUSH1 0x0 SLOAD PUSH1 0x1 PUSH1 0x1 PUSH1 0xA0 SHL SUB AND CALLER EQ PUSH2 0x277D JUMPI PUSH1 0x40 MLOAD PUSH3 0x461BCD PUSH1 0xE5 SHL DUP2 MSTORE PUSH1 0x4 ADD PUSH2 0x439 SWAP1 PUSH2 0x3134 JUMP JUMPDEST PUSH1 0x1 PUSH1 0x1 PUSH1 0xA0 SHL SUB DUP2 AND PUSH2 0x2790 JUMPI PUSH1 0x0 DUP1 REVERT JUMPDEST PUSH1 0x0 DUP1 SLOAD PUSH1 0x40 MLOAD PUSH1 0x1 PUSH1 0x1 PUSH1 0xA0 SHL SUB DUP1 DUP6 AND SWAP4 SWAP3 AND SWAP2 PUSH32 0x8BE0079C531659141344CD1FD0A4F28419497F9722A3DAAFE3B4186F6B6457E0 SWAP2 LOG3 PUSH1 0x0 DUP1 SLOAD PUSH1 0x1 PUSH1 0x1 PUSH1 0xA0 SHL SUB NOT AND PUSH1 0x1 PUSH1 0x1 PUSH1 0xA0 SHL SUB SWAP3 SWAP1 SWAP3 AND SWAP2 SWAP1 SWAP2 OR SWAP1 SSTORE JUMP JUMPDEST PUSH1 0x60 DUP1 PUSH1 0x60 DUP1 PUSH1 0x60 DUP1 PUSH1 0x60 PUSH1 0x0 PUSH1 0x8 PUSH1 0x0 DUP11 PUSH1 0x1 PUSH1 0x1 PUSH1 0xA0 SHL SUB AND PUSH1 0x1 PUSH1 0x1 PUSH1 0xA0 SHL SUB AND DUP2 MSTORE PUSH1 0x20 ADD SWAP1 DUP2 MSTORE PUSH1 0x20 ADD PUSH1 0x0 KECCAK256 PUSH1 0x40 MLOAD DUP1 PUSH1 0xE0 ADD PUSH1 0x40 MSTORE SWAP1 DUP2 PUSH1 0x0 DUP3 ADD DUP1 SLOAD PUSH2 0x19AC SWAP1 PUSH2 0x3303 JUMP JUMPDEST DUP3 DUP1 SLOAD PUSH2 0x2844 SWAP1 PUSH2 0x3303 JUMP JUMPDEST SWAP1 PUSH1 0x0 MSTORE PUSH1 0x20 PUSH1 0x0 KECCAK256 SWAP1 PUSH1 0x1F ADD PUSH1 0x20 SWAP1 DIV DUP2 ADD SWAP3 DUP3 PUSH2 0x2866 JUMPI PUSH1 0x0 DUP6 SSTORE PUSH2 0x28AC JUMP JUMPDEST DUP3 PUSH1 0x1F LT PUSH2 0x287F JUMPI DUP1 MLOAD PUSH1 0xFF NOT AND DUP4 DUP1 ADD OR DUP6 SSTORE PUSH2 0x28AC JUMP JUMPDEST DUP3 DUP1 ADD PUSH1 0x1 ADD DUP6 SSTORE DUP3 ISZERO PUSH2 0x28AC JUMPI SWAP2 DUP3 ADD JUMPDEST DUP3 DUP2 GT ISZERO PUSH2 0x28AC JUMPI DUP3 MLOAD DUP3 SSTORE SWAP2 PUSH1 0x20 ADD SWAP2 SWAP1 PUSH1 0x1 ADD SWAP1 PUSH2 0x2891 JUMP JUMPDEST POP PUSH2 0x28B8 SWAP3 SWAP2 POP PUSH2 0x2937 JUMP JUMPDEST POP SWAP1 JUMP JUMPDEST DUP3 DUP1 SLOAD PUSH2 0x28C8 SWAP1 PUSH2 0x3303 JUMP JUMPDEST SWAP1 PUSH1 0x0 MSTORE PUSH1 0x20 PUSH1 0x0 KECCAK256 SWAP1 PUSH1 0x1F ADD PUSH1 0x20 SWAP1 DIV DUP2 ADD SWAP3 DUP3 PUSH2 0x28EA JUMPI PUSH1 0x0 DUP6 SSTORE PUSH2 0x28AC JUMP JUMPDEST DUP3 PUSH1 0x1F LT PUSH2 0x28FB JUMPI DUP1 SLOAD DUP6 SSTORE PUSH2 0x28AC JUMP JUMPDEST DUP3 DUP1 ADD PUSH1 0x1 ADD DUP6 SSTORE DUP3 ISZERO PUSH2 0x28AC JUMPI PUSH1 0x0 MSTORE PUSH1 0x20 PUSH1 0x0 KECCAK256 SWAP2 PUSH1 0x1F ADD PUSH1 0x20 SWAP1 DIV DUP3 ADD JUMPDEST DUP3 DUP2 GT ISZERO PUSH2 0x28AC JUMPI DUP3 SLOAD DUP3 SSTORE SWAP2 PUSH1 0x1 ADD SWAP2 SWAP1 PUSH1 0x1 ADD SWAP1 PUSH2 0x291C JUMP JUMPDEST JUMPDEST DUP1 DUP3 GT ISZERO PUSH2 0x28B8 JUMPI PUSH1 0x0 DUP2 SSTORE PUSH1 0x1 ADD PUSH2 0x2938 JUMP JUMPDEST DUP1 CALLDATALOAD PUSH1 0x1 PUSH1 0x1 PUSH1 0xA0 SHL SUB DUP2 AND DUP2 EQ PUSH2 0xD4B JUMPI PUSH1 0x0 DUP1 REVERT JUMPDEST PUSH1 0x0 DUP3 PUSH1 0x1F DUP4 ADD SLT PUSH2 0x2973 JUMPI DUP1 DUP2 REVERT JUMPDEST DUP2 CALLDATALOAD PUSH2 0x2986 PUSH2 0x2981 DUP3 PUSH2 0x32AB JUMP JUMPDEST PUSH2 0x3281 JUMP JUMPDEST DUP2 DUP2 MSTORE DUP5 PUSH1 0x20 DUP4 DUP7 ADD ADD GT ISZERO PUSH2 0x299A JUMPI DUP3 DUP4 REVERT JUMPDEST DUP2 PUSH1 0x20 DUP6 ADD PUSH1 0x20 DUP4 ADD CALLDATACOPY SWAP1 DUP2 ADD PUSH1 0x20 ADD SWAP2 SWAP1 SWAP2 MSTORE SWAP3 SWAP2 POP POP JUMP JUMPDEST PUSH1 0x0 PUSH1 0x20 DUP3 DUP5 SUB SLT ISZERO PUSH2 0x29C5 JUMPI DUP1 DUP2 REVERT JUMPDEST PUSH2 0x29CE DUP3 PUSH2 0x294C JUMP JUMPDEST SWAP4 SWAP3 POP POP POP JUMP JUMPDEST PUSH1 0x0 DUP1 PUSH1 0x0 PUSH1 0x60 DUP5 DUP7 SUB SLT ISZERO PUSH2 0x29E9 JUMPI DUP2 DUP3 REVERT JUMPDEST PUSH2 0x29F2 DUP5 PUSH2 0x294C JUMP JUMPDEST SWAP3 POP PUSH1 0x20 DUP5 ADD CALLDATALOAD PUSH8 0xFFFFFFFFFFFFFFFF DUP1 DUP3 GT ISZERO PUSH2 0x2A0E JUMPI DUP4 DUP5 REVERT JUMPDEST PUSH2 0x2A1A DUP8 DUP4 DUP9 ADD PUSH2 0x2963 JUMP JUMPDEST SWAP4 POP PUSH1 0x40 DUP7 ADD CALLDATALOAD SWAP2 POP DUP1 DUP3 GT ISZERO PUSH2 0x2A2F JUMPI DUP3 DUP4 REVERT JUMPDEST POP PUSH2 0x2A3C DUP7 DUP3 DUP8 ADD PUSH2 0x2963 JUMP JUMPDEST SWAP2 POP POP SWAP3 POP SWAP3 POP SWAP3 JUMP JUMPDEST PUSH1 0x0 DUP1 PUSH1 0x0 DUP1 PUSH1 0x80 DUP6 DUP8 SUB SLT ISZERO PUSH2 0x2A5B JUMPI DUP1 DUP2 REVERT JUMPDEST PUSH2 0x2A64 DUP6 PUSH2 0x294C JUMP JUMPDEST SWAP4 POP PUSH1 0x20 DUP6 ADD CALLDATALOAD PUSH8 0xFFFFFFFFFFFFFFFF DUP1 DUP3 GT ISZERO PUSH2 0x2A80 JUMPI DUP3 DUP4 REVERT JUMPDEST PUSH2 0x2A8C DUP9 DUP4 DUP10 ADD PUSH2 0x2963 JUMP JUMPDEST SWAP5 POP PUSH1 0x40 DUP8 ADD CALLDATALOAD SWAP2 POP DUP1 DUP3 GT ISZERO PUSH2 0x2AA1 JUMPI DUP3 DUP4 REVERT JUMPDEST PUSH2 0x2AAD DUP9 DUP4 DUP10 ADD PUSH2 0x2963 JUMP JUMPDEST SWAP4 POP PUSH1 0x60 DUP8 ADD CALLDATALOAD SWAP2 POP DUP1 DUP3 GT ISZERO PUSH2 0x2AC2 JUMPI DUP3 DUP4 REVERT JUMPDEST POP PUSH2 0x2ACF DUP8 DUP3 DUP9 ADD PUSH2 0x2963 JUMP JUMPDEST SWAP2 POP POP SWAP3 SWAP6 SWAP2 SWAP5 POP SWAP3 POP JUMP JUMPDEST PUSH1 0x0 DUP1 PUSH1 0x0 DUP1 PUSH1 0x0 DUP1 PUSH1 0x0 PUSH1 0xE0 DUP9 DUP11 SUB SLT ISZERO PUSH2 0x2AF5 JUMPI DUP3 DUP4 REVERT JUMPDEST PUSH2 0x2AFE DUP9 PUSH2 0x294C JUMP JUMPDEST SWAP7 POP PUSH1 0x20 DUP9 ADD CALLDATALOAD PUSH8 0xFFFFFFFFFFFFFFFF DUP1 DUP3 GT ISZERO PUSH2 0x2B1A JUMPI DUP5 DUP6 REVERT JUMPDEST PUSH2 0x2B26 DUP12 DUP4 DUP13 ADD PUSH2 0x2963 JUMP JUMPDEST SWAP8 POP PUSH1 0x40 DUP11 ADD CALLDATALOAD SWAP2 POP DUP1 DUP3 GT ISZERO PUSH2 0x2B3B JUMPI DUP5 DUP6 REVERT JUMPDEST PUSH2 0x2B47 DUP12 DUP4 DUP13 ADD PUSH2 0x2963 JUMP JUMPDEST SWAP7 POP PUSH1 0x60 DUP11 ADD CALLDATALOAD SWAP2 POP DUP1 DUP3 GT ISZERO PUSH2 0x2B5C JUMPI DUP5 DUP6 REVERT JUMPDEST PUSH2 0x2B68 DUP12 DUP4 DUP13 ADD PUSH2 0x2963 JUMP JUMPDEST SWAP6 POP PUSH1 0x80 DUP11 ADD CALLDATALOAD SWAP2 POP DUP1 DUP3 GT ISZERO PUSH2 0x2B7D JUMPI DUP5 DUP6 REVERT JUMPDEST PUSH2 0x2B89 DUP12 DUP4 DUP13 ADD PUSH2 0x2963 JUMP JUMPDEST SWAP5 POP PUSH1 0xA0 DUP11 ADD CALLDATALOAD SWAP2 POP DUP1 DUP3 GT ISZERO PUSH2 0x2B9E JUMPI DUP4 DUP5 REVERT JUMPDEST PUSH2 0x2BAA DUP12 DUP4 DUP13 ADD PUSH2 0x2963 JUMP JUMPDEST SWAP4 POP PUSH1 0xC0 DUP11 ADD CALLDATALOAD SWAP2 POP DUP1 DUP3 GT ISZERO PUSH2 0x2BBF JUMPI DUP3 DUP4 REVERT JUMPDEST POP PUSH2 0x2BCC DUP11 DUP3 DUP12 ADD PUSH2 0x2963 JUMP JUMPDEST SWAP2 POP POP SWAP3 SWAP6 SWAP9 SWAP2 SWAP5 SWAP8 POP SWAP3 SWAP6 POP JUMP JUMPDEST PUSH1 0x0 DUP1 PUSH1 0x0 DUP1 PUSH1 0x0 DUP1 PUSH1 0x0 DUP1 PUSH2 0x100 DUP10 DUP12 SUB SLT ISZERO PUSH2 0x2BF7 JUMPI DUP1 DUP2 REVERT JUMPDEST PUSH2 0x2C00 DUP10 PUSH2 0x294C JUMP JUMPDEST SWAP8 POP PUSH1 0x20 DUP10 ADD CALLDATALOAD PUSH8 0xFFFFFFFFFFFFFFFF DUP1 DUP3 GT ISZERO PUSH2 0x2C1C JUMPI DUP3 DUP4 REVERT JUMPDEST PUSH2 0x2C28 DUP13 DUP4 DUP14 ADD PUSH2 0x2963 JUMP JUMPDEST SWAP9 POP PUSH1 0x40 DUP12 ADD CALLDATALOAD SWAP2 POP DUP1 DUP3 GT ISZERO PUSH2 0x2C3D JUMPI DUP3 DUP4 REVERT JUMPDEST PUSH2 0x2C49 DUP13 DUP4 DUP14 ADD PUSH2 0x2963 JUMP JUMPDEST SWAP8 POP PUSH1 0x60 DUP12 ADD CALLDATALOAD SWAP2 POP DUP1 DUP3 GT ISZERO PUSH2 0x2C5E JUMPI DUP3 DUP4 REVERT JUMPDEST PUSH2 0x2C6A DUP13 DUP4 DUP14 ADD PUSH2 0x2963 JUMP JUMPDEST SWAP7 POP PUSH1 0x80 DUP12 ADD CALLDATALOAD SWAP2 POP DUP1 DUP3 GT ISZERO PUSH2 0x2C7F JUMPI DUP3 DUP4 REVERT JUMPDEST PUSH2 0x2C8B DUP13 DUP4 DUP14 ADD PUSH2 0x2963 JUMP JUMPDEST SWAP6 POP PUSH1 0xA0 DUP12 ADD CALLDATALOAD SWAP2 POP DUP1 DUP3 GT ISZERO PUSH2 0x2CA0 JUMPI DUP3 DUP4 REVERT JUMPDEST PUSH2 0x2CAC DUP13 DUP4 DUP14 ADD PUSH2 0x2963 JUMP JUMPDEST SWAP5 POP PUSH1 0xC0 DUP12 ADD CALLDATALOAD SWAP2 POP DUP1 DUP3 GT ISZERO PUSH2 0x2CC1 JUMPI DUP3 DUP4 REVERT JUMPDEST PUSH2 0x2CCD DUP13 DUP4 DUP14 ADD PUSH2 0x2963 JUMP JUMPDEST SWAP4 POP PUSH1 0xE0 DUP12 ADD CALLDATALOAD SWAP2 POP DUP1 DUP3 GT ISZERO PUSH2 0x2CE2 JUMPI DUP3 DUP4 REVERT JUMPDEST POP PUSH2 0x2CEF DUP12 DUP3 DUP13 ADD PUSH2 0x2963 JUMP JUMPDEST SWAP2 POP POP SWAP3 SWAP6 SWAP9 POP SWAP3 SWAP6 SWAP9 SWAP1 SWAP4 SWAP7 POP JUMP JUMPDEST PUSH1 0x0 PUSH1 0x20 DUP3 DUP5 SUB SLT ISZERO PUSH2 0x2D10 JUMPI DUP1 DUP2 REVERT JUMPDEST DUP2 MLOAD PUSH8 0xFFFFFFFFFFFFFFFF DUP2 GT ISZERO PUSH2 0x2D26 JUMPI DUP2 DUP3 REVERT JUMPDEST DUP3 ADD PUSH1 0x1F DUP2 ADD DUP5 SGT PUSH2 0x2D36 JUMPI DUP2 DUP3 REVERT JUMPDEST DUP1 MLOAD PUSH2 0x2D44 PUSH2 0x2981 DUP3 PUSH2 0x32AB JUMP JUMPDEST DUP2 DUP2 MSTORE DUP6 PUSH1 0x20 DUP4 DUP6 ADD ADD GT ISZERO PUSH2 0x2D58 JUMPI DUP4 DUP5 REVERT JUMPDEST PUSH2 0x2D69 DUP3 PUSH1 0x20 DUP4 ADD PUSH1 0x20 DUP7 ADD PUSH2 0x32D3 JUMP JUMPDEST SWAP6 SWAP5 POP POP POP POP POP JUMP JUMPDEST PUSH1 0x0 DUP1 PUSH1 0x0 DUP1 PUSH1 0x0 DUP1 PUSH1 0x0 DUP1 PUSH2 0x100 DUP10 DUP12 SUB SLT ISZERO PUSH2 0x2D8E JUMPI DUP4 DUP5 REVERT JUMPDEST DUP9 CALLDATALOAD PUSH8 0xFFFFFFFFFFFFFFFF DUP1 DUP3 GT ISZERO PUSH2 0x2DA5 JUMPI DUP6 DUP7 REVERT JUMPDEST PUSH2 0x2DB1 DUP13 DUP4 DUP14 ADD PUSH2 0x2963 JUMP JUMPDEST SWAP10 POP PUSH1 0x20 DUP12 ADD CALLDATALOAD SWAP2 POP DUP1 DUP3 GT ISZERO PUSH2 0x2DC6 JUMPI DUP6 DUP7 REVERT JUMPDEST PUSH2 0x2DD2 DUP13 DUP4 DUP14 ADD PUSH2 0x2963 JUMP JUMPDEST SWAP9 POP PUSH1 0x40 DUP12 ADD CALLDATALOAD SWAP2 POP DUP1 DUP3 GT ISZERO PUSH2 0x2DE7 JUMPI DUP6 DUP7 REVERT JUMPDEST POP PUSH2 0x2DF4 DUP12 DUP3 DUP13 ADD PUSH2 0x2963 JUMP JUMPDEST SWAP7 POP POP PUSH2 0x2E03 PUSH1 0x60 DUP11 ADD PUSH2 0x294C JUMP JUMPDEST SWAP5 POP PUSH2 0x2E11 PUSH1 0x80 DUP11 ADD PUSH2 0x294C JUMP JUMPDEST SWAP4 POP PUSH2 0x2E1F PUSH1 0xA0 DUP11 ADD PUSH2 0x294C JUMP JUMPDEST SWAP3 POP PUSH2 0x2E2D PUSH1 0xC0 DUP11 ADD PUSH2 0x294C JUMP JUMPDEST SWAP2 POP PUSH2 0x2E3B PUSH1 0xE0 DUP11 ADD PUSH2 0x294C JUMP JUMPDEST SWAP1 POP SWAP3 SWAP6 SWAP9 POP SWAP3 SWAP6 SWAP9 SWAP1 SWAP4 SWAP7 POP JUMP JUMPDEST PUSH1 0x0 DUP2 MLOAD DUP1 DUP5 MSTORE PUSH2 0x2E62 DUP2 PUSH1 0x20 DUP7 ADD PUSH1 0x20 DUP7 ADD PUSH2 0x32D3 JUMP JUMPDEST PUSH1 0x1F ADD PUSH1 0x1F NOT AND SWAP3 SWAP1 SWAP3 ADD PUSH1 0x20 ADD SWAP3 SWAP2 POP POP JUMP JUMPDEST PUSH1 0x60 SWAP3 SWAP1 SWAP3 SHL PUSH12 0xFFFFFFFFFFFFFFFFFFFFFFFF NOT AND DUP3 MSTORE PUSH1 0x14 DUP3 ADD MSTORE PUSH1 0x34 ADD SWAP1 JUMP JUMPDEST PUSH1 0x0 DUP3 MLOAD PUSH2 0x2EAA DUP2 DUP5 PUSH1 0x20 DUP8 ADD PUSH2 0x32D3 JUMP JUMPDEST SWAP2 SWAP1 SWAP2 ADD SWAP3 SWAP2 POP POP JUMP JUMPDEST PUSH1 0x1 PUSH1 0x1 PUSH1 0xA0 SHL SUB SWAP2 SWAP1 SWAP2 AND DUP2 MSTORE PUSH1 0x20 ADD SWAP1 JUMP JUMPDEST SWAP1 ISZERO ISZERO DUP2 MSTORE PUSH1 0x20 ADD SWAP1 JUMP JUMPDEST PUSH1 0x0 PUSH1 0x20 DUP3 MSTORE PUSH2 0x29CE PUSH1 0x20 DUP4 ADD DUP5 PUSH2 0x2E4A JUMP JUMPDEST PUSH1 0x0 PUSH1 0x40 DUP3 MSTORE PUSH2 0x2EF9 PUSH1 0x40 DUP4 ADD DUP6 PUSH2 0x2E4A JUMP JUMPDEST DUP3 DUP2 SUB PUSH1 0x20 DUP5 ADD MSTORE PUSH2 0x2D69 DUP2 DUP6 PUSH2 0x2E4A JUMP JUMPDEST PUSH1 0x0 PUSH1 0x60 DUP3 MSTORE PUSH2 0x2F1E PUSH1 0x60 DUP4 ADD DUP7 PUSH2 0x2E4A JUMP JUMPDEST DUP3 DUP2 SUB PUSH1 0x20 DUP5 ADD MSTORE PUSH2 0x2F30 DUP2 DUP7 PUSH2 0x2E4A JUMP JUMPDEST SWAP1 POP DUP3 DUP2 SUB PUSH1 0x40 DUP5 ADD MSTORE PUSH2 0x2F44 DUP2 DUP6 PUSH2 0x2E4A JUMP JUMPDEST SWAP7 SWAP6 POP POP POP POP POP POP JUMP JUMPDEST PUSH1 0x0 PUSH2 0x100 DUP1 DUP4 MSTORE PUSH2 0x2F62 DUP2 DUP5 ADD DUP13 PUSH2 0x2E4A JUMP JUMPDEST SWAP1 POP DUP3 DUP2 SUB PUSH1 0x20 DUP5 ADD MSTORE PUSH2 0x2F76 DUP2 DUP12 PUSH2 0x2E4A JUMP JUMPDEST SWAP1 POP DUP3 DUP2 SUB PUSH1 0x40 DUP5 ADD MSTORE PUSH2 0x2F8A DUP2 DUP11 PUSH2 0x2E4A JUMP JUMPDEST PUSH1 0x1 PUSH1 0x1 PUSH1 0xA0 SHL SUB SWAP9 DUP10 AND PUSH1 0x60 DUP6 ADD MSTORE SWAP7 DUP9 AND PUSH1 0x80 DUP5 ADD MSTORE POP POP SWAP3 DUP6 AND PUSH1 0xA0 DUP5 ADD MSTORE SWAP1 DUP5 AND PUSH1 0xC0 DUP4 ADD MSTORE SWAP1 SWAP3 AND PUSH1 0xE0 SWAP1 SWAP3 ADD SWAP2 SWAP1 SWAP2 MSTORE SWAP4 SWAP3 POP POP POP JUMP JUMPDEST PUSH1 0x0 PUSH1 0xC0 DUP3 MSTORE PUSH2 0x2FDA PUSH1 0xC0 DUP4 ADD DUP10 PUSH2 0x2E4A JUMP JUMPDEST DUP3 DUP2 SUB PUSH1 0x20 DUP5 ADD MSTORE PUSH2 0x2FEC DUP2 DUP10 PUSH2 0x2E4A JUMP JUMPDEST SWAP1 POP DUP3 DUP2 SUB PUSH1 0x40 DUP5 ADD MSTORE PUSH2 0x3000 DUP2 DUP9 PUSH2 0x2E4A JUMP JUMPDEST SWAP1 POP DUP3 DUP2 SUB PUSH1 0x60 DUP5 ADD MSTORE PUSH2 0x3014 DUP2 DUP8 PUSH2 0x2E4A JUMP JUMPDEST SWAP1 POP DUP3 DUP2 SUB PUSH1 0x80 DUP5 ADD MSTORE PUSH2 0x3028 DUP2 DUP7 PUSH2 0x2E4A JUMP JUMPDEST SWAP1 POP DUP3 DUP2 SUB PUSH1 0xA0 DUP5 ADD MSTORE PUSH2 0x303C DUP2 DUP6 PUSH2 0x2E4A JUMP JUMPDEST SWAP10 SWAP9 POP POP POP POP POP POP POP POP POP JUMP JUMPDEST PUSH1 0x0 PUSH1 0xE0 DUP3 MSTORE PUSH2 0x305C PUSH1 0xE0 DUP4 ADD DUP11 PUSH2 0x2E4A JUMP JUMPDEST DUP3 DUP2 SUB PUSH1 0x20 DUP5 ADD MSTORE PUSH2 0x306E DUP2 DUP11 PUSH2 0x2E4A JUMP JUMPDEST SWAP1 POP DUP3 DUP2 SUB PUSH1 0x40 DUP5 ADD MSTORE PUSH2 0x3082 DUP2 DUP10 PUSH2 0x2E4A JUMP JUMPDEST SWAP1 POP DUP3 DUP2 SUB PUSH1 0x60 DUP5 ADD MSTORE PUSH2 0x3096 DUP2 DUP9 PUSH2 0x2E4A JUMP JUMPDEST SWAP1 POP DUP3 DUP2 SUB PUSH1 0x80 DUP5 ADD MSTORE PUSH2 0x30AA DUP2 DUP8 PUSH2 0x2E4A JUMP JUMPDEST SWAP1 POP DUP3 DUP2 SUB PUSH1 0xA0 DUP5 ADD MSTORE PUSH2 0x30BE DUP2 DUP7 PUSH2 0x2E4A JUMP JUMPDEST SWAP1 POP DUP3 DUP2 SUB PUSH1 0xC0 DUP5 ADD MSTORE PUSH2 0x30D2 DUP2 DUP6 PUSH2 0x2E4A JUMP JUMPDEST SWAP11 SWAP10 POP POP POP POP POP POP POP POP POP POP JUMP JUMPDEST PUSH1 0x20 DUP1 DUP3 MSTORE PUSH1 0x10 SWAP1 DUP3 ADD MSTORE PUSH16 0x24B73B30B634B21034B6B837B93A32B9 PUSH1 0x81 SHL PUSH1 0x40 DUP3 ADD MSTORE PUSH1 0x60 ADD SWAP1 JUMP JUMPDEST PUSH1 0x20 DUP1 DUP3 MSTORE PUSH1 0x10 SWAP1 DUP3 ADD MSTORE PUSH16 0x24B73B30B634B21027B832B930BA37B9 PUSH1 0x81 SHL PUSH1 0x40 DUP3 ADD MSTORE PUSH1 0x60 ADD SWAP1 JUMP JUMPDEST PUSH1 0x20 DUP1 DUP3 MSTORE PUSH1 0x13 SWAP1 DUP3 ADD MSTORE PUSH19 0x21B0B63632B91034B9902737BA1037BBB732B9 PUSH1 0x69 SHL PUSH1 0x40 DUP3 ADD MSTORE PUSH1 0x60 ADD SWAP1 JUMP JUMPDEST PUSH1 0x20 DUP1 DUP3 MSTORE PUSH1 0xF SWAP1 DUP3 ADD MSTORE PUSH15 0x24B73B30B634B21020BAB234BA37B9 PUSH1 0x89 SHL PUSH1 0x40 DUP3 ADD MSTORE PUSH1 0x60 ADD SWAP1 JUMP JUMPDEST PUSH1 0x20 DUP1 DUP3 MSTORE PUSH1 0x10 SWAP1 DUP3 ADD MSTORE PUSH16 0x24B73B30B634B21032BC3837B93A32B9 PUSH1 0x81 SHL PUSH1 0x40 DUP3 ADD MSTORE PUSH1 0x60 ADD SWAP1 JUMP JUMPDEST PUSH1 0x20 DUP1 DUP3 MSTORE PUSH1 0x11 SWAP1 DUP3 ADD MSTORE PUSH17 0x24B73B30B634B210383937B1B2B9B9B7B9 PUSH1 0x79 SHL PUSH1 0x40 DUP3 ADD MSTORE PUSH1 0x60 ADD SWAP1 JUMP JUMPDEST PUSH1 0x20 DUP1 DUP3 MSTORE PUSH1 0xC SWAP1 DUP3 ADD MSTORE PUSH12 0x24B73B30B634B2103AB9B2B9 PUSH1 0xA1 SHL PUSH1 0x40 DUP3 ADD MSTORE PUSH1 0x60 ADD SWAP1 JUMP JUMPDEST PUSH1 0x20 DUP1 DUP3 MSTORE PUSH1 0x17 SWAP1 DUP3 ADD MSTORE PUSH32 0x496E76616C6964207374657020746F2070726F63656564000000000000000000 PUSH1 0x40 DUP3 ADD MSTORE PUSH1 0x60 ADD SWAP1 JUMP JUMPDEST PUSH1 0x20 DUP1 DUP3 MSTORE PUSH1 0x18 SWAP1 DUP3 ADD MSTORE PUSH32 0x43616C6C6572206973204E6F7420617574686F72697A65640000000000000000 PUSH1 0x40 DUP3 ADD MSTORE PUSH1 0x60 ADD SWAP1 JUMP JUMPDEST PUSH1 0xFF SWAP2 SWAP1 SWAP2 AND DUP2 MSTORE PUSH1 0x20 ADD SWAP1 JUMP JUMPDEST PUSH1 0x40 MLOAD DUP2 DUP2 ADD PUSH8 0xFFFFFFFFFFFFFFFF DUP2 GT DUP3 DUP3 LT OR ISZERO PUSH2 0x32A3 JUMPI PUSH2 0x32A3 PUSH2 0x333E JUMP JUMPDEST PUSH1 0x40 MSTORE SWAP2 SWAP1 POP JUMP JUMPDEST PUSH1 0x0 PUSH8 0xFFFFFFFFFFFFFFFF DUP3 GT ISZERO PUSH2 0x32C5 JUMPI PUSH2 0x32C5 PUSH2 0x333E JUMP JUMPDEST POP PUSH1 0x1F ADD PUSH1 0x1F NOT AND PUSH1 0x20 ADD SWAP1 JUMP JUMPDEST PUSH1 0x0 JUMPDEST DUP4 DUP2 LT ISZERO PUSH2 0x32EE JUMPI DUP2 DUP2 ADD MLOAD DUP4 DUP3 ADD MSTORE PUSH1 0x20 ADD PUSH2 0x32D6 JUMP JUMPDEST DUP4 DUP2 GT ISZERO PUSH2 0x32FD JUMPI PUSH1 0x0 DUP5 DUP5 ADD MSTORE JUMPDEST POP POP POP POP JUMP JUMPDEST PUSH1 0x2 DUP2 DIV PUSH1 0x1 DUP3 AND DUP1 PUSH2 0x3317 JUMPI PUSH1 0x7F DUP3 AND SWAP2 POP JUMPDEST PUSH1 0x20 DUP3 LT DUP2 EQ ISZERO PUSH2 0x3338 JUMPI PUSH4 0x4E487B71 PUSH1 0xE0 SHL PUSH1 0x0 MSTORE PUSH1 0x22 PUSH1 0x4 MSTORE PUSH1 0x24 PUSH1 0x0 REVERT JUMPDEST POP SWAP2 SWAP1 POP JUMP JUMPDEST PUSH4 0x4E487B71 PUSH1 0xE0 SHL PUSH1 0x0 MSTORE PUSH1 0x41 PUSH1 0x4 MSTORE PUSH1 0x24 PUSH1 0x0 REVERT INVALID LOG2 PUSH5 0x6970667358 0x22 SLT KECCAK256 0xAB DUP13 0x2E 0x5C LT CALL CALLVALUE 0xE3 0x29 BLOCKHASH 0xA8 CALLDATASIZE PUSH8 0x80DC69A012AD090D SWAP8 GAS SWAP7 0xC1 0xF8 0x4D PUSH9 0x45CAFECF64736F6C63 NUMBER STOP ADDMOD STOP STOP CALLER "
		},
		"gasEstimates": {
			"creation": {
				"codeDepositCost": "2638800",
				"executionCost": "infinite",
				"totalCost": "infinite"
			},
			"external": {
				"authorizeCaller(address)": "infinite",
				"authorizedCaller(address)": "1293",
				"deAuthorizeCaller(address)": "infinite",
				"getAuditorData(address)": "infinite",
				"getBatchDetails(address)": "infinite",
				"getBatchNextAction(address)": "infinite",
				"getExporterData(address)": "infinite",
				"getImporterData(address)": "infinite",
				"getNextAction(address)": "infinite",
				"getOperatorData(address)": "infinite",
				"getProcessorData(address)": "infinite",
				"owner()": "1181",
				"renounceOwnership()": "23873",
				"setBatchDetails(string,string,string,address,address,address,address,address)": "infinite",
				"transferOwnership(address)": "24488",
				"updateAuditData(address,string,string)": "infinite",
				"updateExporterData(address,string,string,string,string,string,string)": "infinite",
				"updateImporterData(address,string,string,string,string,string,string,string)": "infinite",
				"updateOperatorData(address,string,string,string)": "infinite",
				"updateProcessorData(address,string,string,string,string,string,string,string)": "infinite"
			}
		},
		"methodIdentifiers": {
			"authorizeCaller(address)": "2c388d5d",
			"authorizedCaller(address)": "98f6ef12",
			"deAuthorizeCaller(address)": "1bcd250a",
			"getAuditorData(address)": "5e1be8b4",
			"getBatchDetails(address)": "47916bf8",
			"getBatchNextAction(address)": "b658e624",
			"getExporterData(address)": "06ecd6d4",
			"getImporterData(address)": "febd0492",
			"getNextAction(address)": "4d6b5e00",
			"getOperatorData(address)": "ee3fa880",
			"getProcessorData(address)": "b6959d73",
			"owner()": "8da5cb5b",
			"renounceOwnership()": "715018a6",
			"setBatchDetails(string,string,string,address,address,address,address,address)": "ae8da9c9",
			"transferOwnership(address)": "f2fde38b",
			"updateAuditData(address,string,string)": "0b8f8aea",
			"updateExporterData(address,string,string,string,string,string,string)": "ebe50819",
			"updateImporterData(address,string,string,string,string,string,string,string)": "ebd449f8",
			"updateOperatorData(address,string,string,string)": "04ec3071",
			"updateProcessorData(address,string,string,string,string,string,string,string)": "9de2620f"
		}
	},
	"abi": [
		{
			"inputs": [
				{
					"internalType": "address",
					"name": "_supplyChainUser",
					"type": "address"
				}
			],
			"stateMutability": "nonpayable",
			"type": "constructor"
		},
		{
			"anonymous": false,
			"inputs": [
				{
					"indexed": true,
					"internalType": "address",
					"name": "_operator",
					"type": "address"
				},
				{
					"indexed": false,
					"internalType": "bool",
					"name": "_isActive",
					"type": "bool"
				}
			],
			"name": "AuthorityUpdated",
			"type": "event"
		},
		{
			"anonymous": false,
			"inputs": [
				{
					"indexed": true,
					"internalType": "address",
					"name": "user",
					"type": "address"
				},
				{
					"indexed": true,
					"internalType": "address",
					"name": "batchNo",
					"type": "address"
				}
			],
			"name": "DoneBatchAudit",
			"type": "event"
		},
		{
			"anonymous": false,
			"inputs": [
				{
					"indexed": true,
					"internalType": "address",
					"name": "user",
					"type": "address"
				},
				{
					"indexed": true,
					"internalType": "address",
					"name": "batchNo",
					"type": "address"
				}
			],
			"name": "DoneBatchExporting",
			"type": "event"
		},
		{
			"anonymous": false,
			"inputs": [
				{
					"indexed": true,
					"internalType": "address",
					"name": "user",
					"type": "address"
				},
				{
					"indexed": true,
					"internalType": "address",
					"name": "batchNo",
					"type": "address"
				}
			],
			"name": "DoneBatchImporting",
			"type": "event"
		},
		{
			"anonymous": false,
			"inputs": [
				{
					"indexed": true,
					"internalType": "address",
					"name": "user",
					"type": "address"
				},
				{
					"indexed": true,
					"internalType": "address",
					"name": "batchNo",
					"type": "address"
				}
			],
			"name": "DoneBatchOperation",
			"type": "event"
		},
		{
			"anonymous": false,
			"inputs": [
				{
					"indexed": true,
					"internalType": "address",
					"name": "user",
					"type": "address"
				},
				{
					"indexed": true,
					"internalType": "address",
					"name": "batchNo",
					"type": "address"
				}
			],
			"name": "DoneBatchProcessing",
			"type": "event"
		},
		{
			"anonymous": false,
			"inputs": [
				{
					"indexed": true,
					"internalType": "address",
					"name": "previousOwner",
					"type": "address"
				}
			],
			"name": "OwnershipRenounced",
			"type": "event"
		},
		{
			"anonymous": false,
			"inputs": [
				{
					"indexed": true,
					"internalType": "address",
					"name": "previousOwner",
					"type": "address"
				},
				{
					"indexed": true,
					"internalType": "address",
					"name": "newOwner",
					"type": "address"
				}
			],
			"name": "OwnershipTransferred",
			"type": "event"
		},
		{
			"anonymous": false,
			"inputs": [
				{
					"indexed": true,
					"internalType": "address",
					"name": "user",
					"type": "address"
				},
				{
					"indexed": true,
					"internalType": "address",
					"name": "batchNo",
					"type": "address"
				}
			],
			"name": "performBatchAudit",
			"type": "event"
		},
		{
			"inputs": [
				{
					"internalType": "address",
					"name": "_caller",
					"type": "address"
				}
			],
			"name": "authorizeCaller",
			"outputs": [
				{
					"internalType": "bool",
					"name": "",
					"type": "bool"
				}
			],
			"stateMutability": "nonpayable",
			"type": "function"
		},
		{
			"inputs": [
				{
					"internalType": "address",
					"name": "",
					"type": "address"
				}
			],
			"name": "authorizedCaller",
			"outputs": [
				{
					"internalType": "uint8",
					"name": "",
					"type": "uint8"
				}
			],
			"stateMutability": "view",
			"type": "function"
		},
		{
			"inputs": [
				{
					"internalType": "address",
					"name": "_caller",
					"type": "address"
				}
			],
			"name": "deAuthorizeCaller",
			"outputs": [
				{
					"internalType": "bool",
					"name": "",
					"type": "bool"
				}
			],
			"stateMutability": "nonpayable",
			"type": "function"
		},
		{
			"inputs": [
				{
					"internalType": "address",
					"name": "_batchNo",
					"type": "address"
				}
			],
			"name": "getAuditorData",
			"outputs": [
				{
					"internalType": "string",
					"name": "extractionMethod",
					"type": "string"
				},
				{
					"internalType": "string",
					"name": "oilClass",
					"type": "string"
				}
			],
			"stateMutability": "view",
			"type": "function"
		},
		{
			"inputs": [
				{
					"internalType": "address",
					"name": "_batchNo",
					"type": "address"
				}
			],
			"name": "getBatchDetails",
			"outputs": [
				{
					"internalType": "string",
					"name": "registrationNo",
					"type": "string"
				},
				{
					"internalType": "string",
					"name": "extractorName",
					"type": "string"
				},
				{
					"internalType": "string",
					"name": "extractorAddress",
					"type": "string"
				},
				{
					"internalType": "address",
					"name": "auditorAddress",
					"type": "address"
				},
				{
					"internalType": "address",
					"name": "operatorAddress",
					"type": "address"
				},
				{
					"internalType": "address",
					"name": "exporterAddress",
					"type": "address"
				},
				{
					"internalType": "address",
					"name": "importerAddress",
					"type": "address"
				},
				{
					"internalType": "address",
					"name": "processorAddress",
					"type": "address"
				}
			],
			"stateMutability": "view",
			"type": "function"
		},
		{
			"inputs": [
				{
					"internalType": "address",
					"name": "_batchNo",
					"type": "address"
				}
			],
			"name": "getBatchNextAction",
			"outputs": [
				{
					"internalType": "string",
					"name": "",
					"type": "string"
				}
			],
			"stateMutability": "view",
			"type": "function"
		},
		{
			"inputs": [
				{
					"internalType": "address",
					"name": "_batchNo",
					"type": "address"
				}
			],
			"name": "getExporterData",
			"outputs": [
				{
					"internalType": "string",
					"name": "quantity",
					"type": "string"
				},
				{
					"internalType": "string",
					"name": "destinationAddress",
					"type": "string"
				},
				{
					"internalType": "string",
					"name": "shipNo",
					"type": "string"
				},
				{
					"internalType": "string",
					"name": "shipName",
					"type": "string"
				},
				{
					"internalType": "string",
					"name": "estimateDateTime",
					"type": "string"
				},
				{
					"internalType": "string",
					"name": "exporterId",
					"type": "string"
				}
			],
			"stateMutability": "view",
			"type": "function"
		},
		{
			"inputs": [
				{
					"internalType": "address",
					"name": "_batchNo",
					"type": "address"
				}
			],
			"name": "getImporterData",
			"outputs": [
				{
					"internalType": "string",
					"name": "quantity",
					"type": "string"
				},
				{
					"internalType": "string",
					"name": "shipNo",
					"type": "string"
				},
				{
					"internalType": "string",
					"name": "shipName",
					"type": "string"
				},
				{
					"internalType": "string",
					"name": "transportInfo",
					"type": "string"
				},
				{
					"internalType": "string",
					"name": "terminalName",
					"type": "string"
				},
				{
					"internalType": "string",
					"name": "terminalCoordinates",
					"type": "string"
				},
				{
					"internalType": "string",
					"name": "importerId",
					"type": "string"
				}
			],
			"stateMutability": "view",
			"type": "function"
		},
		{
			"inputs": [
				{
					"internalType": "address",
					"name": "_batchNo",
					"type": "address"
				}
			],
			"name": "getNextAction",
			"outputs": [
				{
					"internalType": "string",
					"name": "action",
					"type": "string"
				}
			],
			"stateMutability": "view",
			"type": "function"
		},
		{
			"inputs": [
				{
					"internalType": "address",
					"name": "_batchNo",
					"type": "address"
				}
			],
			"name": "getOperatorData",
			"outputs": [
				{
					"internalType": "string",
					"name": "hydrocarbonVariety",
					"type": "string"
				},
				{
					"internalType": "string",
					"name": "operatorAbi",
					"type": "string"
				},
				{
					"internalType": "string",
					"name": "gravity",
					"type": "string"
				}
			],
			"stateMutability": "view",
			"type": "function"
		},
		{
			"inputs": [
				{
					"internalType": "address",
					"name": "_batchNo",
					"type": "address"
				}
			],
			"name": "getProcessorData",
			"outputs": [
				{
					"internalType": "string",
					"name": "quantity",
					"type": "string"
				},
				{
					"internalType": "string",
					"name": "temperature",
					"type": "string"
				},
				{
					"internalType": "string",
					"name": "fuelGrade",
					"type": "string"
				},
				{
					"internalType": "string",
					"name": "internalBatchNo",
					"type": "string"
				},
				{
					"internalType": "string",
					"name": "packagingDateTime",
					"type": "string"
				},
				{
					"internalType": "string",
					"name": "processorName",
					"type": "string"
				},
				{
					"internalType": "string",
					"name": "processorAddress",
					"type": "string"
				}
			],
			"stateMutability": "view",
			"type": "function"
		},
		{
			"inputs": [],
			"name": "owner",
			"outputs": [
				{
					"internalType": "address",
					"name": "",
					"type": "address"
				}
			],
			"stateMutability": "view",
			"type": "function"
		},
		{
			"inputs": [],
			"name": "renounceOwnership",
			"outputs": [],
			"stateMutability": "nonpayable",
			"type": "function"
		},
		{
			"inputs": [
				{
					"internalType": "string",
					"name": "_registrationNo",
					"type": "string"
				},
				{
					"internalType": "string",
					"name": "_extractorName",
					"type": "string"
				},
				{
					"internalType": "string",
					"name": "_extractorAddress",
					"type": "string"
				},
				{
					"internalType": "address",
					"name": "_auditorAddress",
					"type": "address"
				},
				{
					"internalType": "address",
					"name": "_operatorAddress",
					"type": "address"
				},
				{
					"internalType": "address",
					"name": "_exporterAddress",
					"type": "address"
				},
				{
					"internalType": "address",
					"name": "_importerAddress",
					"type": "address"
				},
				{
					"internalType": "address",
					"name": "_processorAddress",
					"type": "address"
				}
			],
			"name": "setBatchDetails",
			"outputs": [
				{
					"internalType": "address",
					"name": "",
					"type": "address"
				}
			],
			"stateMutability": "nonpayable",
			"type": "function"
		},
		{
			"inputs": [
				{
					"internalType": "address",
					"name": "newOwner",
					"type": "address"
				}
			],
			"name": "transferOwnership",
			"outputs": [],
			"stateMutability": "nonpayable",
			"type": "function"
		},
		{
			"inputs": [
				{
					"internalType": "address",
					"name": "_batchNo",
					"type": "address"
				},
				{
					"internalType": "string",
					"name": "_extractionMethod",
					"type": "string"
				},
				{
					"internalType": "string",
					"name": "_oilClass",
					"type": "string"
				}
			],
			"name": "updateAuditData",
			"outputs": [
				{
					"internalType": "bool",
					"name": "",
					"type": "bool"
				}
			],
			"stateMutability": "nonpayable",
			"type": "function"
		},
		{
			"inputs": [
				{
					"internalType": "address",
					"name": "_batchNo",
					"type": "address"
				},
				{
					"internalType": "string",
					"name": "_quantity",
					"type": "string"
				},
				{
					"internalType": "string",
					"name": "_destinationAddress",
					"type": "string"
				},
				{
					"internalType": "string",
					"name": "_shipNo",
					"type": "string"
				},
				{
					"internalType": "string",
					"name": "_shipName",
					"type": "string"
				},
				{
					"internalType": "string",
					"name": "_estimateDateTime",
					"type": "string"
				},
				{
					"internalType": "string",
					"name": "_exporterId",
					"type": "string"
				}
			],
			"name": "updateExporterData",
			"outputs": [
				{
					"internalType": "bool",
					"name": "",
					"type": "bool"
				}
			],
			"stateMutability": "nonpayable",
			"type": "function"
		},
		{
			"inputs": [
				{
					"internalType": "address",
					"name": "_batchNo",
					"type": "address"
				},
				{
					"internalType": "string",
					"name": "_quantity",
					"type": "string"
				},
				{
					"internalType": "string",
					"name": "_shipNo",
					"type": "string"
				},
				{
					"internalType": "string",
					"name": "_shipName",
					"type": "string"
				},
				{
					"internalType": "string",
					"name": "_transportInfo",
					"type": "string"
				},
				{
					"internalType": "string",
					"name": "_terminalName",
					"type": "string"
				},
				{
					"internalType": "string",
					"name": "_terminalCoordinates",
					"type": "string"
				},
				{
					"internalType": "string",
					"name": "_importerId",
					"type": "string"
				}
			],
			"name": "updateImporterData",
			"outputs": [
				{
					"internalType": "bool",
					"name": "",
					"type": "bool"
				}
			],
			"stateMutability": "nonpayable",
			"type": "function"
		},
		{
			"inputs": [
				{
					"internalType": "address",
					"name": "_batchNo",
					"type": "address"
				},
				{
					"internalType": "string",
					"name": "_hydrocarbonVariety",
					"type": "string"
				},
				{
					"internalType": "string",
					"name": "_operatorAbi",
					"type": "string"
				},
				{
					"internalType": "string",
					"name": "_gravity",
					"type": "string"
				}
			],
			"name": "updateOperatorData",
			"outputs": [
				{
					"internalType": "bool",
					"name": "",
					"type": "bool"
				}
			],
			"stateMutability": "nonpayable",
			"type": "function"
		},
		{
			"inputs": [
				{
					"internalType": "address",
					"name": "_batchNo",
					"type": "address"
				},
				{
					"internalType": "string",
					"name": "_quantity",
					"type": "string"
				},
				{
					"internalType": "string",
					"name": "_temperature",
					"type": "string"
				},
				{
					"internalType": "string",
					"name": "_fuelGrade",
					"type": "string"
				},
				{
					"internalType": "string",
					"name": "_internalBatchNo",
					"type": "string"
				},
				{
					"internalType": "string",
					"name": "_packagingDateTime",
					"type": "string"
				},
				{
					"internalType": "string",
					"name": "_processorName",
					"type": "string"
				},
				{
					"internalType": "string",
					"name": "_processorAddress",
					"type": "string"
				}
			],
			"name": "updateProcessorData",
			"outputs": [
				{
					"internalType": "bool",
					"name": "",
					"type": "bool"
				}
			],
			"stateMutability": "nonpayable",
			"type": "function"
		}
	]
}