{
	"data": {
		"bytecode": {
			"linkReferences": {},
			"object": "60076101209081526630bab234ba37b960c91b61014052608090815260086101608181526737b832b930ba37b960c11b6101805260a0526101a08181526732bc3837b93a32b960c11b6101c05260c0526101e09081526734b6b837b93a32b960c11b6102005260e052610260604052600961022090815268383937b1b2b9b9b7b960b91b61024052610100526200009b906037906005620004d6565b50348015620000a957600080fd5b50604051620052ae380380620052ae833981016040819052620000cc91620006c3565b60008054336001600160a01b031991821681179092556034805490911682179055604080518082018252600c81526b57696c6c69616d205065746560a01b60208083019190915282518084018452601881527f77696c6c69616d40656e657267796c65646765722e636f6d0000000000000000818301528351608081019094526048808552620001cc9594919262005266908301396040518060400160405280600a8152602001693939393939393939393960b01b8152506040518060400160405280600581526020016430b236b4b760d91b81525060018060405180604001604052806002815260200161313160f01b8152506200023060201b60201c565b5033600081815260436020908152604091829020805460ff1916600190811790915591519182527fc5238a63fa205f95e98807f6cbc91d2ad8555a2250075e47491f11d9c69db3bc910160405180910390a2620002298162000409565b5062000732565b8751600090620002489060019060208c01906200053a565b5087516200025e9060029060208b01906200053a565b508651620002749060039060208a01906200053a565b5085516200028a9060049060208901906200053a565b506005805460ff19168515151790558151620002ae9060069060208501906200053a565b5060018315151415620002ca576007805460ff19168415151790555b6001600160a01b038a1660009081526040602081905290206001805490919081908390620002f890620006f5565b62000305929190620005c5565b5060018201816001019080546200031c90620006f5565b62000329929190620005c5565b5060028201816002019080546200034090620006f5565b6200034d929190620005c5565b5060038201816003019080546200036490620006f5565b62000371929190620005c5565b50600482810154908201805460ff191660ff90921615159190911790556005808301805491830191620003a490620006f5565b620003b1929190620005c5565b506006918201549101805460ff191660ff90921615159190911790556001600160a01b038a1660009081526041602090815260409091208651620003f8928801906200053a565b5060019a9950505050505050505050565b603380546001600160a01b0319163390811790915560009081526043602052604090205460ff16600114806200044957506000546001600160a01b031633145b620004b45760405162461bcd60e51b815260206004820152603160248201527f4f6e6c7920417574686f72697a656420616e64204f776e65722063616e207065604482015270393337b936903a3434b99030b1ba34b7b760791b606482015260840160405180910390fd5b603580546001600160a01b0319166001600160a01b0392909216919091179055565b82805482825590600052602060002090810192821562000528579160200282015b82811115620005285782518051620005179184916020909101906200053a565b5091602001919060010190620004f7565b506200053692915062000649565b5090565b8280546200054890620006f5565b90600052602060002090601f0160209004810192826200056c5760008555620005b7565b82601f106200058757805160ff1916838001178555620005b7565b82800160010185558215620005b7579182015b82811115620005b75782518255916020019190600101906200059a565b50620005369291506200066a565b828054620005d390620006f5565b90600052602060002090601f016020900481019282620005f75760008555620005b7565b82601f106200060a5780548555620005b7565b82800160010185558215620005b757600052602060002091601f016020900482015b82811115620005b75782548255916001019190600101906200062c565b808211156200053657600062000660828262000681565b5060010162000649565b5b808211156200053657600081556001016200066b565b5080546200068f90620006f5565b6000825580601f10620006a0575050565b601f016020900490600052602060002090810190620006c091906200066a565b50565b600060208284031215620006d657600080fd5b81516001600160a01b0381168114620006ee57600080fd5b9392505050565b600181811c908216806200070a57607f821691505b602082108114156200072c57634e487b7160e01b600052602260045260246000fd5b50919050565b614b2480620007426000396000f3fe608060405234801561001057600080fd5b50600436106102065760003560e01c80638da5cb5b1161011a578063b6959d73116100ad578063ee3fa8801161007c578063ee3fa88014610541578063eeadb28014610565578063f2fde38b14610578578063f851a4401461058b578063febd04921461059e57600080fd5b8063b6959d73146104a0578063d87f1b45146104c8578063e19cf725146104db578063ec594254146104ee57600080fd5b806398f6ef12116100e957806398f6ef12146104165780639f468e8e1461044b578063ae8da9c91461047a578063b658e6241461048d57600080fd5b80638da5cb5b146103ca57806392b79432146103dd57806394cee8de146103f05780639651122a1461040357600080fd5b80633480898b1161019d5780635e1be8b41161016c5780635e1be8b4146103515780636f77926b14610374578063710613981461039a578063715018a6146103af57806385379d4d146103b757600080fd5b80633480898b146102e457806347916bf8146102f75780634d6b5e001461031e5780634fbda7281461033e57600080fd5b8063153c33f4116101d9578063153c33f4146102965780631bcd250a146102a957806326a4e8d2146102bc5780632c388d5d146102d157600080fd5b806306ecd6d41461020b5780630e57b0521461023b57806310fe9ae81461025e5780631528362d14610283575b600080fd5b61021e610219366004613ea0565b6105b1565b604051610232989796959493929190614845565b60405180910390f35b61024e610249366004613f5b565b610a3e565b6040519015158152602001610232565b6035546001600160a01b03165b6040516001600160a01b039091168152602001610232565b61024e610291366004614457565b610d88565b61024e6102a4366004614019565b610f08565b61024e6102b7366004613ea0565b6110ef565b6102cf6102ca366004613ea0565b611176565b005b61024e6102df366004613ea0565b6111f3565b60335461026b906001600160a01b031681565b61030a610305366004613ea0565b611275565b604051610232989796959493929190614689565b61033161032c366004613ea0565b611504565b6040516102329190614676565b61033161034c366004613ea0565b611515565b61036461035f366004613ea0565b6115c1565b6040516102329493929190614947565b610387610382366004613ea0565b6117dc565b6040516102329796959493929190614702565b6103a2611c3e565b6040516102329190614614565b6102cf611d17565b61024e6103c5366004614131565b611d89565b60005461026b906001600160a01b031681565b61024e6103eb36600461422a565b61216b565b61024e6103fe366004614019565b61259c565b61024e61041136600461422a565b6126cc565b610439610424366004613ea0565b60436020526000908152604090205460ff1681565b60405160ff9091168152602001610232565b61024e610459366004613ea0565b6001600160a01b031660009081526040602081905290206006015460ff1690565b61026b61048836600461437b565b612af9565b61033161049b366004613ea0565b612dfa565b6104b36104ae366004613ea0565b612e21565b6040516102329998979695949392919061478d565b6102cf6104d6366004614577565b61334b565b61024e6104e9366004613ec2565b6133cc565b603854603954603a54603b54603c54603d54603e54603f54604080519889526020890197909752958701949094526060860192909252608085015260a084015260c083015260e082015261010001610232565b61055461054f366004613ea0565b6136d7565b6040516102329594939291906148e7565b61033161057336600461455e565b61398c565b6102cf610586366004613ea0565b613a38565b60345461026b906001600160a01b031681565b6104b36105ac366004613ea0565b613ad0565b6060806060806060806060600080604760008b6001600160a01b03166001600160a01b031681526020019081526020016000206040518061010001604052908160008201805461060090614a9d565b80601f016020809104026020016040519081016040528092919081815260200182805461062c90614a9d565b80156106795780601f1061064e57610100808354040283529160200191610679565b820191906000526020600020905b81548152906001019060200180831161065c57829003601f168201915b5050505050815260200160018201805461069290614a9d565b80601f01602080910402602001604051908101604052809291908181526020018280546106be90614a9d565b801561070b5780601f106106e05761010080835404028352916020019161070b565b820191906000526020600020905b8154815290600101906020018083116106ee57829003601f168201915b5050505050815260200160028201805461072490614a9d565b80601f016020809104026020016040519081016040528092919081815260200182805461075090614a9d565b801561079d5780601f106107725761010080835404028352916020019161079d565b820191906000526020600020905b81548152906001019060200180831161078057829003601f168201915b505050505081526020016003820180546107b690614a9d565b80601f01602080910402602001604051908101604052809291908181526020018280546107e290614a9d565b801561082f5780601f106108045761010080835404028352916020019161082f565b820191906000526020600020905b81548152906001019060200180831161081257829003601f168201915b5050505050815260200160048201805461084890614a9d565b80601f016020809104026020016040519081016040528092919081815260200182805461087490614a9d565b80156108c15780601f10610896576101008083540402835291602001916108c1565b820191906000526020600020905b8154815290600101906020018083116108a457829003601f168201915b505050505081526020016005820180546108da90614a9d565b80601f016020809104026020016040519081016040528092919081815260200182805461090690614a9d565b80156109535780601f1061092857610100808354040283529160200191610953565b820191906000526020600020905b81548152906001019060200180831161093657829003601f168201915b5050505050815260200160068201805461096c90614a9d565b80601f016020809104026020016040519081016040528092919081815260200182805461099890614a9d565b80156109e55780601f106109ba576101008083540402835291602001916109e5565b820191906000526020600020905b8154815290600101906020018083116109c857829003601f168201915b505050505081526020016007820154815250509050806000015181602001518260400151836060015184608001518560a001518660c001518760e001519850985098509850985098509850985050919395975091939597565b600085604051806040016040528060018152602001603160f81b81525080604051602001610a6c91906145f8565b60405160208183030381529060405280519060200120610a8b33611515565b604051602001610a9b91906145f8565b6040516020818303038152906040528051906020012014610ad75760405162461bcd60e51b8152600401610ace906149bf565b60405180910390fd5b80604051602001610ae891906145f8565b60405160208183030381529060405280519060200120610b0783611504565b604051602001610b1791906145f8565b6040516020818303038152906040528051906020012014610b4a5760405162461bcd60e51b8152600401610ace90614a36565b6001600160a01b03888116600090815260446020526040902060040154163314610ba95760405162461bcd60e51b815260206004820152601060248201526f24b73b30b634b21027b832b930ba37b960811b6044820152606401610ace565b603554603c5460405162ca298760e21b815233600482015260248101919091526001600160a01b0390911690630328a61c90604401600060405180830381600087803b158015610bf857600080fd5b505af1158015610c0c573d6000803e3d6000fd5b50508851610c2392506014915060208a0190613cd8565b508551610c37906015906020890190613cd8565b508451610c4b906016906020880190613cd8565b508351610c5f906017906020870190613cd8565b50426018556001600160a01b03881660009081526046602052604090206014805490919081908390610c9090614a9d565b610c9b929190613d5c565b506001820181600101908054610cb090614a9d565b610cbb929190613d5c565b506002820181600201908054610cd090614a9d565b610cdb929190613d5c565b506003820181600301908054610cf090614a9d565b610cfb929190613d5c565b5060049182015491015560408051808201825260018152601960f91b60208083019182526001600160a01b038c1660009081526042909152929092209051610d439290613cd8565b506040516001600160a01b0389169033907f1a9e54c741ddea5903c67cf93287f3e09598ddfb41d14833169dda5aef87fdb690600090a3506001979650505050505050565b600033610d9457600080fd5b3360009081526040602081905290206006015460ff161515600114610df25760405162461bcd60e51b81526020600482015260146024820152735573657220646f6573206e6f742065786973747360601b6044820152606401610ace565b60355460395460405162ca298760e21b815233600482015260248101919091526001600160a01b0390911690630328a61c90604401600060405180830381600087803b158015610e4157600080fd5b505af1158015610e55573d6000803e3d6000fd5b505050506000610e6d338a8a8a8a8a8a60008b613b20565b9050336001600160a01b03167f1c4e3384429c2e220cfe3c2ecca5339cd1efbdfacaaf98b80fad6421c9abbdec8a8a8a8a8a8a8a604051610eb49796959493929190614702565b60405180910390a2336001600160a01b03167e755ce76c2358d4b65f62e2448e09df1fb836633e744eeb1dad7e88e374d49486604051610ef49190614676565b60405180910390a298975050505050505050565b603380546001600160a01b0319163390811790915560009081526043602052604081205460ff1660011480610f4757506000546001600160a01b031633145b610f635760405162461bcd60e51b8152600401610ace906149e5565b6001600160a01b038916610f7657600080fd5b6001600160a01b03891660009081526040602081905290206006015460ff1615610fd85760405162461bcd60e51b81526020600482015260136024820152725573657220616c72656164792065786973747360681b6044820152606401610ace565b60355460385460405162ca298760e21b815233600482015260248101919091526001600160a01b0390911690630328a61c90604401600060405180830381600087803b15801561102757600080fd5b505af115801561103b573d6000803e3d6000fd5b5050505060006110538a8a8a8a8a8a8a60018b613b20565b9050896001600160a01b03167f89bdc6dc224004c3a507a226ea08cc903ddcb6d7ee20c7390e7637c2577b239f8a8a8a8a8a8a8a60405161109a9796959493929190614702565b60405180910390a2896001600160a01b03167e755ce76c2358d4b65f62e2448e09df1fb836633e744eeb1dad7e88e374d494866040516110da9190614676565b60405180910390a29998505050505050505050565b600080546001600160a01b0316331461111a5760405162461bcd60e51b8152600401610ace90614992565b6001600160a01b0382166000818152604360209081526040808320805460ff19169055519182527fc5238a63fa205f95e98807f6cbc91d2ad8555a2250075e47491f11d9c69db3bc91015b60405180910390a25060015b919050565b603380546001600160a01b0319163390811790915560009081526043602052604090205460ff16600114806111b557506000546001600160a01b031633145b6111d15760405162461bcd60e51b8152600401610ace906149e5565b603580546001600160a01b0319166001600160a01b0392909216919091179055565b600080546001600160a01b0316331461121e5760405162461bcd60e51b8152600401610ace90614992565b6001600160a01b038216600081815260436020908152604091829020805460ff1916600190811790915591519182527fc5238a63fa205f95e98807f6cbc91d2ad8555a2250075e47491f11d9c69db3bc9101611165565b6060806060600080600080600080604460008b6001600160a01b03166001600160a01b03168152602001908152602001600020604051806101000160405290816000820180546112c490614a9d565b80601f01602080910402602001604051908101604052809291908181526020018280546112f090614a9d565b801561133d5780601f106113125761010080835404028352916020019161133d565b820191906000526020600020905b81548152906001019060200180831161132057829003601f168201915b5050505050815260200160018201805461135690614a9d565b80601f016020809104026020016040519081016040528092919081815260200182805461138290614a9d565b80156113cf5780601f106113a4576101008083540402835291602001916113cf565b820191906000526020600020905b8154815290600101906020018083116113b257829003601f168201915b505050505081526020016002820180546113e890614a9d565b80601f016020809104026020016040519081016040528092919081815260200182805461141490614a9d565b80156114615780601f1061143657610100808354040283529160200191611461565b820191906000526020600020905b81548152906001019060200180831161144457829003601f168201915b505050918352505060038201546001600160a01b0390811660208084019190915260048401548216604080850191909152600585015483166060808601919091526006860154841660808087019190915260079096015490931660a0948501528551918601519086015192860151948601519386015160c087015160e090970151929f50909d50919b509299509097509550909350915050919395975091939597565b606061150f82612dfa565b92915050565b6001600160a01b038116600090815260416020526040902080546060919061153c90614a9d565b80601f016020809104026020016040519081016040528092919081815260200182805461156890614a9d565b80156115b55780601f1061158a576101008083540402835291602001916115b5565b820191906000526020600020905b81548152906001019060200180831161159857829003601f168201915b50505050509050919050565b606080606060008060456000876001600160a01b03166001600160a01b0316815260200190815260200160002060405180608001604052908160008201805461160990614a9d565b80601f016020809104026020016040519081016040528092919081815260200182805461163590614a9d565b80156116825780601f1061165757610100808354040283529160200191611682565b820191906000526020600020905b81548152906001019060200180831161166557829003601f168201915b5050505050815260200160018201805461169b90614a9d565b80601f01602080910402602001604051908101604052809291908181526020018280546116c790614a9d565b80156117145780601f106116e957610100808354040283529160200191611714565b820191906000526020600020905b8154815290600101906020018083116116f757829003601f168201915b5050505050815260200160028201805461172d90614a9d565b80601f016020809104026020016040519081016040528092919081815260200182805461175990614a9d565b80156117a65780601f1061177b576101008083540402835291602001916117a6565b820191906000526020600020905b81548152906001019060200180831161178957829003601f168201915b50505091835250506003919091015460209182015281519082015160408301516060909301519199909850919650945092505050565b6060808080806000816001600160a01b03881661182a5760405162461bcd60e51b815260206004820152600c60248201526b24b73b30b634b2102ab9b2b960a11b6044820152606401610ace565b6001600160a01b038816600090815260406020819052808220815160e0810190925280548290829061185b90614a9d565b80601f016020809104026020016040519081016040528092919081815260200182805461188790614a9d565b80156118d45780601f106118a9576101008083540402835291602001916118d4565b820191906000526020600020905b8154815290600101906020018083116118b757829003601f168201915b505050505081526020016001820180546118ed90614a9d565b80601f016020809104026020016040519081016040528092919081815260200182805461191990614a9d565b80156119665780601f1061193b57610100808354040283529160200191611966565b820191906000526020600020905b81548152906001019060200180831161194957829003601f168201915b5050505050815260200160028201805461197f90614a9d565b80601f01602080910402602001604051908101604052809291908181526020018280546119ab90614a9d565b80156119f85780601f106119cd576101008083540402835291602001916119f8565b820191906000526020600020905b8154815290600101906020018083116119db57829003601f168201915b50505050508152602001600382018054611a1190614a9d565b80601f0160208091040260200160405190810160405280929190818152602001828054611a3d90614a9d565b8015611a8a5780601f10611a5f57610100808354040283529160200191611a8a565b820191906000526020600020905b815481529060010190602001808311611a6d57829003601f168201915b5050509183525050600482015460ff1615156020820152600582018054604090920191611ab690614a9d565b80601f0160208091040260200160405190810160405280929190818152602001828054611ae290614a9d565b8015611b2f5780601f10611b0457610100808354040283529160200191611b2f565b820191906000526020600020905b815481529060010190602001808311611b1257829003601f168201915b505050505081526020016006820160009054906101000a900460ff16151515158152505090508060000151816020015182604001518360600151604160008e6001600160a01b03166001600160a01b0316815260200190815260200160002085608001518660a00151828054611ba490614a9d565b80601f0160208091040260200160405190810160405280929190818152602001828054611bd090614a9d565b8015611c1d5780601f10611bf257610100808354040283529160200191611c1d565b820191906000526020600020905b815481529060010190602001808311611c0057829003601f168201915b50505050509250975097509750975097509750975050919395979092949650565b60606037805480602002602001604051908101604052809291908181526020016000905b82821015611d0e578382906000526020600020018054611c8190614a9d565b80601f0160208091040260200160405190810160405280929190818152602001828054611cad90614a9d565b8015611cfa5780601f10611ccf57610100808354040283529160200191611cfa565b820191906000526020600020905b815481529060010190602001808311611cdd57829003601f168201915b505050505081526020019060010190611c62565b50505050905090565b6000546001600160a01b03163314611d415760405162461bcd60e51b8152600401610ace90614992565b600080546040516001600160a01b03909116917ff8df31144d9c2f0f6b59d69b8b98abd5459d07f2742c4df920b25aae33c6482091a2600080546001600160a01b0319169055565b600088604051806040016040528060018152602001601960f91b81525080604051602001611db791906145f8565b60405160208183030381529060405280519060200120611dd633611515565b604051602001611de691906145f8565b6040516020818303038152906040528051906020012014611e195760405162461bcd60e51b8152600401610ace906149bf565b80604051602001611e2a91906145f8565b60405160208183030381529060405280519060200120611e4983611504565b604051602001611e5991906145f8565b6040516020818303038152906040528051906020012014611e8c5760405162461bcd60e51b8152600401610ace90614a36565b6001600160a01b038b8116600090815260446020526040902060050154163314611eeb5760405162461bcd60e51b815260206004820152601060248201526f24b73b30b634b21032bc3837b93a32b960811b6044820152606401610ace565b603554603d5460405162ca298760e21b815233600482015260248101919091526001600160a01b0390911690630328a61c90604401600060405180830381600087803b158015611f3a57600080fd5b505af1158015611f4e573d6000803e3d6000fd5b50508b51611f6592506019915060208d0190613cd8565b508851611f7990601a9060208c0190613cd8565b508751611f8d90601b9060208b0190613cd8565b508651611fa190601c9060208a0190613cd8565b508551611fb590601d906020890190613cd8565b508451611fc990601e906020880190613cd8565b508351611fdd90601f906020870190613cd8565b504260209081556001600160a01b038c166000908152604790915260409020601980549091908190839061201090614a9d565b61201b929190613d5c565b50600182018160010190805461203090614a9d565b61203b929190613d5c565b50600282018160020190805461205090614a9d565b61205b929190613d5c565b50600382018160030190805461207090614a9d565b61207b929190613d5c565b50600482018160040190805461209090614a9d565b61209b929190613d5c565b5060058201816005019080546120b090614a9d565b6120bb929190613d5c565b5060068201816006019080546120d090614a9d565b6120db929190613d5c565b5060079182015491015560408051808201825260018152603360f81b60208083019182526001600160a01b038f16600090815260429091529290922090516121239290613cd8565b506040516001600160a01b038c169033907fbdccb285e4cf8e4e0e4c7a8ccb136c00d80f78d0ee8f9a14c673ea8319f17e7e90600090a35060019a9950505050505050505050565b600089604051806040016040528060018152602001600d60fa1b8152508060405160200161219991906145f8565b604051602081830303815290604052805190602001206121b833611515565b6040516020016121c891906145f8565b60405160208183030381529060405280519060200120146121fb5760405162461bcd60e51b8152600401610ace906149bf565b8060405160200161220c91906145f8565b6040516020818303038152906040528051906020012061222b83611504565b60405160200161223b91906145f8565b604051602081830303815290604052805190602001201461226e5760405162461bcd60e51b8152600401610ace90614a36565b6001600160a01b038c81166000908152604460205260409020600701541633146122ce5760405162461bcd60e51b815260206004820152601160248201527024b73b30b634b210383937b1b2b9b9b7b960791b6044820152606401610ace565b603554603f5460405162ca298760e21b815233600482015260248101919091526001600160a01b0390911690630328a61c90604401600060405180830381600087803b15801561231d57600080fd5b505af1158015612331573d6000803e3d6000fd5b50508c516123489250602a915060208e0190613cd8565b50895161235c90602b9060208d0190613cd8565b50885161237090602c9060208c0190613cd8565b50875161238490602d9060208b0190613cd8565b50865161239890602e9060208a0190613cd8565b5085516123ac90602f906020890190613cd8565b5084516123c0906030906020880190613cd8565b5083516123d4906031906020870190613cd8565b50426032556001600160a01b038c166000908152604960205260409020602a80549091908190839061240590614a9d565b612410929190613d5c565b50600182018160010190805461242590614a9d565b612430929190613d5c565b50600282018160020190805461244590614a9d565b612450929190613d5c565b50600382018160030190805461246590614a9d565b612470929190613d5c565b50600482018160040190805461248590614a9d565b612490929190613d5c565b5060058201816005019080546124a590614a9d565b6124b0929190613d5c565b5060068201816006019080546124c590614a9d565b6124d0929190613d5c565b5060078201816007019080546124e590614a9d565b6124f0929190613d5c565b506008820154816008015590505060405180604001604052806004815260200163444f4e4560e01b815250604260008e6001600160a01b03166001600160a01b031681526020019081526020016000209080519060200190612553929190613cd8565b506040516001600160a01b038d169033907f4e233531fca5ff48938ce2955902318dc5b5c0286e3d72fbcaca690f65c6c86f90600090a35060019b9a5050505050505050505050565b603380546001600160a01b0319163390811790915560009081526043602052604081205460ff16600114806125db57506000546001600160a01b031633145b6125f75760405162461bcd60e51b8152600401610ace906149e5565b6001600160a01b03891661260a57600080fd5b60355460395460405162ca298760e21b815233600482015260248101919091526001600160a01b0390911690630328a61c90604401600060405180830381600087803b15801561265957600080fd5b505af115801561266d573d6000803e3d6000fd5b5050505060006126858a8a8a8a8a8a8a60008b613b20565b9050896001600160a01b03167f1c4e3384429c2e220cfe3c2ecca5339cd1efbdfacaaf98b80fad6421c9abbdec8a8a8a8a8a8a8a60405161109a9796959493929190614702565b600089604051806040016040528060018152602001603360f81b815250806040516020016126fa91906145f8565b6040516020818303038152906040528051906020012061271933611515565b60405160200161272991906145f8565b604051602081830303815290604052805190602001201461275c5760405162461bcd60e51b8152600401610ace906149bf565b8060405160200161276d91906145f8565b6040516020818303038152906040528051906020012061278c83611504565b60405160200161279c91906145f8565b60405160208183030381529060405280519060200120146127cf5760405162461bcd60e51b8152600401610ace90614a36565b6001600160a01b038c811660009081526044602052604090206006015416331461282e5760405162461bcd60e51b815260206004820152601060248201526f24b73b30b634b21034b6b837b93a32b960811b6044820152606401610ace565b603554603e5460405162ca298760e21b815233600482015260248101919091526001600160a01b0390911690630328a61c90604401600060405180830381600087803b15801561287d57600080fd5b505af1158015612891573d6000803e3d6000fd5b50508c516128a892506021915060208e0190613cd8565b5089516128bc9060229060208d0190613cd8565b5088516128d09060239060208c0190613cd8565b5087516128e49060249060208b0190613cd8565b5086516128f89060259060208a0190613cd8565b50855161290c906026906020890190613cd8565b508451612920906027906020880190613cd8565b508351612934906028906020870190613cd8565b50426029556001600160a01b038c166000908152604860205260409020602180549091908190839061296590614a9d565b612970929190613d5c565b50600182018160010190805461298590614a9d565b612990929190613d5c565b5060028201816002019080546129a590614a9d565b6129b0929190613d5c565b5060038201816003019080546129c590614a9d565b6129d0929190613d5c565b5060048201816004019080546129e590614a9d565b6129f0929190613d5c565b506005820181600501908054612a0590614a9d565b612a10929190613d5c565b506006820181600601908054612a2590614a9d565b612a30929190613d5c565b506007820181600701908054612a4590614a9d565b612a50929190613d5c565b5060088201548160080155905050604051806040016040528060018152602001600d60fa1b815250604260008e6001600160a01b03166001600160a01b031681526020019081526020016000209080519060200190612ab0929190613cd8565b506040516001600160a01b038d169033907f38c05509a9c9dec5b48a3aefc9e921b700b90165ddcc57d1fb19d28bdde5133490600090a35060019b9a5050505050505050505050565b603380546001600160a01b0319163390811790915560009081526043602052604081205460ff1660011480612b3857506000546001600160a01b031633145b612b545760405162461bcd60e51b8152600401610ace906149e5565b603554603a5460405162ca298760e21b815233600482015260248101919091526001600160a01b0390911690630328a61c90604401600060405180830381600087803b158015612ba357600080fd5b505af1158015612bb7573d6000803e3d6000fd5b50506040516bffffffffffffffffffffffff193360601b16602082015242603482015260009250605401905060408051601f1981840301815291905280516020918201208b519092508291612c11916008918e0190613cd8565b508951612c259060099060208d0190613cd8565b508851612c3990600a9060208c0190613cd8565b50600b80546001600160a01b03199081166001600160a01b038b811691909117909255600c805482168a8416179055600d80548216898416179055600e80548216888416179055600f8054909116868316179055811660009081526044602052604090206008805490919081908390612cb190614a9d565b612cbc929190613d5c565b506001820181600101908054612cd190614a9d565b612cdc929190613d5c565b506002820181600201908054612cf190614a9d565b612cfc929190613d5c565b5060038281015490820180546001600160a01b03199081166001600160a01b039384161790915560048085015490840180548316918416919091179055600580850154908401805483169184169190911790556006808501549084018054831691841691909117905560079384015493909201805490921692811692909217905560408051808201825260018152600360fc1b602080830191825293851660009081526042909452919092209151612db5929190613cd8565b506040516001600160a01b0382169033907fdb769f7c34ed3c373f40bb14b2b74bc7cff51a86a6ff6d23f084abf76700c55890600090a39a9950505050505050505050565b6001600160a01b038116600090815260426020526040902080546060919061153c90614a9d565b606080606080606080606080600080604960008c6001600160a01b03166001600160a01b0316815260200190815260200160002060405180610120016040529081600082018054612e7190614a9d565b80601f0160208091040260200160405190810160405280929190818152602001828054612e9d90614a9d565b8015612eea5780601f10612ebf57610100808354040283529160200191612eea565b820191906000526020600020905b815481529060010190602001808311612ecd57829003601f168201915b50505050508152602001600182018054612f0390614a9d565b80601f0160208091040260200160405190810160405280929190818152602001828054612f2f90614a9d565b8015612f7c5780601f10612f5157610100808354040283529160200191612f7c565b820191906000526020600020905b815481529060010190602001808311612f5f57829003601f168201915b50505050508152602001600282018054612f9590614a9d565b80601f0160208091040260200160405190810160405280929190818152602001828054612fc190614a9d565b801561300e5780601f10612fe35761010080835404028352916020019161300e565b820191906000526020600020905b815481529060010190602001808311612ff157829003601f168201915b5050505050815260200160038201805461302790614a9d565b80601f016020809104026020016040519081016040528092919081815260200182805461305390614a9d565b80156130a05780601f10613075576101008083540402835291602001916130a0565b820191906000526020600020905b81548152906001019060200180831161308357829003601f168201915b505050505081526020016004820180546130b990614a9d565b80601f01602080910402602001604051908101604052809291908181526020018280546130e590614a9d565b80156131325780601f1061310757610100808354040283529160200191613132565b820191906000526020600020905b81548152906001019060200180831161311557829003601f168201915b5050505050815260200160058201805461314b90614a9d565b80601f016020809104026020016040519081016040528092919081815260200182805461317790614a9d565b80156131c45780601f10613199576101008083540402835291602001916131c4565b820191906000526020600020905b8154815290600101906020018083116131a757829003601f168201915b505050505081526020016006820180546131dd90614a9d565b80601f016020809104026020016040519081016040528092919081815260200182805461320990614a9d565b80156132565780601f1061322b57610100808354040283529160200191613256565b820191906000526020600020905b81548152906001019060200180831161323957829003601f168201915b5050505050815260200160078201805461326f90614a9d565b80601f016020809104026020016040519081016040528092919081815260200182805461329b90614a9d565b80156132e85780601f106132bd576101008083540402835291602001916132e8565b820191906000526020600020905b8154815290600101906020018083116132cb57829003601f168201915b505050505081526020016008820154815250509050806000015181602001518260400151836060015184608001518560a001518660c001518760e00151886101000151995099509950995099509950995099509950509193959799909294969850565b603380546001600160a01b0319163390811790915560009081526043602052604090205460ff166001148061338a57506000546001600160a01b031633145b6133a65760405162461bcd60e51b8152600401610ace906149e5565b603897909755603995909555603a93909355603b91909155603c55603d55603e55603f55565b600084604051806040016040528060018152602001600360fc1b815250806040516020016133fa91906145f8565b6040516020818303038152906040528051906020012061341933611515565b60405160200161342991906145f8565b604051602081830303815290604052805190602001201461345c5760405162461bcd60e51b8152600401610ace906149bf565b8060405160200161346d91906145f8565b6040516020818303038152906040528051906020012061348c83611504565b60405160200161349c91906145f8565b60405160208183030381529060405280519060200120146134cf5760405162461bcd60e51b8152600401610ace90614a36565b6001600160a01b0387811660009081526044602052604090206003015416331461352d5760405162461bcd60e51b815260206004820152600f60248201526e24b73b30b634b21020bab234ba37b960891b6044820152606401610ace565b603554603b5460405162ca298760e21b815233600482015260248101919091526001600160a01b0390911690630328a61c90604401600060405180830381600087803b15801561357c57600080fd5b505af1158015613590573d6000803e3d6000fd5b505087516135a79250601091506020890190613cd8565b5084516135bb906011906020880190613cd8565b5083516135cf906012906020870190613cd8565b50426013556001600160a01b0387166000908152604560205260409020601080549091908190839061360090614a9d565b61360b929190613d5c565b50600182018160010190805461362090614a9d565b61362b929190613d5c565b50600282018160020190805461364090614a9d565b61364b929190613d5c565b5060039182015491015560408051808201825260018152603160f81b60208083019182526001600160a01b038b16600090815260429091529290922090516136939290613cd8565b506040516001600160a01b0388169033907f20cd58ba911ed241d89bc5a95db6d653509665a2cd05c7fe08fca46237150ed990600090a35060019695505050505050565b60608060608060008060466000886001600160a01b03166001600160a01b031681526020019081526020016000206040518060a001604052908160008201805461372090614a9d565b80601f016020809104026020016040519081016040528092919081815260200182805461374c90614a9d565b80156137995780601f1061376e57610100808354040283529160200191613799565b820191906000526020600020905b81548152906001019060200180831161377c57829003601f168201915b505050505081526020016001820180546137b290614a9d565b80601f01602080910402602001604051908101604052809291908181526020018280546137de90614a9d565b801561382b5780601f106138005761010080835404028352916020019161382b565b820191906000526020600020905b81548152906001019060200180831161380e57829003601f168201915b5050505050815260200160028201805461384490614a9d565b80601f016020809104026020016040519081016040528092919081815260200182805461387090614a9d565b80156138bd5780601f10613892576101008083540402835291602001916138bd565b820191906000526020600020905b8154815290600101906020018083116138a057829003601f168201915b505050505081526020016003820180546138d690614a9d565b80601f016020809104026020016040519081016040528092919081815260200182805461390290614a9d565b801561394f5780601f106139245761010080835404028352916020019161394f565b820191906000526020600020905b81548152906001019060200180831161393257829003601f168201915b50505091835250506004919091015460209182015281519082015160408301516060840151608090940151929b919a509850919650945092505050565b6037818154811061399c57600080fd5b9060005260206000200160009150905080546139b790614a9d565b80601f01602080910402602001604051908101604052809291908181526020018280546139e390614a9d565b8015613a305780601f10613a0557610100808354040283529160200191613a30565b820191906000526020600020905b815481529060010190602001808311613a1357829003601f168201915b505050505081565b6000546001600160a01b03163314613a625760405162461bcd60e51b8152600401610ace90614992565b6001600160a01b038116613a7557600080fd5b600080546040516001600160a01b03808516939216917f8be0079c531659141344cd1fd0a4f28419497f9722a3daafe3b4186f6b6457e091a3600080546001600160a01b0319166001600160a01b0392909216919091179055565b606080606080606080606080600080604860008c6001600160a01b03166001600160a01b0316815260200190815260200160002060405180610120016040529081600082018054612e7190614a9d565b8751600090613b369060019060208c0190613cd8565b508751613b4a9060029060208b0190613cd8565b508651613b5e9060039060208a0190613cd8565b508551613b72906004906020890190613cd8565b506005805460ff19168515151790558151613b94906006906020850190613cd8565b5060018315151415613baf576007805460ff19168415151790555b6001600160a01b038a1660009081526040602081905290206001805490919081908390613bdb90614a9d565b613be6929190613d5c565b506001820181600101908054613bfb90614a9d565b613c06929190613d5c565b506002820181600201908054613c1b90614a9d565b613c26929190613d5c565b506003820181600301908054613c3b90614a9d565b613c46929190613d5c565b50600482810154908201805460ff191660ff90921615159190911790556005808301805491830191613c7790614a9d565b613c82929190613d5c565b506006918201549101805460ff191660ff90921615159190911790556001600160a01b038a1660009081526041602090815260409091208651613cc792880190613cd8565b5060019a9950505050505050505050565b828054613ce490614a9d565b90600052602060002090601f016020900481019282613d065760008555613d4c565b82601f10613d1f57805160ff1916838001178555613d4c565b82800160010185558215613d4c579182015b82811115613d4c578251825591602001919060010190613d31565b50613d58929150613dd7565b5090565b828054613d6890614a9d565b90600052602060002090601f016020900481019282613d8a5760008555613d4c565b82601f10613d9b5780548555613d4c565b82800160010185558215613d4c57600052602060002091601f016020900482015b82811115613d4c578254825591600101919060010190613dbc565b5b80821115613d585760008155600101613dd8565b80356001600160a01b038116811461117157600080fd5b8035801515811461117157600080fd5b600082601f830112613e2457600080fd5b813567ffffffffffffffff80821115613e3f57613e3f614ad8565b604051601f8301601f19908116603f01168101908282118183101715613e6757613e67614ad8565b81604052838152866020858801011115613e8057600080fd5b836020870160208301376000602085830101528094505050505092915050565b600060208284031215613eb257600080fd5b613ebb82613dec565b9392505050565b60008060008060808587031215613ed857600080fd5b613ee185613dec565b9350602085013567ffffffffffffffff80821115613efe57600080fd5b613f0a88838901613e13565b94506040870135915080821115613f2057600080fd5b613f2c88838901613e13565b93506060870135915080821115613f4257600080fd5b50613f4f87828801613e13565b91505092959194509250565b600080600080600060a08688031215613f7357600080fd5b613f7c86613dec565b9450602086013567ffffffffffffffff80821115613f9957600080fd5b613fa589838a01613e13565b95506040880135915080821115613fbb57600080fd5b613fc789838a01613e13565b94506060880135915080821115613fdd57600080fd5b613fe989838a01613e13565b93506080880135915080821115613fff57600080fd5b5061400c88828901613e13565b9150509295509295909350565b600080600080600080600080610100898b03121561403657600080fd5b61403f89613dec565b9750602089013567ffffffffffffffff8082111561405c57600080fd5b6140688c838d01613e13565b985060408b013591508082111561407e57600080fd5b61408a8c838d01613e13565b975060608b01359150808211156140a057600080fd5b6140ac8c838d01613e13565b965060808b01359150808211156140c257600080fd5b6140ce8c838d01613e13565b955060a08b01359150808211156140e457600080fd5b6140f08c838d01613e13565b94506140fe60c08c01613e03565b935060e08b013591508082111561411457600080fd5b506141218b828c01613e13565b9150509295985092959890939650565b600080600080600080600080610100898b03121561414e57600080fd5b61415789613dec565b9750602089013567ffffffffffffffff8082111561417457600080fd5b6141808c838d01613e13565b985060408b013591508082111561419657600080fd5b6141a28c838d01613e13565b975060608b01359150808211156141b857600080fd5b6141c48c838d01613e13565b965060808b01359150808211156141da57600080fd5b6141e68c838d01613e13565b955060a08b01359150808211156141fc57600080fd5b6142088c838d01613e13565b945060c08b013591508082111561421e57600080fd5b6140fe8c838d01613e13565b60008060008060008060008060006101208a8c03121561424957600080fd5b6142528a613dec565b985060208a013567ffffffffffffffff8082111561426f57600080fd5b61427b8d838e01613e13565b995060408c013591508082111561429157600080fd5b61429d8d838e01613e13565b985060608c01359150808211156142b357600080fd5b6142bf8d838e01613e13565b975060808c01359150808211156142d557600080fd5b6142e18d838e01613e13565b965060a08c01359150808211156142f757600080fd5b6143038d838e01613e13565b955060c08c013591508082111561431957600080fd5b6143258d838e01613e13565b945060e08c013591508082111561433b57600080fd5b6143478d838e01613e13565b93506101008c013591508082111561435e57600080fd5b5061436b8c828d01613e13565b9150509295985092959850929598565b600080600080600080600080610100898b03121561439857600080fd5b883567ffffffffffffffff808211156143b057600080fd5b6143bc8c838d01613e13565b995060208b01359150808211156143d257600080fd5b6143de8c838d01613e13565b985060408b01359150808211156143f457600080fd5b506144018b828c01613e13565b96505061441060608a01613dec565b945061441e60808a01613dec565b935061442c60a08a01613dec565b925061443a60c08a01613dec565b915061444860e08a01613dec565b90509295985092959890939650565b600080600080600080600060e0888a03121561447257600080fd5b873567ffffffffffffffff8082111561448a57600080fd5b6144968b838c01613e13565b985060208a01359150808211156144ac57600080fd5b6144b88b838c01613e13565b975060408a01359150808211156144ce57600080fd5b6144da8b838c01613e13565b965060608a01359150808211156144f057600080fd5b6144fc8b838c01613e13565b955060808a013591508082111561451257600080fd5b61451e8b838c01613e13565b945061452c60a08b01613e03565b935060c08a013591508082111561454257600080fd5b5061454f8a828b01613e13565b91505092959891949750929550565b60006020828403121561457057600080fd5b5035919050565b600080600080600080600080610100898b03121561459457600080fd5b505086359860208801359850604088013597606081013597506080810135965060a0810135955060c0810135945060e0013592509050565b600081518084526145e4816020860160208601614a6d565b601f01601f19169290920160200192915050565b6000825161460a818460208701614a6d565b9190910192915050565b6000602080830181845280855180835260408601915060408160051b870101925083870160005b8281101561466957603f198886030184526146578583516145cc565b9450928501929085019060010161463b565b5092979650505050505050565b602081526000613ebb60208301846145cc565b600061010080835261469d8184018c6145cc565b905082810360208401526146b1818b6145cc565b905082810360408401526146c5818a6145cc565b6001600160a01b0398891660608501529688166080840152505092851660a084015290841660c083015290921660e0909201919091529392505050565b60e08152600061471560e083018a6145cc565b8281036020840152614727818a6145cc565b9050828103604084015261473b81896145cc565b9050828103606084015261474f81886145cc565b9050828103608084015261476381876145cc565b905084151560a084015282810360c084015261477f81856145cc565b9a9950505050505050505050565b60006101208083526147a18184018d6145cc565b905082810360208401526147b5818c6145cc565b905082810360408401526147c9818b6145cc565b905082810360608401526147dd818a6145cc565b905082810360808401526147f181896145cc565b905082810360a084015261480581886145cc565b905082810360c084015261481981876145cc565b905082810360e084015261482d81866145cc565b915050826101008301529a9950505050505050505050565b60006101008083526148598184018c6145cc565b9050828103602084015261486d818b6145cc565b90508281036040840152614881818a6145cc565b9050828103606084015261489581896145cc565b905082810360808401526148a981886145cc565b905082810360a08401526148bd81876145cc565b905082810360c08401526148d181866145cc565b9150508260e08301529998505050505050505050565b60a0815260006148fa60a08301886145cc565b828103602084015261490c81886145cc565b9050828103604084015261492081876145cc565b9050828103606084015261493481866145cc565b9150508260808301529695505050505050565b60808152600061495a60808301876145cc565b828103602084015261496c81876145cc565b9050828103604084015261498081866145cc565b91505082606083015295945050505050565b60208082526013908201527221b0b63632b91034b9902737ba1037bbb732b960691b604082015260600190565b6020808252600c908201526b24b73b30b634b2103ab9b2b960a11b604082015260600190565b60208082526031908201527f4f6e6c7920417574686f72697a656420616e64204f776e65722063616e207065604082015270393337b936903a3434b99030b1ba34b7b760791b606082015260800190565b60208082526017908201527f496e76616c6964207374657020746f2070726f63656564000000000000000000604082015260600190565b60005b83811015614a88578181015183820152602001614a70565b83811115614a97576000848401525b50505050565b600181811c90821680614ab157607f821691505b60208210811415614ad257634e487b7160e01b600052602260045260246000fd5b50919050565b634e487b7160e01b600052604160045260246000fdfea26469706673582212209408d21b5e802187c3ae8db3fdb535f0010e080912fe9e52e60d2077f4d797ce64736f6c6343000807003365794a6a6232317759573535546d46745a534936496b56755a584a6e6553424d5a57526e5a5849694c434a6a6232353059574e305157526b636d567a63794936496c565451534a39",
			"opcodes": "PUSH1 0x7 PUSH2 0x120 SWAP1 DUP2 MSTORE PUSH7 0x30BAB234BA37B9 PUSH1 0xC9 SHL PUSH2 0x140 MSTORE PUSH1 0x80 SWAP1 DUP2 MSTORE PUSH1 0x8 PUSH2 0x160 DUP2 DUP2 MSTORE PUSH8 0x37B832B930BA37B9 PUSH1 0xC1 SHL PUSH2 0x180 MSTORE PUSH1 0xA0 MSTORE PUSH2 0x1A0 DUP2 DUP2 MSTORE PUSH8 0x32BC3837B93A32B9 PUSH1 0xC1 SHL PUSH2 0x1C0 MSTORE PUSH1 0xC0 MSTORE PUSH2 0x1E0 SWAP1 DUP2 MSTORE PUSH8 0x34B6B837B93A32B9 PUSH1 0xC1 SHL PUSH2 0x200 MSTORE PUSH1 0xE0 MSTORE PUSH2 0x260 PUSH1 0x40 MSTORE PUSH1 0x9 PUSH2 0x220 SWAP1 DUP2 MSTORE PUSH9 0x383937B1B2B9B9B7B9 PUSH1 0xB9 SHL PUSH2 0x240 MSTORE PUSH2 0x100 MSTORE PUSH3 0x9B SWAP1 PUSH1 0x37 SWAP1 PUSH1 0x5 PUSH3 0x4D6 JUMP JUMPDEST POP CALLVALUE DUP1 ISZERO PUSH3 0xA9 JUMPI PUSH1 0x0 DUP1 REVERT JUMPDEST POP PUSH1 0x40 MLOAD PUSH3 0x52AE CODESIZE SUB DUP1 PUSH3 0x52AE DUP4 CODECOPY DUP2 ADD PUSH1 0x40 DUP2 SWAP1 MSTORE PUSH3 0xCC SWAP2 PUSH3 0x6C3 JUMP JUMPDEST PUSH1 0x0 DUP1 SLOAD CALLER PUSH1 0x1 PUSH1 0x1 PUSH1 0xA0 SHL SUB NOT SWAP2 DUP3 AND DUP2 OR SWAP1 SWAP3 SSTORE PUSH1 0x34 DUP1 SLOAD SWAP1 SWAP2 AND DUP3 OR SWAP1 SSTORE PUSH1 0x40 DUP1 MLOAD DUP1 DUP3 ADD DUP3 MSTORE PUSH1 0xC DUP2 MSTORE PUSH12 0x57696C6C69616D2050657465 PUSH1 0xA0 SHL PUSH1 0x20 DUP1 DUP4 ADD SWAP2 SWAP1 SWAP2 MSTORE DUP3 MLOAD DUP1 DUP5 ADD DUP5 MSTORE PUSH1 0x18 DUP2 MSTORE PUSH32 0x77696C6C69616D40656E657267796C65646765722E636F6D0000000000000000 DUP2 DUP4 ADD MSTORE DUP4 MLOAD PUSH1 0x80 DUP2 ADD SWAP1 SWAP5 MSTORE PUSH1 0x48 DUP1 DUP6 MSTORE PUSH3 0x1CC SWAP6 SWAP5 SWAP2 SWAP3 PUSH3 0x5266 SWAP1 DUP4 ADD CODECOPY PUSH1 0x40 MLOAD DUP1 PUSH1 0x40 ADD PUSH1 0x40 MSTORE DUP1 PUSH1 0xA DUP2 MSTORE PUSH1 0x20 ADD PUSH10 0x39393939393939393939 PUSH1 0xB0 SHL DUP2 MSTORE POP PUSH1 0x40 MLOAD DUP1 PUSH1 0x40 ADD PUSH1 0x40 MSTORE DUP1 PUSH1 0x5 DUP2 MSTORE PUSH1 0x20 ADD PUSH5 0x30B236B4B7 PUSH1 0xD9 SHL DUP2 MSTORE POP PUSH1 0x1 DUP1 PUSH1 0x40 MLOAD DUP1 PUSH1 0x40 ADD PUSH1 0x40 MSTORE DUP1 PUSH1 0x2 DUP2 MSTORE PUSH1 0x20 ADD PUSH2 0x3131 PUSH1 0xF0 SHL DUP2 MSTORE POP PUSH3 0x230 PUSH1 0x20 SHL PUSH1 0x20 SHR JUMP JUMPDEST POP CALLER PUSH1 0x0 DUP2 DUP2 MSTORE PUSH1 0x43 PUSH1 0x20 SWAP1 DUP2 MSTORE PUSH1 0x40 SWAP2 DUP3 SWAP1 KECCAK256 DUP1 SLOAD PUSH1 0xFF NOT AND PUSH1 0x1 SWAP1 DUP2 OR SWAP1 SWAP2 SSTORE SWAP2 MLOAD SWAP2 DUP3 MSTORE PUSH32 0xC5238A63FA205F95E98807F6CBC91D2AD8555A2250075E47491F11D9C69DB3BC SWAP2 ADD PUSH1 0x40 MLOAD DUP1 SWAP2 SUB SWAP1 LOG2 PUSH3 0x229 DUP2 PUSH3 0x409 JUMP JUMPDEST POP PUSH3 0x732 JUMP JUMPDEST DUP8 MLOAD PUSH1 0x0 SWAP1 PUSH3 0x248 SWAP1 PUSH1 0x1 SWAP1 PUSH1 0x20 DUP13 ADD SWAP1 PUSH3 0x53A JUMP JUMPDEST POP DUP8 MLOAD PUSH3 0x25E SWAP1 PUSH1 0x2 SWAP1 PUSH1 0x20 DUP12 ADD SWAP1 PUSH3 0x53A JUMP JUMPDEST POP DUP7 MLOAD PUSH3 0x274 SWAP1 PUSH1 0x3 SWAP1 PUSH1 0x20 DUP11 ADD SWAP1 PUSH3 0x53A JUMP JUMPDEST POP DUP6 MLOAD PUSH3 0x28A SWAP1 PUSH1 0x4 SWAP1 PUSH1 0x20 DUP10 ADD SWAP1 PUSH3 0x53A JUMP JUMPDEST POP PUSH1 0x5 DUP1 SLOAD PUSH1 0xFF NOT AND DUP6 ISZERO ISZERO OR SWAP1 SSTORE DUP2 MLOAD PUSH3 0x2AE SWAP1 PUSH1 0x6 SWAP1 PUSH1 0x20 DUP6 ADD SWAP1 PUSH3 0x53A JUMP JUMPDEST POP PUSH1 0x1 DUP4 ISZERO ISZERO EQ ISZERO PUSH3 0x2CA JUMPI PUSH1 0x7 DUP1 SLOAD PUSH1 0xFF NOT AND DUP5 ISZERO ISZERO OR SWAP1 SSTORE JUMPDEST PUSH1 0x1 PUSH1 0x1 PUSH1 0xA0 SHL SUB DUP11 AND PUSH1 0x0 SWAP1 DUP2 MSTORE PUSH1 0x40 PUSH1 0x20 DUP2 SWAP1 MSTORE SWAP1 KECCAK256 PUSH1 0x1 DUP1 SLOAD SWAP1 SWAP2 SWAP1 DUP2 SWAP1 DUP4 SWAP1 PUSH3 0x2F8 SWAP1 PUSH3 0x6F5 JUMP JUMPDEST PUSH3 0x305 SWAP3 SWAP2 SWAP1 PUSH3 0x5C5 JUMP JUMPDEST POP PUSH1 0x1 DUP3 ADD DUP2 PUSH1 0x1 ADD SWAP1 DUP1 SLOAD PUSH3 0x31C SWAP1 PUSH3 0x6F5 JUMP JUMPDEST PUSH3 0x329 SWAP3 SWAP2 SWAP1 PUSH3 0x5C5 JUMP JUMPDEST POP PUSH1 0x2 DUP3 ADD DUP2 PUSH1 0x2 ADD SWAP1 DUP1 SLOAD PUSH3 0x340 SWAP1 PUSH3 0x6F5 JUMP JUMPDEST PUSH3 0x34D SWAP3 SWAP2 SWAP1 PUSH3 0x5C5 JUMP JUMPDEST POP PUSH1 0x3 DUP3 ADD DUP2 PUSH1 0x3 ADD SWAP1 DUP1 SLOAD PUSH3 0x364 SWAP1 PUSH3 0x6F5 JUMP JUMPDEST PUSH3 0x371 SWAP3 SWAP2 SWAP1 PUSH3 0x5C5 JUMP JUMPDEST POP PUSH1 0x4 DUP3 DUP2 ADD SLOAD SWAP1 DUP3 ADD DUP1 SLOAD PUSH1 0xFF NOT AND PUSH1 0xFF SWAP1 SWAP3 AND ISZERO ISZERO SWAP2 SWAP1 SWAP2 OR SWAP1 SSTORE PUSH1 0x5 DUP1 DUP4 ADD DUP1 SLOAD SWAP2 DUP4 ADD SWAP2 PUSH3 0x3A4 SWAP1 PUSH3 0x6F5 JUMP JUMPDEST PUSH3 0x3B1 SWAP3 SWAP2 SWAP1 PUSH3 0x5C5 JUMP JUMPDEST POP PUSH1 0x6 SWAP2 DUP3 ADD SLOAD SWAP2 ADD DUP1 SLOAD PUSH1 0xFF NOT AND PUSH1 0xFF SWAP1 SWAP3 AND ISZERO ISZERO SWAP2 SWAP1 SWAP2 OR SWAP1 SSTORE PUSH1 0x1 PUSH1 0x1 PUSH1 0xA0 SHL SUB DUP11 AND PUSH1 0x0 SWAP1 DUP2 MSTORE PUSH1 0x41 PUSH1 0x20 SWAP1 DUP2 MSTORE PUSH1 0x40 SWAP1 SWAP2 KECCAK256 DUP7 MLOAD PUSH3 0x3F8 SWAP3 DUP9 ADD SWAP1 PUSH3 0x53A JUMP JUMPDEST POP PUSH1 0x1 SWAP11 SWAP10 POP POP POP POP POP POP POP POP POP POP JUMP JUMPDEST PUSH1 0x33 DUP1 SLOAD PUSH1 0x1 PUSH1 0x1 PUSH1 0xA0 SHL SUB NOT AND CALLER SWAP1 DUP2 OR SWAP1 SWAP2 SSTORE PUSH1 0x0 SWAP1 DUP2 MSTORE PUSH1 0x43 PUSH1 0x20 MSTORE PUSH1 0x40 SWAP1 KECCAK256 SLOAD PUSH1 0xFF AND PUSH1 0x1 EQ DUP1 PUSH3 0x449 JUMPI POP PUSH1 0x0 SLOAD PUSH1 0x1 PUSH1 0x1 PUSH1 0xA0 SHL SUB AND CALLER EQ JUMPDEST PUSH3 0x4B4 JUMPI PUSH1 0x40 MLOAD PUSH3 0x461BCD PUSH1 0xE5 SHL DUP2 MSTORE PUSH1 0x20 PUSH1 0x4 DUP3 ADD MSTORE PUSH1 0x31 PUSH1 0x24 DUP3 ADD MSTORE PUSH32 0x4F6E6C7920417574686F72697A656420616E64204F776E65722063616E207065 PUSH1 0x44 DUP3 ADD MSTORE PUSH17 0x393337B936903A3434B99030B1BA34B7B7 PUSH1 0x79 SHL PUSH1 0x64 DUP3 ADD MSTORE PUSH1 0x84 ADD PUSH1 0x40 MLOAD DUP1 SWAP2 SUB SWAP1 REVERT JUMPDEST PUSH1 0x35 DUP1 SLOAD PUSH1 0x1 PUSH1 0x1 PUSH1 0xA0 SHL SUB NOT AND PUSH1 0x1 PUSH1 0x1 PUSH1 0xA0 SHL SUB SWAP3 SWAP1 SWAP3 AND SWAP2 SWAP1 SWAP2 OR SWAP1 SSTORE JUMP JUMPDEST DUP3 DUP1 SLOAD DUP3 DUP3 SSTORE SWAP1 PUSH1 0x0 MSTORE PUSH1 0x20 PUSH1 0x0 KECCAK256 SWAP1 DUP2 ADD SWAP3 DUP3 ISZERO PUSH3 0x528 JUMPI SWAP2 PUSH1 0x20 MUL DUP3 ADD JUMPDEST DUP3 DUP2 GT ISZERO PUSH3 0x528 JUMPI DUP3 MLOAD DUP1 MLOAD PUSH3 0x517 SWAP2 DUP5 SWAP2 PUSH1 0x20 SWAP1 SWAP2 ADD SWAP1 PUSH3 0x53A JUMP JUMPDEST POP SWAP2 PUSH1 0x20 ADD SWAP2 SWAP1 PUSH1 0x1 ADD SWAP1 PUSH3 0x4F7 JUMP JUMPDEST POP PUSH3 0x536 SWAP3 SWAP2 POP PUSH3 0x649 JUMP JUMPDEST POP SWAP1 JUMP JUMPDEST DUP3 DUP1 SLOAD PUSH3 0x548 SWAP1 PUSH3 0x6F5 JUMP JUMPDEST SWAP1 PUSH1 0x0 MSTORE PUSH1 0x20 PUSH1 0x0 KECCAK256 SWAP1 PUSH1 0x1F ADD PUSH1 0x20 SWAP1 DIV DUP2 ADD SWAP3 DUP3 PUSH3 0x56C JUMPI PUSH1 0x0 DUP6 SSTORE PUSH3 0x5B7 JUMP JUMPDEST DUP3 PUSH1 0x1F LT PUSH3 0x587 JUMPI DUP1 MLOAD PUSH1 0xFF NOT AND DUP4 DUP1 ADD OR DUP6 SSTORE PUSH3 0x5B7 JUMP JUMPDEST DUP3 DUP1 ADD PUSH1 0x1 ADD DUP6 SSTORE DUP3 ISZERO PUSH3 0x5B7 JUMPI SWAP2 DUP3 ADD JUMPDEST DUP3 DUP2 GT ISZERO PUSH3 0x5B7 JUMPI DUP3 MLOAD DUP3 SSTORE SWAP2 PUSH1 0x20 ADD SWAP2 SWAP1 PUSH1 0x1 ADD SWAP1 PUSH3 0x59A JUMP JUMPDEST POP PUSH3 0x536 SWAP3 SWAP2 POP PUSH3 0x66A JUMP JUMPDEST DUP3 DUP1 SLOAD PUSH3 0x5D3 SWAP1 PUSH3 0x6F5 JUMP JUMPDEST SWAP1 PUSH1 0x0 MSTORE PUSH1 0x20 PUSH1 0x0 KECCAK256 SWAP1 PUSH1 0x1F ADD PUSH1 0x20 SWAP1 DIV DUP2 ADD SWAP3 DUP3 PUSH3 0x5F7 JUMPI PUSH1 0x0 DUP6 SSTORE PUSH3 0x5B7 JUMP JUMPDEST DUP3 PUSH1 0x1F LT PUSH3 0x60A JUMPI DUP1 SLOAD DUP6 SSTORE PUSH3 0x5B7 JUMP JUMPDEST DUP3 DUP1 ADD PUSH1 0x1 ADD DUP6 SSTORE DUP3 ISZERO PUSH3 0x5B7 JUMPI PUSH1 0x0 MSTORE PUSH1 0x20 PUSH1 0x0 KECCAK256 SWAP2 PUSH1 0x1F ADD PUSH1 0x20 SWAP1 DIV DUP3 ADD JUMPDEST DUP3 DUP2 GT ISZERO PUSH3 0x5B7 JUMPI DUP3 SLOAD DUP3 SSTORE SWAP2 PUSH1 0x1 ADD SWAP2 SWAP1 PUSH1 0x1 ADD SWAP1 PUSH3 0x62C JUMP JUMPDEST DUP1 DUP3 GT ISZERO PUSH3 0x536 JUMPI PUSH1 0x0 PUSH3 0x660 DUP3 DUP3 PUSH3 0x681 JUMP JUMPDEST POP PUSH1 0x1 ADD PUSH3 0x649 JUMP JUMPDEST JUMPDEST DUP1 DUP3 GT ISZERO PUSH3 0x536 JUMPI PUSH1 0x0 DUP2 SSTORE PUSH1 0x1 ADD PUSH3 0x66B JUMP JUMPDEST POP DUP1 SLOAD PUSH3 0x68F SWAP1 PUSH3 0x6F5 JUMP JUMPDEST PUSH1 0x0 DUP3 SSTORE DUP1 PUSH1 0x1F LT PUSH3 0x6A0 JUMPI POP POP JUMP JUMPDEST PUSH1 0x1F ADD PUSH1 0x20 SWAP1 DIV SWAP1 PUSH1 0x0 MSTORE PUSH1 0x20 PUSH1 0x0 KECCAK256 SWAP1 DUP2 ADD SWAP1 PUSH3 0x6C0 SWAP2 SWAP1 PUSH3 0x66A JUMP JUMPDEST POP JUMP JUMPDEST PUSH1 0x0 PUSH1 0x20 DUP3 DUP5 SUB SLT ISZERO PUSH3 0x6D6 JUMPI PUSH1 0x0 DUP1 REVERT JUMPDEST DUP2 MLOAD PUSH1 0x1 PUSH1 0x1 PUSH1 0xA0 SHL SUB DUP2 AND DUP2 EQ PUSH3 0x6EE JUMPI PUSH1 0x0 DUP1 REVERT JUMPDEST SWAP4 SWAP3 POP POP POP JUMP JUMPDEST PUSH1 0x1 DUP2 DUP2 SHR SWAP1 DUP3 AND DUP1 PUSH3 0x70A JUMPI PUSH1 0x7F DUP3 AND SWAP2 POP JUMPDEST PUSH1 0x20 DUP3 LT DUP2 EQ ISZERO PUSH3 0x72C JUMPI PUSH4 0x4E487B71 PUSH1 0xE0 SHL PUSH1 0x0 MSTORE PUSH1 0x22 PUSH1 0x4 MSTORE PUSH1 0x24 PUSH1 0x0 REVERT JUMPDEST POP SWAP2 SWAP1 POP JUMP JUMPDEST PUSH2 0x4B24 DUP1 PUSH3 0x742 PUSH1 0x0 CODECOPY PUSH1 0x0 RETURN INVALID PUSH1 0x80 PUSH1 0x40 MSTORE CALLVALUE DUP1 ISZERO PUSH2 0x10 JUMPI PUSH1 0x0 DUP1 REVERT JUMPDEST POP PUSH1 0x4 CALLDATASIZE LT PUSH2 0x206 JUMPI PUSH1 0x0 CALLDATALOAD PUSH1 0xE0 SHR DUP1 PUSH4 0x8DA5CB5B GT PUSH2 0x11A JUMPI DUP1 PUSH4 0xB6959D73 GT PUSH2 0xAD JUMPI DUP1 PUSH4 0xEE3FA880 GT PUSH2 0x7C JUMPI DUP1 PUSH4 0xEE3FA880 EQ PUSH2 0x541 JUMPI DUP1 PUSH4 0xEEADB280 EQ PUSH2 0x565 JUMPI DUP1 PUSH4 0xF2FDE38B EQ PUSH2 0x578 JUMPI DUP1 PUSH4 0xF851A440 EQ PUSH2 0x58B JUMPI DUP1 PUSH4 0xFEBD0492 EQ PUSH2 0x59E JUMPI PUSH1 0x0 DUP1 REVERT JUMPDEST DUP1 PUSH4 0xB6959D73 EQ PUSH2 0x4A0 JUMPI DUP1 PUSH4 0xD87F1B45 EQ PUSH2 0x4C8 JUMPI DUP1 PUSH4 0xE19CF725 EQ PUSH2 0x4DB JUMPI DUP1 PUSH4 0xEC594254 EQ PUSH2 0x4EE JUMPI PUSH1 0x0 DUP1 REVERT JUMPDEST DUP1 PUSH4 0x98F6EF12 GT PUSH2 0xE9 JUMPI DUP1 PUSH4 0x98F6EF12 EQ PUSH2 0x416 JUMPI DUP1 PUSH4 0x9F468E8E EQ PUSH2 0x44B JUMPI DUP1 PUSH4 0xAE8DA9C9 EQ PUSH2 0x47A JUMPI DUP1 PUSH4 0xB658E624 EQ PUSH2 0x48D JUMPI PUSH1 0x0 DUP1 REVERT JUMPDEST DUP1 PUSH4 0x8DA5CB5B EQ PUSH2 0x3CA JUMPI DUP1 PUSH4 0x92B79432 EQ PUSH2 0x3DD JUMPI DUP1 PUSH4 0x94CEE8DE EQ PUSH2 0x3F0 JUMPI DUP1 PUSH4 0x9651122A EQ PUSH2 0x403 JUMPI PUSH1 0x0 DUP1 REVERT JUMPDEST DUP1 PUSH4 0x3480898B GT PUSH2 0x19D JUMPI DUP1 PUSH4 0x5E1BE8B4 GT PUSH2 0x16C JUMPI DUP1 PUSH4 0x5E1BE8B4 EQ PUSH2 0x351 JUMPI DUP1 PUSH4 0x6F77926B EQ PUSH2 0x374 JUMPI DUP1 PUSH4 0x71061398 EQ PUSH2 0x39A JUMPI DUP1 PUSH4 0x715018A6 EQ PUSH2 0x3AF JUMPI DUP1 PUSH4 0x85379D4D EQ PUSH2 0x3B7 JUMPI PUSH1 0x0 DUP1 REVERT JUMPDEST DUP1 PUSH4 0x3480898B EQ PUSH2 0x2E4 JUMPI DUP1 PUSH4 0x47916BF8 EQ PUSH2 0x2F7 JUMPI DUP1 PUSH4 0x4D6B5E00 EQ PUSH2 0x31E JUMPI DUP1 PUSH4 0x4FBDA728 EQ PUSH2 0x33E JUMPI PUSH1 0x0 DUP1 REVERT JUMPDEST DUP1 PUSH4 0x153C33F4 GT PUSH2 0x1D9 JUMPI DUP1 PUSH4 0x153C33F4 EQ PUSH2 0x296 JUMPI DUP1 PUSH4 0x1BCD250A EQ PUSH2 0x2A9 JUMPI DUP1 PUSH4 0x26A4E8D2 EQ PUSH2 0x2BC JUMPI DUP1 PUSH4 0x2C388D5D EQ PUSH2 0x2D1 JUMPI PUSH1 0x0 DUP1 REVERT JUMPDEST DUP1 PUSH4 0x6ECD6D4 EQ PUSH2 0x20B JUMPI DUP1 PUSH4 0xE57B052 EQ PUSH2 0x23B JUMPI DUP1 PUSH4 0x10FE9AE8 EQ PUSH2 0x25E JUMPI DUP1 PUSH4 0x1528362D EQ PUSH2 0x283 JUMPI JUMPDEST PUSH1 0x0 DUP1 REVERT JUMPDEST PUSH2 0x21E PUSH2 0x219 CALLDATASIZE PUSH1 0x4 PUSH2 0x3EA0 JUMP JUMPDEST PUSH2 0x5B1 JUMP JUMPDEST PUSH1 0x40 MLOAD PUSH2 0x232 SWAP9 SWAP8 SWAP7 SWAP6 SWAP5 SWAP4 SWAP3 SWAP2 SWAP1 PUSH2 0x4845 JUMP JUMPDEST PUSH1 0x40 MLOAD DUP1 SWAP2 SUB SWAP1 RETURN JUMPDEST PUSH2 0x24E PUSH2 0x249 CALLDATASIZE PUSH1 0x4 PUSH2 0x3F5B JUMP JUMPDEST PUSH2 0xA3E JUMP JUMPDEST PUSH1 0x40 MLOAD SWAP1 ISZERO ISZERO DUP2 MSTORE PUSH1 0x20 ADD PUSH2 0x232 JUMP JUMPDEST PUSH1 0x35 SLOAD PUSH1 0x1 PUSH1 0x1 PUSH1 0xA0 SHL SUB AND JUMPDEST PUSH1 0x40 MLOAD PUSH1 0x1 PUSH1 0x1 PUSH1 0xA0 SHL SUB SWAP1 SWAP2 AND DUP2 MSTORE PUSH1 0x20 ADD PUSH2 0x232 JUMP JUMPDEST PUSH2 0x24E PUSH2 0x291 CALLDATASIZE PUSH1 0x4 PUSH2 0x4457 JUMP JUMPDEST PUSH2 0xD88 JUMP JUMPDEST PUSH2 0x24E PUSH2 0x2A4 CALLDATASIZE PUSH1 0x4 PUSH2 0x4019 JUMP JUMPDEST PUSH2 0xF08 JUMP JUMPDEST PUSH2 0x24E PUSH2 0x2B7 CALLDATASIZE PUSH1 0x4 PUSH2 0x3EA0 JUMP JUMPDEST PUSH2 0x10EF JUMP JUMPDEST PUSH2 0x2CF PUSH2 0x2CA CALLDATASIZE PUSH1 0x4 PUSH2 0x3EA0 JUMP JUMPDEST PUSH2 0x1176 JUMP JUMPDEST STOP JUMPDEST PUSH2 0x24E PUSH2 0x2DF CALLDATASIZE PUSH1 0x4 PUSH2 0x3EA0 JUMP JUMPDEST PUSH2 0x11F3 JUMP JUMPDEST PUSH1 0x33 SLOAD PUSH2 0x26B SWAP1 PUSH1 0x1 PUSH1 0x1 PUSH1 0xA0 SHL SUB AND DUP2 JUMP JUMPDEST PUSH2 0x30A PUSH2 0x305 CALLDATASIZE PUSH1 0x4 PUSH2 0x3EA0 JUMP JUMPDEST PUSH2 0x1275 JUMP JUMPDEST PUSH1 0x40 MLOAD PUSH2 0x232 SWAP9 SWAP8 SWAP7 SWAP6 SWAP5 SWAP4 SWAP3 SWAP2 SWAP1 PUSH2 0x4689 JUMP JUMPDEST PUSH2 0x331 PUSH2 0x32C CALLDATASIZE PUSH1 0x4 PUSH2 0x3EA0 JUMP JUMPDEST PUSH2 0x1504 JUMP JUMPDEST PUSH1 0x40 MLOAD PUSH2 0x232 SWAP2 SWAP1 PUSH2 0x4676 JUMP JUMPDEST PUSH2 0x331 PUSH2 0x34C CALLDATASIZE PUSH1 0x4 PUSH2 0x3EA0 JUMP JUMPDEST PUSH2 0x1515 JUMP JUMPDEST PUSH2 0x364 PUSH2 0x35F CALLDATASIZE PUSH1 0x4 PUSH2 0x3EA0 JUMP JUMPDEST PUSH2 0x15C1 JUMP JUMPDEST PUSH1 0x40 MLOAD PUSH2 0x232 SWAP5 SWAP4 SWAP3 SWAP2 SWAP1 PUSH2 0x4947 JUMP JUMPDEST PUSH2 0x387 PUSH2 0x382 CALLDATASIZE PUSH1 0x4 PUSH2 0x3EA0 JUMP JUMPDEST PUSH2 0x17DC JUMP JUMPDEST PUSH1 0x40 MLOAD PUSH2 0x232 SWAP8 SWAP7 SWAP6 SWAP5 SWAP4 SWAP3 SWAP2 SWAP1 PUSH2 0x4702 JUMP JUMPDEST PUSH2 0x3A2 PUSH2 0x1C3E JUMP JUMPDEST PUSH1 0x40 MLOAD PUSH2 0x232 SWAP2 SWAP1 PUSH2 0x4614 JUMP JUMPDEST PUSH2 0x2CF PUSH2 0x1D17 JUMP JUMPDEST PUSH2 0x24E PUSH2 0x3C5 CALLDATASIZE PUSH1 0x4 PUSH2 0x4131 JUMP JUMPDEST PUSH2 0x1D89 JUMP JUMPDEST PUSH1 0x0 SLOAD PUSH2 0x26B SWAP1 PUSH1 0x1 PUSH1 0x1 PUSH1 0xA0 SHL SUB AND DUP2 JUMP JUMPDEST PUSH2 0x24E PUSH2 0x3EB CALLDATASIZE PUSH1 0x4 PUSH2 0x422A JUMP JUMPDEST PUSH2 0x216B JUMP JUMPDEST PUSH2 0x24E PUSH2 0x3FE CALLDATASIZE PUSH1 0x4 PUSH2 0x4019 JUMP JUMPDEST PUSH2 0x259C JUMP JUMPDEST PUSH2 0x24E PUSH2 0x411 CALLDATASIZE PUSH1 0x4 PUSH2 0x422A JUMP JUMPDEST PUSH2 0x26CC JUMP JUMPDEST PUSH2 0x439 PUSH2 0x424 CALLDATASIZE PUSH1 0x4 PUSH2 0x3EA0 JUMP JUMPDEST PUSH1 0x43 PUSH1 0x20 MSTORE PUSH1 0x0 SWAP1 DUP2 MSTORE PUSH1 0x40 SWAP1 KECCAK256 SLOAD PUSH1 0xFF AND DUP2 JUMP JUMPDEST PUSH1 0x40 MLOAD PUSH1 0xFF SWAP1 SWAP2 AND DUP2 MSTORE PUSH1 0x20 ADD PUSH2 0x232 JUMP JUMPDEST PUSH2 0x24E PUSH2 0x459 CALLDATASIZE PUSH1 0x4 PUSH2 0x3EA0 JUMP JUMPDEST PUSH1 0x1 PUSH1 0x1 PUSH1 0xA0 SHL SUB AND PUSH1 0x0 SWAP1 DUP2 MSTORE PUSH1 0x40 PUSH1 0x20 DUP2 SWAP1 MSTORE SWAP1 KECCAK256 PUSH1 0x6 ADD SLOAD PUSH1 0xFF AND SWAP1 JUMP JUMPDEST PUSH2 0x26B PUSH2 0x488 CALLDATASIZE PUSH1 0x4 PUSH2 0x437B JUMP JUMPDEST PUSH2 0x2AF9 JUMP JUMPDEST PUSH2 0x331 PUSH2 0x49B CALLDATASIZE PUSH1 0x4 PUSH2 0x3EA0 JUMP JUMPDEST PUSH2 0x2DFA JUMP JUMPDEST PUSH2 0x4B3 PUSH2 0x4AE CALLDATASIZE PUSH1 0x4 PUSH2 0x3EA0 JUMP JUMPDEST PUSH2 0x2E21 JUMP JUMPDEST PUSH1 0x40 MLOAD PUSH2 0x232 SWAP10 SWAP9 SWAP8 SWAP7 SWAP6 SWAP5 SWAP4 SWAP3 SWAP2 SWAP1 PUSH2 0x478D JUMP JUMPDEST PUSH2 0x2CF PUSH2 0x4D6 CALLDATASIZE PUSH1 0x4 PUSH2 0x4577 JUMP JUMPDEST PUSH2 0x334B JUMP JUMPDEST PUSH2 0x24E PUSH2 0x4E9 CALLDATASIZE PUSH1 0x4 PUSH2 0x3EC2 JUMP JUMPDEST PUSH2 0x33CC JUMP JUMPDEST PUSH1 0x38 SLOAD PUSH1 0x39 SLOAD PUSH1 0x3A SLOAD PUSH1 0x3B SLOAD PUSH1 0x3C SLOAD PUSH1 0x3D SLOAD PUSH1 0x3E SLOAD PUSH1 0x3F SLOAD PUSH1 0x40 DUP1 MLOAD SWAP9 DUP10 MSTORE PUSH1 0x20 DUP10 ADD SWAP8 SWAP1 SWAP8 MSTORE SWAP6 DUP8 ADD SWAP5 SWAP1 SWAP5 MSTORE PUSH1 0x60 DUP7 ADD SWAP3 SWAP1 SWAP3 MSTORE PUSH1 0x80 DUP6 ADD MSTORE PUSH1 0xA0 DUP5 ADD MSTORE PUSH1 0xC0 DUP4 ADD MSTORE PUSH1 0xE0 DUP3 ADD MSTORE PUSH2 0x100 ADD PUSH2 0x232 JUMP JUMPDEST PUSH2 0x554 PUSH2 0x54F CALLDATASIZE PUSH1 0x4 PUSH2 0x3EA0 JUMP JUMPDEST PUSH2 0x36D7 JUMP JUMPDEST PUSH1 0x40 MLOAD PUSH2 0x232 SWAP6 SWAP5 SWAP4 SWAP3 SWAP2 SWAP1 PUSH2 0x48E7 JUMP JUMPDEST PUSH2 0x331 PUSH2 0x573 CALLDATASIZE PUSH1 0x4 PUSH2 0x455E JUMP JUMPDEST PUSH2 0x398C JUMP JUMPDEST PUSH2 0x2CF PUSH2 0x586 CALLDATASIZE PUSH1 0x4 PUSH2 0x3EA0 JUMP JUMPDEST PUSH2 0x3A38 JUMP JUMPDEST PUSH1 0x34 SLOAD PUSH2 0x26B SWAP1 PUSH1 0x1 PUSH1 0x1 PUSH1 0xA0 SHL SUB AND DUP2 JUMP JUMPDEST PUSH2 0x4B3 PUSH2 0x5AC CALLDATASIZE PUSH1 0x4 PUSH2 0x3EA0 JUMP JUMPDEST PUSH2 0x3AD0 JUMP JUMPDEST PUSH1 0x60 DUP1 PUSH1 0x60 DUP1 PUSH1 0x60 DUP1 PUSH1 0x60 PUSH1 0x0 DUP1 PUSH1 0x47 PUSH1 0x0 DUP12 PUSH1 0x1 PUSH1 0x1 PUSH1 0xA0 SHL SUB AND PUSH1 0x1 PUSH1 0x1 PUSH1 0xA0 SHL SUB AND DUP2 MSTORE PUSH1 0x20 ADD SWAP1 DUP2 MSTORE PUSH1 0x20 ADD PUSH1 0x0 KECCAK256 PUSH1 0x40 MLOAD DUP1 PUSH2 0x100 ADD PUSH1 0x40 MSTORE SWAP1 DUP2 PUSH1 0x0 DUP3 ADD DUP1 SLOAD PUSH2 0x600 SWAP1 PUSH2 0x4A9D JUMP JUMPDEST DUP1 PUSH1 0x1F ADD PUSH1 0x20 DUP1 SWAP2 DIV MUL PUSH1 0x20 ADD PUSH1 0x40 MLOAD SWAP1 DUP2 ADD PUSH1 0x40 MSTORE DUP1 SWAP3 SWAP2 SWAP1 DUP2 DUP2 MSTORE PUSH1 0x20 ADD DUP3 DUP1 SLOAD PUSH2 0x62C SWAP1 PUSH2 0x4A9D JUMP JUMPDEST DUP1 ISZERO PUSH2 0x679 JUMPI DUP1 PUSH1 0x1F LT PUSH2 0x64E JUMPI PUSH2 0x100 DUP1 DUP4 SLOAD DIV MUL DUP4 MSTORE SWAP2 PUSH1 0x20 ADD SWAP2 PUSH2 0x679 JUMP JUMPDEST DUP3 ADD SWAP2 SWAP1 PUSH1 0x0 MSTORE PUSH1 0x20 PUSH1 0x0 KECCAK256 SWAP1 JUMPDEST DUP2 SLOAD DUP2 MSTORE SWAP1 PUSH1 0x1 ADD SWAP1 PUSH1 0x20 ADD DUP1 DUP4 GT PUSH2 0x65C JUMPI DUP3 SWAP1 SUB PUSH1 0x1F AND DUP3 ADD SWAP2 JUMPDEST POP POP POP POP POP DUP2 MSTORE PUSH1 0x20 ADD PUSH1 0x1 DUP3 ADD DUP1 SLOAD PUSH2 0x692 SWAP1 PUSH2 0x4A9D JUMP JUMPDEST DUP1 PUSH1 0x1F ADD PUSH1 0x20 DUP1 SWAP2 DIV MUL PUSH1 0x20 ADD PUSH1 0x40 MLOAD SWAP1 DUP2 ADD PUSH1 0x40 MSTORE DUP1 SWAP3 SWAP2 SWAP1 DUP2 DUP2 MSTORE PUSH1 0x20 ADD DUP3 DUP1 SLOAD PUSH2 0x6BE SWAP1 PUSH2 0x4A9D JUMP JUMPDEST DUP1 ISZERO PUSH2 0x70B JUMPI DUP1 PUSH1 0x1F LT PUSH2 0x6E0 JUMPI PUSH2 0x100 DUP1 DUP4 SLOAD DIV MUL DUP4 MSTORE SWAP2 PUSH1 0x20 ADD SWAP2 PUSH2 0x70B JUMP JUMPDEST DUP3 ADD SWAP2 SWAP1 PUSH1 0x0 MSTORE PUSH1 0x20 PUSH1 0x0 KECCAK256 SWAP1 JUMPDEST DUP2 SLOAD DUP2 MSTORE SWAP1 PUSH1 0x1 ADD SWAP1 PUSH1 0x20 ADD DUP1 DUP4 GT PUSH2 0x6EE JUMPI DUP3 SWAP1 SUB PUSH1 0x1F AND DUP3 ADD SWAP2 JUMPDEST POP POP POP POP POP DUP2 MSTORE PUSH1 0x20 ADD PUSH1 0x2 DUP3 ADD DUP1 SLOAD PUSH2 0x724 SWAP1 PUSH2 0x4A9D JUMP JUMPDEST DUP1 PUSH1 0x1F ADD PUSH1 0x20 DUP1 SWAP2 DIV MUL PUSH1 0x20 ADD PUSH1 0x40 MLOAD SWAP1 DUP2 ADD PUSH1 0x40 MSTORE DUP1 SWAP3 SWAP2 SWAP1 DUP2 DUP2 MSTORE PUSH1 0x20 ADD DUP3 DUP1 SLOAD PUSH2 0x750 SWAP1 PUSH2 0x4A9D JUMP JUMPDEST DUP1 ISZERO PUSH2 0x79D JUMPI DUP1 PUSH1 0x1F LT PUSH2 0x772 JUMPI PUSH2 0x100 DUP1 DUP4 SLOAD DIV MUL DUP4 MSTORE SWAP2 PUSH1 0x20 ADD SWAP2 PUSH2 0x79D JUMP JUMPDEST DUP3 ADD SWAP2 SWAP1 PUSH1 0x0 MSTORE PUSH1 0x20 PUSH1 0x0 KECCAK256 SWAP1 JUMPDEST DUP2 SLOAD DUP2 MSTORE SWAP1 PUSH1 0x1 ADD SWAP1 PUSH1 0x20 ADD DUP1 DUP4 GT PUSH2 0x780 JUMPI DUP3 SWAP1 SUB PUSH1 0x1F AND DUP3 ADD SWAP2 JUMPDEST POP POP POP POP POP DUP2 MSTORE PUSH1 0x20 ADD PUSH1 0x3 DUP3 ADD DUP1 SLOAD PUSH2 0x7B6 SWAP1 PUSH2 0x4A9D JUMP JUMPDEST DUP1 PUSH1 0x1F ADD PUSH1 0x20 DUP1 SWAP2 DIV MUL PUSH1 0x20 ADD PUSH1 0x40 MLOAD SWAP1 DUP2 ADD PUSH1 0x40 MSTORE DUP1 SWAP3 SWAP2 SWAP1 DUP2 DUP2 MSTORE PUSH1 0x20 ADD DUP3 DUP1 SLOAD PUSH2 0x7E2 SWAP1 PUSH2 0x4A9D JUMP JUMPDEST DUP1 ISZERO PUSH2 0x82F JUMPI DUP1 PUSH1 0x1F LT PUSH2 0x804 JUMPI PUSH2 0x100 DUP1 DUP4 SLOAD DIV MUL DUP4 MSTORE SWAP2 PUSH1 0x20 ADD SWAP2 PUSH2 0x82F JUMP JUMPDEST DUP3 ADD SWAP2 SWAP1 PUSH1 0x0 MSTORE PUSH1 0x20 PUSH1 0x0 KECCAK256 SWAP1 JUMPDEST DUP2 SLOAD DUP2 MSTORE SWAP1 PUSH1 0x1 ADD SWAP1 PUSH1 0x20 ADD DUP1 DUP4 GT PUSH2 0x812 JUMPI DUP3 SWAP1 SUB PUSH1 0x1F AND DUP3 ADD SWAP2 JUMPDEST POP POP POP POP POP DUP2 MSTORE PUSH1 0x20 ADD PUSH1 0x4 DUP3 ADD DUP1 SLOAD PUSH2 0x848 SWAP1 PUSH2 0x4A9D JUMP JUMPDEST DUP1 PUSH1 0x1F ADD PUSH1 0x20 DUP1 SWAP2 DIV MUL PUSH1 0x20 ADD PUSH1 0x40 MLOAD SWAP1 DUP2 ADD PUSH1 0x40 MSTORE DUP1 SWAP3 SWAP2 SWAP1 DUP2 DUP2 MSTORE PUSH1 0x20 ADD DUP3 DUP1 SLOAD PUSH2 0x874 SWAP1 PUSH2 0x4A9D JUMP JUMPDEST DUP1 ISZERO PUSH2 0x8C1 JUMPI DUP1 PUSH1 0x1F LT PUSH2 0x896 JUMPI PUSH2 0x100 DUP1 DUP4 SLOAD DIV MUL DUP4 MSTORE SWAP2 PUSH1 0x20 ADD SWAP2 PUSH2 0x8C1 JUMP JUMPDEST DUP3 ADD SWAP2 SWAP1 PUSH1 0x0 MSTORE PUSH1 0x20 PUSH1 0x0 KECCAK256 SWAP1 JUMPDEST DUP2 SLOAD DUP2 MSTORE SWAP1 PUSH1 0x1 ADD SWAP1 PUSH1 0x20 ADD DUP1 DUP4 GT PUSH2 0x8A4 JUMPI DUP3 SWAP1 SUB PUSH1 0x1F AND DUP3 ADD SWAP2 JUMPDEST POP POP POP POP POP DUP2 MSTORE PUSH1 0x20 ADD PUSH1 0x5 DUP3 ADD DUP1 SLOAD PUSH2 0x8DA SWAP1 PUSH2 0x4A9D JUMP JUMPDEST DUP1 PUSH1 0x1F ADD PUSH1 0x20 DUP1 SWAP2 DIV MUL PUSH1 0x20 ADD PUSH1 0x40 MLOAD SWAP1 DUP2 ADD PUSH1 0x40 MSTORE DUP1 SWAP3 SWAP2 SWAP1 DUP2 DUP2 MSTORE PUSH1 0x20 ADD DUP3 DUP1 SLOAD PUSH2 0x906 SWAP1 PUSH2 0x4A9D JUMP JUMPDEST DUP1 ISZERO PUSH2 0x953 JUMPI DUP1 PUSH1 0x1F LT PUSH2 0x928 JUMPI PUSH2 0x100 DUP1 DUP4 SLOAD DIV MUL DUP4 MSTORE SWAP2 PUSH1 0x20 ADD SWAP2 PUSH2 0x953 JUMP JUMPDEST DUP3 ADD SWAP2 SWAP1 PUSH1 0x0 MSTORE PUSH1 0x20 PUSH1 0x0 KECCAK256 SWAP1 JUMPDEST DUP2 SLOAD DUP2 MSTORE SWAP1 PUSH1 0x1 ADD SWAP1 PUSH1 0x20 ADD DUP1 DUP4 GT PUSH2 0x936 JUMPI DUP3 SWAP1 SUB PUSH1 0x1F AND DUP3 ADD SWAP2 JUMPDEST POP POP POP POP POP DUP2 MSTORE PUSH1 0x20 ADD PUSH1 0x6 DUP3 ADD DUP1 SLOAD PUSH2 0x96C SWAP1 PUSH2 0x4A9D JUMP JUMPDEST DUP1 PUSH1 0x1F ADD PUSH1 0x20 DUP1 SWAP2 DIV MUL PUSH1 0x20 ADD PUSH1 0x40 MLOAD SWAP1 DUP2 ADD PUSH1 0x40 MSTORE DUP1 SWAP3 SWAP2 SWAP1 DUP2 DUP2 MSTORE PUSH1 0x20 ADD DUP3 DUP1 SLOAD PUSH2 0x998 SWAP1 PUSH2 0x4A9D JUMP JUMPDEST DUP1 ISZERO PUSH2 0x9E5 JUMPI DUP1 PUSH1 0x1F LT PUSH2 0x9BA JUMPI PUSH2 0x100 DUP1 DUP4 SLOAD DIV MUL DUP4 MSTORE SWAP2 PUSH1 0x20 ADD SWAP2 PUSH2 0x9E5 JUMP JUMPDEST DUP3 ADD SWAP2 SWAP1 PUSH1 0x0 MSTORE PUSH1 0x20 PUSH1 0x0 KECCAK256 SWAP1 JUMPDEST DUP2 SLOAD DUP2 MSTORE SWAP1 PUSH1 0x1 ADD SWAP1 PUSH1 0x20 ADD DUP1 DUP4 GT PUSH2 0x9C8 JUMPI DUP3 SWAP1 SUB PUSH1 0x1F AND DUP3 ADD SWAP2 JUMPDEST POP POP POP POP POP DUP2 MSTORE PUSH1 0x20 ADD PUSH1 0x7 DUP3 ADD SLOAD DUP2 MSTORE POP POP SWAP1 POP DUP1 PUSH1 0x0 ADD MLOAD DUP2 PUSH1 0x20 ADD MLOAD DUP3 PUSH1 0x40 ADD MLOAD DUP4 PUSH1 0x60 ADD MLOAD DUP5 PUSH1 0x80 ADD MLOAD DUP6 PUSH1 0xA0 ADD MLOAD DUP7 PUSH1 0xC0 ADD MLOAD DUP8 PUSH1 0xE0 ADD MLOAD SWAP9 POP SWAP9 POP SWAP9 POP SWAP9 POP SWAP9 POP SWAP9 POP SWAP9 POP SWAP9 POP POP SWAP2 SWAP4 SWAP6 SWAP8 POP SWAP2 SWAP4 SWAP6 SWAP8 JUMP JUMPDEST PUSH1 0x0 DUP6 PUSH1 0x40 MLOAD DUP1 PUSH1 0x40 ADD PUSH1 0x40 MSTORE DUP1 PUSH1 0x1 DUP2 MSTORE PUSH1 0x20 ADD PUSH1 0x31 PUSH1 0xF8 SHL DUP2 MSTORE POP DUP1 PUSH1 0x40 MLOAD PUSH1 0x20 ADD PUSH2 0xA6C SWAP2 SWAP1 PUSH2 0x45F8 JUMP JUMPDEST PUSH1 0x40 MLOAD PUSH1 0x20 DUP2 DUP4 SUB SUB DUP2 MSTORE SWAP1 PUSH1 0x40 MSTORE DUP1 MLOAD SWAP1 PUSH1 0x20 ADD KECCAK256 PUSH2 0xA8B CALLER PUSH2 0x1515 JUMP JUMPDEST PUSH1 0x40 MLOAD PUSH1 0x20 ADD PUSH2 0xA9B SWAP2 SWAP1 PUSH2 0x45F8 JUMP JUMPDEST PUSH1 0x40 MLOAD PUSH1 0x20 DUP2 DUP4 SUB SUB DUP2 MSTORE SWAP1 PUSH1 0x40 MSTORE DUP1 MLOAD SWAP1 PUSH1 0x20 ADD KECCAK256 EQ PUSH2 0xAD7 JUMPI PUSH1 0x40 MLOAD PUSH3 0x461BCD PUSH1 0xE5 SHL DUP2 MSTORE PUSH1 0x4 ADD PUSH2 0xACE SWAP1 PUSH2 0x49BF JUMP JUMPDEST PUSH1 0x40 MLOAD DUP1 SWAP2 SUB SWAP1 REVERT JUMPDEST DUP1 PUSH1 0x40 MLOAD PUSH1 0x20 ADD PUSH2 0xAE8 SWAP2 SWAP1 PUSH2 0x45F8 JUMP JUMPDEST PUSH1 0x40 MLOAD PUSH1 0x20 DUP2 DUP4 SUB SUB DUP2 MSTORE SWAP1 PUSH1 0x40 MSTORE DUP1 MLOAD SWAP1 PUSH1 0x20 ADD KECCAK256 PUSH2 0xB07 DUP4 PUSH2 0x1504 JUMP JUMPDEST PUSH1 0x40 MLOAD PUSH1 0x20 ADD PUSH2 0xB17 SWAP2 SWAP1 PUSH2 0x45F8 JUMP JUMPDEST PUSH1 0x40 MLOAD PUSH1 0x20 DUP2 DUP4 SUB SUB DUP2 MSTORE SWAP1 PUSH1 0x40 MSTORE DUP1 MLOAD SWAP1 PUSH1 0x20 ADD KECCAK256 EQ PUSH2 0xB4A JUMPI PUSH1 0x40 MLOAD PUSH3 0x461BCD PUSH1 0xE5 SHL DUP2 MSTORE PUSH1 0x4 ADD PUSH2 0xACE SWAP1 PUSH2 0x4A36 JUMP JUMPDEST PUSH1 0x1 PUSH1 0x1 PUSH1 0xA0 SHL SUB DUP9 DUP2 AND PUSH1 0x0 SWAP1 DUP2 MSTORE PUSH1 0x44 PUSH1 0x20 MSTORE PUSH1 0x40 SWAP1 KECCAK256 PUSH1 0x4 ADD SLOAD AND CALLER EQ PUSH2 0xBA9 JUMPI PUSH1 0x40 MLOAD PUSH3 0x461BCD PUSH1 0xE5 SHL DUP2 MSTORE PUSH1 0x20 PUSH1 0x4 DUP3 ADD MSTORE PUSH1 0x10 PUSH1 0x24 DUP3 ADD MSTORE PUSH16 0x24B73B30B634B21027B832B930BA37B9 PUSH1 0x81 SHL PUSH1 0x44 DUP3 ADD MSTORE PUSH1 0x64 ADD PUSH2 0xACE JUMP JUMPDEST PUSH1 0x35 SLOAD PUSH1 0x3C SLOAD PUSH1 0x40 MLOAD PUSH3 0xCA2987 PUSH1 0xE2 SHL DUP2 MSTORE CALLER PUSH1 0x4 DUP3 ADD MSTORE PUSH1 0x24 DUP2 ADD SWAP2 SWAP1 SWAP2 MSTORE PUSH1 0x1 PUSH1 0x1 PUSH1 0xA0 SHL SUB SWAP1 SWAP2 AND SWAP1 PUSH4 0x328A61C SWAP1 PUSH1 0x44 ADD PUSH1 0x0 PUSH1 0x40 MLOAD DUP1 DUP4 SUB DUP2 PUSH1 0x0 DUP8 DUP1 EXTCODESIZE ISZERO DUP1 ISZERO PUSH2 0xBF8 JUMPI PUSH1 0x0 DUP1 REVERT JUMPDEST POP GAS CALL ISZERO DUP1 ISZERO PUSH2 0xC0C JUMPI RETURNDATASIZE PUSH1 0x0 DUP1 RETURNDATACOPY RETURNDATASIZE PUSH1 0x0 REVERT JUMPDEST POP POP DUP9 MLOAD PUSH2 0xC23 SWAP3 POP PUSH1 0x14 SWAP2 POP PUSH1 0x20 DUP11 ADD SWAP1 PUSH2 0x3CD8 JUMP JUMPDEST POP DUP6 MLOAD PUSH2 0xC37 SWAP1 PUSH1 0x15 SWAP1 PUSH1 0x20 DUP10 ADD SWAP1 PUSH2 0x3CD8 JUMP JUMPDEST POP DUP5 MLOAD PUSH2 0xC4B SWAP1 PUSH1 0x16 SWAP1 PUSH1 0x20 DUP9 ADD SWAP1 PUSH2 0x3CD8 JUMP JUMPDEST POP DUP4 MLOAD PUSH2 0xC5F SWAP1 PUSH1 0x17 SWAP1 PUSH1 0x20 DUP8 ADD SWAP1 PUSH2 0x3CD8 JUMP JUMPDEST POP TIMESTAMP PUSH1 0x18 SSTORE PUSH1 0x1 PUSH1 0x1 PUSH1 0xA0 SHL SUB DUP9 AND PUSH1 0x0 SWAP1 DUP2 MSTORE PUSH1 0x46 PUSH1 0x20 MSTORE PUSH1 0x40 SWAP1 KECCAK256 PUSH1 0x14 DUP1 SLOAD SWAP1 SWAP2 SWAP1 DUP2 SWAP1 DUP4 SWAP1 PUSH2 0xC90 SWAP1 PUSH2 0x4A9D JUMP JUMPDEST PUSH2 0xC9B SWAP3 SWAP2 SWAP1 PUSH2 0x3D5C JUMP JUMPDEST POP PUSH1 0x1 DUP3 ADD DUP2 PUSH1 0x1 ADD SWAP1 DUP1 SLOAD PUSH2 0xCB0 SWAP1 PUSH2 0x4A9D JUMP JUMPDEST PUSH2 0xCBB SWAP3 SWAP2 SWAP1 PUSH2 0x3D5C JUMP JUMPDEST POP PUSH1 0x2 DUP3 ADD DUP2 PUSH1 0x2 ADD SWAP1 DUP1 SLOAD PUSH2 0xCD0 SWAP1 PUSH2 0x4A9D JUMP JUMPDEST PUSH2 0xCDB SWAP3 SWAP2 SWAP1 PUSH2 0x3D5C JUMP JUMPDEST POP PUSH1 0x3 DUP3 ADD DUP2 PUSH1 0x3 ADD SWAP1 DUP1 SLOAD PUSH2 0xCF0 SWAP1 PUSH2 0x4A9D JUMP JUMPDEST PUSH2 0xCFB SWAP3 SWAP2 SWAP1 PUSH2 0x3D5C JUMP JUMPDEST POP PUSH1 0x4 SWAP2 DUP3 ADD SLOAD SWAP2 ADD SSTORE PUSH1 0x40 DUP1 MLOAD DUP1 DUP3 ADD DUP3 MSTORE PUSH1 0x1 DUP2 MSTORE PUSH1 0x19 PUSH1 0xF9 SHL PUSH1 0x20 DUP1 DUP4 ADD SWAP2 DUP3 MSTORE PUSH1 0x1 PUSH1 0x1 PUSH1 0xA0 SHL SUB DUP13 AND PUSH1 0x0 SWAP1 DUP2 MSTORE PUSH1 0x42 SWAP1 SWAP2 MSTORE SWAP3 SWAP1 SWAP3 KECCAK256 SWAP1 MLOAD PUSH2 0xD43 SWAP3 SWAP1 PUSH2 0x3CD8 JUMP JUMPDEST POP PUSH1 0x40 MLOAD PUSH1 0x1 PUSH1 0x1 PUSH1 0xA0 SHL SUB DUP10 AND SWAP1 CALLER SWAP1 PUSH32 0x1A9E54C741DDEA5903C67CF93287F3E09598DDFB41D14833169DDA5AEF87FDB6 SWAP1 PUSH1 0x0 SWAP1 LOG3 POP PUSH1 0x1 SWAP8 SWAP7 POP POP POP POP POP POP POP JUMP JUMPDEST PUSH1 0x0 CALLER PUSH2 0xD94 JUMPI PUSH1 0x0 DUP1 REVERT JUMPDEST CALLER PUSH1 0x0 SWAP1 DUP2 MSTORE PUSH1 0x40 PUSH1 0x20 DUP2 SWAP1 MSTORE SWAP1 KECCAK256 PUSH1 0x6 ADD SLOAD PUSH1 0xFF AND ISZERO ISZERO PUSH1 0x1 EQ PUSH2 0xDF2 JUMPI PUSH1 0x40 MLOAD PUSH3 0x461BCD PUSH1 0xE5 SHL DUP2 MSTORE PUSH1 0x20 PUSH1 0x4 DUP3 ADD MSTORE PUSH1 0x14 PUSH1 0x24 DUP3 ADD MSTORE PUSH20 0x5573657220646F6573206E6F7420657869737473 PUSH1 0x60 SHL PUSH1 0x44 DUP3 ADD MSTORE PUSH1 0x64 ADD PUSH2 0xACE JUMP JUMPDEST PUSH1 0x35 SLOAD PUSH1 0x39 SLOAD PUSH1 0x40 MLOAD PUSH3 0xCA2987 PUSH1 0xE2 SHL DUP2 MSTORE CALLER PUSH1 0x4 DUP3 ADD MSTORE PUSH1 0x24 DUP2 ADD SWAP2 SWAP1 SWAP2 MSTORE PUSH1 0x1 PUSH1 0x1 PUSH1 0xA0 SHL SUB SWAP1 SWAP2 AND SWAP1 PUSH4 0x328A61C SWAP1 PUSH1 0x44 ADD PUSH1 0x0 PUSH1 0x40 MLOAD DUP1 DUP4 SUB DUP2 PUSH1 0x0 DUP8 DUP1 EXTCODESIZE ISZERO DUP1 ISZERO PUSH2 0xE41 JUMPI PUSH1 0x0 DUP1 REVERT JUMPDEST POP GAS CALL ISZERO DUP1 ISZERO PUSH2 0xE55 JUMPI RETURNDATASIZE PUSH1 0x0 DUP1 RETURNDATACOPY RETURNDATASIZE PUSH1 0x0 REVERT JUMPDEST POP POP POP POP PUSH1 0x0 PUSH2 0xE6D CALLER DUP11 DUP11 DUP11 DUP11 DUP11 DUP11 PUSH1 0x0 DUP12 PUSH2 0x3B20 JUMP JUMPDEST SWAP1 POP CALLER PUSH1 0x1 PUSH1 0x1 PUSH1 0xA0 SHL SUB AND PUSH32 0x1C4E3384429C2E220CFE3C2ECCA5339CD1EFBDFACAAF98B80FAD6421C9ABBDEC DUP11 DUP11 DUP11 DUP11 DUP11 DUP11 DUP11 PUSH1 0x40 MLOAD PUSH2 0xEB4 SWAP8 SWAP7 SWAP6 SWAP5 SWAP4 SWAP3 SWAP2 SWAP1 PUSH2 0x4702 JUMP JUMPDEST PUSH1 0x40 MLOAD DUP1 SWAP2 SUB SWAP1 LOG2 CALLER PUSH1 0x1 PUSH1 0x1 PUSH1 0xA0 SHL SUB AND PUSH31 0x755CE76C2358D4B65F62E2448E09DF1FB836633E744EEB1DAD7E88E374D494 DUP7 PUSH1 0x40 MLOAD PUSH2 0xEF4 SWAP2 SWAP1 PUSH2 0x4676 JUMP JUMPDEST PUSH1 0x40 MLOAD DUP1 SWAP2 SUB SWAP1 LOG2 SWAP9 SWAP8 POP POP POP POP POP POP POP POP JUMP JUMPDEST PUSH1 0x33 DUP1 SLOAD PUSH1 0x1 PUSH1 0x1 PUSH1 0xA0 SHL SUB NOT AND CALLER SWAP1 DUP2 OR SWAP1 SWAP2 SSTORE PUSH1 0x0 SWAP1 DUP2 MSTORE PUSH1 0x43 PUSH1 0x20 MSTORE PUSH1 0x40 DUP2 KECCAK256 SLOAD PUSH1 0xFF AND PUSH1 0x1 EQ DUP1 PUSH2 0xF47 JUMPI POP PUSH1 0x0 SLOAD PUSH1 0x1 PUSH1 0x1 PUSH1 0xA0 SHL SUB AND CALLER EQ JUMPDEST PUSH2 0xF63 JUMPI PUSH1 0x40 MLOAD PUSH3 0x461BCD PUSH1 0xE5 SHL DUP2 MSTORE PUSH1 0x4 ADD PUSH2 0xACE SWAP1 PUSH2 0x49E5 JUMP JUMPDEST PUSH1 0x1 PUSH1 0x1 PUSH1 0xA0 SHL SUB DUP10 AND PUSH2 0xF76 JUMPI PUSH1 0x0 DUP1 REVERT JUMPDEST PUSH1 0x1 PUSH1 0x1 PUSH1 0xA0 SHL SUB DUP10 AND PUSH1 0x0 SWAP1 DUP2 MSTORE PUSH1 0x40 PUSH1 0x20 DUP2 SWAP1 MSTORE SWAP1 KECCAK256 PUSH1 0x6 ADD SLOAD PUSH1 0xFF AND ISZERO PUSH2 0xFD8 JUMPI PUSH1 0x40 MLOAD PUSH3 0x461BCD PUSH1 0xE5 SHL DUP2 MSTORE PUSH1 0x20 PUSH1 0x4 DUP3 ADD MSTORE PUSH1 0x13 PUSH1 0x24 DUP3 ADD MSTORE PUSH19 0x5573657220616C726561647920657869737473 PUSH1 0x68 SHL PUSH1 0x44 DUP3 ADD MSTORE PUSH1 0x64 ADD PUSH2 0xACE JUMP JUMPDEST PUSH1 0x35 SLOAD PUSH1 0x38 SLOAD PUSH1 0x40 MLOAD PUSH3 0xCA2987 PUSH1 0xE2 SHL DUP2 MSTORE CALLER PUSH1 0x4 DUP3 ADD MSTORE PUSH1 0x24 DUP2 ADD SWAP2 SWAP1 SWAP2 MSTORE PUSH1 0x1 PUSH1 0x1 PUSH1 0xA0 SHL SUB SWAP1 SWAP2 AND SWAP1 PUSH4 0x328A61C SWAP1 PUSH1 0x44 ADD PUSH1 0x0 PUSH1 0x40 MLOAD DUP1 DUP4 SUB DUP2 PUSH1 0x0 DUP8 DUP1 EXTCODESIZE ISZERO DUP1 ISZERO PUSH2 0x1027 JUMPI PUSH1 0x0 DUP1 REVERT JUMPDEST POP GAS CALL ISZERO DUP1 ISZERO PUSH2 0x103B JUMPI RETURNDATASIZE PUSH1 0x0 DUP1 RETURNDATACOPY RETURNDATASIZE PUSH1 0x0 REVERT JUMPDEST POP POP POP POP PUSH1 0x0 PUSH2 0x1053 DUP11 DUP11 DUP11 DUP11 DUP11 DUP11 DUP11 PUSH1 0x1 DUP12 PUSH2 0x3B20 JUMP JUMPDEST SWAP1 POP DUP10 PUSH1 0x1 PUSH1 0x1 PUSH1 0xA0 SHL SUB AND PUSH32 0x89BDC6DC224004C3A507A226EA08CC903DDCB6D7EE20C7390E7637C2577B239F DUP11 DUP11 DUP11 DUP11 DUP11 DUP11 DUP11 PUSH1 0x40 MLOAD PUSH2 0x109A SWAP8 SWAP7 SWAP6 SWAP5 SWAP4 SWAP3 SWAP2 SWAP1 PUSH2 0x4702 JUMP JUMPDEST PUSH1 0x40 MLOAD DUP1 SWAP2 SUB SWAP1 LOG2 DUP10 PUSH1 0x1 PUSH1 0x1 PUSH1 0xA0 SHL SUB AND PUSH31 0x755CE76C2358D4B65F62E2448E09DF1FB836633E744EEB1DAD7E88E374D494 DUP7 PUSH1 0x40 MLOAD PUSH2 0x10DA SWAP2 SWAP1 PUSH2 0x4676 JUMP JUMPDEST PUSH1 0x40 MLOAD DUP1 SWAP2 SUB SWAP1 LOG2 SWAP10 SWAP9 POP POP POP POP POP POP POP POP POP JUMP JUMPDEST PUSH1 0x0 DUP1 SLOAD PUSH1 0x1 PUSH1 0x1 PUSH1 0xA0 SHL SUB AND CALLER EQ PUSH2 0x111A JUMPI PUSH1 0x40 MLOAD PUSH3 0x461BCD PUSH1 0xE5 SHL DUP2 MSTORE PUSH1 0x4 ADD PUSH2 0xACE SWAP1 PUSH2 0x4992 JUMP JUMPDEST PUSH1 0x1 PUSH1 0x1 PUSH1 0xA0 SHL SUB DUP3 AND PUSH1 0x0 DUP2 DUP2 MSTORE PUSH1 0x43 PUSH1 0x20 SWAP1 DUP2 MSTORE PUSH1 0x40 DUP1 DUP4 KECCAK256 DUP1 SLOAD PUSH1 0xFF NOT AND SWAP1 SSTORE MLOAD SWAP2 DUP3 MSTORE PUSH32 0xC5238A63FA205F95E98807F6CBC91D2AD8555A2250075E47491F11D9C69DB3BC SWAP2 ADD JUMPDEST PUSH1 0x40 MLOAD DUP1 SWAP2 SUB SWAP1 LOG2 POP PUSH1 0x1 JUMPDEST SWAP2 SWAP1 POP JUMP JUMPDEST PUSH1 0x33 DUP1 SLOAD PUSH1 0x1 PUSH1 0x1 PUSH1 0xA0 SHL SUB NOT AND CALLER SWAP1 DUP2 OR SWAP1 SWAP2 SSTORE PUSH1 0x0 SWAP1 DUP2 MSTORE PUSH1 0x43 PUSH1 0x20 MSTORE PUSH1 0x40 SWAP1 KECCAK256 SLOAD PUSH1 0xFF AND PUSH1 0x1 EQ DUP1 PUSH2 0x11B5 JUMPI POP PUSH1 0x0 SLOAD PUSH1 0x1 PUSH1 0x1 PUSH1 0xA0 SHL SUB AND CALLER EQ JUMPDEST PUSH2 0x11D1 JUMPI PUSH1 0x40 MLOAD PUSH3 0x461BCD PUSH1 0xE5 SHL DUP2 MSTORE PUSH1 0x4 ADD PUSH2 0xACE SWAP1 PUSH2 0x49E5 JUMP JUMPDEST PUSH1 0x35 DUP1 SLOAD PUSH1 0x1 PUSH1 0x1 PUSH1 0xA0 SHL SUB NOT AND PUSH1 0x1 PUSH1 0x1 PUSH1 0xA0 SHL SUB SWAP3 SWAP1 SWAP3 AND SWAP2 SWAP1 SWAP2 OR SWAP1 SSTORE JUMP JUMPDEST PUSH1 0x0 DUP1 SLOAD PUSH1 0x1 PUSH1 0x1 PUSH1 0xA0 SHL SUB AND CALLER EQ PUSH2 0x121E JUMPI PUSH1 0x40 MLOAD PUSH3 0x461BCD PUSH1 0xE5 SHL DUP2 MSTORE PUSH1 0x4 ADD PUSH2 0xACE SWAP1 PUSH2 0x4992 JUMP JUMPDEST PUSH1 0x1 PUSH1 0x1 PUSH1 0xA0 SHL SUB DUP3 AND PUSH1 0x0 DUP2 DUP2 MSTORE PUSH1 0x43 PUSH1 0x20 SWAP1 DUP2 MSTORE PUSH1 0x40 SWAP2 DUP3 SWAP1 KECCAK256 DUP1 SLOAD PUSH1 0xFF NOT AND PUSH1 0x1 SWAP1 DUP2 OR SWAP1 SWAP2 SSTORE SWAP2 MLOAD SWAP2 DUP3 MSTORE PUSH32 0xC5238A63FA205F95E98807F6CBC91D2AD8555A2250075E47491F11D9C69DB3BC SWAP2 ADD PUSH2 0x1165 JUMP JUMPDEST PUSH1 0x60 DUP1 PUSH1 0x60 PUSH1 0x0 DUP1 PUSH1 0x0 DUP1 PUSH1 0x0 DUP1 PUSH1 0x44 PUSH1 0x0 DUP12 PUSH1 0x1 PUSH1 0x1 PUSH1 0xA0 SHL SUB AND PUSH1 0x1 PUSH1 0x1 PUSH1 0xA0 SHL SUB AND DUP2 MSTORE PUSH1 0x20 ADD SWAP1 DUP2 MSTORE PUSH1 0x20 ADD PUSH1 0x0 KECCAK256 PUSH1 0x40 MLOAD DUP1 PUSH2 0x100 ADD PUSH1 0x40 MSTORE SWAP1 DUP2 PUSH1 0x0 DUP3 ADD DUP1 SLOAD PUSH2 0x12C4 SWAP1 PUSH2 0x4A9D JUMP JUMPDEST DUP1 PUSH1 0x1F ADD PUSH1 0x20 DUP1 SWAP2 DIV MUL PUSH1 0x20 ADD PUSH1 0x40 MLOAD SWAP1 DUP2 ADD PUSH1 0x40 MSTORE DUP1 SWAP3 SWAP2 SWAP1 DUP2 DUP2 MSTORE PUSH1 0x20 ADD DUP3 DUP1 SLOAD PUSH2 0x12F0 SWAP1 PUSH2 0x4A9D JUMP JUMPDEST DUP1 ISZERO PUSH2 0x133D JUMPI DUP1 PUSH1 0x1F LT PUSH2 0x1312 JUMPI PUSH2 0x100 DUP1 DUP4 SLOAD DIV MUL DUP4 MSTORE SWAP2 PUSH1 0x20 ADD SWAP2 PUSH2 0x133D JUMP JUMPDEST DUP3 ADD SWAP2 SWAP1 PUSH1 0x0 MSTORE PUSH1 0x20 PUSH1 0x0 KECCAK256 SWAP1 JUMPDEST DUP2 SLOAD DUP2 MSTORE SWAP1 PUSH1 0x1 ADD SWAP1 PUSH1 0x20 ADD DUP1 DUP4 GT PUSH2 0x1320 JUMPI DUP3 SWAP1 SUB PUSH1 0x1F AND DUP3 ADD SWAP2 JUMPDEST POP POP POP POP POP DUP2 MSTORE PUSH1 0x20 ADD PUSH1 0x1 DUP3 ADD DUP1 SLOAD PUSH2 0x1356 SWAP1 PUSH2 0x4A9D JUMP JUMPDEST DUP1 PUSH1 0x1F ADD PUSH1 0x20 DUP1 SWAP2 DIV MUL PUSH1 0x20 ADD PUSH1 0x40 MLOAD SWAP1 DUP2 ADD PUSH1 0x40 MSTORE DUP1 SWAP3 SWAP2 SWAP1 DUP2 DUP2 MSTORE PUSH1 0x20 ADD DUP3 DUP1 SLOAD PUSH2 0x1382 SWAP1 PUSH2 0x4A9D JUMP JUMPDEST DUP1 ISZERO PUSH2 0x13CF JUMPI DUP1 PUSH1 0x1F LT PUSH2 0x13A4 JUMPI PUSH2 0x100 DUP1 DUP4 SLOAD DIV MUL DUP4 MSTORE SWAP2 PUSH1 0x20 ADD SWAP2 PUSH2 0x13CF JUMP JUMPDEST DUP3 ADD SWAP2 SWAP1 PUSH1 0x0 MSTORE PUSH1 0x20 PUSH1 0x0 KECCAK256 SWAP1 JUMPDEST DUP2 SLOAD DUP2 MSTORE SWAP1 PUSH1 0x1 ADD SWAP1 PUSH1 0x20 ADD DUP1 DUP4 GT PUSH2 0x13B2 JUMPI DUP3 SWAP1 SUB PUSH1 0x1F AND DUP3 ADD SWAP2 JUMPDEST POP POP POP POP POP DUP2 MSTORE PUSH1 0x20 ADD PUSH1 0x2 DUP3 ADD DUP1 SLOAD PUSH2 0x13E8 SWAP1 PUSH2 0x4A9D JUMP JUMPDEST DUP1 PUSH1 0x1F ADD PUSH1 0x20 DUP1 SWAP2 DIV MUL PUSH1 0x20 ADD PUSH1 0x40 MLOAD SWAP1 DUP2 ADD PUSH1 0x40 MSTORE DUP1 SWAP3 SWAP2 SWAP1 DUP2 DUP2 MSTORE PUSH1 0x20 ADD DUP3 DUP1 SLOAD PUSH2 0x1414 SWAP1 PUSH2 0x4A9D JUMP JUMPDEST DUP1 ISZERO PUSH2 0x1461 JUMPI DUP1 PUSH1 0x1F LT PUSH2 0x1436 JUMPI PUSH2 0x100 DUP1 DUP4 SLOAD DIV MUL DUP4 MSTORE SWAP2 PUSH1 0x20 ADD SWAP2 PUSH2 0x1461 JUMP JUMPDEST DUP3 ADD SWAP2 SWAP1 PUSH1 0x0 MSTORE PUSH1 0x20 PUSH1 0x0 KECCAK256 SWAP1 JUMPDEST DUP2 SLOAD DUP2 MSTORE SWAP1 PUSH1 0x1 ADD SWAP1 PUSH1 0x20 ADD DUP1 DUP4 GT PUSH2 0x1444 JUMPI DUP3 SWAP1 SUB PUSH1 0x1F AND DUP3 ADD SWAP2 JUMPDEST POP POP POP SWAP2 DUP4 MSTORE POP POP PUSH1 0x3 DUP3 ADD SLOAD PUSH1 0x1 PUSH1 0x1 PUSH1 0xA0 SHL SUB SWAP1 DUP2 AND PUSH1 0x20 DUP1 DUP5 ADD SWAP2 SWAP1 SWAP2 MSTORE PUSH1 0x4 DUP5 ADD SLOAD DUP3 AND PUSH1 0x40 DUP1 DUP6 ADD SWAP2 SWAP1 SWAP2 MSTORE PUSH1 0x5 DUP6 ADD SLOAD DUP4 AND PUSH1 0x60 DUP1 DUP7 ADD SWAP2 SWAP1 SWAP2 MSTORE PUSH1 0x6 DUP7 ADD SLOAD DUP5 AND PUSH1 0x80 DUP1 DUP8 ADD SWAP2 SWAP1 SWAP2 MSTORE PUSH1 0x7 SWAP1 SWAP7 ADD SLOAD SWAP1 SWAP4 AND PUSH1 0xA0 SWAP5 DUP6 ADD MSTORE DUP6 MLOAD SWAP2 DUP7 ADD MLOAD SWAP1 DUP7 ADD MLOAD SWAP3 DUP7 ADD MLOAD SWAP5 DUP7 ADD MLOAD SWAP4 DUP7 ADD MLOAD PUSH1 0xC0 DUP8 ADD MLOAD PUSH1 0xE0 SWAP1 SWAP8 ADD MLOAD SWAP3 SWAP16 POP SWAP1 SWAP14 POP SWAP2 SWAP12 POP SWAP3 SWAP10 POP SWAP1 SWAP8 POP SWAP6 POP SWAP1 SWAP4 POP SWAP2 POP POP SWAP2 SWAP4 SWAP6 SWAP8 POP SWAP2 SWAP4 SWAP6 SWAP8 JUMP JUMPDEST PUSH1 0x60 PUSH2 0x150F DUP3 PUSH2 0x2DFA JUMP JUMPDEST SWAP3 SWAP2 POP POP JUMP JUMPDEST PUSH1 0x1 PUSH1 0x1 PUSH1 0xA0 SHL SUB DUP2 AND PUSH1 0x0 SWAP1 DUP2 MSTORE PUSH1 0x41 PUSH1 0x20 MSTORE PUSH1 0x40 SWAP1 KECCAK256 DUP1 SLOAD PUSH1 0x60 SWAP2 SWAP1 PUSH2 0x153C SWAP1 PUSH2 0x4A9D JUMP JUMPDEST DUP1 PUSH1 0x1F ADD PUSH1 0x20 DUP1 SWAP2 DIV MUL PUSH1 0x20 ADD PUSH1 0x40 MLOAD SWAP1 DUP2 ADD PUSH1 0x40 MSTORE DUP1 SWAP3 SWAP2 SWAP1 DUP2 DUP2 MSTORE PUSH1 0x20 ADD DUP3 DUP1 SLOAD PUSH2 0x1568 SWAP1 PUSH2 0x4A9D JUMP JUMPDEST DUP1 ISZERO PUSH2 0x15B5 JUMPI DUP1 PUSH1 0x1F LT PUSH2 0x158A JUMPI PUSH2 0x100 DUP1 DUP4 SLOAD DIV MUL DUP4 MSTORE SWAP2 PUSH1 0x20 ADD SWAP2 PUSH2 0x15B5 JUMP JUMPDEST DUP3 ADD SWAP2 SWAP1 PUSH1 0x0 MSTORE PUSH1 0x20 PUSH1 0x0 KECCAK256 SWAP1 JUMPDEST DUP2 SLOAD DUP2 MSTORE SWAP1 PUSH1 0x1 ADD SWAP1 PUSH1 0x20 ADD DUP1 DUP4 GT PUSH2 0x1598 JUMPI DUP3 SWAP1 SUB PUSH1 0x1F AND DUP3 ADD SWAP2 JUMPDEST POP POP POP POP POP SWAP1 POP SWAP2 SWAP1 POP JUMP JUMPDEST PUSH1 0x60 DUP1 PUSH1 0x60 PUSH1 0x0 DUP1 PUSH1 0x45 PUSH1 0x0 DUP8 PUSH1 0x1 PUSH1 0x1 PUSH1 0xA0 SHL SUB AND PUSH1 0x1 PUSH1 0x1 PUSH1 0xA0 SHL SUB AND DUP2 MSTORE PUSH1 0x20 ADD SWAP1 DUP2 MSTORE PUSH1 0x20 ADD PUSH1 0x0 KECCAK256 PUSH1 0x40 MLOAD DUP1 PUSH1 0x80 ADD PUSH1 0x40 MSTORE SWAP1 DUP2 PUSH1 0x0 DUP3 ADD DUP1 SLOAD PUSH2 0x1609 SWAP1 PUSH2 0x4A9D JUMP JUMPDEST DUP1 PUSH1 0x1F ADD PUSH1 0x20 DUP1 SWAP2 DIV MUL PUSH1 0x20 ADD PUSH1 0x40 MLOAD SWAP1 DUP2 ADD PUSH1 0x40 MSTORE DUP1 SWAP3 SWAP2 SWAP1 DUP2 DUP2 MSTORE PUSH1 0x20 ADD DUP3 DUP1 SLOAD PUSH2 0x1635 SWAP1 PUSH2 0x4A9D JUMP JUMPDEST DUP1 ISZERO PUSH2 0x1682 JUMPI DUP1 PUSH1 0x1F LT PUSH2 0x1657 JUMPI PUSH2 0x100 DUP1 DUP4 SLOAD DIV MUL DUP4 MSTORE SWAP2 PUSH1 0x20 ADD SWAP2 PUSH2 0x1682 JUMP JUMPDEST DUP3 ADD SWAP2 SWAP1 PUSH1 0x0 MSTORE PUSH1 0x20 PUSH1 0x0 KECCAK256 SWAP1 JUMPDEST DUP2 SLOAD DUP2 MSTORE SWAP1 PUSH1 0x1 ADD SWAP1 PUSH1 0x20 ADD DUP1 DUP4 GT PUSH2 0x1665 JUMPI DUP3 SWAP1 SUB PUSH1 0x1F AND DUP3 ADD SWAP2 JUMPDEST POP POP POP POP POP DUP2 MSTORE PUSH1 0x20 ADD PUSH1 0x1 DUP3 ADD DUP1 SLOAD PUSH2 0x169B SWAP1 PUSH2 0x4A9D JUMP JUMPDEST DUP1 PUSH1 0x1F ADD PUSH1 0x20 DUP1 SWAP2 DIV MUL PUSH1 0x20 ADD PUSH1 0x40 MLOAD SWAP1 DUP2 ADD PUSH1 0x40 MSTORE DUP1 SWAP3 SWAP2 SWAP1 DUP2 DUP2 MSTORE PUSH1 0x20 ADD DUP3 DUP1 SLOAD PUSH2 0x16C7 SWAP1 PUSH2 0x4A9D JUMP JUMPDEST DUP1 ISZERO PUSH2 0x1714 JUMPI DUP1 PUSH1 0x1F LT PUSH2 0x16E9 JUMPI PUSH2 0x100 DUP1 DUP4 SLOAD DIV MUL DUP4 MSTORE SWAP2 PUSH1 0x20 ADD SWAP2 PUSH2 0x1714 JUMP JUMPDEST DUP3 ADD SWAP2 SWAP1 PUSH1 0x0 MSTORE PUSH1 0x20 PUSH1 0x0 KECCAK256 SWAP1 JUMPDEST DUP2 SLOAD DUP2 MSTORE SWAP1 PUSH1 0x1 ADD SWAP1 PUSH1 0x20 ADD DUP1 DUP4 GT PUSH2 0x16F7 JUMPI DUP3 SWAP1 SUB PUSH1 0x1F AND DUP3 ADD SWAP2 JUMPDEST POP POP POP POP POP DUP2 MSTORE PUSH1 0x20 ADD PUSH1 0x2 DUP3 ADD DUP1 SLOAD PUSH2 0x172D SWAP1 PUSH2 0x4A9D JUMP JUMPDEST DUP1 PUSH1 0x1F ADD PUSH1 0x20 DUP1 SWAP2 DIV MUL PUSH1 0x20 ADD PUSH1 0x40 MLOAD SWAP1 DUP2 ADD PUSH1 0x40 MSTORE DUP1 SWAP3 SWAP2 SWAP1 DUP2 DUP2 MSTORE PUSH1 0x20 ADD DUP3 DUP1 SLOAD PUSH2 0x1759 SWAP1 PUSH2 0x4A9D JUMP JUMPDEST DUP1 ISZERO PUSH2 0x17A6 JUMPI DUP1 PUSH1 0x1F LT PUSH2 0x177B JUMPI PUSH2 0x100 DUP1 DUP4 SLOAD DIV MUL DUP4 MSTORE SWAP2 PUSH1 0x20 ADD SWAP2 PUSH2 0x17A6 JUMP JUMPDEST DUP3 ADD SWAP2 SWAP1 PUSH1 0x0 MSTORE PUSH1 0x20 PUSH1 0x0 KECCAK256 SWAP1 JUMPDEST DUP2 SLOAD DUP2 MSTORE SWAP1 PUSH1 0x1 ADD SWAP1 PUSH1 0x20 ADD DUP1 DUP4 GT PUSH2 0x1789 JUMPI DUP3 SWAP1 SUB PUSH1 0x1F AND DUP3 ADD SWAP2 JUMPDEST POP POP POP SWAP2 DUP4 MSTORE POP POP PUSH1 0x3 SWAP2 SWAP1 SWAP2 ADD SLOAD PUSH1 0x20 SWAP2 DUP3 ADD MSTORE DUP2 MLOAD SWAP1 DUP3 ADD MLOAD PUSH1 0x40 DUP4 ADD MLOAD PUSH1 0x60 SWAP1 SWAP4 ADD MLOAD SWAP2 SWAP10 SWAP1 SWAP9 POP SWAP2 SWAP7 POP SWAP5 POP SWAP3 POP POP POP JUMP JUMPDEST PUSH1 0x60 DUP1 DUP1 DUP1 DUP1 PUSH1 0x0 DUP2 PUSH1 0x1 PUSH1 0x1 PUSH1 0xA0 SHL SUB DUP9 AND PUSH2 0x182A JUMPI PUSH1 0x40 MLOAD PUSH3 0x461BCD PUSH1 0xE5 SHL DUP2 MSTORE PUSH1 0x20 PUSH1 0x4 DUP3 ADD MSTORE PUSH1 0xC PUSH1 0x24 DUP3 ADD MSTORE PUSH12 0x24B73B30B634B2102AB9B2B9 PUSH1 0xA1 SHL PUSH1 0x44 DUP3 ADD MSTORE PUSH1 0x64 ADD PUSH2 0xACE JUMP JUMPDEST PUSH1 0x1 PUSH1 0x1 PUSH1 0xA0 SHL SUB DUP9 AND PUSH1 0x0 SWAP1 DUP2 MSTORE PUSH1 0x40 PUSH1 0x20 DUP2 SWAP1 MSTORE DUP1 DUP3 KECCAK256 DUP2 MLOAD PUSH1 0xE0 DUP2 ADD SWAP1 SWAP3 MSTORE DUP1 SLOAD DUP3 SWAP1 DUP3 SWAP1 PUSH2 0x185B SWAP1 PUSH2 0x4A9D JUMP JUMPDEST DUP1 PUSH1 0x1F ADD PUSH1 0x20 DUP1 SWAP2 DIV MUL PUSH1 0x20 ADD PUSH1 0x40 MLOAD SWAP1 DUP2 ADD PUSH1 0x40 MSTORE DUP1 SWAP3 SWAP2 SWAP1 DUP2 DUP2 MSTORE PUSH1 0x20 ADD DUP3 DUP1 SLOAD PUSH2 0x1887 SWAP1 PUSH2 0x4A9D JUMP JUMPDEST DUP1 ISZERO PUSH2 0x18D4 JUMPI DUP1 PUSH1 0x1F LT PUSH2 0x18A9 JUMPI PUSH2 0x100 DUP1 DUP4 SLOAD DIV MUL DUP4 MSTORE SWAP2 PUSH1 0x20 ADD SWAP2 PUSH2 0x18D4 JUMP JUMPDEST DUP3 ADD SWAP2 SWAP1 PUSH1 0x0 MSTORE PUSH1 0x20 PUSH1 0x0 KECCAK256 SWAP1 JUMPDEST DUP2 SLOAD DUP2 MSTORE SWAP1 PUSH1 0x1 ADD SWAP1 PUSH1 0x20 ADD DUP1 DUP4 GT PUSH2 0x18B7 JUMPI DUP3 SWAP1 SUB PUSH1 0x1F AND DUP3 ADD SWAP2 JUMPDEST POP POP POP POP POP DUP2 MSTORE PUSH1 0x20 ADD PUSH1 0x1 DUP3 ADD DUP1 SLOAD PUSH2 0x18ED SWAP1 PUSH2 0x4A9D JUMP JUMPDEST DUP1 PUSH1 0x1F ADD PUSH1 0x20 DUP1 SWAP2 DIV MUL PUSH1 0x20 ADD PUSH1 0x40 MLOAD SWAP1 DUP2 ADD PUSH1 0x40 MSTORE DUP1 SWAP3 SWAP2 SWAP1 DUP2 DUP2 MSTORE PUSH1 0x20 ADD DUP3 DUP1 SLOAD PUSH2 0x1919 SWAP1 PUSH2 0x4A9D JUMP JUMPDEST DUP1 ISZERO PUSH2 0x1966 JUMPI DUP1 PUSH1 0x1F LT PUSH2 0x193B JUMPI PUSH2 0x100 DUP1 DUP4 SLOAD DIV MUL DUP4 MSTORE SWAP2 PUSH1 0x20 ADD SWAP2 PUSH2 0x1966 JUMP JUMPDEST DUP3 ADD SWAP2 SWAP1 PUSH1 0x0 MSTORE PUSH1 0x20 PUSH1 0x0 KECCAK256 SWAP1 JUMPDEST DUP2 SLOAD DUP2 MSTORE SWAP1 PUSH1 0x1 ADD SWAP1 PUSH1 0x20 ADD DUP1 DUP4 GT PUSH2 0x1949 JUMPI DUP3 SWAP1 SUB PUSH1 0x1F AND DUP3 ADD SWAP2 JUMPDEST POP POP POP POP POP DUP2 MSTORE PUSH1 0x20 ADD PUSH1 0x2 DUP3 ADD DUP1 SLOAD PUSH2 0x197F SWAP1 PUSH2 0x4A9D JUMP JUMPDEST DUP1 PUSH1 0x1F ADD PUSH1 0x20 DUP1 SWAP2 DIV MUL PUSH1 0x20 ADD PUSH1 0x40 MLOAD SWAP1 DUP2 ADD PUSH1 0x40 MSTORE DUP1 SWAP3 SWAP2 SWAP1 DUP2 DUP2 MSTORE PUSH1 0x20 ADD DUP3 DUP1 SLOAD PUSH2 0x19AB SWAP1 PUSH2 0x4A9D JUMP JUMPDEST DUP1 ISZERO PUSH2 0x19F8 JUMPI DUP1 PUSH1 0x1F LT PUSH2 0x19CD JUMPI PUSH2 0x100 DUP1 DUP4 SLOAD DIV MUL DUP4 MSTORE SWAP2 PUSH1 0x20 ADD SWAP2 PUSH2 0x19F8 JUMP JUMPDEST DUP3 ADD SWAP2 SWAP1 PUSH1 0x0 MSTORE PUSH1 0x20 PUSH1 0x0 KECCAK256 SWAP1 JUMPDEST DUP2 SLOAD DUP2 MSTORE SWAP1 PUSH1 0x1 ADD SWAP1 PUSH1 0x20 ADD DUP1 DUP4 GT PUSH2 0x19DB JUMPI DUP3 SWAP1 SUB PUSH1 0x1F AND DUP3 ADD SWAP2 JUMPDEST POP POP POP POP POP DUP2 MSTORE PUSH1 0x20 ADD PUSH1 0x3 DUP3 ADD DUP1 SLOAD PUSH2 0x1A11 SWAP1 PUSH2 0x4A9D JUMP JUMPDEST DUP1 PUSH1 0x1F ADD PUSH1 0x20 DUP1 SWAP2 DIV MUL PUSH1 0x20 ADD PUSH1 0x40 MLOAD SWAP1 DUP2 ADD PUSH1 0x40 MSTORE DUP1 SWAP3 SWAP2 SWAP1 DUP2 DUP2 MSTORE PUSH1 0x20 ADD DUP3 DUP1 SLOAD PUSH2 0x1A3D SWAP1 PUSH2 0x4A9D JUMP JUMPDEST DUP1 ISZERO PUSH2 0x1A8A JUMPI DUP1 PUSH1 0x1F LT PUSH2 0x1A5F JUMPI PUSH2 0x100 DUP1 DUP4 SLOAD DIV MUL DUP4 MSTORE SWAP2 PUSH1 0x20 ADD SWAP2 PUSH2 0x1A8A JUMP JUMPDEST DUP3 ADD SWAP2 SWAP1 PUSH1 0x0 MSTORE PUSH1 0x20 PUSH1 0x0 KECCAK256 SWAP1 JUMPDEST DUP2 SLOAD DUP2 MSTORE SWAP1 PUSH1 0x1 ADD SWAP1 PUSH1 0x20 ADD DUP1 DUP4 GT PUSH2 0x1A6D JUMPI DUP3 SWAP1 SUB PUSH1 0x1F AND DUP3 ADD SWAP2 JUMPDEST POP POP POP SWAP2 DUP4 MSTORE POP POP PUSH1 0x4 DUP3 ADD SLOAD PUSH1 0xFF AND ISZERO ISZERO PUSH1 0x20 DUP3 ADD MSTORE PUSH1 0x5 DUP3 ADD DUP1 SLOAD PUSH1 0x40 SWAP1 SWAP3 ADD SWAP2 PUSH2 0x1AB6 SWAP1 PUSH2 0x4A9D JUMP JUMPDEST DUP1 PUSH1 0x1F ADD PUSH1 0x20 DUP1 SWAP2 DIV MUL PUSH1 0x20 ADD PUSH1 0x40 MLOAD SWAP1 DUP2 ADD PUSH1 0x40 MSTORE DUP1 SWAP3 SWAP2 SWAP1 DUP2 DUP2 MSTORE PUSH1 0x20 ADD DUP3 DUP1 SLOAD PUSH2 0x1AE2 SWAP1 PUSH2 0x4A9D JUMP JUMPDEST DUP1 ISZERO PUSH2 0x1B2F JUMPI DUP1 PUSH1 0x1F LT PUSH2 0x1B04 JUMPI PUSH2 0x100 DUP1 DUP4 SLOAD DIV MUL DUP4 MSTORE SWAP2 PUSH1 0x20 ADD SWAP2 PUSH2 0x1B2F JUMP JUMPDEST DUP3 ADD SWAP2 SWAP1 PUSH1 0x0 MSTORE PUSH1 0x20 PUSH1 0x0 KECCAK256 SWAP1 JUMPDEST DUP2 SLOAD DUP2 MSTORE SWAP1 PUSH1 0x1 ADD SWAP1 PUSH1 0x20 ADD DUP1 DUP4 GT PUSH2 0x1B12 JUMPI DUP3 SWAP1 SUB PUSH1 0x1F AND DUP3 ADD SWAP2 JUMPDEST POP POP POP POP POP DUP2 MSTORE PUSH1 0x20 ADD PUSH1 0x6 DUP3 ADD PUSH1 0x0 SWAP1 SLOAD SWAP1 PUSH2 0x100 EXP SWAP1 DIV PUSH1 0xFF AND ISZERO ISZERO ISZERO ISZERO DUP2 MSTORE POP POP SWAP1 POP DUP1 PUSH1 0x0 ADD MLOAD DUP2 PUSH1 0x20 ADD MLOAD DUP3 PUSH1 0x40 ADD MLOAD DUP4 PUSH1 0x60 ADD MLOAD PUSH1 0x41 PUSH1 0x0 DUP15 PUSH1 0x1 PUSH1 0x1 PUSH1 0xA0 SHL SUB AND PUSH1 0x1 PUSH1 0x1 PUSH1 0xA0 SHL SUB AND DUP2 MSTORE PUSH1 0x20 ADD SWAP1 DUP2 MSTORE PUSH1 0x20 ADD PUSH1 0x0 KECCAK256 DUP6 PUSH1 0x80 ADD MLOAD DUP7 PUSH1 0xA0 ADD MLOAD DUP3 DUP1 SLOAD PUSH2 0x1BA4 SWAP1 PUSH2 0x4A9D JUMP JUMPDEST DUP1 PUSH1 0x1F ADD PUSH1 0x20 DUP1 SWAP2 DIV MUL PUSH1 0x20 ADD PUSH1 0x40 MLOAD SWAP1 DUP2 ADD PUSH1 0x40 MSTORE DUP1 SWAP3 SWAP2 SWAP1 DUP2 DUP2 MSTORE PUSH1 0x20 ADD DUP3 DUP1 SLOAD PUSH2 0x1BD0 SWAP1 PUSH2 0x4A9D JUMP JUMPDEST DUP1 ISZERO PUSH2 0x1C1D JUMPI DUP1 PUSH1 0x1F LT PUSH2 0x1BF2 JUMPI PUSH2 0x100 DUP1 DUP4 SLOAD DIV MUL DUP4 MSTORE SWAP2 PUSH1 0x20 ADD SWAP2 PUSH2 0x1C1D JUMP JUMPDEST DUP3 ADD SWAP2 SWAP1 PUSH1 0x0 MSTORE PUSH1 0x20 PUSH1 0x0 KECCAK256 SWAP1 JUMPDEST DUP2 SLOAD DUP2 MSTORE SWAP1 PUSH1 0x1 ADD SWAP1 PUSH1 0x20 ADD DUP1 DUP4 GT PUSH2 0x1C00 JUMPI DUP3 SWAP1 SUB PUSH1 0x1F AND DUP3 ADD SWAP2 JUMPDEST POP POP POP POP POP SWAP3 POP SWAP8 POP SWAP8 POP SWAP8 POP SWAP8 POP SWAP8 POP SWAP8 POP SWAP8 POP POP SWAP2 SWAP4 SWAP6 SWAP8 SWAP1 SWAP3 SWAP5 SWAP7 POP JUMP JUMPDEST PUSH1 0x60 PUSH1 0x37 DUP1 SLOAD DUP1 PUSH1 0x20 MUL PUSH1 0x20 ADD PUSH1 0x40 MLOAD SWAP1 DUP2 ADD PUSH1 0x40 MSTORE DUP1 SWAP3 SWAP2 SWAP1 DUP2 DUP2 MSTORE PUSH1 0x20 ADD PUSH1 0x0 SWAP1 JUMPDEST DUP3 DUP3 LT ISZERO PUSH2 0x1D0E JUMPI DUP4 DUP3 SWAP1 PUSH1 0x0 MSTORE PUSH1 0x20 PUSH1 0x0 KECCAK256 ADD DUP1 SLOAD PUSH2 0x1C81 SWAP1 PUSH2 0x4A9D JUMP JUMPDEST DUP1 PUSH1 0x1F ADD PUSH1 0x20 DUP1 SWAP2 DIV MUL PUSH1 0x20 ADD PUSH1 0x40 MLOAD SWAP1 DUP2 ADD PUSH1 0x40 MSTORE DUP1 SWAP3 SWAP2 SWAP1 DUP2 DUP2 MSTORE PUSH1 0x20 ADD DUP3 DUP1 SLOAD PUSH2 0x1CAD SWAP1 PUSH2 0x4A9D JUMP JUMPDEST DUP1 ISZERO PUSH2 0x1CFA JUMPI DUP1 PUSH1 0x1F LT PUSH2 0x1CCF JUMPI PUSH2 0x100 DUP1 DUP4 SLOAD DIV MUL DUP4 MSTORE SWAP2 PUSH1 0x20 ADD SWAP2 PUSH2 0x1CFA JUMP JUMPDEST DUP3 ADD SWAP2 SWAP1 PUSH1 0x0 MSTORE PUSH1 0x20 PUSH1 0x0 KECCAK256 SWAP1 JUMPDEST DUP2 SLOAD DUP2 MSTORE SWAP1 PUSH1 0x1 ADD SWAP1 PUSH1 0x20 ADD DUP1 DUP4 GT PUSH2 0x1CDD JUMPI DUP3 SWAP1 SUB PUSH1 0x1F AND DUP3 ADD SWAP2 JUMPDEST POP POP POP POP POP DUP2 MSTORE PUSH1 0x20 ADD SWAP1 PUSH1 0x1 ADD SWAP1 PUSH2 0x1C62 JUMP JUMPDEST POP POP POP POP SWAP1 POP SWAP1 JUMP JUMPDEST PUSH1 0x0 SLOAD PUSH1 0x1 PUSH1 0x1 PUSH1 0xA0 SHL SUB AND CALLER EQ PUSH2 0x1D41 JUMPI PUSH1 0x40 MLOAD PUSH3 0x461BCD PUSH1 0xE5 SHL DUP2 MSTORE PUSH1 0x4 ADD PUSH2 0xACE SWAP1 PUSH2 0x4992 JUMP JUMPDEST PUSH1 0x0 DUP1 SLOAD PUSH1 0x40 MLOAD PUSH1 0x1 PUSH1 0x1 PUSH1 0xA0 SHL SUB SWAP1 SWAP2 AND SWAP2 PUSH32 0xF8DF31144D9C2F0F6B59D69B8B98ABD5459D07F2742C4DF920B25AAE33C64820 SWAP2 LOG2 PUSH1 0x0 DUP1 SLOAD PUSH1 0x1 PUSH1 0x1 PUSH1 0xA0 SHL SUB NOT AND SWAP1 SSTORE JUMP JUMPDEST PUSH1 0x0 DUP9 PUSH1 0x40 MLOAD DUP1 PUSH1 0x40 ADD PUSH1 0x40 MSTORE DUP1 PUSH1 0x1 DUP2 MSTORE PUSH1 0x20 ADD PUSH1 0x19 PUSH1 0xF9 SHL DUP2 MSTORE POP DUP1 PUSH1 0x40 MLOAD PUSH1 0x20 ADD PUSH2 0x1DB7 SWAP2 SWAP1 PUSH2 0x45F8 JUMP JUMPDEST PUSH1 0x40 MLOAD PUSH1 0x20 DUP2 DUP4 SUB SUB DUP2 MSTORE SWAP1 PUSH1 0x40 MSTORE DUP1 MLOAD SWAP1 PUSH1 0x20 ADD KECCAK256 PUSH2 0x1DD6 CALLER PUSH2 0x1515 JUMP JUMPDEST PUSH1 0x40 MLOAD PUSH1 0x20 ADD PUSH2 0x1DE6 SWAP2 SWAP1 PUSH2 0x45F8 JUMP JUMPDEST PUSH1 0x40 MLOAD PUSH1 0x20 DUP2 DUP4 SUB SUB DUP2 MSTORE SWAP1 PUSH1 0x40 MSTORE DUP1 MLOAD SWAP1 PUSH1 0x20 ADD KECCAK256 EQ PUSH2 0x1E19 JUMPI PUSH1 0x40 MLOAD PUSH3 0x461BCD PUSH1 0xE5 SHL DUP2 MSTORE PUSH1 0x4 ADD PUSH2 0xACE SWAP1 PUSH2 0x49BF JUMP JUMPDEST DUP1 PUSH1 0x40 MLOAD PUSH1 0x20 ADD PUSH2 0x1E2A SWAP2 SWAP1 PUSH2 0x45F8 JUMP JUMPDEST PUSH1 0x40 MLOAD PUSH1 0x20 DUP2 DUP4 SUB SUB DUP2 MSTORE SWAP1 PUSH1 0x40 MSTORE DUP1 MLOAD SWAP1 PUSH1 0x20 ADD KECCAK256 PUSH2 0x1E49 DUP4 PUSH2 0x1504 JUMP JUMPDEST PUSH1 0x40 MLOAD PUSH1 0x20 ADD PUSH2 0x1E59 SWAP2 SWAP1 PUSH2 0x45F8 JUMP JUMPDEST PUSH1 0x40 MLOAD PUSH1 0x20 DUP2 DUP4 SUB SUB DUP2 MSTORE SWAP1 PUSH1 0x40 MSTORE DUP1 MLOAD SWAP1 PUSH1 0x20 ADD KECCAK256 EQ PUSH2 0x1E8C JUMPI PUSH1 0x40 MLOAD PUSH3 0x461BCD PUSH1 0xE5 SHL DUP2 MSTORE PUSH1 0x4 ADD PUSH2 0xACE SWAP1 PUSH2 0x4A36 JUMP JUMPDEST PUSH1 0x1 PUSH1 0x1 PUSH1 0xA0 SHL SUB DUP12 DUP2 AND PUSH1 0x0 SWAP1 DUP2 MSTORE PUSH1 0x44 PUSH1 0x20 MSTORE PUSH1 0x40 SWAP1 KECCAK256 PUSH1 0x5 ADD SLOAD AND CALLER EQ PUSH2 0x1EEB JUMPI PUSH1 0x40 MLOAD PUSH3 0x461BCD PUSH1 0xE5 SHL DUP2 MSTORE PUSH1 0x20 PUSH1 0x4 DUP3 ADD MSTORE PUSH1 0x10 PUSH1 0x24 DUP3 ADD MSTORE PUSH16 0x24B73B30B634B21032BC3837B93A32B9 PUSH1 0x81 SHL PUSH1 0x44 DUP3 ADD MSTORE PUSH1 0x64 ADD PUSH2 0xACE JUMP JUMPDEST PUSH1 0x35 SLOAD PUSH1 0x3D SLOAD PUSH1 0x40 MLOAD PUSH3 0xCA2987 PUSH1 0xE2 SHL DUP2 MSTORE CALLER PUSH1 0x4 DUP3 ADD MSTORE PUSH1 0x24 DUP2 ADD SWAP2 SWAP1 SWAP2 MSTORE PUSH1 0x1 PUSH1 0x1 PUSH1 0xA0 SHL SUB SWAP1 SWAP2 AND SWAP1 PUSH4 0x328A61C SWAP1 PUSH1 0x44 ADD PUSH1 0x0 PUSH1 0x40 MLOAD DUP1 DUP4 SUB DUP2 PUSH1 0x0 DUP8 DUP1 EXTCODESIZE ISZERO DUP1 ISZERO PUSH2 0x1F3A JUMPI PUSH1 0x0 DUP1 REVERT JUMPDEST POP GAS CALL ISZERO DUP1 ISZERO PUSH2 0x1F4E JUMPI RETURNDATASIZE PUSH1 0x0 DUP1 RETURNDATACOPY RETURNDATASIZE PUSH1 0x0 REVERT JUMPDEST POP POP DUP12 MLOAD PUSH2 0x1F65 SWAP3 POP PUSH1 0x19 SWAP2 POP PUSH1 0x20 DUP14 ADD SWAP1 PUSH2 0x3CD8 JUMP JUMPDEST POP DUP9 MLOAD PUSH2 0x1F79 SWAP1 PUSH1 0x1A SWAP1 PUSH1 0x20 DUP13 ADD SWAP1 PUSH2 0x3CD8 JUMP JUMPDEST POP DUP8 MLOAD PUSH2 0x1F8D SWAP1 PUSH1 0x1B SWAP1 PUSH1 0x20 DUP12 ADD SWAP1 PUSH2 0x3CD8 JUMP JUMPDEST POP DUP7 MLOAD PUSH2 0x1FA1 SWAP1 PUSH1 0x1C SWAP1 PUSH1 0x20 DUP11 ADD SWAP1 PUSH2 0x3CD8 JUMP JUMPDEST POP DUP6 MLOAD PUSH2 0x1FB5 SWAP1 PUSH1 0x1D SWAP1 PUSH1 0x20 DUP10 ADD SWAP1 PUSH2 0x3CD8 JUMP JUMPDEST POP DUP5 MLOAD PUSH2 0x1FC9 SWAP1 PUSH1 0x1E SWAP1 PUSH1 0x20 DUP9 ADD SWAP1 PUSH2 0x3CD8 JUMP JUMPDEST POP DUP4 MLOAD PUSH2 0x1FDD SWAP1 PUSH1 0x1F SWAP1 PUSH1 0x20 DUP8 ADD SWAP1 PUSH2 0x3CD8 JUMP JUMPDEST POP TIMESTAMP PUSH1 0x20 SWAP1 DUP2 SSTORE PUSH1 0x1 PUSH1 0x1 PUSH1 0xA0 SHL SUB DUP13 AND PUSH1 0x0 SWAP1 DUP2 MSTORE PUSH1 0x47 SWAP1 SWAP2 MSTORE PUSH1 0x40 SWAP1 KECCAK256 PUSH1 0x19 DUP1 SLOAD SWAP1 SWAP2 SWAP1 DUP2 SWAP1 DUP4 SWAP1 PUSH2 0x2010 SWAP1 PUSH2 0x4A9D JUMP JUMPDEST PUSH2 0x201B SWAP3 SWAP2 SWAP1 PUSH2 0x3D5C JUMP JUMPDEST POP PUSH1 0x1 DUP3 ADD DUP2 PUSH1 0x1 ADD SWAP1 DUP1 SLOAD PUSH2 0x2030 SWAP1 PUSH2 0x4A9D JUMP JUMPDEST PUSH2 0x203B SWAP3 SWAP2 SWAP1 PUSH2 0x3D5C JUMP JUMPDEST POP PUSH1 0x2 DUP3 ADD DUP2 PUSH1 0x2 ADD SWAP1 DUP1 SLOAD PUSH2 0x2050 SWAP1 PUSH2 0x4A9D JUMP JUMPDEST PUSH2 0x205B SWAP3 SWAP2 SWAP1 PUSH2 0x3D5C JUMP JUMPDEST POP PUSH1 0x3 DUP3 ADD DUP2 PUSH1 0x3 ADD SWAP1 DUP1 SLOAD PUSH2 0x2070 SWAP1 PUSH2 0x4A9D JUMP JUMPDEST PUSH2 0x207B SWAP3 SWAP2 SWAP1 PUSH2 0x3D5C JUMP JUMPDEST POP PUSH1 0x4 DUP3 ADD DUP2 PUSH1 0x4 ADD SWAP1 DUP1 SLOAD PUSH2 0x2090 SWAP1 PUSH2 0x4A9D JUMP JUMPDEST PUSH2 0x209B SWAP3 SWAP2 SWAP1 PUSH2 0x3D5C JUMP JUMPDEST POP PUSH1 0x5 DUP3 ADD DUP2 PUSH1 0x5 ADD SWAP1 DUP1 SLOAD PUSH2 0x20B0 SWAP1 PUSH2 0x4A9D JUMP JUMPDEST PUSH2 0x20BB SWAP3 SWAP2 SWAP1 PUSH2 0x3D5C JUMP JUMPDEST POP PUSH1 0x6 DUP3 ADD DUP2 PUSH1 0x6 ADD SWAP1 DUP1 SLOAD PUSH2 0x20D0 SWAP1 PUSH2 0x4A9D JUMP JUMPDEST PUSH2 0x20DB SWAP3 SWAP2 SWAP1 PUSH2 0x3D5C JUMP JUMPDEST POP PUSH1 0x7 SWAP2 DUP3 ADD SLOAD SWAP2 ADD SSTORE PUSH1 0x40 DUP1 MLOAD DUP1 DUP3 ADD DUP3 MSTORE PUSH1 0x1 DUP2 MSTORE PUSH1 0x33 PUSH1 0xF8 SHL PUSH1 0x20 DUP1 DUP4 ADD SWAP2 DUP3 MSTORE PUSH1 0x1 PUSH1 0x1 PUSH1 0xA0 SHL SUB DUP16 AND PUSH1 0x0 SWAP1 DUP2 MSTORE PUSH1 0x42 SWAP1 SWAP2 MSTORE SWAP3 SWAP1 SWAP3 KECCAK256 SWAP1 MLOAD PUSH2 0x2123 SWAP3 SWAP1 PUSH2 0x3CD8 JUMP JUMPDEST POP PUSH1 0x40 MLOAD PUSH1 0x1 PUSH1 0x1 PUSH1 0xA0 SHL SUB DUP13 AND SWAP1 CALLER SWAP1 PUSH32 0xBDCCB285E4CF8E4E0E4C7A8CCB136C00D80F78D0EE8F9A14C673EA8319F17E7E SWAP1 PUSH1 0x0 SWAP1 LOG3 POP PUSH1 0x1 SWAP11 SWAP10 POP POP POP POP POP POP POP POP POP POP JUMP JUMPDEST PUSH1 0x0 DUP10 PUSH1 0x40 MLOAD DUP1 PUSH1 0x40 ADD PUSH1 0x40 MSTORE DUP1 PUSH1 0x1 DUP2 MSTORE PUSH1 0x20 ADD PUSH1 0xD PUSH1 0xFA SHL DUP2 MSTORE POP DUP1 PUSH1 0x40 MLOAD PUSH1 0x20 ADD PUSH2 0x2199 SWAP2 SWAP1 PUSH2 0x45F8 JUMP JUMPDEST PUSH1 0x40 MLOAD PUSH1 0x20 DUP2 DUP4 SUB SUB DUP2 MSTORE SWAP1 PUSH1 0x40 MSTORE DUP1 MLOAD SWAP1 PUSH1 0x20 ADD KECCAK256 PUSH2 0x21B8 CALLER PUSH2 0x1515 JUMP JUMPDEST PUSH1 0x40 MLOAD PUSH1 0x20 ADD PUSH2 0x21C8 SWAP2 SWAP1 PUSH2 0x45F8 JUMP JUMPDEST PUSH1 0x40 MLOAD PUSH1 0x20 DUP2 DUP4 SUB SUB DUP2 MSTORE SWAP1 PUSH1 0x40 MSTORE DUP1 MLOAD SWAP1 PUSH1 0x20 ADD KECCAK256 EQ PUSH2 0x21FB JUMPI PUSH1 0x40 MLOAD PUSH3 0x461BCD PUSH1 0xE5 SHL DUP2 MSTORE PUSH1 0x4 ADD PUSH2 0xACE SWAP1 PUSH2 0x49BF JUMP JUMPDEST DUP1 PUSH1 0x40 MLOAD PUSH1 0x20 ADD PUSH2 0x220C SWAP2 SWAP1 PUSH2 0x45F8 JUMP JUMPDEST PUSH1 0x40 MLOAD PUSH1 0x20 DUP2 DUP4 SUB SUB DUP2 MSTORE SWAP1 PUSH1 0x40 MSTORE DUP1 MLOAD SWAP1 PUSH1 0x20 ADD KECCAK256 PUSH2 0x222B DUP4 PUSH2 0x1504 JUMP JUMPDEST PUSH1 0x40 MLOAD PUSH1 0x20 ADD PUSH2 0x223B SWAP2 SWAP1 PUSH2 0x45F8 JUMP JUMPDEST PUSH1 0x40 MLOAD PUSH1 0x20 DUP2 DUP4 SUB SUB DUP2 MSTORE SWAP1 PUSH1 0x40 MSTORE DUP1 MLOAD SWAP1 PUSH1 0x20 ADD KECCAK256 EQ PUSH2 0x226E JUMPI PUSH1 0x40 MLOAD PUSH3 0x461BCD PUSH1 0xE5 SHL DUP2 MSTORE PUSH1 0x4 ADD PUSH2 0xACE SWAP1 PUSH2 0x4A36 JUMP JUMPDEST PUSH1 0x1 PUSH1 0x1 PUSH1 0xA0 SHL SUB DUP13 DUP2 AND PUSH1 0x0 SWAP1 DUP2 MSTORE PUSH1 0x44 PUSH1 0x20 MSTORE PUSH1 0x40 SWAP1 KECCAK256 PUSH1 0x7 ADD SLOAD AND CALLER EQ PUSH2 0x22CE JUMPI PUSH1 0x40 MLOAD PUSH3 0x461BCD PUSH1 0xE5 SHL DUP2 MSTORE PUSH1 0x20 PUSH1 0x4 DUP3 ADD MSTORE PUSH1 0x11 PUSH1 0x24 DUP3 ADD MSTORE PUSH17 0x24B73B30B634B210383937B1B2B9B9B7B9 PUSH1 0x79 SHL PUSH1 0x44 DUP3 ADD MSTORE PUSH1 0x64 ADD PUSH2 0xACE JUMP JUMPDEST PUSH1 0x35 SLOAD PUSH1 0x3F SLOAD PUSH1 0x40 MLOAD PUSH3 0xCA2987 PUSH1 0xE2 SHL DUP2 MSTORE CALLER PUSH1 0x4 DUP3 ADD MSTORE PUSH1 0x24 DUP2 ADD SWAP2 SWAP1 SWAP2 MSTORE PUSH1 0x1 PUSH1 0x1 PUSH1 0xA0 SHL SUB SWAP1 SWAP2 AND SWAP1 PUSH4 0x328A61C SWAP1 PUSH1 0x44 ADD PUSH1 0x0 PUSH1 0x40 MLOAD DUP1 DUP4 SUB DUP2 PUSH1 0x0 DUP8 DUP1 EXTCODESIZE ISZERO DUP1 ISZERO PUSH2 0x231D JUMPI PUSH1 0x0 DUP1 REVERT JUMPDEST POP GAS CALL ISZERO DUP1 ISZERO PUSH2 0x2331 JUMPI RETURNDATASIZE PUSH1 0x0 DUP1 RETURNDATACOPY RETURNDATASIZE PUSH1 0x0 REVERT JUMPDEST POP POP DUP13 MLOAD PUSH2 0x2348 SWAP3 POP PUSH1 0x2A SWAP2 POP PUSH1 0x20 DUP15 ADD SWAP1 PUSH2 0x3CD8 JUMP JUMPDEST POP DUP10 MLOAD PUSH2 0x235C SWAP1 PUSH1 0x2B SWAP1 PUSH1 0x20 DUP14 ADD SWAP1 PUSH2 0x3CD8 JUMP JUMPDEST POP DUP9 MLOAD PUSH2 0x2370 SWAP1 PUSH1 0x2C SWAP1 PUSH1 0x20 DUP13 ADD SWAP1 PUSH2 0x3CD8 JUMP JUMPDEST POP DUP8 MLOAD PUSH2 0x2384 SWAP1 PUSH1 0x2D SWAP1 PUSH1 0x20 DUP12 ADD SWAP1 PUSH2 0x3CD8 JUMP JUMPDEST POP DUP7 MLOAD PUSH2 0x2398 SWAP1 PUSH1 0x2E SWAP1 PUSH1 0x20 DUP11 ADD SWAP1 PUSH2 0x3CD8 JUMP JUMPDEST POP DUP6 MLOAD PUSH2 0x23AC SWAP1 PUSH1 0x2F SWAP1 PUSH1 0x20 DUP10 ADD SWAP1 PUSH2 0x3CD8 JUMP JUMPDEST POP DUP5 MLOAD PUSH2 0x23C0 SWAP1 PUSH1 0x30 SWAP1 PUSH1 0x20 DUP9 ADD SWAP1 PUSH2 0x3CD8 JUMP JUMPDEST POP DUP4 MLOAD PUSH2 0x23D4 SWAP1 PUSH1 0x31 SWAP1 PUSH1 0x20 DUP8 ADD SWAP1 PUSH2 0x3CD8 JUMP JUMPDEST POP TIMESTAMP PUSH1 0x32 SSTORE PUSH1 0x1 PUSH1 0x1 PUSH1 0xA0 SHL SUB DUP13 AND PUSH1 0x0 SWAP1 DUP2 MSTORE PUSH1 0x49 PUSH1 0x20 MSTORE PUSH1 0x40 SWAP1 KECCAK256 PUSH1 0x2A DUP1 SLOAD SWAP1 SWAP2 SWAP1 DUP2 SWAP1 DUP4 SWAP1 PUSH2 0x2405 SWAP1 PUSH2 0x4A9D JUMP JUMPDEST PUSH2 0x2410 SWAP3 SWAP2 SWAP1 PUSH2 0x3D5C JUMP JUMPDEST POP PUSH1 0x1 DUP3 ADD DUP2 PUSH1 0x1 ADD SWAP1 DUP1 SLOAD PUSH2 0x2425 SWAP1 PUSH2 0x4A9D JUMP JUMPDEST PUSH2 0x2430 SWAP3 SWAP2 SWAP1 PUSH2 0x3D5C JUMP JUMPDEST POP PUSH1 0x2 DUP3 ADD DUP2 PUSH1 0x2 ADD SWAP1 DUP1 SLOAD PUSH2 0x2445 SWAP1 PUSH2 0x4A9D JUMP JUMPDEST PUSH2 0x2450 SWAP3 SWAP2 SWAP1 PUSH2 0x3D5C JUMP JUMPDEST POP PUSH1 0x3 DUP3 ADD DUP2 PUSH1 0x3 ADD SWAP1 DUP1 SLOAD PUSH2 0x2465 SWAP1 PUSH2 0x4A9D JUMP JUMPDEST PUSH2 0x2470 SWAP3 SWAP2 SWAP1 PUSH2 0x3D5C JUMP JUMPDEST POP PUSH1 0x4 DUP3 ADD DUP2 PUSH1 0x4 ADD SWAP1 DUP1 SLOAD PUSH2 0x2485 SWAP1 PUSH2 0x4A9D JUMP JUMPDEST PUSH2 0x2490 SWAP3 SWAP2 SWAP1 PUSH2 0x3D5C JUMP JUMPDEST POP PUSH1 0x5 DUP3 ADD DUP2 PUSH1 0x5 ADD SWAP1 DUP1 SLOAD PUSH2 0x24A5 SWAP1 PUSH2 0x4A9D JUMP JUMPDEST PUSH2 0x24B0 SWAP3 SWAP2 SWAP1 PUSH2 0x3D5C JUMP JUMPDEST POP PUSH1 0x6 DUP3 ADD DUP2 PUSH1 0x6 ADD SWAP1 DUP1 SLOAD PUSH2 0x24C5 SWAP1 PUSH2 0x4A9D JUMP JUMPDEST PUSH2 0x24D0 SWAP3 SWAP2 SWAP1 PUSH2 0x3D5C JUMP JUMPDEST POP PUSH1 0x7 DUP3 ADD DUP2 PUSH1 0x7 ADD SWAP1 DUP1 SLOAD PUSH2 0x24E5 SWAP1 PUSH2 0x4A9D JUMP JUMPDEST PUSH2 0x24F0 SWAP3 SWAP2 SWAP1 PUSH2 0x3D5C JUMP JUMPDEST POP PUSH1 0x8 DUP3 ADD SLOAD DUP2 PUSH1 0x8 ADD SSTORE SWAP1 POP POP PUSH1 0x40 MLOAD DUP1 PUSH1 0x40 ADD PUSH1 0x40 MSTORE DUP1 PUSH1 0x4 DUP2 MSTORE PUSH1 0x20 ADD PUSH4 0x444F4E45 PUSH1 0xE0 SHL DUP2 MSTORE POP PUSH1 0x42 PUSH1 0x0 DUP15 PUSH1 0x1 PUSH1 0x1 PUSH1 0xA0 SHL SUB AND PUSH1 0x1 PUSH1 0x1 PUSH1 0xA0 SHL SUB AND DUP2 MSTORE PUSH1 0x20 ADD SWAP1 DUP2 MSTORE PUSH1 0x20 ADD PUSH1 0x0 KECCAK256 SWAP1 DUP1 MLOAD SWAP1 PUSH1 0x20 ADD SWAP1 PUSH2 0x2553 SWAP3 SWAP2 SWAP1 PUSH2 0x3CD8 JUMP JUMPDEST POP PUSH1 0x40 MLOAD PUSH1 0x1 PUSH1 0x1 PUSH1 0xA0 SHL SUB DUP14 AND SWAP1 CALLER SWAP1 PUSH32 0x4E233531FCA5FF48938CE2955902318DC5B5C0286E3D72FBCACA690F65C6C86F SWAP1 PUSH1 0x0 SWAP1 LOG3 POP PUSH1 0x1 SWAP12 SWAP11 POP POP POP POP POP POP POP POP POP POP POP JUMP JUMPDEST PUSH1 0x33 DUP1 SLOAD PUSH1 0x1 PUSH1 0x1 PUSH1 0xA0 SHL SUB NOT AND CALLER SWAP1 DUP2 OR SWAP1 SWAP2 SSTORE PUSH1 0x0 SWAP1 DUP2 MSTORE PUSH1 0x43 PUSH1 0x20 MSTORE PUSH1 0x40 DUP2 KECCAK256 SLOAD PUSH1 0xFF AND PUSH1 0x1 EQ DUP1 PUSH2 0x25DB JUMPI POP PUSH1 0x0 SLOAD PUSH1 0x1 PUSH1 0x1 PUSH1 0xA0 SHL SUB AND CALLER EQ JUMPDEST PUSH2 0x25F7 JUMPI PUSH1 0x40 MLOAD PUSH3 0x461BCD PUSH1 0xE5 SHL DUP2 MSTORE PUSH1 0x4 ADD PUSH2 0xACE SWAP1 PUSH2 0x49E5 JUMP JUMPDEST PUSH1 0x1 PUSH1 0x1 PUSH1 0xA0 SHL SUB DUP10 AND PUSH2 0x260A JUMPI PUSH1 0x0 DUP1 REVERT JUMPDEST PUSH1 0x35 SLOAD PUSH1 0x39 SLOAD PUSH1 0x40 MLOAD PUSH3 0xCA2987 PUSH1 0xE2 SHL DUP2 MSTORE CALLER PUSH1 0x4 DUP3 ADD MSTORE PUSH1 0x24 DUP2 ADD SWAP2 SWAP1 SWAP2 MSTORE PUSH1 0x1 PUSH1 0x1 PUSH1 0xA0 SHL SUB SWAP1 SWAP2 AND SWAP1 PUSH4 0x328A61C SWAP1 PUSH1 0x44 ADD PUSH1 0x0 PUSH1 0x40 MLOAD DUP1 DUP4 SUB DUP2 PUSH1 0x0 DUP8 DUP1 EXTCODESIZE ISZERO DUP1 ISZERO PUSH2 0x2659 JUMPI PUSH1 0x0 DUP1 REVERT JUMPDEST POP GAS CALL ISZERO DUP1 ISZERO PUSH2 0x266D JUMPI RETURNDATASIZE PUSH1 0x0 DUP1 RETURNDATACOPY RETURNDATASIZE PUSH1 0x0 REVERT JUMPDEST POP POP POP POP PUSH1 0x0 PUSH2 0x2685 DUP11 DUP11 DUP11 DUP11 DUP11 DUP11 DUP11 PUSH1 0x0 DUP12 PUSH2 0x3B20 JUMP JUMPDEST SWAP1 POP DUP10 PUSH1 0x1 PUSH1 0x1 PUSH1 0xA0 SHL SUB AND PUSH32 0x1C4E3384429C2E220CFE3C2ECCA5339CD1EFBDFACAAF98B80FAD6421C9ABBDEC DUP11 DUP11 DUP11 DUP11 DUP11 DUP11 DUP11 PUSH1 0x40 MLOAD PUSH2 0x109A SWAP8 SWAP7 SWAP6 SWAP5 SWAP4 SWAP3 SWAP2 SWAP1 PUSH2 0x4702 JUMP JUMPDEST PUSH1 0x0 DUP10 PUSH1 0x40 MLOAD DUP1 PUSH1 0x40 ADD PUSH1 0x40 MSTORE DUP1 PUSH1 0x1 DUP2 MSTORE PUSH1 0x20 ADD PUSH1 0x33 PUSH1 0xF8 SHL DUP2 MSTORE POP DUP1 PUSH1 0x40 MLOAD PUSH1 0x20 ADD PUSH2 0x26FA SWAP2 SWAP1 PUSH2 0x45F8 JUMP JUMPDEST PUSH1 0x40 MLOAD PUSH1 0x20 DUP2 DUP4 SUB SUB DUP2 MSTORE SWAP1 PUSH1 0x40 MSTORE DUP1 MLOAD SWAP1 PUSH1 0x20 ADD KECCAK256 PUSH2 0x2719 CALLER PUSH2 0x1515 JUMP JUMPDEST PUSH1 0x40 MLOAD PUSH1 0x20 ADD PUSH2 0x2729 SWAP2 SWAP1 PUSH2 0x45F8 JUMP JUMPDEST PUSH1 0x40 MLOAD PUSH1 0x20 DUP2 DUP4 SUB SUB DUP2 MSTORE SWAP1 PUSH1 0x40 MSTORE DUP1 MLOAD SWAP1 PUSH1 0x20 ADD KECCAK256 EQ PUSH2 0x275C JUMPI PUSH1 0x40 MLOAD PUSH3 0x461BCD PUSH1 0xE5 SHL DUP2 MSTORE PUSH1 0x4 ADD PUSH2 0xACE SWAP1 PUSH2 0x49BF JUMP JUMPDEST DUP1 PUSH1 0x40 MLOAD PUSH1 0x20 ADD PUSH2 0x276D SWAP2 SWAP1 PUSH2 0x45F8 JUMP JUMPDEST PUSH1 0x40 MLOAD PUSH1 0x20 DUP2 DUP4 SUB SUB DUP2 MSTORE SWAP1 PUSH1 0x40 MSTORE DUP1 MLOAD SWAP1 PUSH1 0x20 ADD KECCAK256 PUSH2 0x278C DUP4 PUSH2 0x1504 JUMP JUMPDEST PUSH1 0x40 MLOAD PUSH1 0x20 ADD PUSH2 0x279C SWAP2 SWAP1 PUSH2 0x45F8 JUMP JUMPDEST PUSH1 0x40 MLOAD PUSH1 0x20 DUP2 DUP4 SUB SUB DUP2 MSTORE SWAP1 PUSH1 0x40 MSTORE DUP1 MLOAD SWAP1 PUSH1 0x20 ADD KECCAK256 EQ PUSH2 0x27CF JUMPI PUSH1 0x40 MLOAD PUSH3 0x461BCD PUSH1 0xE5 SHL DUP2 MSTORE PUSH1 0x4 ADD PUSH2 0xACE SWAP1 PUSH2 0x4A36 JUMP JUMPDEST PUSH1 0x1 PUSH1 0x1 PUSH1 0xA0 SHL SUB DUP13 DUP2 AND PUSH1 0x0 SWAP1 DUP2 MSTORE PUSH1 0x44 PUSH1 0x20 MSTORE PUSH1 0x40 SWAP1 KECCAK256 PUSH1 0x6 ADD SLOAD AND CALLER EQ PUSH2 0x282E JUMPI PUSH1 0x40 MLOAD PUSH3 0x461BCD PUSH1 0xE5 SHL DUP2 MSTORE PUSH1 0x20 PUSH1 0x4 DUP3 ADD MSTORE PUSH1 0x10 PUSH1 0x24 DUP3 ADD MSTORE PUSH16 0x24B73B30B634B21034B6B837B93A32B9 PUSH1 0x81 SHL PUSH1 0x44 DUP3 ADD MSTORE PUSH1 0x64 ADD PUSH2 0xACE JUMP JUMPDEST PUSH1 0x35 SLOAD PUSH1 0x3E SLOAD PUSH1 0x40 MLOAD PUSH3 0xCA2987 PUSH1 0xE2 SHL DUP2 MSTORE CALLER PUSH1 0x4 DUP3 ADD MSTORE PUSH1 0x24 DUP2 ADD SWAP2 SWAP1 SWAP2 MSTORE PUSH1 0x1 PUSH1 0x1 PUSH1 0xA0 SHL SUB SWAP1 SWAP2 AND SWAP1 PUSH4 0x328A61C SWAP1 PUSH1 0x44 ADD PUSH1 0x0 PUSH1 0x40 MLOAD DUP1 DUP4 SUB DUP2 PUSH1 0x0 DUP8 DUP1 EXTCODESIZE ISZERO DUP1 ISZERO PUSH2 0x287D JUMPI PUSH1 0x0 DUP1 REVERT JUMPDEST POP GAS CALL ISZERO DUP1 ISZERO PUSH2 0x2891 JUMPI RETURNDATASIZE PUSH1 0x0 DUP1 RETURNDATACOPY RETURNDATASIZE PUSH1 0x0 REVERT JUMPDEST POP POP DUP13 MLOAD PUSH2 0x28A8 SWAP3 POP PUSH1 0x21 SWAP2 POP PUSH1 0x20 DUP15 ADD SWAP1 PUSH2 0x3CD8 JUMP JUMPDEST POP DUP10 MLOAD PUSH2 0x28BC SWAP1 PUSH1 0x22 SWAP1 PUSH1 0x20 DUP14 ADD SWAP1 PUSH2 0x3CD8 JUMP JUMPDEST POP DUP9 MLOAD PUSH2 0x28D0 SWAP1 PUSH1 0x23 SWAP1 PUSH1 0x20 DUP13 ADD SWAP1 PUSH2 0x3CD8 JUMP JUMPDEST POP DUP8 MLOAD PUSH2 0x28E4 SWAP1 PUSH1 0x24 SWAP1 PUSH1 0x20 DUP12 ADD SWAP1 PUSH2 0x3CD8 JUMP JUMPDEST POP DUP7 MLOAD PUSH2 0x28F8 SWAP1 PUSH1 0x25 SWAP1 PUSH1 0x20 DUP11 ADD SWAP1 PUSH2 0x3CD8 JUMP JUMPDEST POP DUP6 MLOAD PUSH2 0x290C SWAP1 PUSH1 0x26 SWAP1 PUSH1 0x20 DUP10 ADD SWAP1 PUSH2 0x3CD8 JUMP JUMPDEST POP DUP5 MLOAD PUSH2 0x2920 SWAP1 PUSH1 0x27 SWAP1 PUSH1 0x20 DUP9 ADD SWAP1 PUSH2 0x3CD8 JUMP JUMPDEST POP DUP4 MLOAD PUSH2 0x2934 SWAP1 PUSH1 0x28 SWAP1 PUSH1 0x20 DUP8 ADD SWAP1 PUSH2 0x3CD8 JUMP JUMPDEST POP TIMESTAMP PUSH1 0x29 SSTORE PUSH1 0x1 PUSH1 0x1 PUSH1 0xA0 SHL SUB DUP13 AND PUSH1 0x0 SWAP1 DUP2 MSTORE PUSH1 0x48 PUSH1 0x20 MSTORE PUSH1 0x40 SWAP1 KECCAK256 PUSH1 0x21 DUP1 SLOAD SWAP1 SWAP2 SWAP1 DUP2 SWAP1 DUP4 SWAP1 PUSH2 0x2965 SWAP1 PUSH2 0x4A9D JUMP JUMPDEST PUSH2 0x2970 SWAP3 SWAP2 SWAP1 PUSH2 0x3D5C JUMP JUMPDEST POP PUSH1 0x1 DUP3 ADD DUP2 PUSH1 0x1 ADD SWAP1 DUP1 SLOAD PUSH2 0x2985 SWAP1 PUSH2 0x4A9D JUMP JUMPDEST PUSH2 0x2990 SWAP3 SWAP2 SWAP1 PUSH2 0x3D5C JUMP JUMPDEST POP PUSH1 0x2 DUP3 ADD DUP2 PUSH1 0x2 ADD SWAP1 DUP1 SLOAD PUSH2 0x29A5 SWAP1 PUSH2 0x4A9D JUMP JUMPDEST PUSH2 0x29B0 SWAP3 SWAP2 SWAP1 PUSH2 0x3D5C JUMP JUMPDEST POP PUSH1 0x3 DUP3 ADD DUP2 PUSH1 0x3 ADD SWAP1 DUP1 SLOAD PUSH2 0x29C5 SWAP1 PUSH2 0x4A9D JUMP JUMPDEST PUSH2 0x29D0 SWAP3 SWAP2 SWAP1 PUSH2 0x3D5C JUMP JUMPDEST POP PUSH1 0x4 DUP3 ADD DUP2 PUSH1 0x4 ADD SWAP1 DUP1 SLOAD PUSH2 0x29E5 SWAP1 PUSH2 0x4A9D JUMP JUMPDEST PUSH2 0x29F0 SWAP3 SWAP2 SWAP1 PUSH2 0x3D5C JUMP JUMPDEST POP PUSH1 0x5 DUP3 ADD DUP2 PUSH1 0x5 ADD SWAP1 DUP1 SLOAD PUSH2 0x2A05 SWAP1 PUSH2 0x4A9D JUMP JUMPDEST PUSH2 0x2A10 SWAP3 SWAP2 SWAP1 PUSH2 0x3D5C JUMP JUMPDEST POP PUSH1 0x6 DUP3 ADD DUP2 PUSH1 0x6 ADD SWAP1 DUP1 SLOAD PUSH2 0x2A25 SWAP1 PUSH2 0x4A9D JUMP JUMPDEST PUSH2 0x2A30 SWAP3 SWAP2 SWAP1 PUSH2 0x3D5C JUMP JUMPDEST POP PUSH1 0x7 DUP3 ADD DUP2 PUSH1 0x7 ADD SWAP1 DUP1 SLOAD PUSH2 0x2A45 SWAP1 PUSH2 0x4A9D JUMP JUMPDEST PUSH2 0x2A50 SWAP3 SWAP2 SWAP1 PUSH2 0x3D5C JUMP JUMPDEST POP PUSH1 0x8 DUP3 ADD SLOAD DUP2 PUSH1 0x8 ADD SSTORE SWAP1 POP POP PUSH1 0x40 MLOAD DUP1 PUSH1 0x40 ADD PUSH1 0x40 MSTORE DUP1 PUSH1 0x1 DUP2 MSTORE PUSH1 0x20 ADD PUSH1 0xD PUSH1 0xFA SHL DUP2 MSTORE POP PUSH1 0x42 PUSH1 0x0 DUP15 PUSH1 0x1 PUSH1 0x1 PUSH1 0xA0 SHL SUB AND PUSH1 0x1 PUSH1 0x1 PUSH1 0xA0 SHL SUB AND DUP2 MSTORE PUSH1 0x20 ADD SWAP1 DUP2 MSTORE PUSH1 0x20 ADD PUSH1 0x0 KECCAK256 SWAP1 DUP1 MLOAD SWAP1 PUSH1 0x20 ADD SWAP1 PUSH2 0x2AB0 SWAP3 SWAP2 SWAP1 PUSH2 0x3CD8 JUMP JUMPDEST POP PUSH1 0x40 MLOAD PUSH1 0x1 PUSH1 0x1 PUSH1 0xA0 SHL SUB DUP14 AND SWAP1 CALLER SWAP1 PUSH32 0x38C05509A9C9DEC5B48A3AEFC9E921B700B90165DDCC57D1FB19D28BDDE51334 SWAP1 PUSH1 0x0 SWAP1 LOG3 POP PUSH1 0x1 SWAP12 SWAP11 POP POP POP POP POP POP POP POP POP POP POP JUMP JUMPDEST PUSH1 0x33 DUP1 SLOAD PUSH1 0x1 PUSH1 0x1 PUSH1 0xA0 SHL SUB NOT AND CALLER SWAP1 DUP2 OR SWAP1 SWAP2 SSTORE PUSH1 0x0 SWAP1 DUP2 MSTORE PUSH1 0x43 PUSH1 0x20 MSTORE PUSH1 0x40 DUP2 KECCAK256 SLOAD PUSH1 0xFF AND PUSH1 0x1 EQ DUP1 PUSH2 0x2B38 JUMPI POP PUSH1 0x0 SLOAD PUSH1 0x1 PUSH1 0x1 PUSH1 0xA0 SHL SUB AND CALLER EQ JUMPDEST PUSH2 0x2B54 JUMPI PUSH1 0x40 MLOAD PUSH3 0x461BCD PUSH1 0xE5 SHL DUP2 MSTORE PUSH1 0x4 ADD PUSH2 0xACE SWAP1 PUSH2 0x49E5 JUMP JUMPDEST PUSH1 0x35 SLOAD PUSH1 0x3A SLOAD PUSH1 0x40 MLOAD PUSH3 0xCA2987 PUSH1 0xE2 SHL DUP2 MSTORE CALLER PUSH1 0x4 DUP3 ADD MSTORE PUSH1 0x24 DUP2 ADD SWAP2 SWAP1 SWAP2 MSTORE PUSH1 0x1 PUSH1 0x1 PUSH1 0xA0 SHL SUB SWAP1 SWAP2 AND SWAP1 PUSH4 0x328A61C SWAP1 PUSH1 0x44 ADD PUSH1 0x0 PUSH1 0x40 MLOAD DUP1 DUP4 SUB DUP2 PUSH1 0x0 DUP8 DUP1 EXTCODESIZE ISZERO DUP1 ISZERO PUSH2 0x2BA3 JUMPI PUSH1 0x0 DUP1 REVERT JUMPDEST POP GAS CALL ISZERO DUP1 ISZERO PUSH2 0x2BB7 JUMPI RETURNDATASIZE PUSH1 0x0 DUP1 RETURNDATACOPY RETURNDATASIZE PUSH1 0x0 REVERT JUMPDEST POP POP PUSH1 0x40 MLOAD PUSH12 0xFFFFFFFFFFFFFFFFFFFFFFFF NOT CALLER PUSH1 0x60 SHL AND PUSH1 0x20 DUP3 ADD MSTORE TIMESTAMP PUSH1 0x34 DUP3 ADD MSTORE PUSH1 0x0 SWAP3 POP PUSH1 0x54 ADD SWAP1 POP PUSH1 0x40 DUP1 MLOAD PUSH1 0x1F NOT DUP2 DUP5 SUB ADD DUP2 MSTORE SWAP2 SWAP1 MSTORE DUP1 MLOAD PUSH1 0x20 SWAP2 DUP3 ADD KECCAK256 DUP12 MLOAD SWAP1 SWAP3 POP DUP3 SWAP2 PUSH2 0x2C11 SWAP2 PUSH1 0x8 SWAP2 DUP15 ADD SWAP1 PUSH2 0x3CD8 JUMP JUMPDEST POP DUP10 MLOAD PUSH2 0x2C25 SWAP1 PUSH1 0x9 SWAP1 PUSH1 0x20 DUP14 ADD SWAP1 PUSH2 0x3CD8 JUMP JUMPDEST POP DUP9 MLOAD PUSH2 0x2C39 SWAP1 PUSH1 0xA SWAP1 PUSH1 0x20 DUP13 ADD SWAP1 PUSH2 0x3CD8 JUMP JUMPDEST POP PUSH1 0xB DUP1 SLOAD PUSH1 0x1 PUSH1 0x1 PUSH1 0xA0 SHL SUB NOT SWAP1 DUP2 AND PUSH1 0x1 PUSH1 0x1 PUSH1 0xA0 SHL SUB DUP12 DUP2 AND SWAP2 SWAP1 SWAP2 OR SWAP1 SWAP3 SSTORE PUSH1 0xC DUP1 SLOAD DUP3 AND DUP11 DUP5 AND OR SWAP1 SSTORE PUSH1 0xD DUP1 SLOAD DUP3 AND DUP10 DUP5 AND OR SWAP1 SSTORE PUSH1 0xE DUP1 SLOAD DUP3 AND DUP9 DUP5 AND OR SWAP1 SSTORE PUSH1 0xF DUP1 SLOAD SWAP1 SWAP2 AND DUP7 DUP4 AND OR SWAP1 SSTORE DUP2 AND PUSH1 0x0 SWAP1 DUP2 MSTORE PUSH1 0x44 PUSH1 0x20 MSTORE PUSH1 0x40 SWAP1 KECCAK256 PUSH1 0x8 DUP1 SLOAD SWAP1 SWAP2 SWAP1 DUP2 SWAP1 DUP4 SWAP1 PUSH2 0x2CB1 SWAP1 PUSH2 0x4A9D JUMP JUMPDEST PUSH2 0x2CBC SWAP3 SWAP2 SWAP1 PUSH2 0x3D5C JUMP JUMPDEST POP PUSH1 0x1 DUP3 ADD DUP2 PUSH1 0x1 ADD SWAP1 DUP1 SLOAD PUSH2 0x2CD1 SWAP1 PUSH2 0x4A9D JUMP JUMPDEST PUSH2 0x2CDC SWAP3 SWAP2 SWAP1 PUSH2 0x3D5C JUMP JUMPDEST POP PUSH1 0x2 DUP3 ADD DUP2 PUSH1 0x2 ADD SWAP1 DUP1 SLOAD PUSH2 0x2CF1 SWAP1 PUSH2 0x4A9D JUMP JUMPDEST PUSH2 0x2CFC SWAP3 SWAP2 SWAP1 PUSH2 0x3D5C JUMP JUMPDEST POP PUSH1 0x3 DUP3 DUP2 ADD SLOAD SWAP1 DUP3 ADD DUP1 SLOAD PUSH1 0x1 PUSH1 0x1 PUSH1 0xA0 SHL SUB NOT SWAP1 DUP2 AND PUSH1 0x1 PUSH1 0x1 PUSH1 0xA0 SHL SUB SWAP4 DUP5 AND OR SWAP1 SWAP2 SSTORE PUSH1 0x4 DUP1 DUP6 ADD SLOAD SWAP1 DUP5 ADD DUP1 SLOAD DUP4 AND SWAP2 DUP5 AND SWAP2 SWAP1 SWAP2 OR SWAP1 SSTORE PUSH1 0x5 DUP1 DUP6 ADD SLOAD SWAP1 DUP5 ADD DUP1 SLOAD DUP4 AND SWAP2 DUP5 AND SWAP2 SWAP1 SWAP2 OR SWAP1 SSTORE PUSH1 0x6 DUP1 DUP6 ADD SLOAD SWAP1 DUP5 ADD DUP1 SLOAD DUP4 AND SWAP2 DUP5 AND SWAP2 SWAP1 SWAP2 OR SWAP1 SSTORE PUSH1 0x7 SWAP4 DUP5 ADD SLOAD SWAP4 SWAP1 SWAP3 ADD DUP1 SLOAD SWAP1 SWAP3 AND SWAP3 DUP2 AND SWAP3 SWAP1 SWAP3 OR SWAP1 SSTORE PUSH1 0x40 DUP1 MLOAD DUP1 DUP3 ADD DUP3 MSTORE PUSH1 0x1 DUP2 MSTORE PUSH1 0x3 PUSH1 0xFC SHL PUSH1 0x20 DUP1 DUP4 ADD SWAP2 DUP3 MSTORE SWAP4 DUP6 AND PUSH1 0x0 SWAP1 DUP2 MSTORE PUSH1 0x42 SWAP1 SWAP5 MSTORE SWAP2 SWAP1 SWAP3 KECCAK256 SWAP2 MLOAD PUSH2 0x2DB5 SWAP3 SWAP2 SWAP1 PUSH2 0x3CD8 JUMP JUMPDEST POP PUSH1 0x40 MLOAD PUSH1 0x1 PUSH1 0x1 PUSH1 0xA0 SHL SUB DUP3 AND SWAP1 CALLER SWAP1 PUSH32 0xDB769F7C34ED3C373F40BB14B2B74BC7CFF51A86A6FF6D23F084ABF76700C558 SWAP1 PUSH1 0x0 SWAP1 LOG3 SWAP11 SWAP10 POP POP POP POP POP POP POP POP POP POP JUMP JUMPDEST PUSH1 0x1 PUSH1 0x1 PUSH1 0xA0 SHL SUB DUP2 AND PUSH1 0x0 SWAP1 DUP2 MSTORE PUSH1 0x42 PUSH1 0x20 MSTORE PUSH1 0x40 SWAP1 KECCAK256 DUP1 SLOAD PUSH1 0x60 SWAP2 SWAP1 PUSH2 0x153C SWAP1 PUSH2 0x4A9D JUMP JUMPDEST PUSH1 0x60 DUP1 PUSH1 0x60 DUP1 PUSH1 0x60 DUP1 PUSH1 0x60 DUP1 PUSH1 0x0 DUP1 PUSH1 0x49 PUSH1 0x0 DUP13 PUSH1 0x1 PUSH1 0x1 PUSH1 0xA0 SHL SUB AND PUSH1 0x1 PUSH1 0x1 PUSH1 0xA0 SHL SUB AND DUP2 MSTORE PUSH1 0x20 ADD SWAP1 DUP2 MSTORE PUSH1 0x20 ADD PUSH1 0x0 KECCAK256 PUSH1 0x40 MLOAD DUP1 PUSH2 0x120 ADD PUSH1 0x40 MSTORE SWAP1 DUP2 PUSH1 0x0 DUP3 ADD DUP1 SLOAD PUSH2 0x2E71 SWAP1 PUSH2 0x4A9D JUMP JUMPDEST DUP1 PUSH1 0x1F ADD PUSH1 0x20 DUP1 SWAP2 DIV MUL PUSH1 0x20 ADD PUSH1 0x40 MLOAD SWAP1 DUP2 ADD PUSH1 0x40 MSTORE DUP1 SWAP3 SWAP2 SWAP1 DUP2 DUP2 MSTORE PUSH1 0x20 ADD DUP3 DUP1 SLOAD PUSH2 0x2E9D SWAP1 PUSH2 0x4A9D JUMP JUMPDEST DUP1 ISZERO PUSH2 0x2EEA JUMPI DUP1 PUSH1 0x1F LT PUSH2 0x2EBF JUMPI PUSH2 0x100 DUP1 DUP4 SLOAD DIV MUL DUP4 MSTORE SWAP2 PUSH1 0x20 ADD SWAP2 PUSH2 0x2EEA JUMP JUMPDEST DUP3 ADD SWAP2 SWAP1 PUSH1 0x0 MSTORE PUSH1 0x20 PUSH1 0x0 KECCAK256 SWAP1 JUMPDEST DUP2 SLOAD DUP2 MSTORE SWAP1 PUSH1 0x1 ADD SWAP1 PUSH1 0x20 ADD DUP1 DUP4 GT PUSH2 0x2ECD JUMPI DUP3 SWAP1 SUB PUSH1 0x1F AND DUP3 ADD SWAP2 JUMPDEST POP POP POP POP POP DUP2 MSTORE PUSH1 0x20 ADD PUSH1 0x1 DUP3 ADD DUP1 SLOAD PUSH2 0x2F03 SWAP1 PUSH2 0x4A9D JUMP JUMPDEST DUP1 PUSH1 0x1F ADD PUSH1 0x20 DUP1 SWAP2 DIV MUL PUSH1 0x20 ADD PUSH1 0x40 MLOAD SWAP1 DUP2 ADD PUSH1 0x40 MSTORE DUP1 SWAP3 SWAP2 SWAP1 DUP2 DUP2 MSTORE PUSH1 0x20 ADD DUP3 DUP1 SLOAD PUSH2 0x2F2F SWAP1 PUSH2 0x4A9D JUMP JUMPDEST DUP1 ISZERO PUSH2 0x2F7C JUMPI DUP1 PUSH1 0x1F LT PUSH2 0x2F51 JUMPI PUSH2 0x100 DUP1 DUP4 SLOAD DIV MUL DUP4 MSTORE SWAP2 PUSH1 0x20 ADD SWAP2 PUSH2 0x2F7C JUMP JUMPDEST DUP3 ADD SWAP2 SWAP1 PUSH1 0x0 MSTORE PUSH1 0x20 PUSH1 0x0 KECCAK256 SWAP1 JUMPDEST DUP2 SLOAD DUP2 MSTORE SWAP1 PUSH1 0x1 ADD SWAP1 PUSH1 0x20 ADD DUP1 DUP4 GT PUSH2 0x2F5F JUMPI DUP3 SWAP1 SUB PUSH1 0x1F AND DUP3 ADD SWAP2 JUMPDEST POP POP POP POP POP DUP2 MSTORE PUSH1 0x20 ADD PUSH1 0x2 DUP3 ADD DUP1 SLOAD PUSH2 0x2F95 SWAP1 PUSH2 0x4A9D JUMP JUMPDEST DUP1 PUSH1 0x1F ADD PUSH1 0x20 DUP1 SWAP2 DIV MUL PUSH1 0x20 ADD PUSH1 0x40 MLOAD SWAP1 DUP2 ADD PUSH1 0x40 MSTORE DUP1 SWAP3 SWAP2 SWAP1 DUP2 DUP2 MSTORE PUSH1 0x20 ADD DUP3 DUP1 SLOAD PUSH2 0x2FC1 SWAP1 PUSH2 0x4A9D JUMP JUMPDEST DUP1 ISZERO PUSH2 0x300E JUMPI DUP1 PUSH1 0x1F LT PUSH2 0x2FE3 JUMPI PUSH2 0x100 DUP1 DUP4 SLOAD DIV MUL DUP4 MSTORE SWAP2 PUSH1 0x20 ADD SWAP2 PUSH2 0x300E JUMP JUMPDEST DUP3 ADD SWAP2 SWAP1 PUSH1 0x0 MSTORE PUSH1 0x20 PUSH1 0x0 KECCAK256 SWAP1 JUMPDEST DUP2 SLOAD DUP2 MSTORE SWAP1 PUSH1 0x1 ADD SWAP1 PUSH1 0x20 ADD DUP1 DUP4 GT PUSH2 0x2FF1 JUMPI DUP3 SWAP1 SUB PUSH1 0x1F AND DUP3 ADD SWAP2 JUMPDEST POP POP POP POP POP DUP2 MSTORE PUSH1 0x20 ADD PUSH1 0x3 DUP3 ADD DUP1 SLOAD PUSH2 0x3027 SWAP1 PUSH2 0x4A9D JUMP JUMPDEST DUP1 PUSH1 0x1F ADD PUSH1 0x20 DUP1 SWAP2 DIV MUL PUSH1 0x20 ADD PUSH1 0x40 MLOAD SWAP1 DUP2 ADD PUSH1 0x40 MSTORE DUP1 SWAP3 SWAP2 SWAP1 DUP2 DUP2 MSTORE PUSH1 0x20 ADD DUP3 DUP1 SLOAD PUSH2 0x3053 SWAP1 PUSH2 0x4A9D JUMP JUMPDEST DUP1 ISZERO PUSH2 0x30A0 JUMPI DUP1 PUSH1 0x1F LT PUSH2 0x3075 JUMPI PUSH2 0x100 DUP1 DUP4 SLOAD DIV MUL DUP4 MSTORE SWAP2 PUSH1 0x20 ADD SWAP2 PUSH2 0x30A0 JUMP JUMPDEST DUP3 ADD SWAP2 SWAP1 PUSH1 0x0 MSTORE PUSH1 0x20 PUSH1 0x0 KECCAK256 SWAP1 JUMPDEST DUP2 SLOAD DUP2 MSTORE SWAP1 PUSH1 0x1 ADD SWAP1 PUSH1 0x20 ADD DUP1 DUP4 GT PUSH2 0x3083 JUMPI DUP3 SWAP1 SUB PUSH1 0x1F AND DUP3 ADD SWAP2 JUMPDEST POP POP POP POP POP DUP2 MSTORE PUSH1 0x20 ADD PUSH1 0x4 DUP3 ADD DUP1 SLOAD PUSH2 0x30B9 SWAP1 PUSH2 0x4A9D JUMP JUMPDEST DUP1 PUSH1 0x1F ADD PUSH1 0x20 DUP1 SWAP2 DIV MUL PUSH1 0x20 ADD PUSH1 0x40 MLOAD SWAP1 DUP2 ADD PUSH1 0x40 MSTORE DUP1 SWAP3 SWAP2 SWAP1 DUP2 DUP2 MSTORE PUSH1 0x20 ADD DUP3 DUP1 SLOAD PUSH2 0x30E5 SWAP1 PUSH2 0x4A9D JUMP JUMPDEST DUP1 ISZERO PUSH2 0x3132 JUMPI DUP1 PUSH1 0x1F LT PUSH2 0x3107 JUMPI PUSH2 0x100 DUP1 DUP4 SLOAD DIV MUL DUP4 MSTORE SWAP2 PUSH1 0x20 ADD SWAP2 PUSH2 0x3132 JUMP JUMPDEST DUP3 ADD SWAP2 SWAP1 PUSH1 0x0 MSTORE PUSH1 0x20 PUSH1 0x0 KECCAK256 SWAP1 JUMPDEST DUP2 SLOAD DUP2 MSTORE SWAP1 PUSH1 0x1 ADD SWAP1 PUSH1 0x20 ADD DUP1 DUP4 GT PUSH2 0x3115 JUMPI DUP3 SWAP1 SUB PUSH1 0x1F AND DUP3 ADD SWAP2 JUMPDEST POP POP POP POP POP DUP2 MSTORE PUSH1 0x20 ADD PUSH1 0x5 DUP3 ADD DUP1 SLOAD PUSH2 0x314B SWAP1 PUSH2 0x4A9D JUMP JUMPDEST DUP1 PUSH1 0x1F ADD PUSH1 0x20 DUP1 SWAP2 DIV MUL PUSH1 0x20 ADD PUSH1 0x40 MLOAD SWAP1 DUP2 ADD PUSH1 0x40 MSTORE DUP1 SWAP3 SWAP2 SWAP1 DUP2 DUP2 MSTORE PUSH1 0x20 ADD DUP3 DUP1 SLOAD PUSH2 0x3177 SWAP1 PUSH2 0x4A9D JUMP JUMPDEST DUP1 ISZERO PUSH2 0x31C4 JUMPI DUP1 PUSH1 0x1F LT PUSH2 0x3199 JUMPI PUSH2 0x100 DUP1 DUP4 SLOAD DIV MUL DUP4 MSTORE SWAP2 PUSH1 0x20 ADD SWAP2 PUSH2 0x31C4 JUMP JUMPDEST DUP3 ADD SWAP2 SWAP1 PUSH1 0x0 MSTORE PUSH1 0x20 PUSH1 0x0 KECCAK256 SWAP1 JUMPDEST DUP2 SLOAD DUP2 MSTORE SWAP1 PUSH1 0x1 ADD SWAP1 PUSH1 0x20 ADD DUP1 DUP4 GT PUSH2 0x31A7 JUMPI DUP3 SWAP1 SUB PUSH1 0x1F AND DUP3 ADD SWAP2 JUMPDEST POP POP POP POP POP DUP2 MSTORE PUSH1 0x20 ADD PUSH1 0x6 DUP3 ADD DUP1 SLOAD PUSH2 0x31DD SWAP1 PUSH2 0x4A9D JUMP JUMPDEST DUP1 PUSH1 0x1F ADD PUSH1 0x20 DUP1 SWAP2 DIV MUL PUSH1 0x20 ADD PUSH1 0x40 MLOAD SWAP1 DUP2 ADD PUSH1 0x40 MSTORE DUP1 SWAP3 SWAP2 SWAP1 DUP2 DUP2 MSTORE PUSH1 0x20 ADD DUP3 DUP1 SLOAD PUSH2 0x3209 SWAP1 PUSH2 0x4A9D JUMP JUMPDEST DUP1 ISZERO PUSH2 0x3256 JUMPI DUP1 PUSH1 0x1F LT PUSH2 0x322B JUMPI PUSH2 0x100 DUP1 DUP4 SLOAD DIV MUL DUP4 MSTORE SWAP2 PUSH1 0x20 ADD SWAP2 PUSH2 0x3256 JUMP JUMPDEST DUP3 ADD SWAP2 SWAP1 PUSH1 0x0 MSTORE PUSH1 0x20 PUSH1 0x0 KECCAK256 SWAP1 JUMPDEST DUP2 SLOAD DUP2 MSTORE SWAP1 PUSH1 0x1 ADD SWAP1 PUSH1 0x20 ADD DUP1 DUP4 GT PUSH2 0x3239 JUMPI DUP3 SWAP1 SUB PUSH1 0x1F AND DUP3 ADD SWAP2 JUMPDEST POP POP POP POP POP DUP2 MSTORE PUSH1 0x20 ADD PUSH1 0x7 DUP3 ADD DUP1 SLOAD PUSH2 0x326F SWAP1 PUSH2 0x4A9D JUMP JUMPDEST DUP1 PUSH1 0x1F ADD PUSH1 0x20 DUP1 SWAP2 DIV MUL PUSH1 0x20 ADD PUSH1 0x40 MLOAD SWAP1 DUP2 ADD PUSH1 0x40 MSTORE DUP1 SWAP3 SWAP2 SWAP1 DUP2 DUP2 MSTORE PUSH1 0x20 ADD DUP3 DUP1 SLOAD PUSH2 0x329B SWAP1 PUSH2 0x4A9D JUMP JUMPDEST DUP1 ISZERO PUSH2 0x32E8 JUMPI DUP1 PUSH1 0x1F LT PUSH2 0x32BD JUMPI PUSH2 0x100 DUP1 DUP4 SLOAD DIV MUL DUP4 MSTORE SWAP2 PUSH1 0x20 ADD SWAP2 PUSH2 0x32E8 JUMP JUMPDEST DUP3 ADD SWAP2 SWAP1 PUSH1 0x0 MSTORE PUSH1 0x20 PUSH1 0x0 KECCAK256 SWAP1 JUMPDEST DUP2 SLOAD DUP2 MSTORE SWAP1 PUSH1 0x1 ADD SWAP1 PUSH1 0x20 ADD DUP1 DUP4 GT PUSH2 0x32CB JUMPI DUP3 SWAP1 SUB PUSH1 0x1F AND DUP3 ADD SWAP2 JUMPDEST POP POP POP POP POP DUP2 MSTORE PUSH1 0x20 ADD PUSH1 0x8 DUP3 ADD SLOAD DUP2 MSTORE POP POP SWAP1 POP DUP1 PUSH1 0x0 ADD MLOAD DUP2 PUSH1 0x20 ADD MLOAD DUP3 PUSH1 0x40 ADD MLOAD DUP4 PUSH1 0x60 ADD MLOAD DUP5 PUSH1 0x80 ADD MLOAD DUP6 PUSH1 0xA0 ADD MLOAD DUP7 PUSH1 0xC0 ADD MLOAD DUP8 PUSH1 0xE0 ADD MLOAD DUP9 PUSH2 0x100 ADD MLOAD SWAP10 POP SWAP10 POP SWAP10 POP SWAP10 POP SWAP10 POP SWAP10 POP SWAP10 POP SWAP10 POP SWAP10 POP POP SWAP2 SWAP4 SWAP6 SWAP8 SWAP10 SWAP1 SWAP3 SWAP5 SWAP7 SWAP9 POP JUMP JUMPDEST PUSH1 0x33 DUP1 SLOAD PUSH1 0x1 PUSH1 0x1 PUSH1 0xA0 SHL SUB NOT AND CALLER SWAP1 DUP2 OR SWAP1 SWAP2 SSTORE PUSH1 0x0 SWAP1 DUP2 MSTORE PUSH1 0x43 PUSH1 0x20 MSTORE PUSH1 0x40 SWAP1 KECCAK256 SLOAD PUSH1 0xFF AND PUSH1 0x1 EQ DUP1 PUSH2 0x338A JUMPI POP PUSH1 0x0 SLOAD PUSH1 0x1 PUSH1 0x1 PUSH1 0xA0 SHL SUB AND CALLER EQ JUMPDEST PUSH2 0x33A6 JUMPI PUSH1 0x40 MLOAD PUSH3 0x461BCD PUSH1 0xE5 SHL DUP2 MSTORE PUSH1 0x4 ADD PUSH2 0xACE SWAP1 PUSH2 0x49E5 JUMP JUMPDEST PUSH1 0x38 SWAP8 SWAP1 SWAP8 SSTORE PUSH1 0x39 SWAP6 SWAP1 SWAP6 SSTORE PUSH1 0x3A SWAP4 SWAP1 SWAP4 SSTORE PUSH1 0x3B SWAP2 SWAP1 SWAP2 SSTORE PUSH1 0x3C SSTORE PUSH1 0x3D SSTORE PUSH1 0x3E SSTORE PUSH1 0x3F SSTORE JUMP JUMPDEST PUSH1 0x0 DUP5 PUSH1 0x40 MLOAD DUP1 PUSH1 0x40 ADD PUSH1 0x40 MSTORE DUP1 PUSH1 0x1 DUP2 MSTORE PUSH1 0x20 ADD PUSH1 0x3 PUSH1 0xFC SHL DUP2 MSTORE POP DUP1 PUSH1 0x40 MLOAD PUSH1 0x20 ADD PUSH2 0x33FA SWAP2 SWAP1 PUSH2 0x45F8 JUMP JUMPDEST PUSH1 0x40 MLOAD PUSH1 0x20 DUP2 DUP4 SUB SUB DUP2 MSTORE SWAP1 PUSH1 0x40 MSTORE DUP1 MLOAD SWAP1 PUSH1 0x20 ADD KECCAK256 PUSH2 0x3419 CALLER PUSH2 0x1515 JUMP JUMPDEST PUSH1 0x40 MLOAD PUSH1 0x20 ADD PUSH2 0x3429 SWAP2 SWAP1 PUSH2 0x45F8 JUMP JUMPDEST PUSH1 0x40 MLOAD PUSH1 0x20 DUP2 DUP4 SUB SUB DUP2 MSTORE SWAP1 PUSH1 0x40 MSTORE DUP1 MLOAD SWAP1 PUSH1 0x20 ADD KECCAK256 EQ PUSH2 0x345C JUMPI PUSH1 0x40 MLOAD PUSH3 0x461BCD PUSH1 0xE5 SHL DUP2 MSTORE PUSH1 0x4 ADD PUSH2 0xACE SWAP1 PUSH2 0x49BF JUMP JUMPDEST DUP1 PUSH1 0x40 MLOAD PUSH1 0x20 ADD PUSH2 0x346D SWAP2 SWAP1 PUSH2 0x45F8 JUMP JUMPDEST PUSH1 0x40 MLOAD PUSH1 0x20 DUP2 DUP4 SUB SUB DUP2 MSTORE SWAP1 PUSH1 0x40 MSTORE DUP1 MLOAD SWAP1 PUSH1 0x20 ADD KECCAK256 PUSH2 0x348C DUP4 PUSH2 0x1504 JUMP JUMPDEST PUSH1 0x40 MLOAD PUSH1 0x20 ADD PUSH2 0x349C SWAP2 SWAP1 PUSH2 0x45F8 JUMP JUMPDEST PUSH1 0x40 MLOAD PUSH1 0x20 DUP2 DUP4 SUB SUB DUP2 MSTORE SWAP1 PUSH1 0x40 MSTORE DUP1 MLOAD SWAP1 PUSH1 0x20 ADD KECCAK256 EQ PUSH2 0x34CF JUMPI PUSH1 0x40 MLOAD PUSH3 0x461BCD PUSH1 0xE5 SHL DUP2 MSTORE PUSH1 0x4 ADD PUSH2 0xACE SWAP1 PUSH2 0x4A36 JUMP JUMPDEST PUSH1 0x1 PUSH1 0x1 PUSH1 0xA0 SHL SUB DUP8 DUP2 AND PUSH1 0x0 SWAP1 DUP2 MSTORE PUSH1 0x44 PUSH1 0x20 MSTORE PUSH1 0x40 SWAP1 KECCAK256 PUSH1 0x3 ADD SLOAD AND CALLER EQ PUSH2 0x352D JUMPI PUSH1 0x40 MLOAD PUSH3 0x461BCD PUSH1 0xE5 SHL DUP2 MSTORE PUSH1 0x20 PUSH1 0x4 DUP3 ADD MSTORE PUSH1 0xF PUSH1 0x24 DUP3 ADD MSTORE PUSH15 0x24B73B30B634B21020BAB234BA37B9 PUSH1 0x89 SHL PUSH1 0x44 DUP3 ADD MSTORE PUSH1 0x64 ADD PUSH2 0xACE JUMP JUMPDEST PUSH1 0x35 SLOAD PUSH1 0x3B SLOAD PUSH1 0x40 MLOAD PUSH3 0xCA2987 PUSH1 0xE2 SHL DUP2 MSTORE CALLER PUSH1 0x4 DUP3 ADD MSTORE PUSH1 0x24 DUP2 ADD SWAP2 SWAP1 SWAP2 MSTORE PUSH1 0x1 PUSH1 0x1 PUSH1 0xA0 SHL SUB SWAP1 SWAP2 AND SWAP1 PUSH4 0x328A61C SWAP1 PUSH1 0x44 ADD PUSH1 0x0 PUSH1 0x40 MLOAD DUP1 DUP4 SUB DUP2 PUSH1 0x0 DUP8 DUP1 EXTCODESIZE ISZERO DUP1 ISZERO PUSH2 0x357C JUMPI PUSH1 0x0 DUP1 REVERT JUMPDEST POP GAS CALL ISZERO DUP1 ISZERO PUSH2 0x3590 JUMPI RETURNDATASIZE PUSH1 0x0 DUP1 RETURNDATACOPY RETURNDATASIZE PUSH1 0x0 REVERT JUMPDEST POP POP DUP8 MLOAD PUSH2 0x35A7 SWAP3 POP PUSH1 0x10 SWAP2 POP PUSH1 0x20 DUP10 ADD SWAP1 PUSH2 0x3CD8 JUMP JUMPDEST POP DUP5 MLOAD PUSH2 0x35BB SWAP1 PUSH1 0x11 SWAP1 PUSH1 0x20 DUP9 ADD SWAP1 PUSH2 0x3CD8 JUMP JUMPDEST POP DUP4 MLOAD PUSH2 0x35CF SWAP1 PUSH1 0x12 SWAP1 PUSH1 0x20 DUP8 ADD SWAP1 PUSH2 0x3CD8 JUMP JUMPDEST POP TIMESTAMP PUSH1 0x13 SSTORE PUSH1 0x1 PUSH1 0x1 PUSH1 0xA0 SHL SUB DUP8 AND PUSH1 0x0 SWAP1 DUP2 MSTORE PUSH1 0x45 PUSH1 0x20 MSTORE PUSH1 0x40 SWAP1 KECCAK256 PUSH1 0x10 DUP1 SLOAD SWAP1 SWAP2 SWAP1 DUP2 SWAP1 DUP4 SWAP1 PUSH2 0x3600 SWAP1 PUSH2 0x4A9D JUMP JUMPDEST PUSH2 0x360B SWAP3 SWAP2 SWAP1 PUSH2 0x3D5C JUMP JUMPDEST POP PUSH1 0x1 DUP3 ADD DUP2 PUSH1 0x1 ADD SWAP1 DUP1 SLOAD PUSH2 0x3620 SWAP1 PUSH2 0x4A9D JUMP JUMPDEST PUSH2 0x362B SWAP3 SWAP2 SWAP1 PUSH2 0x3D5C JUMP JUMPDEST POP PUSH1 0x2 DUP3 ADD DUP2 PUSH1 0x2 ADD SWAP1 DUP1 SLOAD PUSH2 0x3640 SWAP1 PUSH2 0x4A9D JUMP JUMPDEST PUSH2 0x364B SWAP3 SWAP2 SWAP1 PUSH2 0x3D5C JUMP JUMPDEST POP PUSH1 0x3 SWAP2 DUP3 ADD SLOAD SWAP2 ADD SSTORE PUSH1 0x40 DUP1 MLOAD DUP1 DUP3 ADD DUP3 MSTORE PUSH1 0x1 DUP2 MSTORE PUSH1 0x31 PUSH1 0xF8 SHL PUSH1 0x20 DUP1 DUP4 ADD SWAP2 DUP3 MSTORE PUSH1 0x1 PUSH1 0x1 PUSH1 0xA0 SHL SUB DUP12 AND PUSH1 0x0 SWAP1 DUP2 MSTORE PUSH1 0x42 SWAP1 SWAP2 MSTORE SWAP3 SWAP1 SWAP3 KECCAK256 SWAP1 MLOAD PUSH2 0x3693 SWAP3 SWAP1 PUSH2 0x3CD8 JUMP JUMPDEST POP PUSH1 0x40 MLOAD PUSH1 0x1 PUSH1 0x1 PUSH1 0xA0 SHL SUB DUP9 AND SWAP1 CALLER SWAP1 PUSH32 0x20CD58BA911ED241D89BC5A95DB6D653509665A2CD05C7FE08FCA46237150ED9 SWAP1 PUSH1 0x0 SWAP1 LOG3 POP PUSH1 0x1 SWAP7 SWAP6 POP POP POP POP POP POP JUMP JUMPDEST PUSH1 0x60 DUP1 PUSH1 0x60 DUP1 PUSH1 0x0 DUP1 PUSH1 0x46 PUSH1 0x0 DUP9 PUSH1 0x1 PUSH1 0x1 PUSH1 0xA0 SHL SUB AND PUSH1 0x1 PUSH1 0x1 PUSH1 0xA0 SHL SUB AND DUP2 MSTORE PUSH1 0x20 ADD SWAP1 DUP2 MSTORE PUSH1 0x20 ADD PUSH1 0x0 KECCAK256 PUSH1 0x40 MLOAD DUP1 PUSH1 0xA0 ADD PUSH1 0x40 MSTORE SWAP1 DUP2 PUSH1 0x0 DUP3 ADD DUP1 SLOAD PUSH2 0x3720 SWAP1 PUSH2 0x4A9D JUMP JUMPDEST DUP1 PUSH1 0x1F ADD PUSH1 0x20 DUP1 SWAP2 DIV MUL PUSH1 0x20 ADD PUSH1 0x40 MLOAD SWAP1 DUP2 ADD PUSH1 0x40 MSTORE DUP1 SWAP3 SWAP2 SWAP1 DUP2 DUP2 MSTORE PUSH1 0x20 ADD DUP3 DUP1 SLOAD PUSH2 0x374C SWAP1 PUSH2 0x4A9D JUMP JUMPDEST DUP1 ISZERO PUSH2 0x3799 JUMPI DUP1 PUSH1 0x1F LT PUSH2 0x376E JUMPI PUSH2 0x100 DUP1 DUP4 SLOAD DIV MUL DUP4 MSTORE SWAP2 PUSH1 0x20 ADD SWAP2 PUSH2 0x3799 JUMP JUMPDEST DUP3 ADD SWAP2 SWAP1 PUSH1 0x0 MSTORE PUSH1 0x20 PUSH1 0x0 KECCAK256 SWAP1 JUMPDEST DUP2 SLOAD DUP2 MSTORE SWAP1 PUSH1 0x1 ADD SWAP1 PUSH1 0x20 ADD DUP1 DUP4 GT PUSH2 0x377C JUMPI DUP3 SWAP1 SUB PUSH1 0x1F AND DUP3 ADD SWAP2 JUMPDEST POP POP POP POP POP DUP2 MSTORE PUSH1 0x20 ADD PUSH1 0x1 DUP3 ADD DUP1 SLOAD PUSH2 0x37B2 SWAP1 PUSH2 0x4A9D JUMP JUMPDEST DUP1 PUSH1 0x1F ADD PUSH1 0x20 DUP1 SWAP2 DIV MUL PUSH1 0x20 ADD PUSH1 0x40 MLOAD SWAP1 DUP2 ADD PUSH1 0x40 MSTORE DUP1 SWAP3 SWAP2 SWAP1 DUP2 DUP2 MSTORE PUSH1 0x20 ADD DUP3 DUP1 SLOAD PUSH2 0x37DE SWAP1 PUSH2 0x4A9D JUMP JUMPDEST DUP1 ISZERO PUSH2 0x382B JUMPI DUP1 PUSH1 0x1F LT PUSH2 0x3800 JUMPI PUSH2 0x100 DUP1 DUP4 SLOAD DIV MUL DUP4 MSTORE SWAP2 PUSH1 0x20 ADD SWAP2 PUSH2 0x382B JUMP JUMPDEST DUP3 ADD SWAP2 SWAP1 PUSH1 0x0 MSTORE PUSH1 0x20 PUSH1 0x0 KECCAK256 SWAP1 JUMPDEST DUP2 SLOAD DUP2 MSTORE SWAP1 PUSH1 0x1 ADD SWAP1 PUSH1 0x20 ADD DUP1 DUP4 GT PUSH2 0x380E JUMPI DUP3 SWAP1 SUB PUSH1 0x1F AND DUP3 ADD SWAP2 JUMPDEST POP POP POP POP POP DUP2 MSTORE PUSH1 0x20 ADD PUSH1 0x2 DUP3 ADD DUP1 SLOAD PUSH2 0x3844 SWAP1 PUSH2 0x4A9D JUMP JUMPDEST DUP1 PUSH1 0x1F ADD PUSH1 0x20 DUP1 SWAP2 DIV MUL PUSH1 0x20 ADD PUSH1 0x40 MLOAD SWAP1 DUP2 ADD PUSH1 0x40 MSTORE DUP1 SWAP3 SWAP2 SWAP1 DUP2 DUP2 MSTORE PUSH1 0x20 ADD DUP3 DUP1 SLOAD PUSH2 0x3870 SWAP1 PUSH2 0x4A9D JUMP JUMPDEST DUP1 ISZERO PUSH2 0x38BD JUMPI DUP1 PUSH1 0x1F LT PUSH2 0x3892 JUMPI PUSH2 0x100 DUP1 DUP4 SLOAD DIV MUL DUP4 MSTORE SWAP2 PUSH1 0x20 ADD SWAP2 PUSH2 0x38BD JUMP JUMPDEST DUP3 ADD SWAP2 SWAP1 PUSH1 0x0 MSTORE PUSH1 0x20 PUSH1 0x0 KECCAK256 SWAP1 JUMPDEST DUP2 SLOAD DUP2 MSTORE SWAP1 PUSH1 0x1 ADD SWAP1 PUSH1 0x20 ADD DUP1 DUP4 GT PUSH2 0x38A0 JUMPI DUP3 SWAP1 SUB PUSH1 0x1F AND DUP3 ADD SWAP2 JUMPDEST POP POP POP POP POP DUP2 MSTORE PUSH1 0x20 ADD PUSH1 0x3 DUP3 ADD DUP1 SLOAD PUSH2 0x38D6 SWAP1 PUSH2 0x4A9D JUMP JUMPDEST DUP1 PUSH1 0x1F ADD PUSH1 0x20 DUP1 SWAP2 DIV MUL PUSH1 0x20 ADD PUSH1 0x40 MLOAD SWAP1 DUP2 ADD PUSH1 0x40 MSTORE DUP1 SWAP3 SWAP2 SWAP1 DUP2 DUP2 MSTORE PUSH1 0x20 ADD DUP3 DUP1 SLOAD PUSH2 0x3902 SWAP1 PUSH2 0x4A9D JUMP JUMPDEST DUP1 ISZERO PUSH2 0x394F JUMPI DUP1 PUSH1 0x1F LT PUSH2 0x3924 JUMPI PUSH2 0x100 DUP1 DUP4 SLOAD DIV MUL DUP4 MSTORE SWAP2 PUSH1 0x20 ADD SWAP2 PUSH2 0x394F JUMP JUMPDEST DUP3 ADD SWAP2 SWAP1 PUSH1 0x0 MSTORE PUSH1 0x20 PUSH1 0x0 KECCAK256 SWAP1 JUMPDEST DUP2 SLOAD DUP2 MSTORE SWAP1 PUSH1 0x1 ADD SWAP1 PUSH1 0x20 ADD DUP1 DUP4 GT PUSH2 0x3932 JUMPI DUP3 SWAP1 SUB PUSH1 0x1F AND DUP3 ADD SWAP2 JUMPDEST POP POP POP SWAP2 DUP4 MSTORE POP POP PUSH1 0x4 SWAP2 SWAP1 SWAP2 ADD SLOAD PUSH1 0x20 SWAP2 DUP3 ADD MSTORE DUP2 MLOAD SWAP1 DUP3 ADD MLOAD PUSH1 0x40 DUP4 ADD MLOAD PUSH1 0x60 DUP5 ADD MLOAD PUSH1 0x80 SWAP1 SWAP5 ADD MLOAD SWAP3 SWAP12 SWAP2 SWAP11 POP SWAP9 POP SWAP2 SWAP7 POP SWAP5 POP SWAP3 POP POP POP JUMP JUMPDEST PUSH1 0x37 DUP2 DUP2 SLOAD DUP2 LT PUSH2 0x399C JUMPI PUSH1 0x0 DUP1 REVERT JUMPDEST SWAP1 PUSH1 0x0 MSTORE PUSH1 0x20 PUSH1 0x0 KECCAK256 ADD PUSH1 0x0 SWAP2 POP SWAP1 POP DUP1 SLOAD PUSH2 0x39B7 SWAP1 PUSH2 0x4A9D JUMP JUMPDEST DUP1 PUSH1 0x1F ADD PUSH1 0x20 DUP1 SWAP2 DIV MUL PUSH1 0x20 ADD PUSH1 0x40 MLOAD SWAP1 DUP2 ADD PUSH1 0x40 MSTORE DUP1 SWAP3 SWAP2 SWAP1 DUP2 DUP2 MSTORE PUSH1 0x20 ADD DUP3 DUP1 SLOAD PUSH2 0x39E3 SWAP1 PUSH2 0x4A9D JUMP JUMPDEST DUP1 ISZERO PUSH2 0x3A30 JUMPI DUP1 PUSH1 0x1F LT PUSH2 0x3A05 JUMPI PUSH2 0x100 DUP1 DUP4 SLOAD DIV MUL DUP4 MSTORE SWAP2 PUSH1 0x20 ADD SWAP2 PUSH2 0x3A30 JUMP JUMPDEST DUP3 ADD SWAP2 SWAP1 PUSH1 0x0 MSTORE PUSH1 0x20 PUSH1 0x0 KECCAK256 SWAP1 JUMPDEST DUP2 SLOAD DUP2 MSTORE SWAP1 PUSH1 0x1 ADD SWAP1 PUSH1 0x20 ADD DUP1 DUP4 GT PUSH2 0x3A13 JUMPI DUP3 SWAP1 SUB PUSH1 0x1F AND DUP3 ADD SWAP2 JUMPDEST POP POP POP POP POP DUP2 JUMP JUMPDEST PUSH1 0x0 SLOAD PUSH1 0x1 PUSH1 0x1 PUSH1 0xA0 SHL SUB AND CALLER EQ PUSH2 0x3A62 JUMPI PUSH1 0x40 MLOAD PUSH3 0x461BCD PUSH1 0xE5 SHL DUP2 MSTORE PUSH1 0x4 ADD PUSH2 0xACE SWAP1 PUSH2 0x4992 JUMP JUMPDEST PUSH1 0x1 PUSH1 0x1 PUSH1 0xA0 SHL SUB DUP2 AND PUSH2 0x3A75 JUMPI PUSH1 0x0 DUP1 REVERT JUMPDEST PUSH1 0x0 DUP1 SLOAD PUSH1 0x40 MLOAD PUSH1 0x1 PUSH1 0x1 PUSH1 0xA0 SHL SUB DUP1 DUP6 AND SWAP4 SWAP3 AND SWAP2 PUSH32 0x8BE0079C531659141344CD1FD0A4F28419497F9722A3DAAFE3B4186F6B6457E0 SWAP2 LOG3 PUSH1 0x0 DUP1 SLOAD PUSH1 0x1 PUSH1 0x1 PUSH1 0xA0 SHL SUB NOT AND PUSH1 0x1 PUSH1 0x1 PUSH1 0xA0 SHL SUB SWAP3 SWAP1 SWAP3 AND SWAP2 SWAP1 SWAP2 OR SWAP1 SSTORE JUMP JUMPDEST PUSH1 0x60 DUP1 PUSH1 0x60 DUP1 PUSH1 0x60 DUP1 PUSH1 0x60 DUP1 PUSH1 0x0 DUP1 PUSH1 0x48 PUSH1 0x0 DUP13 PUSH1 0x1 PUSH1 0x1 PUSH1 0xA0 SHL SUB AND PUSH1 0x1 PUSH1 0x1 PUSH1 0xA0 SHL SUB AND DUP2 MSTORE PUSH1 0x20 ADD SWAP1 DUP2 MSTORE PUSH1 0x20 ADD PUSH1 0x0 KECCAK256 PUSH1 0x40 MLOAD DUP1 PUSH2 0x120 ADD PUSH1 0x40 MSTORE SWAP1 DUP2 PUSH1 0x0 DUP3 ADD DUP1 SLOAD PUSH2 0x2E71 SWAP1 PUSH2 0x4A9D JUMP JUMPDEST DUP8 MLOAD PUSH1 0x0 SWAP1 PUSH2 0x3B36 SWAP1 PUSH1 0x1 SWAP1 PUSH1 0x20 DUP13 ADD SWAP1 PUSH2 0x3CD8 JUMP JUMPDEST POP DUP8 MLOAD PUSH2 0x3B4A SWAP1 PUSH1 0x2 SWAP1 PUSH1 0x20 DUP12 ADD SWAP1 PUSH2 0x3CD8 JUMP JUMPDEST POP DUP7 MLOAD PUSH2 0x3B5E SWAP1 PUSH1 0x3 SWAP1 PUSH1 0x20 DUP11 ADD SWAP1 PUSH2 0x3CD8 JUMP JUMPDEST POP DUP6 MLOAD PUSH2 0x3B72 SWAP1 PUSH1 0x4 SWAP1 PUSH1 0x20 DUP10 ADD SWAP1 PUSH2 0x3CD8 JUMP JUMPDEST POP PUSH1 0x5 DUP1 SLOAD PUSH1 0xFF NOT AND DUP6 ISZERO ISZERO OR SWAP1 SSTORE DUP2 MLOAD PUSH2 0x3B94 SWAP1 PUSH1 0x6 SWAP1 PUSH1 0x20 DUP6 ADD SWAP1 PUSH2 0x3CD8 JUMP JUMPDEST POP PUSH1 0x1 DUP4 ISZERO ISZERO EQ ISZERO PUSH2 0x3BAF JUMPI PUSH1 0x7 DUP1 SLOAD PUSH1 0xFF NOT AND DUP5 ISZERO ISZERO OR SWAP1 SSTORE JUMPDEST PUSH1 0x1 PUSH1 0x1 PUSH1 0xA0 SHL SUB DUP11 AND PUSH1 0x0 SWAP1 DUP2 MSTORE PUSH1 0x40 PUSH1 0x20 DUP2 SWAP1 MSTORE SWAP1 KECCAK256 PUSH1 0x1 DUP1 SLOAD SWAP1 SWAP2 SWAP1 DUP2 SWAP1 DUP4 SWAP1 PUSH2 0x3BDB SWAP1 PUSH2 0x4A9D JUMP JUMPDEST PUSH2 0x3BE6 SWAP3 SWAP2 SWAP1 PUSH2 0x3D5C JUMP JUMPDEST POP PUSH1 0x1 DUP3 ADD DUP2 PUSH1 0x1 ADD SWAP1 DUP1 SLOAD PUSH2 0x3BFB SWAP1 PUSH2 0x4A9D JUMP JUMPDEST PUSH2 0x3C06 SWAP3 SWAP2 SWAP1 PUSH2 0x3D5C JUMP JUMPDEST POP PUSH1 0x2 DUP3 ADD DUP2 PUSH1 0x2 ADD SWAP1 DUP1 SLOAD PUSH2 0x3C1B SWAP1 PUSH2 0x4A9D JUMP JUMPDEST PUSH2 0x3C26 SWAP3 SWAP2 SWAP1 PUSH2 0x3D5C JUMP JUMPDEST POP PUSH1 0x3 DUP3 ADD DUP2 PUSH1 0x3 ADD SWAP1 DUP1 SLOAD PUSH2 0x3C3B SWAP1 PUSH2 0x4A9D JUMP JUMPDEST PUSH2 0x3C46 SWAP3 SWAP2 SWAP1 PUSH2 0x3D5C JUMP JUMPDEST POP PUSH1 0x4 DUP3 DUP2 ADD SLOAD SWAP1 DUP3 ADD DUP1 SLOAD PUSH1 0xFF NOT AND PUSH1 0xFF SWAP1 SWAP3 AND ISZERO ISZERO SWAP2 SWAP1 SWAP2 OR SWAP1 SSTORE PUSH1 0x5 DUP1 DUP4 ADD DUP1 SLOAD SWAP2 DUP4 ADD SWAP2 PUSH2 0x3C77 SWAP1 PUSH2 0x4A9D JUMP JUMPDEST PUSH2 0x3C82 SWAP3 SWAP2 SWAP1 PUSH2 0x3D5C JUMP JUMPDEST POP PUSH1 0x6 SWAP2 DUP3 ADD SLOAD SWAP2 ADD DUP1 SLOAD PUSH1 0xFF NOT AND PUSH1 0xFF SWAP1 SWAP3 AND ISZERO ISZERO SWAP2 SWAP1 SWAP2 OR SWAP1 SSTORE PUSH1 0x1 PUSH1 0x1 PUSH1 0xA0 SHL SUB DUP11 AND PUSH1 0x0 SWAP1 DUP2 MSTORE PUSH1 0x41 PUSH1 0x20 SWAP1 DUP2 MSTORE PUSH1 0x40 SWAP1 SWAP2 KECCAK256 DUP7 MLOAD PUSH2 0x3CC7 SWAP3 DUP9 ADD SWAP1 PUSH2 0x3CD8 JUMP JUMPDEST POP PUSH1 0x1 SWAP11 SWAP10 POP POP POP POP POP POP POP POP POP POP JUMP JUMPDEST DUP3 DUP1 SLOAD PUSH2 0x3CE4 SWAP1 PUSH2 0x4A9D JUMP JUMPDEST SWAP1 PUSH1 0x0 MSTORE PUSH1 0x20 PUSH1 0x0 KECCAK256 SWAP1 PUSH1 0x1F ADD PUSH1 0x20 SWAP1 DIV DUP2 ADD SWAP3 DUP3 PUSH2 0x3D06 JUMPI PUSH1 0x0 DUP6 SSTORE PUSH2 0x3D4C JUMP JUMPDEST DUP3 PUSH1 0x1F LT PUSH2 0x3D1F JUMPI DUP1 MLOAD PUSH1 0xFF NOT AND DUP4 DUP1 ADD OR DUP6 SSTORE PUSH2 0x3D4C JUMP JUMPDEST DUP3 DUP1 ADD PUSH1 0x1 ADD DUP6 SSTORE DUP3 ISZERO PUSH2 0x3D4C JUMPI SWAP2 DUP3 ADD JUMPDEST DUP3 DUP2 GT ISZERO PUSH2 0x3D4C JUMPI DUP3 MLOAD DUP3 SSTORE SWAP2 PUSH1 0x20 ADD SWAP2 SWAP1 PUSH1 0x1 ADD SWAP1 PUSH2 0x3D31 JUMP JUMPDEST POP PUSH2 0x3D58 SWAP3 SWAP2 POP PUSH2 0x3DD7 JUMP JUMPDEST POP SWAP1 JUMP JUMPDEST DUP3 DUP1 SLOAD PUSH2 0x3D68 SWAP1 PUSH2 0x4A9D JUMP JUMPDEST SWAP1 PUSH1 0x0 MSTORE PUSH1 0x20 PUSH1 0x0 KECCAK256 SWAP1 PUSH1 0x1F ADD PUSH1 0x20 SWAP1 DIV DUP2 ADD SWAP3 DUP3 PUSH2 0x3D8A JUMPI PUSH1 0x0 DUP6 SSTORE PUSH2 0x3D4C JUMP JUMPDEST DUP3 PUSH1 0x1F LT PUSH2 0x3D9B JUMPI DUP1 SLOAD DUP6 SSTORE PUSH2 0x3D4C JUMP JUMPDEST DUP3 DUP1 ADD PUSH1 0x1 ADD DUP6 SSTORE DUP3 ISZERO PUSH2 0x3D4C JUMPI PUSH1 0x0 MSTORE PUSH1 0x20 PUSH1 0x0 KECCAK256 SWAP2 PUSH1 0x1F ADD PUSH1 0x20 SWAP1 DIV DUP3 ADD JUMPDEST DUP3 DUP2 GT ISZERO PUSH2 0x3D4C JUMPI DUP3 SLOAD DUP3 SSTORE SWAP2 PUSH1 0x1 ADD SWAP2 SWAP1 PUSH1 0x1 ADD SWAP1 PUSH2 0x3DBC JUMP JUMPDEST JUMPDEST DUP1 DUP3 GT ISZERO PUSH2 0x3D58 JUMPI PUSH1 0x0 DUP2 SSTORE PUSH1 0x1 ADD PUSH2 0x3DD8 JUMP JUMPDEST DUP1 CALLDATALOAD PUSH1 0x1 PUSH1 0x1 PUSH1 0xA0 SHL SUB DUP2 AND DUP2 EQ PUSH2 0x1171 JUMPI PUSH1 0x0 DUP1 REVERT JUMPDEST DUP1 CALLDATALOAD DUP1 ISZERO ISZERO DUP2 EQ PUSH2 0x1171 JUMPI PUSH1 0x0 DUP1 REVERT JUMPDEST PUSH1 0x0 DUP3 PUSH1 0x1F DUP4 ADD SLT PUSH2 0x3E24 JUMPI PUSH1 0x0 DUP1 REVERT JUMPDEST DUP2 CALLDATALOAD PUSH8 0xFFFFFFFFFFFFFFFF DUP1 DUP3 GT ISZERO PUSH2 0x3E3F JUMPI PUSH2 0x3E3F PUSH2 0x4AD8 JUMP JUMPDEST PUSH1 0x40 MLOAD PUSH1 0x1F DUP4 ADD PUSH1 0x1F NOT SWAP1 DUP2 AND PUSH1 0x3F ADD AND DUP2 ADD SWAP1 DUP3 DUP3 GT DUP2 DUP4 LT OR ISZERO PUSH2 0x3E67 JUMPI PUSH2 0x3E67 PUSH2 0x4AD8 JUMP JUMPDEST DUP2 PUSH1 0x40 MSTORE DUP4 DUP2 MSTORE DUP7 PUSH1 0x20 DUP6 DUP9 ADD ADD GT ISZERO PUSH2 0x3E80 JUMPI PUSH1 0x0 DUP1 REVERT JUMPDEST DUP4 PUSH1 0x20 DUP8 ADD PUSH1 0x20 DUP4 ADD CALLDATACOPY PUSH1 0x0 PUSH1 0x20 DUP6 DUP4 ADD ADD MSTORE DUP1 SWAP5 POP POP POP POP POP SWAP3 SWAP2 POP POP JUMP JUMPDEST PUSH1 0x0 PUSH1 0x20 DUP3 DUP5 SUB SLT ISZERO PUSH2 0x3EB2 JUMPI PUSH1 0x0 DUP1 REVERT JUMPDEST PUSH2 0x3EBB DUP3 PUSH2 0x3DEC JUMP JUMPDEST SWAP4 SWAP3 POP POP POP JUMP JUMPDEST PUSH1 0x0 DUP1 PUSH1 0x0 DUP1 PUSH1 0x80 DUP6 DUP8 SUB SLT ISZERO PUSH2 0x3ED8 JUMPI PUSH1 0x0 DUP1 REVERT JUMPDEST PUSH2 0x3EE1 DUP6 PUSH2 0x3DEC JUMP JUMPDEST SWAP4 POP PUSH1 0x20 DUP6 ADD CALLDATALOAD PUSH8 0xFFFFFFFFFFFFFFFF DUP1 DUP3 GT ISZERO PUSH2 0x3EFE JUMPI PUSH1 0x0 DUP1 REVERT JUMPDEST PUSH2 0x3F0A DUP9 DUP4 DUP10 ADD PUSH2 0x3E13 JUMP JUMPDEST SWAP5 POP PUSH1 0x40 DUP8 ADD CALLDATALOAD SWAP2 POP DUP1 DUP3 GT ISZERO PUSH2 0x3F20 JUMPI PUSH1 0x0 DUP1 REVERT JUMPDEST PUSH2 0x3F2C DUP9 DUP4 DUP10 ADD PUSH2 0x3E13 JUMP JUMPDEST SWAP4 POP PUSH1 0x60 DUP8 ADD CALLDATALOAD SWAP2 POP DUP1 DUP3 GT ISZERO PUSH2 0x3F42 JUMPI PUSH1 0x0 DUP1 REVERT JUMPDEST POP PUSH2 0x3F4F DUP8 DUP3 DUP9 ADD PUSH2 0x3E13 JUMP JUMPDEST SWAP2 POP POP SWAP3 SWAP6 SWAP2 SWAP5 POP SWAP3 POP JUMP JUMPDEST PUSH1 0x0 DUP1 PUSH1 0x0 DUP1 PUSH1 0x0 PUSH1 0xA0 DUP7 DUP9 SUB SLT ISZERO PUSH2 0x3F73 JUMPI PUSH1 0x0 DUP1 REVERT JUMPDEST PUSH2 0x3F7C DUP7 PUSH2 0x3DEC JUMP JUMPDEST SWAP5 POP PUSH1 0x20 DUP7 ADD CALLDATALOAD PUSH8 0xFFFFFFFFFFFFFFFF DUP1 DUP3 GT ISZERO PUSH2 0x3F99 JUMPI PUSH1 0x0 DUP1 REVERT JUMPDEST PUSH2 0x3FA5 DUP10 DUP4 DUP11 ADD PUSH2 0x3E13 JUMP JUMPDEST SWAP6 POP PUSH1 0x40 DUP9 ADD CALLDATALOAD SWAP2 POP DUP1 DUP3 GT ISZERO PUSH2 0x3FBB JUMPI PUSH1 0x0 DUP1 REVERT JUMPDEST PUSH2 0x3FC7 DUP10 DUP4 DUP11 ADD PUSH2 0x3E13 JUMP JUMPDEST SWAP5 POP PUSH1 0x60 DUP9 ADD CALLDATALOAD SWAP2 POP DUP1 DUP3 GT ISZERO PUSH2 0x3FDD JUMPI PUSH1 0x0 DUP1 REVERT JUMPDEST PUSH2 0x3FE9 DUP10 DUP4 DUP11 ADD PUSH2 0x3E13 JUMP JUMPDEST SWAP4 POP PUSH1 0x80 DUP9 ADD CALLDATALOAD SWAP2 POP DUP1 DUP3 GT ISZERO PUSH2 0x3FFF JUMPI PUSH1 0x0 DUP1 REVERT JUMPDEST POP PUSH2 0x400C DUP9 DUP3 DUP10 ADD PUSH2 0x3E13 JUMP JUMPDEST SWAP2 POP POP SWAP3 SWAP6 POP SWAP3 SWAP6 SWAP1 SWAP4 POP JUMP JUMPDEST PUSH1 0x0 DUP1 PUSH1 0x0 DUP1 PUSH1 0x0 DUP1 PUSH1 0x0 DUP1 PUSH2 0x100 DUP10 DUP12 SUB SLT ISZERO PUSH2 0x4036 JUMPI PUSH1 0x0 DUP1 REVERT JUMPDEST PUSH2 0x403F DUP10 PUSH2 0x3DEC JUMP JUMPDEST SWAP8 POP PUSH1 0x20 DUP10 ADD CALLDATALOAD PUSH8 0xFFFFFFFFFFFFFFFF DUP1 DUP3 GT ISZERO PUSH2 0x405C JUMPI PUSH1 0x0 DUP1 REVERT JUMPDEST PUSH2 0x4068 DUP13 DUP4 DUP14 ADD PUSH2 0x3E13 JUMP JUMPDEST SWAP9 POP PUSH1 0x40 DUP12 ADD CALLDATALOAD SWAP2 POP DUP1 DUP3 GT ISZERO PUSH2 0x407E JUMPI PUSH1 0x0 DUP1 REVERT JUMPDEST PUSH2 0x408A DUP13 DUP4 DUP14 ADD PUSH2 0x3E13 JUMP JUMPDEST SWAP8 POP PUSH1 0x60 DUP12 ADD CALLDATALOAD SWAP2 POP DUP1 DUP3 GT ISZERO PUSH2 0x40A0 JUMPI PUSH1 0x0 DUP1 REVERT JUMPDEST PUSH2 0x40AC DUP13 DUP4 DUP14 ADD PUSH2 0x3E13 JUMP JUMPDEST SWAP7 POP PUSH1 0x80 DUP12 ADD CALLDATALOAD SWAP2 POP DUP1 DUP3 GT ISZERO PUSH2 0x40C2 JUMPI PUSH1 0x0 DUP1 REVERT JUMPDEST PUSH2 0x40CE DUP13 DUP4 DUP14 ADD PUSH2 0x3E13 JUMP JUMPDEST SWAP6 POP PUSH1 0xA0 DUP12 ADD CALLDATALOAD SWAP2 POP DUP1 DUP3 GT ISZERO PUSH2 0x40E4 JUMPI PUSH1 0x0 DUP1 REVERT JUMPDEST PUSH2 0x40F0 DUP13 DUP4 DUP14 ADD PUSH2 0x3E13 JUMP JUMPDEST SWAP5 POP PUSH2 0x40FE PUSH1 0xC0 DUP13 ADD PUSH2 0x3E03 JUMP JUMPDEST SWAP4 POP PUSH1 0xE0 DUP12 ADD CALLDATALOAD SWAP2 POP DUP1 DUP3 GT ISZERO PUSH2 0x4114 JUMPI PUSH1 0x0 DUP1 REVERT JUMPDEST POP PUSH2 0x4121 DUP12 DUP3 DUP13 ADD PUSH2 0x3E13 JUMP JUMPDEST SWAP2 POP POP SWAP3 SWAP6 SWAP9 POP SWAP3 SWAP6 SWAP9 SWAP1 SWAP4 SWAP7 POP JUMP JUMPDEST PUSH1 0x0 DUP1 PUSH1 0x0 DUP1 PUSH1 0x0 DUP1 PUSH1 0x0 DUP1 PUSH2 0x100 DUP10 DUP12 SUB SLT ISZERO PUSH2 0x414E JUMPI PUSH1 0x0 DUP1 REVERT JUMPDEST PUSH2 0x4157 DUP10 PUSH2 0x3DEC JUMP JUMPDEST SWAP8 POP PUSH1 0x20 DUP10 ADD CALLDATALOAD PUSH8 0xFFFFFFFFFFFFFFFF DUP1 DUP3 GT ISZERO PUSH2 0x4174 JUMPI PUSH1 0x0 DUP1 REVERT JUMPDEST PUSH2 0x4180 DUP13 DUP4 DUP14 ADD PUSH2 0x3E13 JUMP JUMPDEST SWAP9 POP PUSH1 0x40 DUP12 ADD CALLDATALOAD SWAP2 POP DUP1 DUP3 GT ISZERO PUSH2 0x4196 JUMPI PUSH1 0x0 DUP1 REVERT JUMPDEST PUSH2 0x41A2 DUP13 DUP4 DUP14 ADD PUSH2 0x3E13 JUMP JUMPDEST SWAP8 POP PUSH1 0x60 DUP12 ADD CALLDATALOAD SWAP2 POP DUP1 DUP3 GT ISZERO PUSH2 0x41B8 JUMPI PUSH1 0x0 DUP1 REVERT JUMPDEST PUSH2 0x41C4 DUP13 DUP4 DUP14 ADD PUSH2 0x3E13 JUMP JUMPDEST SWAP7 POP PUSH1 0x80 DUP12 ADD CALLDATALOAD SWAP2 POP DUP1 DUP3 GT ISZERO PUSH2 0x41DA JUMPI PUSH1 0x0 DUP1 REVERT JUMPDEST PUSH2 0x41E6 DUP13 DUP4 DUP14 ADD PUSH2 0x3E13 JUMP JUMPDEST SWAP6 POP PUSH1 0xA0 DUP12 ADD CALLDATALOAD SWAP2 POP DUP1 DUP3 GT ISZERO PUSH2 0x41FC JUMPI PUSH1 0x0 DUP1 REVERT JUMPDEST PUSH2 0x4208 DUP13 DUP4 DUP14 ADD PUSH2 0x3E13 JUMP JUMPDEST SWAP5 POP PUSH1 0xC0 DUP12 ADD CALLDATALOAD SWAP2 POP DUP1 DUP3 GT ISZERO PUSH2 0x421E JUMPI PUSH1 0x0 DUP1 REVERT JUMPDEST PUSH2 0x40FE DUP13 DUP4 DUP14 ADD PUSH2 0x3E13 JUMP JUMPDEST PUSH1 0x0 DUP1 PUSH1 0x0 DUP1 PUSH1 0x0 DUP1 PUSH1 0x0 DUP1 PUSH1 0x0 PUSH2 0x120 DUP11 DUP13 SUB SLT ISZERO PUSH2 0x4249 JUMPI PUSH1 0x0 DUP1 REVERT JUMPDEST PUSH2 0x4252 DUP11 PUSH2 0x3DEC JUMP JUMPDEST SWAP9 POP PUSH1 0x20 DUP11 ADD CALLDATALOAD PUSH8 0xFFFFFFFFFFFFFFFF DUP1 DUP3 GT ISZERO PUSH2 0x426F JUMPI PUSH1 0x0 DUP1 REVERT JUMPDEST PUSH2 0x427B DUP14 DUP4 DUP15 ADD PUSH2 0x3E13 JUMP JUMPDEST SWAP10 POP PUSH1 0x40 DUP13 ADD CALLDATALOAD SWAP2 POP DUP1 DUP3 GT ISZERO PUSH2 0x4291 JUMPI PUSH1 0x0 DUP1 REVERT JUMPDEST PUSH2 0x429D DUP14 DUP4 DUP15 ADD PUSH2 0x3E13 JUMP JUMPDEST SWAP9 POP PUSH1 0x60 DUP13 ADD CALLDATALOAD SWAP2 POP DUP1 DUP3 GT ISZERO PUSH2 0x42B3 JUMPI PUSH1 0x0 DUP1 REVERT JUMPDEST PUSH2 0x42BF DUP14 DUP4 DUP15 ADD PUSH2 0x3E13 JUMP JUMPDEST SWAP8 POP PUSH1 0x80 DUP13 ADD CALLDATALOAD SWAP2 POP DUP1 DUP3 GT ISZERO PUSH2 0x42D5 JUMPI PUSH1 0x0 DUP1 REVERT JUMPDEST PUSH2 0x42E1 DUP14 DUP4 DUP15 ADD PUSH2 0x3E13 JUMP JUMPDEST SWAP7 POP PUSH1 0xA0 DUP13 ADD CALLDATALOAD SWAP2 POP DUP1 DUP3 GT ISZERO PUSH2 0x42F7 JUMPI PUSH1 0x0 DUP1 REVERT JUMPDEST PUSH2 0x4303 DUP14 DUP4 DUP15 ADD PUSH2 0x3E13 JUMP JUMPDEST SWAP6 POP PUSH1 0xC0 DUP13 ADD CALLDATALOAD SWAP2 POP DUP1 DUP3 GT ISZERO PUSH2 0x4319 JUMPI PUSH1 0x0 DUP1 REVERT JUMPDEST PUSH2 0x4325 DUP14 DUP4 DUP15 ADD PUSH2 0x3E13 JUMP JUMPDEST SWAP5 POP PUSH1 0xE0 DUP13 ADD CALLDATALOAD SWAP2 POP DUP1 DUP3 GT ISZERO PUSH2 0x433B JUMPI PUSH1 0x0 DUP1 REVERT JUMPDEST PUSH2 0x4347 DUP14 DUP4 DUP15 ADD PUSH2 0x3E13 JUMP JUMPDEST SWAP4 POP PUSH2 0x100 DUP13 ADD CALLDATALOAD SWAP2 POP DUP1 DUP3 GT ISZERO PUSH2 0x435E JUMPI PUSH1 0x0 DUP1 REVERT JUMPDEST POP PUSH2 0x436B DUP13 DUP3 DUP14 ADD PUSH2 0x3E13 JUMP JUMPDEST SWAP2 POP POP SWAP3 SWAP6 SWAP9 POP SWAP3 SWAP6 SWAP9 POP SWAP3 SWAP6 SWAP9 JUMP JUMPDEST PUSH1 0x0 DUP1 PUSH1 0x0 DUP1 PUSH1 0x0 DUP1 PUSH1 0x0 DUP1 PUSH2 0x100 DUP10 DUP12 SUB SLT ISZERO PUSH2 0x4398 JUMPI PUSH1 0x0 DUP1 REVERT JUMPDEST DUP9 CALLDATALOAD PUSH8 0xFFFFFFFFFFFFFFFF DUP1 DUP3 GT ISZERO PUSH2 0x43B0 JUMPI PUSH1 0x0 DUP1 REVERT JUMPDEST PUSH2 0x43BC DUP13 DUP4 DUP14 ADD PUSH2 0x3E13 JUMP JUMPDEST SWAP10 POP PUSH1 0x20 DUP12 ADD CALLDATALOAD SWAP2 POP DUP1 DUP3 GT ISZERO PUSH2 0x43D2 JUMPI PUSH1 0x0 DUP1 REVERT JUMPDEST PUSH2 0x43DE DUP13 DUP4 DUP14 ADD PUSH2 0x3E13 JUMP JUMPDEST SWAP9 POP PUSH1 0x40 DUP12 ADD CALLDATALOAD SWAP2 POP DUP1 DUP3 GT ISZERO PUSH2 0x43F4 JUMPI PUSH1 0x0 DUP1 REVERT JUMPDEST POP PUSH2 0x4401 DUP12 DUP3 DUP13 ADD PUSH2 0x3E13 JUMP JUMPDEST SWAP7 POP POP PUSH2 0x4410 PUSH1 0x60 DUP11 ADD PUSH2 0x3DEC JUMP JUMPDEST SWAP5 POP PUSH2 0x441E PUSH1 0x80 DUP11 ADD PUSH2 0x3DEC JUMP JUMPDEST SWAP4 POP PUSH2 0x442C PUSH1 0xA0 DUP11 ADD PUSH2 0x3DEC JUMP JUMPDEST SWAP3 POP PUSH2 0x443A PUSH1 0xC0 DUP11 ADD PUSH2 0x3DEC JUMP JUMPDEST SWAP2 POP PUSH2 0x4448 PUSH1 0xE0 DUP11 ADD PUSH2 0x3DEC JUMP JUMPDEST SWAP1 POP SWAP3 SWAP6 SWAP9 POP SWAP3 SWAP6 SWAP9 SWAP1 SWAP4 SWAP7 POP JUMP JUMPDEST PUSH1 0x0 DUP1 PUSH1 0x0 DUP1 PUSH1 0x0 DUP1 PUSH1 0x0 PUSH1 0xE0 DUP9 DUP11 SUB SLT ISZERO PUSH2 0x4472 JUMPI PUSH1 0x0 DUP1 REVERT JUMPDEST DUP8 CALLDATALOAD PUSH8 0xFFFFFFFFFFFFFFFF DUP1 DUP3 GT ISZERO PUSH2 0x448A JUMPI PUSH1 0x0 DUP1 REVERT JUMPDEST PUSH2 0x4496 DUP12 DUP4 DUP13 ADD PUSH2 0x3E13 JUMP JUMPDEST SWAP9 POP PUSH1 0x20 DUP11 ADD CALLDATALOAD SWAP2 POP DUP1 DUP3 GT ISZERO PUSH2 0x44AC JUMPI PUSH1 0x0 DUP1 REVERT JUMPDEST PUSH2 0x44B8 DUP12 DUP4 DUP13 ADD PUSH2 0x3E13 JUMP JUMPDEST SWAP8 POP PUSH1 0x40 DUP11 ADD CALLDATALOAD SWAP2 POP DUP1 DUP3 GT ISZERO PUSH2 0x44CE JUMPI PUSH1 0x0 DUP1 REVERT JUMPDEST PUSH2 0x44DA DUP12 DUP4 DUP13 ADD PUSH2 0x3E13 JUMP JUMPDEST SWAP7 POP PUSH1 0x60 DUP11 ADD CALLDATALOAD SWAP2 POP DUP1 DUP3 GT ISZERO PUSH2 0x44F0 JUMPI PUSH1 0x0 DUP1 REVERT JUMPDEST PUSH2 0x44FC DUP12 DUP4 DUP13 ADD PUSH2 0x3E13 JUMP JUMPDEST SWAP6 POP PUSH1 0x80 DUP11 ADD CALLDATALOAD SWAP2 POP DUP1 DUP3 GT ISZERO PUSH2 0x4512 JUMPI PUSH1 0x0 DUP1 REVERT JUMPDEST PUSH2 0x451E DUP12 DUP4 DUP13 ADD PUSH2 0x3E13 JUMP JUMPDEST SWAP5 POP PUSH2 0x452C PUSH1 0xA0 DUP12 ADD PUSH2 0x3E03 JUMP JUMPDEST SWAP4 POP PUSH1 0xC0 DUP11 ADD CALLDATALOAD SWAP2 POP DUP1 DUP3 GT ISZERO PUSH2 0x4542 JUMPI PUSH1 0x0 DUP1 REVERT JUMPDEST POP PUSH2 0x454F DUP11 DUP3 DUP12 ADD PUSH2 0x3E13 JUMP JUMPDEST SWAP2 POP POP SWAP3 SWAP6 SWAP9 SWAP2 SWAP5 SWAP8 POP SWAP3 SWAP6 POP JUMP JUMPDEST PUSH1 0x0 PUSH1 0x20 DUP3 DUP5 SUB SLT ISZERO PUSH2 0x4570 JUMPI PUSH1 0x0 DUP1 REVERT JUMPDEST POP CALLDATALOAD SWAP2 SWAP1 POP JUMP JUMPDEST PUSH1 0x0 DUP1 PUSH1 0x0 DUP1 PUSH1 0x0 DUP1 PUSH1 0x0 DUP1 PUSH2 0x100 DUP10 DUP12 SUB SLT ISZERO PUSH2 0x4594 JUMPI PUSH1 0x0 DUP1 REVERT JUMPDEST POP POP DUP7 CALLDATALOAD SWAP9 PUSH1 0x20 DUP9 ADD CALLDATALOAD SWAP9 POP PUSH1 0x40 DUP9 ADD CALLDATALOAD SWAP8 PUSH1 0x60 DUP2 ADD CALLDATALOAD SWAP8 POP PUSH1 0x80 DUP2 ADD CALLDATALOAD SWAP7 POP PUSH1 0xA0 DUP2 ADD CALLDATALOAD SWAP6 POP PUSH1 0xC0 DUP2 ADD CALLDATALOAD SWAP5 POP PUSH1 0xE0 ADD CALLDATALOAD SWAP3 POP SWAP1 POP JUMP JUMPDEST PUSH1 0x0 DUP2 MLOAD DUP1 DUP5 MSTORE PUSH2 0x45E4 DUP2 PUSH1 0x20 DUP7 ADD PUSH1 0x20 DUP7 ADD PUSH2 0x4A6D JUMP JUMPDEST PUSH1 0x1F ADD PUSH1 0x1F NOT AND SWAP3 SWAP1 SWAP3 ADD PUSH1 0x20 ADD SWAP3 SWAP2 POP POP JUMP JUMPDEST PUSH1 0x0 DUP3 MLOAD PUSH2 0x460A DUP2 DUP5 PUSH1 0x20 DUP8 ADD PUSH2 0x4A6D JUMP JUMPDEST SWAP2 SWAP1 SWAP2 ADD SWAP3 SWAP2 POP POP JUMP JUMPDEST PUSH1 0x0 PUSH1 0x20 DUP1 DUP4 ADD DUP2 DUP5 MSTORE DUP1 DUP6 MLOAD DUP1 DUP4 MSTORE PUSH1 0x40 DUP7 ADD SWAP2 POP PUSH1 0x40 DUP2 PUSH1 0x5 SHL DUP8 ADD ADD SWAP3 POP DUP4 DUP8 ADD PUSH1 0x0 JUMPDEST DUP3 DUP2 LT ISZERO PUSH2 0x4669 JUMPI PUSH1 0x3F NOT DUP9 DUP7 SUB ADD DUP5 MSTORE PUSH2 0x4657 DUP6 DUP4 MLOAD PUSH2 0x45CC JUMP JUMPDEST SWAP5 POP SWAP3 DUP6 ADD SWAP3 SWAP1 DUP6 ADD SWAP1 PUSH1 0x1 ADD PUSH2 0x463B JUMP JUMPDEST POP SWAP3 SWAP8 SWAP7 POP POP POP POP POP POP POP JUMP JUMPDEST PUSH1 0x20 DUP2 MSTORE PUSH1 0x0 PUSH2 0x3EBB PUSH1 0x20 DUP4 ADD DUP5 PUSH2 0x45CC JUMP JUMPDEST PUSH1 0x0 PUSH2 0x100 DUP1 DUP4 MSTORE PUSH2 0x469D DUP2 DUP5 ADD DUP13 PUSH2 0x45CC JUMP JUMPDEST SWAP1 POP DUP3 DUP2 SUB PUSH1 0x20 DUP5 ADD MSTORE PUSH2 0x46B1 DUP2 DUP12 PUSH2 0x45CC JUMP JUMPDEST SWAP1 POP DUP3 DUP2 SUB PUSH1 0x40 DUP5 ADD MSTORE PUSH2 0x46C5 DUP2 DUP11 PUSH2 0x45CC JUMP JUMPDEST PUSH1 0x1 PUSH1 0x1 PUSH1 0xA0 SHL SUB SWAP9 DUP10 AND PUSH1 0x60 DUP6 ADD MSTORE SWAP7 DUP9 AND PUSH1 0x80 DUP5 ADD MSTORE POP POP SWAP3 DUP6 AND PUSH1 0xA0 DUP5 ADD MSTORE SWAP1 DUP5 AND PUSH1 0xC0 DUP4 ADD MSTORE SWAP1 SWAP3 AND PUSH1 0xE0 SWAP1 SWAP3 ADD SWAP2 SWAP1 SWAP2 MSTORE SWAP4 SWAP3 POP POP POP JUMP JUMPDEST PUSH1 0xE0 DUP2 MSTORE PUSH1 0x0 PUSH2 0x4715 PUSH1 0xE0 DUP4 ADD DUP11 PUSH2 0x45CC JUMP JUMPDEST DUP3 DUP2 SUB PUSH1 0x20 DUP5 ADD MSTORE PUSH2 0x4727 DUP2 DUP11 PUSH2 0x45CC JUMP JUMPDEST SWAP1 POP DUP3 DUP2 SUB PUSH1 0x40 DUP5 ADD MSTORE PUSH2 0x473B DUP2 DUP10 PUSH2 0x45CC JUMP JUMPDEST SWAP1 POP DUP3 DUP2 SUB PUSH1 0x60 DUP5 ADD MSTORE PUSH2 0x474F DUP2 DUP9 PUSH2 0x45CC JUMP JUMPDEST SWAP1 POP DUP3 DUP2 SUB PUSH1 0x80 DUP5 ADD MSTORE PUSH2 0x4763 DUP2 DUP8 PUSH2 0x45CC JUMP JUMPDEST SWAP1 POP DUP5 ISZERO ISZERO PUSH1 0xA0 DUP5 ADD MSTORE DUP3 DUP2 SUB PUSH1 0xC0 DUP5 ADD MSTORE PUSH2 0x477F DUP2 DUP6 PUSH2 0x45CC JUMP JUMPDEST SWAP11 SWAP10 POP POP POP POP POP POP POP POP POP POP JUMP JUMPDEST PUSH1 0x0 PUSH2 0x120 DUP1 DUP4 MSTORE PUSH2 0x47A1 DUP2 DUP5 ADD DUP14 PUSH2 0x45CC JUMP JUMPDEST SWAP1 POP DUP3 DUP2 SUB PUSH1 0x20 DUP5 ADD MSTORE PUSH2 0x47B5 DUP2 DUP13 PUSH2 0x45CC JUMP JUMPDEST SWAP1 POP DUP3 DUP2 SUB PUSH1 0x40 DUP5 ADD MSTORE PUSH2 0x47C9 DUP2 DUP12 PUSH2 0x45CC JUMP JUMPDEST SWAP1 POP DUP3 DUP2 SUB PUSH1 0x60 DUP5 ADD MSTORE PUSH2 0x47DD DUP2 DUP11 PUSH2 0x45CC JUMP JUMPDEST SWAP1 POP DUP3 DUP2 SUB PUSH1 0x80 DUP5 ADD MSTORE PUSH2 0x47F1 DUP2 DUP10 PUSH2 0x45CC JUMP JUMPDEST SWAP1 POP DUP3 DUP2 SUB PUSH1 0xA0 DUP5 ADD MSTORE PUSH2 0x4805 DUP2 DUP9 PUSH2 0x45CC JUMP JUMPDEST SWAP1 POP DUP3 DUP2 SUB PUSH1 0xC0 DUP5 ADD MSTORE PUSH2 0x4819 DUP2 DUP8 PUSH2 0x45CC JUMP JUMPDEST SWAP1 POP DUP3 DUP2 SUB PUSH1 0xE0 DUP5 ADD MSTORE PUSH2 0x482D DUP2 DUP7 PUSH2 0x45CC JUMP JUMPDEST SWAP2 POP POP DUP3 PUSH2 0x100 DUP4 ADD MSTORE SWAP11 SWAP10 POP POP POP POP POP POP POP POP POP POP JUMP JUMPDEST PUSH1 0x0 PUSH2 0x100 DUP1 DUP4 MSTORE PUSH2 0x4859 DUP2 DUP5 ADD DUP13 PUSH2 0x45CC JUMP JUMPDEST SWAP1 POP DUP3 DUP2 SUB PUSH1 0x20 DUP5 ADD MSTORE PUSH2 0x486D DUP2 DUP12 PUSH2 0x45CC JUMP JUMPDEST SWAP1 POP DUP3 DUP2 SUB PUSH1 0x40 DUP5 ADD MSTORE PUSH2 0x4881 DUP2 DUP11 PUSH2 0x45CC JUMP JUMPDEST SWAP1 POP DUP3 DUP2 SUB PUSH1 0x60 DUP5 ADD MSTORE PUSH2 0x4895 DUP2 DUP10 PUSH2 0x45CC JUMP JUMPDEST SWAP1 POP DUP3 DUP2 SUB PUSH1 0x80 DUP5 ADD MSTORE PUSH2 0x48A9 DUP2 DUP9 PUSH2 0x45CC JUMP JUMPDEST SWAP1 POP DUP3 DUP2 SUB PUSH1 0xA0 DUP5 ADD MSTORE PUSH2 0x48BD DUP2 DUP8 PUSH2 0x45CC JUMP JUMPDEST SWAP1 POP DUP3 DUP2 SUB PUSH1 0xC0 DUP5 ADD MSTORE PUSH2 0x48D1 DUP2 DUP7 PUSH2 0x45CC JUMP JUMPDEST SWAP2 POP POP DUP3 PUSH1 0xE0 DUP4 ADD MSTORE SWAP10 SWAP9 POP POP POP POP POP POP POP POP POP JUMP JUMPDEST PUSH1 0xA0 DUP2 MSTORE PUSH1 0x0 PUSH2 0x48FA PUSH1 0xA0 DUP4 ADD DUP9 PUSH2 0x45CC JUMP JUMPDEST DUP3 DUP2 SUB PUSH1 0x20 DUP5 ADD MSTORE PUSH2 0x490C DUP2 DUP9 PUSH2 0x45CC JUMP JUMPDEST SWAP1 POP DUP3 DUP2 SUB PUSH1 0x40 DUP5 ADD MSTORE PUSH2 0x4920 DUP2 DUP8 PUSH2 0x45CC JUMP JUMPDEST SWAP1 POP DUP3 DUP2 SUB PUSH1 0x60 DUP5 ADD MSTORE PUSH2 0x4934 DUP2 DUP7 PUSH2 0x45CC JUMP JUMPDEST SWAP2 POP POP DUP3 PUSH1 0x80 DUP4 ADD MSTORE SWAP7 SWAP6 POP POP POP POP POP POP JUMP JUMPDEST PUSH1 0x80 DUP2 MSTORE PUSH1 0x0 PUSH2 0x495A PUSH1 0x80 DUP4 ADD DUP8 PUSH2 0x45CC JUMP JUMPDEST DUP3 DUP2 SUB PUSH1 0x20 DUP5 ADD MSTORE PUSH2 0x496C DUP2 DUP8 PUSH2 0x45CC JUMP JUMPDEST SWAP1 POP DUP3 DUP2 SUB PUSH1 0x40 DUP5 ADD MSTORE PUSH2 0x4980 DUP2 DUP7 PUSH2 0x45CC JUMP JUMPDEST SWAP2 POP POP DUP3 PUSH1 0x60 DUP4 ADD MSTORE SWAP6 SWAP5 POP POP POP POP POP JUMP JUMPDEST PUSH1 0x20 DUP1 DUP3 MSTORE PUSH1 0x13 SWAP1 DUP3 ADD MSTORE PUSH19 0x21B0B63632B91034B9902737BA1037BBB732B9 PUSH1 0x69 SHL PUSH1 0x40 DUP3 ADD MSTORE PUSH1 0x60 ADD SWAP1 JUMP JUMPDEST PUSH1 0x20 DUP1 DUP3 MSTORE PUSH1 0xC SWAP1 DUP3 ADD MSTORE PUSH12 0x24B73B30B634B2103AB9B2B9 PUSH1 0xA1 SHL PUSH1 0x40 DUP3 ADD MSTORE PUSH1 0x60 ADD SWAP1 JUMP JUMPDEST PUSH1 0x20 DUP1 DUP3 MSTORE PUSH1 0x31 SWAP1 DUP3 ADD MSTORE PUSH32 0x4F6E6C7920417574686F72697A656420616E64204F776E65722063616E207065 PUSH1 0x40 DUP3 ADD MSTORE PUSH17 0x393337B936903A3434B99030B1BA34B7B7 PUSH1 0x79 SHL PUSH1 0x60 DUP3 ADD MSTORE PUSH1 0x80 ADD SWAP1 JUMP JUMPDEST PUSH1 0x20 DUP1 DUP3 MSTORE PUSH1 0x17 SWAP1 DUP3 ADD MSTORE PUSH32 0x496E76616C6964207374657020746F2070726F63656564000000000000000000 PUSH1 0x40 DUP3 ADD MSTORE PUSH1 0x60 ADD SWAP1 JUMP JUMPDEST PUSH1 0x0 JUMPDEST DUP4 DUP2 LT ISZERO PUSH2 0x4A88 JUMPI DUP2 DUP2 ADD MLOAD DUP4 DUP3 ADD MSTORE PUSH1 0x20 ADD PUSH2 0x4A70 JUMP JUMPDEST DUP4 DUP2 GT ISZERO PUSH2 0x4A97 JUMPI PUSH1 0x0 DUP5 DUP5 ADD MSTORE JUMPDEST POP POP POP POP JUMP JUMPDEST PUSH1 0x1 DUP2 DUP2 SHR SWAP1 DUP3 AND DUP1 PUSH2 0x4AB1 JUMPI PUSH1 0x7F DUP3 AND SWAP2 POP JUMPDEST PUSH1 0x20 DUP3 LT DUP2 EQ ISZERO PUSH2 0x4AD2 JUMPI PUSH4 0x4E487B71 PUSH1 0xE0 SHL PUSH1 0x0 MSTORE PUSH1 0x22 PUSH1 0x4 MSTORE PUSH1 0x24 PUSH1 0x0 REVERT JUMPDEST POP SWAP2 SWAP1 POP JUMP JUMPDEST PUSH4 0x4E487B71 PUSH1 0xE0 SHL PUSH1 0x0 MSTORE PUSH1 0x41 PUSH1 0x4 MSTORE PUSH1 0x24 PUSH1 0x0 REVERT INVALID LOG2 PUSH5 0x6970667358 0x22 SLT KECCAK256 SWAP5 ADDMOD 0xD2 SHL 0x5E DUP1 0x21 DUP8 0xC3 0xAE DUP14 0xB3 REVERT 0xB5 CALLDATALOAD CREATE ADD 0xE ADDMOD MULMOD SLT INVALID SWAP15 MSTORE 0xE6 0xD KECCAK256 PUSH24 0xF4D797CE64736F6C6343000807003365794A6A6232317759 JUMPI CALLDATALOAD CALLDATALOAD SLOAD PUSH14 0x46745A534936496B56755A584A6E PUSH6 0x53424D5A5752 PUSH15 0x5A5849694C434A6A6232353059574E ADDRESS MLOAD JUMPI MSTORE PUSH12 0x636D567A63794936496C5654 MLOAD MSTORE8 0x4A CODECOPY "
		},
		"gasEstimates": {
			"creation": {
				"codeDepositCost": "3847200",
				"executionCost": "infinite",
				"totalCost": "infinite"
			},
			"external": {
				"admin()": "2447",
				"authorizeCaller(address)": "infinite",
				"authorizedCaller(address)": "2579",
				"createUserForAdmin(address,string,string,string,string,string,bool,string)": "infinite",
				"deAuthorizeCaller(address)": "infinite",
				"getActionFee()": "17247",
				"getAuditorData(address)": "infinite",
				"getBatchDetails(address)": "infinite",
				"getBatchNextAction(address)": "infinite",
				"getExporterData(address)": "infinite",
				"getImporterData(address)": "infinite",
				"getNextAction(address)": "infinite",
				"getOperatorData(address)": "infinite",
				"getProcessorData(address)": "infinite",
				"getRoles()": "infinite",
				"getTokenAddress()": "2411",
				"getUser(address)": "infinite",
				"getUserAddressRole(address)": "infinite",
				"getUserRole(uint256)": "infinite",
				"isAlreadyUser(address)": "2625",
				"lastAccess()": "2383",
				"owner()": "2383",
				"renounceOwnership()": "29895",
				"setActionFee(uint256,uint256,uint256,uint256,uint256,uint256,uint256,uint256)": "205872",
				"setBatchDetails(string,string,string,address,address,address,address,address)": "infinite",
				"setTokenAddress(address)": "53245",
				"transferOwnership(address)": "30488",
				"updateAuditData(address,string,string,string)": "infinite",
				"updateExporterData(address,string,string,string,string,string,string,string)": "infinite",
				"updateImporterData(address,string,string,string,string,string,string,string,string)": "infinite",
				"updateOperatorData(address,string,string,string,string)": "infinite",
				"updateProcessorData(address,string,string,string,string,string,string,string,string)": "infinite",
				"updateUser(string,string,string,string,string,bool,string)": "infinite",
				"updateUserForAdmin(address,string,string,string,string,string,bool,string)": "infinite"
			},
			"internal": {
				"setUser(address,string memory,string memory,string memory,string memory,string memory,bool,bool,string memory)": "infinite"
			}
		},
		"methodIdentifiers": {
			"admin()": "f851a440",
			"authorizeCaller(address)": "2c388d5d",
			"authorizedCaller(address)": "98f6ef12",
			"createUserForAdmin(address,string,string,string,string,string,bool,string)": "153c33f4",
			"deAuthorizeCaller(address)": "1bcd250a",
			"getActionFee()": "ec594254",
			"getAuditorData(address)": "5e1be8b4",
			"getBatchDetails(address)": "47916bf8",
			"getBatchNextAction(address)": "b658e624",
			"getExporterData(address)": "06ecd6d4",
			"getImporterData(address)": "febd0492",
			"getNextAction(address)": "4d6b5e00",
			"getOperatorData(address)": "ee3fa880",
			"getProcessorData(address)": "b6959d73",
			"getRoles()": "71061398",
			"getTokenAddress()": "10fe9ae8",
			"getUser(address)": "6f77926b",
			"getUserAddressRole(address)": "4fbda728",
			"getUserRole(uint256)": "eeadb280",
			"isAlreadyUser(address)": "9f468e8e",
			"lastAccess()": "3480898b",
			"owner()": "8da5cb5b",
			"renounceOwnership()": "715018a6",
			"setActionFee(uint256,uint256,uint256,uint256,uint256,uint256,uint256,uint256)": "d87f1b45",
			"setBatchDetails(string,string,string,address,address,address,address,address)": "ae8da9c9",
			"setTokenAddress(address)": "26a4e8d2",
			"transferOwnership(address)": "f2fde38b",
			"updateAuditData(address,string,string,string)": "e19cf725",
			"updateExporterData(address,string,string,string,string,string,string,string)": "85379d4d",
			"updateImporterData(address,string,string,string,string,string,string,string,string)": "9651122a",
			"updateOperatorData(address,string,string,string,string)": "0e57b052",
			"updateProcessorData(address,string,string,string,string,string,string,string,string)": "92b79432",
			"updateUser(string,string,string,string,string,bool,string)": "1528362d",
			"updateUserForAdmin(address,string,string,string,string,string,bool,string)": "94cee8de"
		}
	},
	"abi": [
		{
			"inputs": [
				{
					"internalType": "address",
					"name": "_tokenAddress",
					"type": "address"
				}
			],
			"stateMutability": "nonpayable",
			"type": "constructor"
		},
		{
			"anonymous": false,
			"inputs": [
				{
					"indexed": true,
					"internalType": "address",
					"name": "_operator",
					"type": "address"
				},
				{
					"indexed": false,
					"internalType": "bool",
					"name": "_isActive",
					"type": "bool"
				}
			],
			"name": "AuthorityUpdated",
			"type": "event"
		},
		{
			"anonymous": false,
			"inputs": [
				{
					"indexed": true,
					"internalType": "address",
					"name": "user",
					"type": "address"
				},
				{
					"indexed": true,
					"internalType": "address",
					"name": "batchNo",
					"type": "address"
				}
			],
			"name": "DoneBatchAudit",
			"type": "event"
		},
		{
			"anonymous": false,
			"inputs": [
				{
					"indexed": true,
					"internalType": "address",
					"name": "user",
					"type": "address"
				},
				{
					"indexed": true,
					"internalType": "address",
					"name": "batchNo",
					"type": "address"
				}
			],
			"name": "DoneBatchExporting",
			"type": "event"
		},
		{
			"anonymous": false,
			"inputs": [
				{
					"indexed": true,
					"internalType": "address",
					"name": "user",
					"type": "address"
				},
				{
					"indexed": true,
					"internalType": "address",
					"name": "batchNo",
					"type": "address"
				}
			],
			"name": "DoneBatchImporting",
			"type": "event"
		},
		{
			"anonymous": false,
			"inputs": [
				{
					"indexed": true,
					"internalType": "address",
					"name": "user",
					"type": "address"
				},
				{
					"indexed": true,
					"internalType": "address",
					"name": "batchNo",
					"type": "address"
				}
			],
			"name": "DoneBatchOperation",
			"type": "event"
		},
		{
			"anonymous": false,
			"inputs": [
				{
					"indexed": true,
					"internalType": "address",
					"name": "user",
					"type": "address"
				},
				{
					"indexed": true,
					"internalType": "address",
					"name": "batchNo",
					"type": "address"
				}
			],
			"name": "DoneBatchProcessing",
			"type": "event"
		},
		{
			"anonymous": false,
			"inputs": [
				{
					"indexed": true,
					"internalType": "address",
					"name": "previousOwner",
					"type": "address"
				}
			],
			"name": "OwnershipRenounced",
			"type": "event"
		},
		{
			"anonymous": false,
			"inputs": [
				{
					"indexed": true,
					"internalType": "address",
					"name": "previousOwner",
					"type": "address"
				},
				{
					"indexed": true,
					"internalType": "address",
					"name": "newOwner",
					"type": "address"
				}
			],
			"name": "OwnershipTransferred",
			"type": "event"
		},
		{
			"anonymous": false,
			"inputs": [
				{
					"indexed": true,
					"internalType": "address",
					"name": "user",
					"type": "address"
				},
				{
					"indexed": false,
					"internalType": "string",
					"name": "name",
					"type": "string"
				},
				{
					"indexed": false,
					"internalType": "string",
					"name": "email",
					"type": "string"
				},
				{
					"indexed": false,
					"internalType": "string",
					"name": "extraData",
					"type": "string"
				},
				{
					"indexed": false,
					"internalType": "string",
					"name": "contactNo",
					"type": "string"
				},
				{
					"indexed": false,
					"internalType": "string",
					"name": "role",
					"type": "string"
				},
				{
					"indexed": false,
					"internalType": "bool",
					"name": "isActive",
					"type": "bool"
				},
				{
					"indexed": false,
					"internalType": "string",
					"name": "profileHash",
					"type": "string"
				}
			],
			"name": "UserCreated",
			"type": "event"
		},
		{
			"anonymous": false,
			"inputs": [
				{
					"indexed": true,
					"internalType": "address",
					"name": "user",
					"type": "address"
				},
				{
					"indexed": false,
					"internalType": "string",
					"name": "role",
					"type": "string"
				}
			],
			"name": "UserRoleUpdated",
			"type": "event"
		},
		{
			"anonymous": false,
			"inputs": [
				{
					"indexed": true,
					"internalType": "address",
					"name": "user",
					"type": "address"
				},
				{
					"indexed": false,
					"internalType": "string",
					"name": "name",
					"type": "string"
				},
				{
					"indexed": false,
					"internalType": "string",
					"name": "email",
					"type": "string"
				},
				{
					"indexed": false,
					"internalType": "string",
					"name": "extraData",
					"type": "string"
				},
				{
					"indexed": false,
					"internalType": "string",
					"name": "contactNo",
					"type": "string"
				},
				{
					"indexed": false,
					"internalType": "string",
					"name": "role",
					"type": "string"
				},
				{
					"indexed": false,
					"internalType": "bool",
					"name": "isActive",
					"type": "bool"
				},
				{
					"indexed": false,
					"internalType": "string",
					"name": "profileHash",
					"type": "string"
				}
			],
			"name": "UserUpdated",
			"type": "event"
		},
		{
			"anonymous": false,
			"inputs": [
				{
					"indexed": true,
					"internalType": "address",
					"name": "user",
					"type": "address"
				},
				{
					"indexed": true,
					"internalType": "address",
					"name": "batchNo",
					"type": "address"
				}
			],
			"name": "performBatchAudit",
			"type": "event"
		},
		{
			"inputs": [],
			"name": "admin",
			"outputs": [
				{
					"internalType": "address",
					"name": "",
					"type": "address"
				}
			],
			"stateMutability": "view",
			"type": "function"
		},
		{
			"inputs": [
				{
					"internalType": "address",
					"name": "_caller",
					"type": "address"
				}
			],
			"name": "authorizeCaller",
			"outputs": [
				{
					"internalType": "bool",
					"name": "",
					"type": "bool"
				}
			],
			"stateMutability": "nonpayable",
			"type": "function"
		},
		{
			"inputs": [
				{
					"internalType": "address",
					"name": "",
					"type": "address"
				}
			],
			"name": "authorizedCaller",
			"outputs": [
				{
					"internalType": "uint8",
					"name": "",
					"type": "uint8"
				}
			],
			"stateMutability": "view",
			"type": "function"
		},
		{
			"inputs": [
				{
					"internalType": "address",
					"name": "_userAddress",
					"type": "address"
				},
				{
					"internalType": "string",
					"name": "_name",
					"type": "string"
				},
				{
					"internalType": "string",
					"name": "_email",
					"type": "string"
				},
				{
					"internalType": "string",
					"name": "_extraData",
					"type": "string"
				},
				{
					"internalType": "string",
					"name": "_contactNo",
					"type": "string"
				},
				{
					"internalType": "string",
					"name": "_role",
					"type": "string"
				},
				{
					"internalType": "bool",
					"name": "_isActive",
					"type": "bool"
				},
				{
					"internalType": "string",
					"name": "_profileHash",
					"type": "string"
				}
			],
			"name": "createUserForAdmin",
			"outputs": [
				{
					"internalType": "bool",
					"name": "",
					"type": "bool"
				}
			],
			"stateMutability": "nonpayable",
			"type": "function"
		},
		{
			"inputs": [
				{
					"internalType": "address",
					"name": "_caller",
					"type": "address"
				}
			],
			"name": "deAuthorizeCaller",
			"outputs": [
				{
					"internalType": "bool",
					"name": "",
					"type": "bool"
				}
			],
			"stateMutability": "nonpayable",
			"type": "function"
		},
		{
			"inputs": [],
			"name": "getActionFee",
			"outputs": [
				{
					"internalType": "uint256",
					"name": "_userAddFee",
					"type": "uint256"
				},
				{
					"internalType": "uint256",
					"name": "_userEditFee",
					"type": "uint256"
				},
				{
					"internalType": "uint256",
					"name": "_batchAddFee",
					"type": "uint256"
				},
				{
					"internalType": "uint256",
					"name": "_auditorBatchUpdateFee",
					"type": "uint256"
				},
				{
					"internalType": "uint256",
					"name": "_operatorBatchUpdateFee",
					"type": "uint256"
				},
				{
					"internalType": "uint256",
					"name": "_exporterBatchUpdateFee",
					"type": "uint256"
				},
				{
					"internalType": "uint256",
					"name": "_importerBatchUpdateFee",
					"type": "uint256"
				},
				{
					"internalType": "uint256",
					"name": "_processorBatchUpdateFee",
					"type": "uint256"
				}
			],
			"stateMutability": "view",
			"type": "function"
		},
		{
			"inputs": [
				{
					"internalType": "address",
					"name": "_batchNo",
					"type": "address"
				}
			],
			"name": "getAuditorData",
			"outputs": [
				{
					"internalType": "string",
					"name": "extractionMethod",
					"type": "string"
				},
				{
					"internalType": "string",
					"name": "oilClass",
					"type": "string"
				},
				{
					"internalType": "string",
					"name": "extraData",
					"type": "string"
				},
				{
					"internalType": "uint256",
					"name": "timeStamp",
					"type": "uint256"
				}
			],
			"stateMutability": "view",
			"type": "function"
		},
		{
			"inputs": [
				{
					"internalType": "address",
					"name": "_batchNo",
					"type": "address"
				}
			],
			"name": "getBatchDetails",
			"outputs": [
				{
					"internalType": "string",
					"name": "registrationNo",
					"type": "string"
				},
				{
					"internalType": "string",
					"name": "extractorName",
					"type": "string"
				},
				{
					"internalType": "string",
					"name": "extractorAddress",
					"type": "string"
				},
				{
					"internalType": "address",
					"name": "auditorAddress",
					"type": "address"
				},
				{
					"internalType": "address",
					"name": "operatorAddress",
					"type": "address"
				},
				{
					"internalType": "address",
					"name": "exporterAddress",
					"type": "address"
				},
				{
					"internalType": "address",
					"name": "importerAddress",
					"type": "address"
				},
				{
					"internalType": "address",
					"name": "processorAddress",
					"type": "address"
				}
			],
			"stateMutability": "view",
			"type": "function"
		},
		{
			"inputs": [
				{
					"internalType": "address",
					"name": "_batchNo",
					"type": "address"
				}
			],
			"name": "getBatchNextAction",
			"outputs": [
				{
					"internalType": "string",
					"name": "",
					"type": "string"
				}
			],
			"stateMutability": "view",
			"type": "function"
		},
		{
			"inputs": [
				{
					"internalType": "address",
					"name": "_batchNo",
					"type": "address"
				}
			],
			"name": "getExporterData",
			"outputs": [
				{
					"internalType": "string",
					"name": "quantity",
					"type": "string"
				},
				{
					"internalType": "string",
					"name": "destinationAddress",
					"type": "string"
				},
				{
					"internalType": "string",
					"name": "shipNo",
					"type": "string"
				},
				{
					"internalType": "string",
					"name": "shipName",
					"type": "string"
				},
				{
					"internalType": "string",
					"name": "estimateDateTime",
					"type": "string"
				},
				{
					"internalType": "string",
					"name": "exporterId",
					"type": "string"
				},
				{
					"internalType": "string",
					"name": "extraData",
					"type": "string"
				},
				{
					"internalType": "uint256",
					"name": "timeStamp",
					"type": "uint256"
				}
			],
			"stateMutability": "view",
			"type": "function"
		},
		{
			"inputs": [
				{
					"internalType": "address",
					"name": "_batchNo",
					"type": "address"
				}
			],
			"name": "getImporterData",
			"outputs": [
				{
					"internalType": "string",
					"name": "quantity",
					"type": "string"
				},
				{
					"internalType": "string",
					"name": "shipNo",
					"type": "string"
				},
				{
					"internalType": "string",
					"name": "shipName",
					"type": "string"
				},
				{
					"internalType": "string",
					"name": "transportInfo",
					"type": "string"
				},
				{
					"internalType": "string",
					"name": "terminalName",
					"type": "string"
				},
				{
					"internalType": "string",
					"name": "terminalCoordinates",
					"type": "string"
				},
				{
					"internalType": "string",
					"name": "importerId",
					"type": "string"
				},
				{
					"internalType": "string",
					"name": "extraData",
					"type": "string"
				},
				{
					"internalType": "uint256",
					"name": "timeStamp",
					"type": "uint256"
				}
			],
			"stateMutability": "view",
			"type": "function"
		},
		{
			"inputs": [
				{
					"internalType": "address",
					"name": "_batchNo",
					"type": "address"
				}
			],
			"name": "getNextAction",
			"outputs": [
				{
					"internalType": "string",
					"name": "action",
					"type": "string"
				}
			],
			"stateMutability": "view",
			"type": "function"
		},
		{
			"inputs": [
				{
					"internalType": "address",
					"name": "_batchNo",
					"type": "address"
				}
			],
			"name": "getOperatorData",
			"outputs": [
				{
					"internalType": "string",
					"name": "hydrocarbonVariety",
					"type": "string"
				},
				{
					"internalType": "string",
					"name": "operatorAbi",
					"type": "string"
				},
				{
					"internalType": "string",
					"name": "gravity",
					"type": "string"
				},
				{
					"internalType": "string",
					"name": "extraData",
					"type": "string"
				},
				{
					"internalType": "uint256",
					"name": "timeStamp",
					"type": "uint256"
				}
			],
			"stateMutability": "view",
			"type": "function"
		},
		{
			"inputs": [
				{
					"internalType": "address",
					"name": "_batchNo",
					"type": "address"
				}
			],
			"name": "getProcessorData",
			"outputs": [
				{
					"internalType": "string",
					"name": "quantity",
					"type": "string"
				},
				{
					"internalType": "string",
					"name": "temperature",
					"type": "string"
				},
				{
					"internalType": "string",
					"name": "fuelGrade",
					"type": "string"
				},
				{
					"internalType": "string",
					"name": "internalBatchNo",
					"type": "string"
				},
				{
					"internalType": "string",
					"name": "packagingDateTime",
					"type": "string"
				},
				{
					"internalType": "string",
					"name": "processorName",
					"type": "string"
				},
				{
					"internalType": "string",
					"name": "processorAddress",
					"type": "string"
				},
				{
					"internalType": "string",
					"name": "extraData",
					"type": "string"
				},
				{
					"internalType": "uint256",
					"name": "timeStamp",
					"type": "uint256"
				}
			],
			"stateMutability": "view",
			"type": "function"
		},
		{
			"inputs": [],
			"name": "getRoles",
			"outputs": [
				{
					"internalType": "string[]",
					"name": "",
					"type": "string[]"
				}
			],
			"stateMutability": "view",
			"type": "function"
		},
		{
			"inputs": [],
			"name": "getTokenAddress",
			"outputs": [
				{
					"internalType": "address",
					"name": "_tokenAddress",
					"type": "address"
				}
			],
			"stateMutability": "view",
			"type": "function"
		},
		{
			"inputs": [
				{
					"internalType": "address",
					"name": "_userAddress",
					"type": "address"
				}
			],
			"name": "getUser",
			"outputs": [
				{
					"internalType": "string",
					"name": "name",
					"type": "string"
				},
				{
					"internalType": "string",
					"name": "email",
					"type": "string"
				},
				{
					"internalType": "string",
					"name": "extraData",
					"type": "string"
				},
				{
					"internalType": "string",
					"name": "contactNo",
					"type": "string"
				},
				{
					"internalType": "string",
					"name": "role",
					"type": "string"
				},
				{
					"internalType": "bool",
					"name": "isActive",
					"type": "bool"
				},
				{
					"internalType": "string",
					"name": "profileHash",
					"type": "string"
				}
			],
			"stateMutability": "view",
			"type": "function"
		},
		{
			"inputs": [
				{
					"internalType": "address",
					"name": "_userAddress",
					"type": "address"
				}
			],
			"name": "getUserAddressRole",
			"outputs": [
				{
					"internalType": "string",
					"name": "",
					"type": "string"
				}
			],
			"stateMutability": "view",
			"type": "function"
		},
		{
			"inputs": [
				{
					"internalType": "uint256",
					"name": "",
					"type": "uint256"
				}
			],
			"name": "getUserRole",
			"outputs": [
				{
					"internalType": "string",
					"name": "",
					"type": "string"
				}
			],
			"stateMutability": "view",
			"type": "function"
		},
		{
			"inputs": [
				{
					"internalType": "address",
					"name": "_userAddress",
					"type": "address"
				}
			],
			"name": "isAlreadyUser",
			"outputs": [
				{
					"internalType": "bool",
					"name": "",
					"type": "bool"
				}
			],
			"stateMutability": "view",
			"type": "function"
		},
		{
			"inputs": [],
			"name": "lastAccess",
			"outputs": [
				{
					"internalType": "address",
					"name": "",
					"type": "address"
				}
			],
			"stateMutability": "view",
			"type": "function"
		},
		{
			"inputs": [],
			"name": "owner",
			"outputs": [
				{
					"internalType": "address",
					"name": "",
					"type": "address"
				}
			],
			"stateMutability": "view",
			"type": "function"
		},
		{
			"inputs": [],
			"name": "renounceOwnership",
			"outputs": [],
			"stateMutability": "nonpayable",
			"type": "function"
		},
		{
			"inputs": [
				{
					"internalType": "uint256",
					"name": "_userAddFee",
					"type": "uint256"
				},
				{
					"internalType": "uint256",
					"name": "_userEditFee",
					"type": "uint256"
				},
				{
					"internalType": "uint256",
					"name": "_batchAddFee",
					"type": "uint256"
				},
				{
					"internalType": "uint256",
					"name": "_auditorBatchUpdateFee",
					"type": "uint256"
				},
				{
					"internalType": "uint256",
					"name": "_operatorBatchUpdateFee",
					"type": "uint256"
				},
				{
					"internalType": "uint256",
					"name": "_exporterBatchUpdateFee",
					"type": "uint256"
				},
				{
					"internalType": "uint256",
					"name": "_importerBatchUpdateFee",
					"type": "uint256"
				},
				{
					"internalType": "uint256",
					"name": "_processorBatchUpdateFee",
					"type": "uint256"
				}
			],
			"name": "setActionFee",
			"outputs": [],
			"stateMutability": "nonpayable",
			"type": "function"
		},
		{
			"inputs": [
				{
					"internalType": "string",
					"name": "_registrationNo",
					"type": "string"
				},
				{
					"internalType": "string",
					"name": "_extractorName",
					"type": "string"
				},
				{
					"internalType": "string",
					"name": "_extractorAddress",
					"type": "string"
				},
				{
					"internalType": "address",
					"name": "_auditorAddress",
					"type": "address"
				},
				{
					"internalType": "address",
					"name": "_operatorAddress",
					"type": "address"
				},
				{
					"internalType": "address",
					"name": "_exporterAddress",
					"type": "address"
				},
				{
					"internalType": "address",
					"name": "_importerAddress",
					"type": "address"
				},
				{
					"internalType": "address",
					"name": "_processorAddress",
					"type": "address"
				}
			],
			"name": "setBatchDetails",
			"outputs": [
				{
					"internalType": "address",
					"name": "",
					"type": "address"
				}
			],
			"stateMutability": "nonpayable",
			"type": "function"
		},
		{
			"inputs": [
				{
					"internalType": "address",
					"name": "_tokenAddress",
					"type": "address"
				}
			],
			"name": "setTokenAddress",
			"outputs": [],
			"stateMutability": "nonpayable",
			"type": "function"
		},
		{
			"inputs": [
				{
					"internalType": "address",
					"name": "newOwner",
					"type": "address"
				}
			],
			"name": "transferOwnership",
			"outputs": [],
			"stateMutability": "nonpayable",
			"type": "function"
		},
		{
			"inputs": [
				{
					"internalType": "address",
					"name": "_batchNo",
					"type": "address"
				},
				{
					"internalType": "string",
					"name": "_extractionMethod",
					"type": "string"
				},
				{
					"internalType": "string",
					"name": "_oilClass",
					"type": "string"
				},
				{
					"internalType": "string",
					"name": "_extraData",
					"type": "string"
				}
			],
			"name": "updateAuditData",
			"outputs": [
				{
					"internalType": "bool",
					"name": "",
					"type": "bool"
				}
			],
			"stateMutability": "nonpayable",
			"type": "function"
		},
		{
			"inputs": [
				{
					"internalType": "address",
					"name": "_batchNo",
					"type": "address"
				},
				{
					"internalType": "string",
					"name": "_quantity",
					"type": "string"
				},
				{
					"internalType": "string",
					"name": "_destinationAddress",
					"type": "string"
				},
				{
					"internalType": "string",
					"name": "_shipNo",
					"type": "string"
				},
				{
					"internalType": "string",
					"name": "_shipName",
					"type": "string"
				},
				{
					"internalType": "string",
					"name": "_estimateDateTime",
					"type": "string"
				},
				{
					"internalType": "string",
					"name": "_exporterId",
					"type": "string"
				},
				{
					"internalType": "string",
					"name": "_extraData",
					"type": "string"
				}
			],
			"name": "updateExporterData",
			"outputs": [
				{
					"internalType": "bool",
					"name": "",
					"type": "bool"
				}
			],
			"stateMutability": "nonpayable",
			"type": "function"
		},
		{
			"inputs": [
				{
					"internalType": "address",
					"name": "_batchNo",
					"type": "address"
				},
				{
					"internalType": "string",
					"name": "_quantity",
					"type": "string"
				},
				{
					"internalType": "string",
					"name": "_shipNo",
					"type": "string"
				},
				{
					"internalType": "string",
					"name": "_shipName",
					"type": "string"
				},
				{
					"internalType": "string",
					"name": "_transportInfo",
					"type": "string"
				},
				{
					"internalType": "string",
					"name": "_terminalName",
					"type": "string"
				},
				{
					"internalType": "string",
					"name": "_terminalCoordinates",
					"type": "string"
				},
				{
					"internalType": "string",
					"name": "_importerId",
					"type": "string"
				},
				{
					"internalType": "string",
					"name": "_extraData",
					"type": "string"
				}
			],
			"name": "updateImporterData",
			"outputs": [
				{
					"internalType": "bool",
					"name": "",
					"type": "bool"
				}
			],
			"stateMutability": "nonpayable",
			"type": "function"
		},
		{
			"inputs": [
				{
					"internalType": "address",
					"name": "_batchNo",
					"type": "address"
				},
				{
					"internalType": "string",
					"name": "_hydrocarbonVariety",
					"type": "string"
				},
				{
					"internalType": "string",
					"name": "_operatorAbi",
					"type": "string"
				},
				{
					"internalType": "string",
					"name": "_gravity",
					"type": "string"
				},
				{
					"internalType": "string",
					"name": "_extraData",
					"type": "string"
				}
			],
			"name": "updateOperatorData",
			"outputs": [
				{
					"internalType": "bool",
					"name": "",
					"type": "bool"
				}
			],
			"stateMutability": "nonpayable",
			"type": "function"
		},
		{
			"inputs": [
				{
					"internalType": "address",
					"name": "_batchNo",
					"type": "address"
				},
				{
					"internalType": "string",
					"name": "_quantity",
					"type": "string"
				},
				{
					"internalType": "string",
					"name": "_temperature",
					"type": "string"
				},
				{
					"internalType": "string",
					"name": "_fuelGrade",
					"type": "string"
				},
				{
					"internalType": "string",
					"name": "_internalBatchNo",
					"type": "string"
				},
				{
					"internalType": "string",
					"name": "_packagingDateTime",
					"type": "string"
				},
				{
					"internalType": "string",
					"name": "_processorName",
					"type": "string"
				},
				{
					"internalType": "string",
					"name": "_processorAddress",
					"type": "string"
				},
				{
					"internalType": "string",
					"name": "_extraData",
					"type": "string"
				}
			],
			"name": "updateProcessorData",
			"outputs": [
				{
					"internalType": "bool",
					"name": "",
					"type": "bool"
				}
			],
			"stateMutability": "nonpayable",
			"type": "function"
		},
		{
			"inputs": [
				{
					"internalType": "string",
					"name": "_name",
					"type": "string"
				},
				{
					"internalType": "string",
					"name": "_email",
					"type": "string"
				},
				{
					"internalType": "string",
					"name": "_extraData",
					"type": "string"
				},
				{
					"internalType": "string",
					"name": "_contactNo",
					"type": "string"
				},
				{
					"internalType": "string",
					"name": "_role",
					"type": "string"
				},
				{
					"internalType": "bool",
					"name": "_isActive",
					"type": "bool"
				},
				{
					"internalType": "string",
					"name": "_profileHash",
					"type": "string"
				}
			],
			"name": "updateUser",
			"outputs": [
				{
					"internalType": "bool",
					"name": "",
					"type": "bool"
				}
			],
			"stateMutability": "nonpayable",
			"type": "function"
		},
		{
			"inputs": [
				{
					"internalType": "address",
					"name": "_userAddress",
					"type": "address"
				},
				{
					"internalType": "string",
					"name": "_name",
					"type": "string"
				},
				{
					"internalType": "string",
					"name": "_email",
					"type": "string"
				},
				{
					"internalType": "string",
					"name": "_extraData",
					"type": "string"
				},
				{
					"internalType": "string",
					"name": "_contactNo",
					"type": "string"
				},
				{
					"internalType": "string",
					"name": "_role",
					"type": "string"
				},
				{
					"internalType": "bool",
					"name": "_isActive",
					"type": "bool"
				},
				{
					"internalType": "string",
					"name": "_profileHash",
					"type": "string"
				}
			],
			"name": "updateUserForAdmin",
			"outputs": [
				{
					"internalType": "bool",
					"name": "",
					"type": "bool"
				}
			],
			"stateMutability": "nonpayable",
			"type": "function"
		}
	]
}